:020000020000FC
:100000000C9456000C945A200C945A200C945A20AC
:100010000C945A200C945A200C945A200C945A2078
:100020000C945A200C945A200C9455350C948F350E
:100030000C9420060C945A200C945A200C945A20AC
:100040000C945A200C945A200C945A200C945A2048
:100050000C945A200C94E3130C945A200C945A20BC
:100060000C945A200C945A200C945A200C945A2028
:100070000C94FD100C945A200C945A200C945A2085
:100080000C945A200C945A200C945A200C945A2008
:100090000C945A200C945A200C942A130C945A2035
:1000A0000C945A200C945A200C945A20A8950FEFC7
:1000B0000DBF0AE00EBF0E94860A0E94D302789408
:1000C0000E949401CC240E9468000E94C800F7CFCF
:1000D0004EE30E948E20CFE5DAE00E9477203D308B
:1000E00021F4F198F0980C948000323229F4F099C0
:1000F00002C0F09A01C0F098333211F4F09BF19AEB
:100100000F93C0360AE0D0070F9121F447E00E9418
:100110008E20E3CF3531E9F0383069F13F3759F1BE
:100120003A30D9F23930C9F2F19B38833D3009F4C5
:1001300008950F93CA3F09E0D0070F9121F447E0DB
:100140000E948E20CACFF19B2197432F0E949B01D2
:10015000C4CFEF93FF93EFE5FAE0EC1BFD0B2E2EDF
:10016000E4E1FDE30E94BB012A94D1F7CFE5DAE098
:10017000FF91EF91B2CF0F93CF350AE0D0070F91E7
:1001800031F033273993E4E1FDE30E94BB01A5CFB1
:10019000CFE5DAE038810E946001023011F40C945E
:1001A00032060E949401A16002C0AE7FBF7B8DB772
:1001B0009EB70F938F3A0AE090070F9110F40C94BA
:1001C000120A0E942A015D3021F4B2FD0E946605E8
:1001D0001BC05B33C9F0032D023021F4FCD20E9416
:1001E0003E02E5CF7F756F755F75053041F0413098
:1001F00031F4032D033019F40E942602D8CF0E9457
:1002000006015D3009F00895A1600895E4E6F4E385
:100210000E941E01071671F40E941E01061659F471
:100220000E941E01051641F431960591F491E02FCC
:1002300009950895319631963096EACF05900020C1
:1002400041F41490112029F400E00093620A0C9408
:10025000440A089570EF60EF41E038810E94600128
:10026000013019F40E945201F5CF532F0E94520120
:100270003D30A1F03D2C38813D3081F00E9460017D
:100280003D1439F40E94A3050E9452014395433066
:1002900091F738810E9460013D1409F008950E9491
:1002A0005201F7CF0F93C93F09E0D0070F9131F406
:1002B00004E00093620A0C94440A0895219708957B
:1002C0003F9300273D3011F40C9486013F75303088
:1002D00011F40C946D013C3011F401E018C032307F
:1002E00011F405E014C0303411F405E010C03031D1
:1002F0000AF40DC03B350AF00AC0303412F003E0B6
:1003000006C03A3112F41AF402E001C004E0D02E23
:100310003F9108950E9430098F93492F0E948E20AB
:100320004F910E948E2008954DE00E948E204AE059
:100330000E948E2008954D3011F4F6DF08950C943C
:100340008E20472F0E94AB01462F0E94AB01452F04
:100350000E94AB0108954F93407F4295405D0E94FB
:100360008E204F914F70405D0E948E2008950E9414
:10037000BB01DADF08954591442309F40895483F0D
:1003800019F40E94FA01F7CF493F29F415904591DD
:100390000E942102F0CF4A3F11F4C6DFECCF4B3F61
:1003A00041F4EF93FF93E8E3FEE3E5DFFF91EF9184
:1003B000E2CF4C3F41F4EF93FF93E6E0FEE3DBDF57
:1003C000FF91EF91D8CF4D3F41F4EF93FF93ECE1D4
:1003D000FEE3D1DFFF91EF91CECF4E3F41F4EF939B
:1003E000FF93E2E2FEE3C7DFFF91EF91C4CF0E94EB
:1003F0008E20C1CF0F93EF93FF93112445914A3084
:10040000A1F04D3091F04A3F81F0493F71F04C3FEF
:1004100011F404E1100E4D3F11F405E0100E4E3FB3
:1004200011F40CE0100E1394E9CF1A9446E3141A59
:100430001194169440E20E942102FF91EF910F91D6
:1004400008950E948E201A94E1F7089551545A316C
:100450002AF005E00093620A0C94440AA0FF21F4FC
:100460000E943E02A2600895E8E8F9E06627E50FE1
:10047000F61F50810E943E02AD7F08950F9300E267
:100480000C1511F40C94080A1F921124E1EEF9E006
:10049000EC19F1095083C39423951F900F9108958F
:1004A000CC2011F40C940D0A1F921124E2EEF9E015
:1004B000EC19F1095081CA942A951F900895EF9381
:1004C000FF9304E00B1511F40C94120A32E00B2D8B
:1004D000039FEAEEF9E0E019F109D293C293B394D5
:1004E000FF91EF910895EF93FF93BB2011F40C94CB
:1004F0000D0A32E00B2D039FEAEEF9E0E019F10955
:10050000C191D081BA94FF91EF910895EF93FF9339
:1005100004E00A1511F40C94120A34E00A2D039F2A
:10052000EAEFF9E0E019F109629272924292529276
:10053000A394FF91EF910895EF93FF93AA2011F4F4
:100540000C940D0A34E00A2D0A95039FEAEFF9E0B6
:10055000E019F1096290729042905290FF91EF91F0
:1005600008959EDF0E944D0401E0552319F0000F0D
:100570005A95E9F7502F0C945410703049F0705D83
:10058000472F0E948E20603019F440E30E948E2095
:10059000603021F0605D462F0E948E20505D452F17
:1005A0000E948E200895ECE6F9E3E1DE0895BCDEBA
:1005B000E7E8F9E0C091600AD091610AEC17FD0705
:1005C00021F04081B8DE3197F9CFAEDEADDE99E0A3
:1005D00087E87091600A6091610A871B960B0E9400
:1005E0000F09AFDEE4EFFCE3C6DE8091600A909174
:1005F000610A805091400E940F09A3DEE4E0FDE310
:10060000BADE0895B0680E944C1005E0301651F033
:1006100047DF0E944609B1DF40E20E948E2022237C
:10062000B9F782DEBF770895B0680E944C1044E2AB
:100630000E948E2035DF852F6DDE40E20E948E20E5
:100640002223A9F771DEBF770895B0680E944C108D
:1006500027DF78E040E3551F08F441E30E948E2035
:100660007A95C1F740E20E948E20222389F75CDE52
:10067000BF770895488116DE423239F04E3719F0BF
:100680000E948E20F7CF50DEF5CF08950E944710CC
:10069000E8E8F9E06627E50FF61F00830895B5FF47
:1006A0000C94960F0E944210452EFADE052FF8DEBC
:1006B000552E6627E8E8F9E0E50FF61F0083A062F3
:1006C000AE7FBF7D08950E944210552309F4A460B7
:1006D00008950F910F910895B0620895E8E8F9E048
:1006E000552D6627E50FF61F0081041521F00395AF
:1006F0000083A0610895AA9409F01EDF089555DDD6
:100700000895B16008959881CDDD8881382FD8DDB6
:10071000013029F0043019F0C5DD0C949103892FC4
:1007200099270E943D09582FA9DE3FDD08950981D0
:10073000073211F00C940D0C552708E0202E88810B
:10074000B1DD382FBDDD302E023019F0CF5FDF4F25
:1007500007C08894317030FD0894551F2A9479F7AA
:100760008DDE23DD08950CE10093620A0C94440AA7
:10077000CF93DF930E9442100AE0F798889500001B
:10078000F79BFBCF0A95C9F75A95B1F70C94511016
:10079000552774DE0E94421001E005174AF00AB5A1
:1007A0000F770ABD50FF08950AB500680ABD089585
:1007B0000C941C0A04B7077F04BF0E9445340E94B2
:1007C000E20508E1009360000EE000936000F894F9
:1007D0008895000008957F706F705F700E945309C4
:1007E00008950E944210452FE7E8F9E08091600AE1
:1007F0009091610A0C940604F91711F48E17C8F44D
:1008000000810D3011F03197F7CF319755276627CA
:100810007727F91711F48E1760F4308151DD02301B
:1008200021F40E94A3053197F4CFD5DF451721F7B6
:10083000089509E00093620A0C94440AD2DFEF01A4
:100840000895CFDFA06C0895B3FF0C942904A8602D
:100850000895B1600895488125DD4D30E1F7089590
:100860000E944210452F0E948E200895E7E8F9E08B
:10087000F093610AE093600ACC24AA27BB270FB744
:100880000F93F8940E94FA050E9400060F910FBF83
:100890004BDDECE1F9E36BDD0895583008F4089581
:1008A0000C94170A543008F408950C94210A52301D
:1008B00008F408950C941C0ACF93DF930E944C1007
:1008C000C0E0D0E00E94FC08222331F0213039F052
:1008D000223081F00C94300A502FD0DD24C0E0DDAE
:1008E000DCDF552319F006955A95E9F751E000FF32
:1008F0005527F3CF702FD4DDC1EED9E00881083041
:1009000069F0D5DF652FCCDDC8DFB8DD2ADECC2469
:1009100060FD03C05095572301C0572B052FC0E041
:10092000D0E00E9403090C945110B7FD0DC0A1FD49
:100930000BC00E94E20FB4DD55231AF0EEEDFDE38B
:1009400002C0EEE5FDE317DD5AE20C945410CF939C
:10095000DF930E94090640E20E948E20E4E6F4E361
:10096000D2E3C4E07591772309F443C065915591B2
:10097000643521F45F34A1F470E220C0693421F4BD
:10098000563471F470E21AC06F3451F4523541F4A8
:100990007735A1F0783591F0763481F070E20EC0B1
:1009A000503439F05E352CF45C3514F4503334F4A3
:1009B000505E70E260330AF06627605E472F0E9447
:1009C0008E20462F0E948E20452F0E948E2040E2CE
:1009D0000E948E203396D45022F6A6DC1F9211245A
:1009E0000E9405351F900E94D40540E20E948E208F
:1009F000B7CF9ADC0E9409060C9451100BB500FD8C
:100A00000EC0D3DBCC2059F04BDD03E0051714F406
:100A10000C94300AB4600E94FA050E949407BB242B
:100A2000AA240BB50E7F0BBDB460C7E8D9E00E94C5
:100A30006605CC24A1600E94B120A6FF02C03FDD64
:100A4000AF7BA7FF03C0EF01B860AF77A3FF05C07E
:100A50004ADDBB2009F4B77FA77FA5FF03C03E0195
:100A600055DDAF7DA4FF02C0E301AF7EB0FF07C03C
:100A70000E948C05C091600AD091610ABE7F80916E
:100A8000600A9091610A8C1B9D0B78F4388118DC08
:100A9000A2FF04C0043011F02197CBCFAB7F02300E
:100AA00011F42197C6CF83DBC4CF00E00093630A23
:100AB000BB7FC0E0D0E00E94FC0800FF0895809159
:100AC000AC0A882311F40E94D52008950091610A90
:100AD000D01729F40091600AC01709F40895CF9344
:100AE000DF93DF923F93662755273881E9DB023099
:100AF00029F00E9453095093630A05C00E94A30580
:100B00005F702197F2CF0BB503FF02C066D00CDCFB
:100B10003F91DF900C9451101F9211240E94933446
:100B20001F90ECEEFCE327DC089554EBE0E0F1E0ED
:100B3000019150270F93EF3F0AE0F0070F91C1F7A3
:100B40005093660A0895762F652F532F08957727BF
:100B5000662755270895DF93D2E0DA950000E9F77C
:100B6000DF910895DF93D5E0F6DFDA95E9F7DF91BD
:100B70000895DF93DAE0EFDFDA95E9F7DF91089582
:100B8000DF93D4E6E8DFDA95E9F7DF910895CF93B4
:100B9000DF93D3E6C3E1CA950000E9F7DA950000D8
:100BA000C9F7DF91CF9108950F930AE0F0DF0A951E
:100BB000E9F70F9108950F930AE0F6DF0A95E9F738
:100BC0000F9108950F93CF93DF9304E6EDDF0A951D
:100BD000E9F7DF91CF910F910895E0E3FEE3CBDBDE
:100BE000CF93DF93DD27C091630A0E94C709DF918D
:100BF000CF910895E0E0F1E098E088E8002705C093
:100C0000E8E8F9E090E08AE1002701930197E9F72D
:100C10000895EAEEFBE3AFDB0895F8940091E2005B
:100C2000002329F00093AD0A00E00093E2007894DD
:100C30000895F8940091AD0A0093E2007894089525
:100C400008E10093600000E000936000F59A1895B9
:100C500004E00093620A0C94440A0BE00093620AD9
:100C60000C94440A44270E941A075430B0F780912C
:100C7000600A9091610A0F93873809E090070F91FD
:100C800009F45BC0CFE5DAE062DF0F93C93F09E00A
:100C9000D0070F91EAF2388113DB023029F4762F66
:100CA000652F532F2197F1CF96DD452EE091600AF5
:100CB000F091610A4C7F4BDF552431960F93E83851
:100CC00009E0F0070F9191F03081FADA043071F009
:100CD000023089F75394562F672F732FEECF0F935F
:100CE000E83809E0F0070F9131F70895052D03303A
:100CF00029F05394562F672F70E0F8CF41FD02C0C2
:100D00004260D9CF68DD4516A9F110F441603F017A
:100D10000F93E83809E0F0070F9111F440FF0DC080
:100D200040FFDDCF541508F455C00F93E83809E0B3
:100D3000F0070F9109F44EC0D2CF0E941A0700307D
:100D400009F40895CFE5DAE0E091600AF091610AD4
:100D50000F93E03001E0F0070F9109F436C00881ED
:100D60000083319721970D3099F7F093610AE09352
:100D7000600A08953197EF010F93E03001E0F0072A
:100D80000F9109F465CF088121970D30A9F7BF01B4
:100D90006C1B7D0B8091600A9091610A860F971FF2
:100DA0009093610A8093600A0F93E03001E0F007AE
:100DB0000F9129F00881008321973197F5CF0E9488
:100DC0001A07003009F04ECF089502E00093620A3E
:100DD0000C94440A0E941A07003059F10091610AEC
:100DE000013029F40091600A0050081770F3E09177
:100DF000600AF091610ADF2FCE2FC81BD040D0933C
:100E0000610AC093600AF71519F4E61509F405C0E4
:100E10000081088321963196F6CFCFE5DAE0F72DF1
:100E2000E62D3197088100830D3019F03197219715
:100E3000F9CF0895CFE5DAE05527882799274B7F2A
:100E40003881219783953D3041F03ADA023039F00C
:100E500044600130A9F39395F3CF092F089542FF21
:100E60005395EECFCFE5DAE0E03009F0AECF088160
:100E70000083319721970D30B9F7F093610AE09321
:100E8000600A0895AF93BF935527F8DA0E94421085
:100E9000543014F00C94300A91D0A7E8B9E0E091F6
:100EA000600AF091610AAE1BBF0BAF5FBF4FB5DEAA
:100EB0006CD1EA1BFB0BBF91AF9130F4BADEE0E9D5
:100EC000FCE355DA0C949207ECEBFCE354DA852F43
:100ED00021DA2ADA00E00093790A48D11124C8E126
:100EE000D0E0C50FD11D022D8ED1E8E8F9E001E078
:100EF0003EE1CAE7DAE0099302910993002371F019
:100F00003A95D1F733D128822F920091780A009335
:100F1000790AC8D00F910093790AE9CF09933A95DD
:100F2000E9F7C0D086DE0895B2FD06C05527A6DADF
:100F30003CD9B6DA54306CF599DCECECFCE31BDA06
:100F4000852FE8D9F1D902D116F40C942B0A3091EF
:100F50007B0AB6D9025011F00C942B0A5EDEE8E849
:100F6000F9E03EE1CBE7DAE00991002341F002939A
:100F70003A95D1F708810093790A90D0F2CF319752
:100F8000CC24F093610AE093600A53DEB2FF1EDBCB
:100F900008950C94300ACF93DF933FE13093790AA0
:100FA0009FD03A95D9F7ABD00C945110552766DAFB
:100FB000FCD876DA543014F00C94300ADD27C52FB3
:100FC000C85EDF4F19D1002309F408950093790A10
:100FD000BDD086D0CAE7DAE00F8D0093790A0023EE
:100FE00021F0009511F05AD0F4CF97D00895CF9307
:100FF000DF935527852F8ED94AE30E948E2040E249
:101000000CDE0E94DA08CF015F930E940F0911DE07
:101010009BD9E2EEFCE3AFD90F93503000E06007BC
:101020000F9129F4ECEDFCE3A6D95F9112C05F911A
:101030008DD0CBE7DAE06EE149910E948E204D30F1
:1010400041F06A9509F0F8CF48814093790A26D09B
:10105000F0CF6AD911240E940535A6DD539554308E
:1010600009F0C8CF61D9D9DD0E94C508EF93FF937D
:101070009D2F8C2F0E940F09DCDD66D9E4EFFCE385
:101080007AD9CBDD9F918F910E940F09D2DD5CD977
:10109000E4E0FDE370D948D90C9451100AB50F7DF6
:1010A0000ABD03C00AB500620ABDCF93DF93EF9378
:1010B000FF9300E2202EEAE7FAE00091790A19D0C6
:1010C0000AB505FF03C001919ED002C095D00193DF
:1010D000CF5FDF4F2A94A1F7FF91EF910C9451104D
:1010E000CF93DF9306D00AB500640ABD8CD00C9470
:1010F000511000E24091790A049FE001089584E0D4
:10110000C8E1D0E00AB50F7B0ABD00270E940309A1
:10111000CF5FDF4F8A95C9F708950AB50F7B0ABDE7
:101120000027DD27C52FC85EDF4F0E940309089501
:10113000CAE7DAE000E00093790AB0DF0895CAE771
:10114000DAE000E00093790AADDF0895F1DF052EC3
:10115000C00DD11DC85EDF4F0881002311F46894D3
:1011600008950093790A9ADFE8940895CF93DF9366
:101170002090790A2092780A23942092790AB9DF84
:101180003BD00F3FC9F70C945110AF93BF935F93BF
:10119000BB27AA2753E00E94DA08AE0FBF1F5A955B
:1011A000D2F7E2EAF3E0EA1BFB0BED015F91BF919E
:1011B000AF9108955F93EAE7FAE090E080E070E095
:1011C0006EE1B6DF052EE00DF11DE85EFF4F0081F8
:1011D000002379F0EAE7FAE00093790A5FDF008103
:1011E00001300FB701FF05C0860F971F078D002341
:1011F00099F7FC015F910895F999FECFD2BDC1BD69
:10120000F89A00B50895F999FECFD2BDC1BD44E06A
:101210000AB406FC44E100BD4FBBF99A0895FDDC19
:101220000C01889400E193DC001C111C551F661F03
:10123000771F0A9511F4FDDC0895352F08D0532F40
:10124000362F05D0632F372F02D0732FEDCF432FCA
:101250004D5F43FD342F432F405D47FD342F0895EC
:10126000982F92959F70905D9A3308F0995F8F70D8
:10127000805D8A3308F0895F089596FD975F9F70BF
:1012800086FD875F8F709295892B08957727662753
:10129000545610F07395FCCF5C595A5010F063957A
:1012A000FCCF565F08957330B2F4723032F066307E
:1012B00092F4653012F0563072F4662321F00AE0A1
:1012C000500F6A9581F7772309F4089504E688940E
:1012D000500F7A95C0F701E00093620A0C94440A1B
:1012E0004FE24395C050DA4CEA49FB43D0F7C05077
:1012F000D643E546F44C0E948E204FE24395C05001
:10130000D14EE54FF540D0F7C050DF41EA40FA4FEB
:101310000E948E204FE24395C058D649E849F040DC
:10132000D0F7C058D946E746FF4F0E948E204FE2C3
:101330004395C054D244EF40F040D0F7C05CDD4B41
:10134000E04FFF4F0E948E204FE24395C05AD6488F
:10135000E140F040D0F7C056D947EE4FFF4F0E9412
:101360008E204FE24395C051D742E040F040D0F785
:10137000C05FD84DEF4FFF4F0E948E204FE2439544
:10138000C85ED340E0F7C851DC4F0E948E204FE288
:101390004395C456D040E0F7CC59DF4F0E948E20D1
:1013A0004FE24395CA50E8F7C65F0E948E204C2F4B
:1013B000405D0E948E2008950FB70F93F89400E1CE
:1013C000992788277695679510F48C0F9D1F979520
:1013D0008795779567950A95B9F70F910FBF08958F
:1013E0000FB70F93F8948827991B01E1661F771FA9
:1013F0000A9519F40F910FBF0895881F991F841B38
:10140000930B20F4840F931F8894F0CF0894EECFB1
:1014100006E00093620A0C94440A07E00093620A13
:101420000C94440A08E00093620A0C94440A0AE00F
:101430000093620A0C94440A0CE00093620A0C9434
:10144000440A0DE00093620A0C94440A01E10093FF
:10145000620A0C94440A02E10093620A0C94440A62
:1014600006E10093620A0C94440A0BE10093620ABD
:101470000C94440A0DE10093620A0C94440A0EE1B4
:101480000093620A0C94440A0E9494011124009073
:10149000620AD02C000CECECF4E1E00DF11D05919A
:1014A000F491E02FEE1FFF1F0E94BB010E949401E8
:1014B00094DB0FEF0DBF0AE00EBFAA27BB2700E0A9
:1014C0000093630A0E9494010C945F00201F2F1F59
:1014D000351F411F501F5C1F661F711F7C1FA11FFE
:1014E000B21FB71FC31FC81FCD1FD91FE41FF01F96
:1014F000F91FFF1F0620092015201C202520302061
:10150000392040204020492058205920F8940024B8
:10151000112485D096D00FEF0093640000936500EE
:101520000BB50E7F0BBDC0E0D0E066DE302F00FFB4
:1015300003C00BB501600BBD06E204B900E005B9BC
:1015400000E007B900E008B908E008E00AB900E0E7
:101550000BB900E00DB900E00EB900E000BB00E0FF
:1015600001BB07B10F7307B906B1006C08B9229827
:101570002A9A0BB50F750BBD03E00093770AE0EDD7
:10158000F7E0F093760AE093750A112414BE1EBAB0
:101590001ABC0BB501700BBD1092630AC6DA112498
:1015A00010926F0A1092700A01E000936D0A00E039
:1015B00000936E0A01E00093670A54E0C8E1D0E0AE
:1015C0001BDE0F3F11F400271EDECF5FDF4F5A9561
:1015D000B9F70E94CF20789401E003BF00E00093A8
:1015E0007C0000E000937B0006ED00937A000E94EF
:1015F000691400E00093680A0BB500FF0EC0CC240C
:101600005527B46099DCFAD90E9494010E94940194
:10161000ECE1F9E30E94B701089528D908950FB7C6
:101620000F93A89504B7077F04BFF894009160005A
:101630000861009360000070009360000F910FBF7D
:10164000089550E860E05093610060936100089550
:10165000009164000E7F0093640006ED00937A0011
:1016600000917A0006FDFBCF84DA089500917A009C
:101670000F7700937A00009164000160009364008A
:1016800078DA0895CF93DF93DF91CF910E944C10C9
:101690002223C1F0CF93DF9301E2C01680F411241E
:1016A0000C2CC092650AC2ECD9E0C019D1090E9485
:1016B000500259930A94D9F7DF91CF9109C00E9443
:1016C000650BA6CE0E94650BA8CE00E00093650ACC
:1016D00000E00093640A5091650A0C945410CF9373
:1016E000DF930E944C1011247091650A6091640A86
:1016F000C1ECD9E0222361F0A1FF03C00C2D0A95B3
:1017000039F00E9450027A95751772F0652F02C069
:10171000761751F0C61BD10958810E943E0263958D
:101720006093640A0C94511078CECF93DF930AB57E
:101730000F7D0ABD0E94D50001E04ED05881DF9197
:10174000CF910C945410CF93DF930AB500620ABD79
:101750000E94D50002E040D058830C945110CF93E2
:10176000DF930AB50F7D0ABD0E94D50001E034D099
:1017700043DD502FDF91CF910C945410CF93DF9322
:101780003AB53F7B3ABD3AB530623ABD0E94D500CA
:1017900002E022D0052F0F93C03004E0D0070F9154
:1017A00011F031DD17C0E0EBFCE30E94BB015527CF
:1017B0003AB530643ABD219726DD5A9519F44EE2C8
:1017C0000E948E200F93C03000E0D0070F9199F750
:1017D0000E9494010C9451100C1989F00E9450023F
:1017E0005F930E9450020AB505FF06C05F930E94F6
:1017F0005002DF91CF910895D52FCF9108950E9487
:1018000050020AB505FF06C0052F0E945002C02FE6
:10181000DD270895C52FDD270895EF93FF935AE044
:101820000E943E02CF920E94D500E2E5F8E1659168
:101830007591772311F40F9009C06517C1F7112432
:101840000F90E2EEF9E0E019F1097083FF91EF915A
:101850000895690A6A0A6B0A6C0A6F0A710A720AA9
:10186000730A740A00001124E50FF11D54910C94C1
:101870005410CF93DF9350E00E943E020E9442102A
:10188000CC2049F058300AF0FACD60E8609361004E
:101890005093610004C0509161000E943E020C947C
:1018A0005110CF93DF93509166000E943E020E9438
:1018B00042105093660050916600DF91CF910C94D6
:1018C0005410009164000F770093640055270E9424
:1018D0003E020E9442100E94570400E250FD00E2C6
:1018E0000093B8005098589A5198599A002700933D
:1018F000B90000950093BB0004E00093BC0004E92C
:101900000093BC00B5D00895D5C0CAD0CF93DF9363
:1019100021975881523261F45A91523219F00E9443
:101920003E02FACF5F915F910E9452012C2D07C0B9
:10193000DF91CF910E944C10222309F4BCC00FB755
:101940000F93F894EF93FF931124E2EEF9E0C21A9B
:10195000EC19F10962D952912A955093BB0004EC1D
:101960000093BC008AD00091B900087F083121F0B3
:10197000003411F0083211F4222369F75AD9FF918B
:10198000EF910F910FBF74C08BD00E944C1019F4CF
:101990001BB514601BBD41D90FB70F93F894EF939B
:1019A000FF93112451E01BB512FD07C001E20E9414
:1019B0005002501712F03DD97CC0752F1BB512FD97
:1019C00006C0E2ECF9E01092640A5093650A04EC58
:1019D00060E57A9519F404E868E57FEF0093BC00B0
:1019E0004CD05091B900587F56130BC05091BB009A
:1019F0001BB512FD04C0529377FFEBCF06C00E94C7
:101A00003E021BB512FF1092650AFF91EF9111D9AA
:101A10000F910FBF1BB512FF2BC01BB51B7F1BBD4A
:101A200008953ED00E9442105093BB0004E80093FA
:101A3000BC000091BC0007FFFCCF1AD0089530D045
:101A4000087F0093BC0004EA0093BC0016D010D0BD
:101A5000089526D004E90093BC000FEF0093BB006B
:101A600007D008955091BC0052FF1FC001D00895C7
:101A70005091B900587F0C945410EF93FF93E0EA13
:101A8000FFE00090BC0007FC08C06CD83197C9F794
:101A9000D0D808E10093620AF7CCFF91EF91089546
:101AA0000091BC0002FF01C0089503E10093620AA7
:101AB000EBCCD6CCC1CCDECCA1D0CF93DF93219799
:101AC0005881523261F45A91523219F00E943E020A
:101AD000FACF5F915F910E9452012C2D06C0DF91D9
:101AE000CF910E944C1009F4C5CC0FB70F93F89416
:101AF000EF93FF931124E2EEF9E0C21AEC19F10919
:101B00008CD852915EBD0DB507FFFDCF5EB52A950D
:101B1000C1F78FD8FF91EF910F910FBF08956ED04D
:101B20007CD80FB70F93F894EF93FF9311240E9482
:101B30004C1011F4552707C001E20E9450025017C3
:101B400012F077D88DCC752F0EB4552341F41EBCFE
:101B50000DB507FFFDCF5EB50E943E020EC0E2EC60
:101B6000F9E01092640A5093650A1EBC0DB507FF98
:101B7000FDCF5EB552937A95C1F7FF91EF9159D899
:101B80000F910FBF0895009164000B7F00936400D4
:101B900052E00E943E0276D20E945204550F550F29
:101BA00034D00CB5037F052B0CBD08956BD20E9479
:101BB00057040CB500620CBD50FD03C00CB50F7D81
:101BC0000CBD08955FD20E944D04052E53700CB5D4
:101BD000087F052B0CBD0DB501600DBD02FC03C0D7
:101BE0000DB50E7F0DBD089509D051E00E943E0253
:101BF00049D2289A50FD01C0289808950CB506FDD9
:101C000008950AE10093620A3FCC009164000B7FC3
:101C10000093640004B1076004B9289A01E50CBD83
:101C20000DB50E7F0DBD08955EBD0DB507FFFDCF4F
:101C30000EB508955EBD0DB507FFFDCF5EB50895E5
:101C4000AED0EF5DFF4F50810C945410A8D0EF93AD
:101C5000FF9318D2FF91EF91EF5DFF4F0F93E732A3
:101C600000E0F0070F9131F00F93E03300E0F00750
:101C70000F91A9F4EF93FF93E3E0F0E009E007BFD1
:101C80000491FF91EF9107FF0C944E0E05B7006889
:101C900005BF05B7006805BF0C944F0E5F705083F9
:101CA00008957DD0EF93FF930E94D5000E94B1026A
:101CB0000E945002FF91EF91EF5DFF4F75C06FD012
:101CC000EF93FF930E94D5000E94B1020E94500240
:101CD000FF91EF91EF5DFF4F6BC061D0EF93FF93EA
:101CE000D1D1FF91EF91EE5DFF4F5083089557D012
:101CF000E05EFF4F50810C94541051D0EF93FF934E
:101D00000E94D5000E94B1020E945002FF91EF9103
:101D1000EE5DFF4F49C043D0EF93FF930E94D50083
:101D20000E94B1020E945002FF91EF91EE5DFF4FC1
:101D30003FC035D0EF93FF930E94D5000E94B102BF
:101D40000E945002FF91EF91EE5DFF4F36C027D009
:101D5000EF93FF930E94D5000E94B1020E945002AF
:101D6000FF91EF91EE5DFF4F28D00E94D40525D062
:101D7000089515D0EF93FF930E94D5000E94B10201
:101D80000E945002FF91EF91E05EFF4F008105231A
:101D900050E000230FB601FE51E00C945410515452
:101DA00003E0509FF00108950081052B0083089502
:101DB0005095008105230083089500810527008345
:101DC0000895CF93DF935ED1CC2011F4662705C030
:101DD0000E945704652F0E94500200916400077F03
:101DE0000093640011241092820060FF01C009C0BA
:101DF000009180000168259A109289005093880014
:101E000008C0009180000162269A10928B005093C6
:101E10008A000093800009E0009381000C94511027
:101E2000CF93DF932FD15F930E9450025F93CC201A
:101E300021F466275F917F9107C07F915F910E9497
:101E40005704652F0E94500200916400077F0093A1
:101E5000640011241092820060FF01C009C000914B
:101E600080000368259A509389007093880008C009
:101E7000009180000362269A50938B0070938A0031
:101E80000093800009E0009381000C94511000271A
:101E90000093810000938000009382000091640011
:101EA0000860009364000895F2D0509F11200AB595
:101EB00007FD11F4502DF8C00FE00093620AE4CA48
:101EC0005F93E0D055230AB407FCC1F0052F0E94B0
:101ED0005002652F772759E0661F5A9541F0771F0A
:101EE000701B18F4700F8894F7CF0894F5CF5F91AA
:101EF0005F3011F4562F01C0572FD6C001E1009377
:101F0000620AC2CAC4D0500F0AB507FD08F0CCC09F
:101F10000FE00093620AB8CABAD0501B0AB507FD99
:101F200008F0C2C000E10093620AAECAB0D05017F8
:101F30000FB701FF10C011C0AAD050170FB701FF93
:101F40000CC009C05F93A3D06F916C3111F450178E
:101F500001C0051710F0552750FD51E0A5C00E94A3
:101F6000BF0F662319F056956A95E9F79DC00E9448
:101F7000BF0F662319F0550F6A95E9F795C08CD00D
:101F80000E945002222311F461E008950E944D0442
:101F9000652F0E94500208957AD0502385C077D0D3
:101FA000502B82C074D050277FC06CD050957CC01D
:101FB00069D0519579C066D0529576C063D052955C
:101FC0005F7072C004EB5091660A579508F4502771
:101FD0005093660A0E943E020E94D500089552D096
:101FE0005F7062C04FD000E8551F0795E8F7502F8B
:101FF0005BC0E89401C06894EF93FF9311240E94A2
:102000004C1041F40090650A002009F406CAE2EC85
:10201000F9E007C000E220170AF0FAC9022EE2EE4A
:10202000F9E026F00DD0C21A2C2D05C019D0572F7B
:102030000E943E02562F0E943E02FF91EF910895AA
:1020400050E07CE8029168E0302F352756950695E0
:10205000369508F457276A95B9F70A9499F70895C1
:102060007FEF6FEF08E0202E52917527660F771FE4
:1020700020F400E1702701E260272A94B9F70A945E
:1020800089F708950E94D5000E9450020895FADF52
:10209000052F0E945002089522270E94D500222376
:1020A0000895DF91CF9108950E943E020895CF9246
:1020B0000E94D50055270F910C1911F00E94500273
:1020C000C7DA00E000937B0000917C00007C609107
:1020D0007B006F7D60937B0055FF04C060917B00A7
:1020E000606260937B005F73052B00937C00583027
:1020F00062F457700E94B4020E94500200917E0068
:10210000502B50937E000E94AB055527662770E147
:10211000F89406ED00937A0000917A0006FDFBCF5B
:102120008091780090917900580F691F7A9589F70E
:10213000789476E0669557957A95E1F70E943E028D
:1021400000E000937E0092DA089555270E943E0237
:1021500099DF0E9457047CDA00917C000F7350FDD8
:10216000006050FF006C00937C000E94C70508953A
:1021700052E00E943E0286DF553008F071C90AB570
:10218000087F052B0ABD089563DA0DD0552700B6E8
:1021900005FC51E000B7006800BF68DA0E943E020B
:1021A0000E94D500089500E000937A0000E10093BA
:1021B0007A0050917B005F7B50937B0000B70870E2
:1021C000006500BF5AB552FF02C054E011C05091E3
:1021D0007B00506450937B005AB5537000917C0093
:1021E000007C052B00937C000E94B402CA942A95BF
:1021F00050937F000E94C0050895F39A18955527C3
:102200000E943E023FDF0E944D040091670A087F52
:10221000502B5093670A00916400077F009364007D
:1022200000916F000D7F00936F0006BB009382004A
:102230000093800000938100089551E00E943E02C7
:1022400021DF0E9457040091670A0F7750FF01C0F9
:1022500000680093670A0895CF93DF936FEF5527C7
:1022600066BB50938000509381005093820050933E
:1022700085005093840056980E940D0600917200CC
:102280000F9300E0009372000091670A702F70783E
:102290008894771F771F76600770E2E5F1E1E00F21
:1022A000F51F09941FC006C005C004C008C007C0C0
:1022B00006C00CC0033008F005E0002E09C06AE03B
:1022C0000350033008F005E0069F02C004E6002E2C
:1022D0005093850050938400709381000E94D40530
:1022E0000A94E1F70F91009372000E941906509131
:1022F000840060918500002700938100B09906C09A
:10230000C1EAD9E06883DF91CF91CECEDF91CF9142
:102310000EE00093620AB8D8B5DE352F88940AD053
:102320000895B0DE352F089405D008950E94CD1190
:10233000532FBACE63D0F59807B10F7307B95AD0AF
:1023400079E0F59923C0379BFCCF3E98469A10F070
:102350003E9A4698F5991AC03F9A47980E94C70539
:102360003F98479A0E94C7053799F4CF18F03E98D6
:10237000469A02C046983E9AF59908C0379BFCCF12
:102380003E98469A331F7A95E1F604C0EAE4F0E4F9
:102390000E94B70144D92AD0089530D007B10F73F5
:1023A00007B928D079E0F59919C03799FCCF8894FE
:1023B000369B08C0089447983F9AF5990FC0369904
:1023C000FCCF06C047983F9AF59908C0369BFCCFD2
:1023D0003F98479A331F7A9531F705C0EAE4F0E455
:1023E0000E94B7015FEF1BD901D008953F983E9836
:1023F000479A089506B1006C06B90895F59808E16A
:102400000093600005E400936000A89508953ADE0B
:10241000952F0E945002852FF8DB289853E004DCAA
:102420000E94C71207DC289A3FCE2CDE952F0E940F
:102430005002852FEADB289856E0F6DB289A52E016
:10244000F3DB0E94C7120E945002EEDB289A0E9422
:10245000C70555E0E9DBEEDB289A5523C1F708955F
:1024600055270E943E020E94D50080916F0A9091EC
:10247000700AE0DF8F5F9F4F9093700A80936F0A1E
:10248000089500240092700A00926F0A089551E0A6
:102490000E943E02F7DD552319F050936D0A08950E
:1024A0000C94300AEFDD552359F1952F88270E94AF
:1024B00050020C01952FA9DB0E94C705289853E014
:1024C000B3DB0E94C712C00120906D0AB3DB0E94EB
:1024D00046090E94BD02019779F02A9429F40E94CE
:1024E000940120906D0A03C04CE20E948E20B0FF40
:1024F000EDCF0E948C05BE7F289A0E94940108951A
:102500000C94260A55270E943E02BCDD50936E0AA9
:10251000089555270E943E0251E00E943E02B2DD1E
:10252000552311F40C94260A04E0059F0E945002E2
:10253000952F88276ADB289856E076DB289A52E0A8
:1025400073DB0E94C71250916E0A70E46DDB7A95BE
:10255000E9F7289A0E94B90555E066DB6BDB289AFB
:102560005523C1F7805C9F4FCF93DF93E001219704
:102570000E01DF91CF9101F708956F7083DD0E9406
:102580005204EAE7F5E26FD908950C941C0A592F1A
:102590004BDB582F49DB089555270E943E0272DD20
:1025A0005523C9F05A3010F00C94300AA89504B79E
:1025B000077F04BF052F5770000F000F00720064E3
:1025C000502BF89408E100936000509360000EB324
:1025D00007700EBB13C03CD860917B006F7B60938B
:1025E0007B005AB551FD06C000E100937A0000E47B
:1025F00000937B0060B7606160BF38D8789488959D
:1026000000005EB3507C21F0F799F798F699F698A0
:102610000091C80007FD0895F59B02C0F598089544
:10262000F39BECCFF3980895CF93DF9355270E9447
:102630003E0228DD0E94570450FD04C057D05D982B
:10264000559807C070D000270093A00A559A5D984E
:1026500027D027CD7F937FB77F936F935F93EF93BF
:10266000FF93FFE6E091A00A50919D0A60919E0AB7
:1026700070919F0AE50EF61EE71F5491E093A00AA1
:1026800050FF03C000005D9A03C05D980000000089
:10269000FF91EF915F916F917F917FBF7F9118952F
:1026A0001124009165000F7E0093650019BA109205
:1026B000BE001092C0001092C1001092CF00109284
:1026C000D0001092C2001092C3001092C40004E81F
:1026D0000093D10000E00093C00001E00093C1002E
:1026E000009172000064009372000895112419BAD9
:1026F0001092C0001092C1001092BE001092D00043
:102700001092CF001092C2001092C3001092C40029
:10271000009172000F7B00937200009165000061D0
:10272000009365000895CFE9D9E00E94A70500EF66
:10273000102E088001200294002029F089E999E9EF
:1027400009EA3CD0F9CF099012940120002029F029
:102750008CE59FE80AE232D0F9CF0880129401207C
:102760000294002029F089E891E404E027D0F9CF11
:10277000099012940120002029F084EF9CE600E0EB
:102780001DD0F9CF0880129401200294002029F076
:1027900085EE9AE000E012D0F9CF08801294012073
:1027A000002029F086E191E000E008D0C9F75093BD
:1027B0009D0A60939E0A70939F0A0895581F691F8F
:1027C000701F0A9408950F93CF93DF93EF93FF93B5
:1027D000FFB7FF93992011F09A9416C0F091690AFF
:1027E000E0916A0AD0916B0AC0916C0ACF5FDF4F0B
:1027F000EF4FFF4FE0936A0AF093690AC0936C0AA7
:10280000D0936B0A9090680AE091750AF091760A6D
:102810000F93E03000E0F0070F9149F03197F0930B
:10282000760AE093750A0BB500640BBD03C00BB5C7
:102830000F7B0BBDF79AFF91FFBFFF91EF91DF91E7
:10284000CF910F9118950E94D5000E9450020E94CE
:102850005204552311F450E005C0513011F45AE0F0
:1028600001C054E65093680A952E0895CF93DF93E4
:10287000C9E6DAE00027099309930993088311CC8C
:102880004F93CF93DF93EF93FF93C9E6DAE0A0FD78
:1028900004C05B810E943E020CC0F091690AE09185
:1028A0006A0AD0916B0AC0916C0A0E9470090E945A
:1028B0009401FF91EF91DF91CF914F9108956C6B4F
:1028C0006A69E0DB0E945204EEEBF8E20E94330CEE
:1028D0000895CF93DF93C9E6DAE0002709930993BF
:1028E00009930883009164000F7D00936400002722
:1028F00005BB06BD04BD07BD05BD009508BD0CE7C1
:1029000007BD02E004BD03E005BD00916E0002605A
:1029100000936E00C6CBCF93DF930E941315709186
:10292000710A6091730A5091740A772311F4662733
:1029300007C00BB505FF0C94A914563008F0639539
:102940000BB507FF6F77562F0E943E02DF91CF91A4
:10295000089567FB6F770AE0609F0027050E101E41
:10296000E001772769E00E94DC096E5F7F4F332723
:1029700042E30E94F00926F0605E7F4F0C94C3147E
:10298000605270406195562F0E943E02DF91CF91B8
:1029900008950C941C0ACF93DF930E941315509155
:1029A000710A0E943E02DF91CF91089555270BB521
:1029B00006FD51E079CB55276AB565FD51E00E94CF
:1029C0003E0260DB0E943E020E94570450FF0C94BE
:1029D000ED140BB500620BBD08950BB50F7D0BBD5B
:1029E000089555276AB567FD51E00E943E024ADB13
:1029F0000E943E020E94570450FF0C9403150BB531
:102A000000680BBD08950BB50F770BBD089551E716
:102A100005C052E703C053E701C054E70E943E02DD
:102A20000E94D50008950BB506FD08957091770AB0
:102A3000772319F403E00093770AE894009191005A
:102A4000077069F0009191000F93009171000F934E
:102A5000009192000F93009190000F93689400E012
:102A6000009391007ED003E0229A2A980E94C70525
:102A70000A95E1F7C1E7DAE00024009295000092A0
:102A800094008AE095E0552766272A9A229802E06A
:102A90000093910088950000F59B13C07FD000241F
:102AA0000092720A0092710A0091770A0A950093C7
:102AB000770A0FB701FF0895EAE4F0E40E94B70136
:102AC00008951A9B05C00092950000929400E2CFF1
:102AD00070919400763418F400C0889401C0089472
:102AE0003A95551F8A95B1F69A9521F05993650F3D
:102AF00088E0D0CF53D0561751F000240092720ACC
:102B00000092710AE0E6F0E40E94B7010895C2E77E
:102B1000DAE09091710A8091720A0E94A215C4E7CE
:102B2000DAE09091730A8091740A0E94A2150895C8
:102B30000E94190600916E00026000936E00F598E5
:102B40000C94440A97FB9F770E940F09052F0F7082
:102B500008832197507F52950E94530957F9588353
:102B6000089508E10093600000E400936000A895D8
:102B7000F59801E00BBB01E00093680004E00093CE
:102B80006B0000916E000D7F00936E000091650058
:102B9000077F009365000E940D0608950E941906A4
:102BA0000E940F0B2EF000E0009391000C94E415AE
:102BB0000F91009390000F91009392000F9100935A
:102BC00071000F9100939100C0EDD7E0D093760A89
:102BD000C093750A00916E00026000936E0000E0E1
:102BE0000093680000E000936B0001E00BBB0895C8
:102BF0000CD8249A2C9851E00E943E020E943E027A
:102C00000E943E0249DA19F1213019F02330F9F01F
:102C100018C20E9450025523A1F0533009F00FC290
:102C2000E6E8FCE255912590222049F150620E948D
:102C3000140E55910E94140E2A94D9F7289A3196B1
:102C4000F1CF50E20E94140E58E0DFD1DAC156E213
:102C50000E94140E0E945002529556955660D5D18E
:102C600055E20E94140E0E9450025F77CED150E2CE
:102C70000E94140E0E9450025A955A60C6D15527E0
:102C80000E943E02AEC10001080001013F000201A6
:102C90000300030103000401030005010200060113
:102CA0000E00070170000A05E7E7E7E7E7000B05FC
:102CB000C2C2C2C2C2000C01C3000D01C4000E0199
:102CC000C5000F01C6001005E7E7E7E7E7001101BF
:102CD00000001201000013010000140100001501A2
:102CE0000000160100001C0100001D010000000092
:102CF0000E94FE0D0E941A0E289A56FD02C05FEF38
:102D0000D3C95E705695752F5395506182D1252E8B
:102D10001124CF93DF93C2ECD9E01092640A509350
:102D2000650A2C9851E60E94140E0E941A0E5A93BE
:102D30002A94D9F7289A0E941A0E289A652F5E7055
:102D40005E3031F4607457E20E94140E562F5DD14C
:102D5000DF91CF91572FA8C90E94FE0DCF92CF923D
:102D60009BD90E941A0E289A54FF05C057E20E9470
:102D7000140E50E14AD12C982223A1F0222E1124C6
:102D80000F90EF93FF93E2EEF9E0E019F10950EABA
:102D90000E94140E52910E94140E2A94D9F7289A78
:102DA000FF91EF912C9A0E94B9050E94B9052C98C9
:102DB0005FE00E94C7055A95E1F70E941A0E289A13
:102DC00054FF02C053E004C057E123D15073529521
:102DD000CF906AC90E94FE0DEF93FF93CF93DF93CC
:102DE0005BD909F42EC1622F6A95C2EED9E03A91FF
:102DF0001124ECE4FEE2032E000CE00DF11D059021
:102E00001490002009F41BC153E003D15E5F752FBD
:102E1000011409F4702D1616C2F06015B2F0671790
:102E2000A1F450E3373019F0532F565F50620E94DF
:102E3000140E0E9450020E94140E6A95D1F7289A2F
:102E4000DF91CF91FF91EF91DCC0FBC0030503053B
:102E50000101010101010101000003050E94FE0DB5
:102E60001BD909F4CEC0223029F0D9D05395506136
:102E7000D0D01AC9DAD0752FD2D0352F252E239471
:102E800066270894661F2A94E9F752E0C2D0772398
:102E900011F0652B03C060956F73652352E20E94A9
:102EA000140E562FB2D0532F539550630E94140E18
:102EB000572FABD0A6C0C3C00E94FE0D55270E945D
:102EC0003E02E0D802E005176AF051FD02C050FF53
:102ED00007C02C9A51FF95C00E94B9050E94B90500
:102EE0002C988FC0ACC00E94FE0DD6D821F455E0BE
:102EF0000E94140E86C00E94500257FDA0C05F932E
:102F000055E20E94140E5F9180D07BC00E94FE0D9E
:102F1000C3D829F456E07DD056705695C5C80E9496
:102F200050020E945204550F652F56E072D0597F0F
:102F3000652B56E20E94140E562F67D062C00E9485
:102F4000FE0DAAD839F456E064D0587056955695BF
:102F50005695AAC80E9450020E945704550F550F5B
:102F6000550F652F56E055D0577F652B56E20E94CE
:102F7000140E562F4AD045C00E94FE0D8DD811F474
:102F80000C943A0A0E945002652F0E9450020DE1F3
:102F9000051732F050620E94140E562F36D0089555
:102FA00001E00093620A0C94440A0E94FE0D57E16E
:102FB0000E943E0267D80DE150170AF03CC00E9403
:102FC000140E1FC00E94FE0D55270E943E025AD8C3
:102FD000752F552331F451EE18D052EE16D073E010
:102FE00003C050EE572B11D057E013D0652F57E296
:102FF0000E94140E70FD606371FD6064562F05D051
:1030000000C00E941A0E289A4FC80E94140E289AD7
:1030100008950E94140E0E941A0E289A08950E9484
:10302000500205E005175AF008950E94500200E290
:1030300005172AF008950C941C0A0C94210A0C948C
:10304000300A0C943A0A0E940D060FB70F93F894B9
:103050002D9A259A0E94C7052D9802E30E94B90572
:103060000A95E1F72D9A259806E00E94B9050A9580
:10307000E1F751E003B105FD55270E943E0202E34E
:103080000E94B9050A95E1F70F910FBF0E9419063A
:103090000E94D500089500D811F40C943A0A0E94B9
:1030A0000D060FB70F93F894EF93FF931124E2EE00
:1030B000F9E0C21A58E0252E5291579510F456D0D7
:1030C00001C060D00E94B2052A94B9F70E94CE18C0
:1030D0002A9581F7FF91EF910F910FBF0E9419067A
:1030E00008950E940D060FB70F93F8940E944C109C
:1030F00021F41CD00E943E0214C0CF93DF93112410
:103100000E945002752FC2ECD9E01092640A5093CD
:10311000650A0CD05A930E94CE187A95D1F7DF91A8
:10312000CF910F910FBF0E941906089508E0202E3D
:1031300009D0889400FD089457950E94B2052A94FE
:10314000B9F708952D98259A0E94B2052D9A2598D1
:103150000E94B2050FEF33B135FF00270F930AE04D
:103160000E94B2050A95E1F70F9108952D98259ACE
:103170000E94B9052D9A259806E00E94B9050A9586
:10318000E1F70895259A2D9807E00E94B9050A9560
:10319000E1F72D9A25980E94B20508950E94B20584
:1031A0000E94B2050E94B205089555270E943E0272
:1031B0000E9442100E945704E0EFFBE30E94BB0113
:1031C00050FF06C0E8EFFBE30BB508600BBD05C080
:1031D000EEEFFBE30BB5077F0BBD0E94BB0108952B
:1031E000ECE5FCE30E94BB019DD000E1202EE0E075
:1031F000F0E08BD07FD00F93E03001E0F0070F912B
:1032000049F00E94B120B0FD21C00E94D40500E128
:10321000202EEFCFBE7F8DC0ECE5FCE30E94BB010A
:1032200081D000E1202EE0E0F1E06FD063D00F9379
:10323000E0300BE0F0070F9149F00E94B120B0FDA3
:1032400005C00E94D40500E1202EEFCFBE7F0E9472
:103250000906E6E7FCE30E94BB018091610A0E9437
:103260008A018091600A0E948A010E94940161C0D3
:10327000ECE4FCE30E94BB0155D000E1202EE0E02D
:10328000F0E043D0F2BDE1BDF89A80B50E948A011A
:1032900040E20E948E20EF5FFF4F2A9499F70E9430
:1032A00094010F93E03004E0F0070F9151F00E9479
:1032B000B120B0FD06C029D00E94D40500E1202E27
:1032C000E1CFBE7F36C00E940906E8E3FCE30E941E
:1032D000BB0100E1202EE8E8F9E00F93E23A09E0B3
:1032E000F0070F9128F411D005D000E1202EF5CF82
:1032F00020D0089581910E948A0140E20E948E2090
:103300002A94C1F70E94940108958F2F0E948A0188
:103310008E2F0E948A014AE30E948E2040E20E9482
:103320008E200895E4E0FCE30E94BB010E940906A0
:1033300008950E9409060E94940108950E94421077
:10334000852F0E945002952F0E9450025F930E9489
:1033500050025F930E945002052FFF91EF910E944F
:10336000050608954AD0EF93FF93E8E1FDE30E943C
:10337000BB01E6E3FDE30E94BB01FF91EF918F2FBC
:103380000E948A018E2F0E948A010E9494010E944D
:10339000940111240E9405350E94DB050091E8008C
:1033A00000FFFCCF0E944534F8941DBA10BE1FBA2E
:1033B00010926E0010926F001092710010927200C5
:1033C0001092C9001092BC0010927A0014B817B87D
:1033D0001AB81DB810BA15B818B81BB81EB811BA6B
:1033E00001E004BFF89408E10093600009E3009352
:1033F0006000789488950000FFCFE3E0F0E009E0FA
:1034000007BF049106950370003019F4E0E0F8E37B
:1034100014C0013019F4E0E0FCE30FC0023019F4ED
:10342000E0E0FEE30AC0033019F4E0E0FFE305C08A
:103430000BE00093620A0C94440AEF93FF9308E0B8
:10344000102EEE1FFF1F05910F3F29F0003019F0DD
:10345000FF91EF9108951A94B1F705E10093620A84
:103460000C94440A4C495320D70248454C50A704B9
:1034700052554E20FE045341564542074C4F41449D
:1034800094075052492002035052582014035052BE
:1034900042202503454D49543004464F52206C03C9
:1034A00050544F207F034E4558546E0346524520DA
:1034B000E6024E45572036045049462063035448DF
:1034C00045206903454E4420810352535420DA03BA
:1034D000434647205C04501A1D20460350501E20CE
:1034E000A20F50501C20A20F501C1E209C0F5001F8
:1034F0001D209C0F50501D204F0350500B20820F59
:1035000050500D208C0F50500A20540F50500F2057
:10351000600F4D4F4420600F50500520600F5050F9
:1035200004208303505007209703505002203A0391
:1035300044415441420B524541446F0B5245535450
:10354000680B505040207F034C535220AF0F4C5318
:103550004C20B70F50500620CC0F414E4420CC0FCA
:1035600050505C20CF0F504F5220CF0F50505E2054
:10357000D20F584F5220D20F434F4D20D50F5050ED
:103580000120D50F4E454720D80F53574150DB0F30
:1035900052454D202B044E424820DE0F4E424C2017
:1035A000EF0F52455620F20F524E4420E20F414F8A
:1035B0005620C80343524320F90F43525720FB0FB4
:1035C00044454C41B803474F54201E04474F5320F5
:1035D00021045245542024044B4559205B20434C80
:1035E0004B20390C4F534320510C41434F20C41002
:1035F00041435320B81045524120D607494E495403
:10360000CB0743415420F7075045454B950B504F8E
:103610004B45A30B45455220AF0B45455720BE0BEC
:10362000565047200D0C534C5020CC124446572086
:10363000151244465220071244464C20301244468C
:103640005820411244464620471244464420521214
:10365000444656208212444649208912444641205D
:10366000BE1252464920F81552464120EA165246EB
:1036700043207317524650208617524642202E1779
:10368000524645205C1752465420AC1652465820EC
:10369000781652464620E217524644209F1752465B
:1036A0005720BC1752465220D517444854208B143B
:1036B00044484820CB1444485220D614444855204E
:1036C000DB1444485320F11444484920071544486A
:1036D00044200915445449200B15445444200D1529
:1036E000525449202314525452203614525450201C
:1036F00040145254432061144F57492023184F5708
:1037000057204B184F57522071184F444220260E15
:1037100049444220200E53444220510E434442204B
:103720005F0E4F5042206D0E534242207D0E4342A9
:1037300042208B0E58424220990E50424220A70E42
:10374000494E4220770E49424220B90E4F44432051
:10375000260E49444320200E53444320510E434437
:1037600043205F0E4F5043206D0E534243207D0E89
:10377000434243208B0E58424320990E504243202F
:10378000A70E494E4320770E49424320B90E4F44BD
:103790004420260E49444420200E53444420510E18
:1037A000434444205F0E4F5044206D0E534244204A
:1037B0007D0E434244208B0E58424420990E5042C5
:1037C0004420A70E494E4420770E49424420B90EAA
:1037D0004F444520260E49444520200E53444520A1
:1037E000510E434445205F0E4F5045206D0E53420D
:1037F00045207D0E434245208B0E58424520990EB0
:1038000050424520A70E494E4520770E494245209B
:10381000B90E4F444620260E49444620200E5344FC
:103820004620510E434446205F0E4F5046206D0EF9
:10383000534246207D0E434246208B0E584246207E
:10384000990E50424620A70E494E4620770E494217
:103850004620B90E4453524596114453434F91119B
:10386000445344458C1149434720FF1049434520A8
:103870001D11494350202C1150574520100F50570F
:103880004D20E10E50574F20470F4444532014134E
:1038900041444320571041445220A51053504D201D
:1038A000C30D53504F20D60D53504320E20D5350BB
:1038B00057205C0D535052208F0D53505320F40D60
:1038C00054574920610C545753201F0D5457502012
:1038D000290D54574120110D54575720850C54572A
:1038E0005220C40C54574220320D44454220D51872
:1038F00044554D500C195644554D63194944554D86
:10390000F0184544554D381946494C4C9E195754AA
:1039100046209504424C4452B2190000F9363DFA53
:10392000F84174746F424153494320666F722041DD
:10393000546D65676133325534204020384D487AE4
:1039400020FAF85665723A20322E333620427569D5
:103950006C6420636F64653A203230323130333129
:10396000302E32333536FAF9363D0000F8456E68B0
:10397000616E63656D656E7473206279204B2053B0
:10398000636F747420566974616C6520286B73765C
:103990005F70726A40676D782E636F6D29FAF84127
:1039A000546D6567613332553420706F727420280E
:1039B00043293230313220FAF84D65676133325590
:1039C000342055534220262044465520426F6F74C0
:1039D0006C6F61646572FE32303132FAF8312D5706
:1039E000697265285229FE32303133FAF86E524638
:1039F00032344C3031282B29205246205472616ECB
:103A000073636569766572FE3230313320FAF844AB
:103A100048542048756D696469747920616E64202A
:103A200054656D7065726174757265FE3230313344
:103A300020FAF84545502046696C65205379737427
:103A4000656DFE32303133FAF8536C6565702C20A9
:103A500052544320616E6420446174612D66696C28
:103A600065FE3230313220FAF85457492F5350490D
:103A70002F444453202620496E7075742043617092
:103A800074757265FE32303131FAF9362DFAF84F1D
:103A9000726967696E616C20636F646520284329D1
:103AA000323030322062792052696368617264205A
:103AB00043617070656C73FAF8687474703A2F2FF4
:103AC00070726F6A656374732E63617070656C7376
:103AD0002E6F7267202070726F6A65637473406323
:103AE000617070656C732E6F726720FAF9362DFA6B
:103AF000F85553422053657269616C20492F4F205D
:103B0000284329323030382C3230313020504A525C
:103B1000432E434F4D2C204C4C4320FAF8687474CC
:103B2000703A2F2F7777772E706A72632E636F6DDE
:103B30002F7465656E73792F20FAF9362DFAF84CDB
:103B400055464120426F6F746C6F616465722057F7
:103B500072697474656E206279204465616E2043D9
:103B6000616D657261FAF86465616E40666F7572C9
:103B700077616C6C656463756269636C652E636FF5
:103B80006D202D20687474703A2F2F7777772E6C04
:103B90007566612D6C69622E6F7267FAF9362DFABF
:103BA000F8416C6C2072696768747320616E6420E0
:103BB00072656D656469657320657870726573738D
:103BC0006C79207265736572766564FAF84E6F746D
:103BD00020666F7220636F6D6D65726369616C2022
:103BE000757365FAF9363DFA0000F9352DFA0000D3
:103BF00044656275672000006F6E20FA00006F66F2
:103C000066FA0000F90620303020303120303220B2
:103C100030332030342030352030362030372030DB
:103C20003820303920304120304220304320304489
:103C3000203045203046FA005661726961626C6539
:103C40007320696E2052414D3AFA000045455020DC
:103C5000436F6E74656E74733AFA000050524F47AA
:103C600052414D204D656D6F727920436F6E7465C2
:103C70006E74733AFA004E65787420617661696CEF
:103C800061626C65206C6F636174696F6E3A2000CD
:103C9000FB3A2050726F6772616D20746F6F206CF9
:103CA0006172676520666F72204545502120FA00D9
:103CB00045726173696E67204545500053617669AE
:103CC0006E672046696C6520232000004C6F61649C
:103CD000696E672046696C6520232000456D70740D
:103CE0007900206279746573203E2000427265611C
:103CF0006BFA000020627974657320757365642E19
:103D00002020000020627974657320667265652E3C
:103D100020FA000008200800FA4578697420796FBD
:103D20007572207465726D696E616C2070726F6758
:103D300072616D2E0000FA496E766F6B696E6720B6
:103D4000626F6F746C6F616465722028696E2038D1
:103D50002073656373292061742030780000F83483
:103D6000322069732074686520416E737765722014
:103D7000746F2074686520556C74696D617465207A
:103D80005175657374696F6E20FAF86F66204C691F
:103D900066652C2074686520556E6976657273655A
:103DA0002C20616E642045766572797468696E674F
:103DB00020FAF828687474703A2F2F7777772E627C
:103DC0006574656D756E61682E6F72672F666F72B0
:103DD000747974776F2E68746D6C29FA0000F8534B
:103DE0006F204C6F6E672C20616E64205468616E8A
:103DF0006B7320666F7220416C6C2074686520467E
:103E0000697368FA000056616C75652065786365B2
:103E1000656465642072616E67650000206E6F7472
:103E2000200020737570706F727420284329000081
:103E30004C696E65202320004572726F723A000053
:103E4000FB556E6B6E6F776E20636F6D6D616E6488
:103E5000206F72206F70657261746F722E00FBFCB0
:103E6000206F6620303A32353500FB50726F677232
:103E7000616D206D656D6F72792069732066756C58
:103E80006C00FB436861726163746572FD6120724E
:103E900065636F676E697A656420747970652E005A
:103EA000FB427566666572206C696D697420657881
:103EB0006365656465642E00FB426164207661720F
:103EC0006961626C65206E616D652E00FB546F6FD9
:103ED000206D616E7920617267756D656E74732EE9
:103EE0002000FB56616C756520776173FD6176611A
:103EF000696C61626C652E00FB4D616368696E657B
:103F000020737461636B206572726F7220FAF90915
:103F10002046756E6374696F6E7320746F6F2063D3
:103F20006F6D706C6578206F722063616C6C7320AC
:103F30006E657374656420746F6F20646565706C62
:103F40007900FB474F544F206F7220474F53554223
:103F50002064657374696E6174696F6EFD666F7558
:103F60006E642E00FBFC206F6620303A3700FB4C5D
:103F7000696E65206E756D626572203E2033206427
:103F8000696769747300FBFC206F6620303A31006A
:103F9000FBFC206F6620303A3300FB49435020720F
:103FA00065676973746572206F766572666C6F778A
:103FB0002E00FB41726974686D65746963206F76C9
:103FC0006572666C6F772E00FB41726974686D656F
:103FD00074696320756E646572666C6F772E20005D
:103FE000FB446976696465206279207A65726F2E78
:103FF0002000FB456D7074792046696C6500FB54A8
:104000005749FD656E61626C65642E00FB31343A80
:104010002000FB3A204E6F20426F6F742D6C6F6151
:1040200064657220666F756E642EFB5370656369FC
:104030006669656420FC2E00FB53657420414320B3
:10404000526566203E20302E2000FB446576696371
:1040500065206E6F6E2D726573706F6E73652E00C6
:10406000FB44657669636520636865636B73756D92
:104070002E00FB53504920FD656E61626C65640043
:10408000FBFD612062696E617279206E756D6265FB
:104090007200FB496E76616C6964206E756D6265B5
:1040A00072206F6620617267756D656E74732E0085
:1040B000000000001895889500008091AC0A8823C4
:1040C00081F02F931F9211240E9479341F902F9119
:1040D000882389F32F931F9211240E9456341F9036
:1040E0002F91582F533009F4B1600C94541003B73A
:1040F000016003BF7894889500008091AC0A882302
:10410000B1F32F933F931F9211240E9456341F90B6
:104110003F912F91992371F7382F08951F92112401
:104120009F932F932091AC0A222321F42F919F91EA
:104130001F9008950E94B120B1FF0C94A4200E940A
:1041400079348823E1F3BD7F3F934F93842F0E94FE
:10415000A6348823D9F74F913F912F919F911F90BB
:1041600008958091AC0A8823C9F02F931F921124DF
:104170000E9479341F902F91882309F408952F937A
:104180001F9211240E9456341F902F91082F033143
:1041900011F4B2600895033009F4B16008950E94EB
:1041A00045340E94DB050E94DB050E9425340E94F5
:1041B000E2050FE011E60BB400FE02C001E010E6DC
:1041C000202EF598A89508E10093600010936000F8
:1041D00088950000F5990DC08091AC0A8823C1F341
:1041E0000091A80A01FFF4CF0E9493340E94053584
:1041F0000AC02A9431F70E940F0BF5990E944534AA
:104200000BB500FFD2CFA8950E940F0BF59808952B
:106840008091E80080FFFCCF0895809165008F77EC
:106850008093650081E08093D70080EA8093D80020
:1068600084E082BF82E089BD09B400FEFDCF80E9EB
:106870008093D8001092E0001092AC0A1092A80AFF
:106880008CE08093E2007894089511241092E20045
:1068900081E08093E0001092D80019BC1092AC0AFD
:1068A0008093AB0A08958091AC0A08959FB7F8943D
:1068B0008091AC0A882369F083E08093E9002BE69D
:1068C0008091E80085FD09C082FF03C02093E800A5
:1068D000F7CF9FBF8FEF9FEF08958091F100209138
:1068E000E80025FD03C02BE62093E8009FBF90E061
:1068F00008952FB7F8948091AC0A811102C080E00E
:1069000010C083E08093E9008091F200811109C0FA
:106910009091E80092FFF3CF95FDF1CF9BE6909325
:10692000E8002FBF08958091AC0A882371F08FB7DB
:10693000F89493E09093E9002BE69091E80095FF9E
:1069400003C02093E800F9CF8FBF08959091AC0A5F
:10695000992371F09FB7F89424E02093E9002091E7
:10696000A90A222349F02091E80025FD03C09FBF1A
:106970008FEF08951092A90A2091E400275E34E079
:106980004091E80045FD12C09FBF9091E400921332
:1069900004C081E08093A90AEBCF9091AC0A9923BF
:1069A00039F39FB7F8943093E900EACF8093F10070
:1069B0008091E80085FD03C08AE38093E80085E0CC
:1069C0008093AA0A9FBF80E008959091AC0A992312
:1069D000D1F09FB7F89424E02093E9002091E800DB
:1069E00025FD02C09FBF0FC08093F1008091E80099
:1069F00085FD03C08AE38093E80085E08093AA0ABE
:106A00009FBF80E008958FEF08958FB7F89490911D
:106A1000AA0A992341F094E09093E9009AE39093B5
:106A2000E8001092AA0A8FBF08956091A00A7091A1
:106A3000A10A8091A20A9091A30A08958091A40AC4
:106A400008958091A50A08958091A60A08958091DD
:106A5000A80A08959FB7F8942091AC0A222339F030
:106A600022E02093E9002091E80025FD03C09FBFAC
:106A70008FEF089521EA2093F10020E22093F100A6
:106A80001092F1001092F1001092F1001092F100BA
:106A900021E02093F1001092F1008093F1008AE34D
:106AA0008093E8009FBF80E008951F920F920FB679
:106AB0000F9211248F939F938091E1001092E10037
:106AC00083FF11C01092E90091E09093EB001092C7
:106AD000EC0092E19093ED0098E09093F00010921A
:106AE000AC0A1092A80A82FF13C08091AC0A8823D6
:106AF00079F08091AA0A882359F081508093AA0ADC
:106B0000811106C084E08093E9008AE38093E80065
:106B10009F918F910F900FBE0F901F9018951F920D
:106B20000F920FB60F921124EF92FF920F931F93C3
:106B30002F933F934F935F936F937F938F939F9385
:106B4000AF93BF93EF93FF93CF93DF931F92CDB794
:106B5000DEB71092E9008091E80083FF0FC19091A9
:106B6000F1008091F1000091F1002091F10010E01E
:106B7000122B3091F1002091F100E32EF12CF22A3A
:106B80002091F1006091F10032EF3093E8008630FF
:106B900009F046C036E080E09EE6FC014591549144
:106BA0004017510739F4FC013296459154914E1526
:106BB0005F0521F00796315081F7E0C0FC01349663
:106BC00045915491FC013696849130E0362B2F3F4D
:106BD000310519F010F02FEF30E0281708F4822F5C
:106BE0003EEF9091E800292F2570D9F392FDC9C09E
:106BF000982F813108F090E1FA01292F222331F0FA
:106C000064916093F10021503196F8CF490F511DE6
:106C1000891B3093E8008111E4CF903111F3B1C0AA
:106C2000853041F48EEF8093E8000ADE006800931F
:106C3000E300A7C0893059F59111A0C00093AC0AB8
:106C40001092A80A1092AA0A8EEF8093E80041E001
:106C50008DEC9EE64093E9009C012F5F3F4FFC01C5
:106C600054915093EB00552359F0F901249120934E
:106C7000EC009C012D5F3F4F319684918093ED0095
:106C80004F5F453011F0C901E5CF8EE172C0883009
:106C900049F4903809F072C0D3DD8091AC0A80933A
:106CA000F10045C0813271F4913A09F067C0C8DD46
:106CB000E0EAFAE087E08E0F91919093F1008E1355
:106CC000FBCF35C08032A1F4913209F057C08091DA
:106CD000E80082FFFCCFE0EAFAE087E08E0F9091B7
:106CE000F10091938E13FBCF8BEF8093E8001FC0D0
:106CF000823239F4913209F041C00093A80AA0DD34
:106D000016C0811118C099839BDD9981923851F486
:106D1000E092E9008091EB0085FB882780F91092D2
:106D2000E90001C080E08093F1001092F1008EEF45
:106D30008093E80026C0282F2D7F2130F9F492306F
:106D4000E9F4012BD9F42E2D2F779FEF920F943079
:106D5000A8F49EEF9093E8002093E900833071F04F
:106D600089E18093EB0081E090E001C0880F2A95D3
:106D7000EAF78093EA001092EA0003C081E2809370
:106D8000EB000F90DF91CF91FF91EF91BF91AF9109
:106D90009F918F917F916F915F914F913F912F9133
:106DA0001F910F91FF90EF900F900FBE0F901F90CB
:106DB000189500E1000000000800FFFFFFFFFFFF43
:106DC000FFFFFFFFFFFFFFFFFFFFFFFFFFFFFFFFD3
:106DD000FFFFFFFFFFFFFFFFFFFFFFFFFFFFFFFFC3
:106DE000FFFFFFFFFFFFFFFFFFFFFFFFFFFFFFFFB3
:106DF000FFFFFFFFFFFFFFFFFFFFFFFFFFFFFFFFA3
:106E000000010000BB6E1200020000786E43000318
:106E10000000746E04010309046A6E080203090489
:106E2000486E20030309042A6E1C1C03530046000D
:106E300047002D00320030003000200056003200A4
:106E40002E00360031000000200341007400740061
:106E50006F004200410053004900430020005600EB
:106E600032002E0033003600000008034B005300B0
:106E7000560000000403090409024300020100C097
:106E8000320904000001020201000524001001057E
:106E900024010101042402060524060001070582DD
:106EA0000310004009040100020A00000007050366
:106EB00002400000070584024000001201000202A7
:106EC000000010C0167A040001010203010001C194
:086ED000120180360181360039
:106F00000000000000000000000000000000000081
:106F10000000000000000000000000000000000071
:106F20000000000000000000000000000000000061
:106F30000000000000000000000000000000000051
:106F40000000000000000000000000000000000041
:106F50000000000000000000000000000000000031
:106F60000000000000000000000000000000000021
:106F70000000000000000000000000000000000011
:106F8000FFFFFFFFFFFFFFFFFFFFFFFFFFFFFFFF11
:106F9000FFFFFFFFFFFFFFFFFFFFFFFFFFFFFFFF01
:106FA000FFFFFFFFFFFFFFFFFFFFFFFFFFFFFFFFF1
:106FB000FFFFFFFFFFFFFFFFFFFFFFFFFFFFFFFFE1
:106FC000FFFFFFFFFFFFFFFFFFFFFFFFFFFFFFFFD1
:106FD000FFFFFFFFFFFFFFFFFFFFFFFFFFFFFFFFC1
:106FE000FFFFFFFFFFFFFFFFFFFFFFFFFFFFFFFFB1
:106FF000FFFFFFFFFFFFFFFFFFFFFFFFFFFFFFFFA1
:1070000055C000006EC000006CC000006AC00000E7
:1070100068C0000066C0000064C0000062C00000DC
:1070200060C000005EC00000A6C400005AC000009E
:1070300058C0000056C0000054C0000052C00000FC
:1070400050C000004EC000004CC000004AC000000C
:10705000C6C1000046C0000044C0000042C000009D
:1070600040C000003EC000003CC000003AC000002C
:1070700038C0000036C0000034C0000032C000003C
:1070800030C000002EC000002CC000002AC000004C
:1070900028C0000026C0000024C0000022C000005C
:1070A00020C000001EC000001CC0000011241FBE34
:1070B000CFEFDAE0DEBFCDBF11E0A0E0B1E0E8E560
:1070C000FDE702C005900D92AC35B107D9F721E07C
:1070D000ACE5B1E001C01D92A937B207E1F754D188
:1070E00039C68ECF8823C9F09091F3002091F20029
:1070F00030E0392B232B69F49091E8009B7F90932B
:10710000E8009091E80092FD06C09EB39111F9CF7E
:1071100004C09091F1008150E5CF0895E4E6F1E0DC
:10712000358124819381828190935E0180935F01F8
:10713000C90190935C0180935D0108951F93CF93E3
:10714000DF9300D000D000D0CDB7DEB790916E01B4
:10715000809164019923D1F0843049F480916501D4
:10716000811108C0809166018F3F21F45AC085309B
:1071700009F4A6C08AE08093000183E080936C014B
:107180008091EB0080628093EB00C9C0843009F4E9
:1071900048C028F4813051F08330F1F0C0C0853010
:1071A00009F48EC0863009F4AEC0B9C010916501F3
:1071B000123008F0B4C0B2DF11110CC080915E0132
:1071C00090915F0123E0FC0120935700E89507B6FA
:1071D00000FCFDCF85E007C080916501982F9D7F61
:1071E00029F49CDF89E08093000199C0813009F087
:1071F00096C0E0E0F0E084918F3F69F0109260016A
:10720000F0935F01E0935E018AE08093000185E0E6
:1072100080936C0184C03196E11520E7F20759F79D
:107220007EC080916501833039F581E080936D01E6
:1072300020916A0130916B0180916601232B61F0EE
:10724000813009F06CC09091690180916801909340
:1072500061018093620163C081110BC09CE088E1F1
:107260000FB6F894A895809360000FBE90936000CD
:1072700056C01092010153C0811151C08091660126
:107280008F3F09F04CC0E0E0F0E083E095E08093B0
:107290005700E89507B600FCFDCF90935700E8959E
:1072A00007B600FCFDCFE058FF4FE11520E7F207DD
:1072B00071F781E180935700E89510926E012FC01D
:1072C00080E28C838CED8D838BEF8E838EE18983BE
:1072D00085E98A8387E88B838091660190916501B7
:1072E000911105C0FE01E80FF11D848109C09130A4
:1072F000B1F4E1EDFFEFEC0FFD1FE80FF11D808110
:10730000809363010CC080916501833041F48091CA
:107310006601811104C08091670180936001269607
:107320000FB6F894DEBF0FBECDBFDF91CF911F9196
:107330000895CF9384B7877F84BF0FB6F894A8953C
:1073400080916000886180936000109260000FBEA1
:1073500090E080E80FB6F89480936100909361000C
:107360000FBEC1E0C5BF82E085BFEDD26E9A7698B0
:10737000C0936F0083E080938100CF91089590D2F5
:1073800081E085BF15BE0895D4DF85B7806885BFCD
:1073900085B7806885BF8C9A8FE19EE40197F1F7ED
:1073A00000C000008FB184FB992790F981E0892704
:1073B0008093010185B78F7785BF769A7894809105
:1073C0000101882311F0A8D4FACF80916D018111B9
:1073D000FACFD5DFE0916101F091620109951F922A
:1073E0000F920FB60F9211248F938EB180748EB9C5
:1073F0008F910F900FBE0F901F901895CF92DF9234
:10740000EF92FF920F931F93CF93DF9380917101BF
:107410008F77813209F0E4C18EB180748EB980918A
:1074200077019091780190936B0180936A0180912C
:107430007201833009F4A5C158F48130D1F0823053
:1074400009F0CEC18091E800877F8093E80009C1F0
:10745000853009F4B4C108F4AAC1863009F0C0C16E
:107460008091E800877F8093E80082E080930001AC
:10747000AEC18091E800877F8093E80080916D0124
:10748000882319F05BDE10926D0180916A01909162
:107490006B01009761F12091E80022FD04C02EB33A
:1074A0002111F9CF9DC12091F10020936401019732
:1074B00090936B0180936A01E5E6F1E035E03E0FC1
:1074C0002091F3008091F20090E0922B892B71F0D3
:1074D0008091F100819380916A0190916B010197F5
:1074E00090936B0180936A013E13EACF27DE80916F
:1074F0000001853009F0ADC080916A0190916B0167
:10750000892B21F482E080930001A3C08AE1EADDA7
:1075100000915E0110915F01802F8F71E3DD8091FA
:107520005C0190915D010196EC01C01BD10B809133
:10753000650181117CC0CE0196958795A8012091A7
:107540006001622F70E06A017B01A0E0B1E0C5E05C
:10755000D3E0009709F445C0E091F3002091F200D8
:1075600030E03E2B232BC9F00197F091F100E09120
:10757000F1002F2F3E2FFA010901B0935700E89533
:107580001124AF5F8A019B010E5F1F4F2F4F3F4FAA
:10759000B901A801A03471F40FC02091E8002B7F3D
:1075A0002093E8002091E80022FDDECF2EB32111C8
:1075B000F9CF16C1009769F6F601C0935700E89518
:1075C00007B600FCFDCF009709F4C3CFF801D093B4
:1075D0005700E89507B600FCFDCF68017901A0E0EF
:1075E000B8CF80915C0190915D0190935F01809391
:1075F0005E0181E180935700E89529C02091F30056
:107600008091F20090E0922B892BA1F06091F10023
:10761000219780915E0190915F018ED380915E01F0
:1076200090915F01019690935F0180935E01209796
:1076300029F70DC08091E8008B7F8093E80080914E
:10764000E80082FDE3CF8EB38111F9CFC9C080E19C
:1076500049DD8091E8008B7F91C08EB3882309F4C7
:10766000BFC08091E80080FFF8CF80910001893091
:1076700091F08A3059F480916501813039F490910C
:107680005E0180915F019093F10002C080916301DF
:107690008093F10070C020915E0130915F01C09134
:1076A0005C01D0915D012196C21BD30B80916501D5
:1076B000811133C0D695C795C90120916001A22FD1
:1076C000B0E0219708F14091F3002091F20030E002
:1076D000342B2032310559F0FC012591349120934F
:1076E000F1003093F1000296A11DB11DEACF209167
:1076F000E8002E7F2093E8002091E80020FDECCFE9
:107700002EB32111F9CF6CC080915C0190915D0185
:1077100090935F0180935E012BC0823049F52097E2
:1077200039F12091F3008091F20090E0922B809744
:1077300091F080915E0190915F01F6D28093F1000B
:1077400080915E0190915F01019690935F0180931B
:107750005E012197E4CF8091E8008E7F8093E8005E
:107760008091E80080FDE5CF8EB38111F9CF38C05C
:1077700082E0809300018091E8008E7F8093E80092
:1077800026C08091E800877F8093E80080916C019B
:107790008093F1001092F1001092F1001092F1002C
:1077A000809100018093F1001092F100E4CF80916C
:1077B000E800877F8093E80010926C0108C08091F8
:1077C000E800877F8093E8008091000161CFDF911E
:1077D000CF911F910F91FF90EF90DF90CF9043C01A
:1077E000DF91CF911F910F91FF90EF90DF90CF909D
:1077F0000895292F30E02230310559F0233031052A
:1078000069F02130310589F482E190E029E431E02A
:1078100015C08BE190E02EE231E010C0882351F0DA
:1078200086E290E022E031E009C080E090E020E0D4
:1078300030E004C084E090E02AE231E0FA013183D4
:1078400020830895EBEEF0E0808181608083EDEE8F
:10785000F0E010826093EC0040838091EE00881F7E
:107860008827881F08958091710187FF0FC080913C
:10787000E80082FD04C08EB38111F9CF10C0809161
:10788000E8008B7F0AC08EB3882349F08091E8001E
:1078900080FFF9CF8091E8008E7F8093E800089503
:1078A0005DD064D0E0EEF0E0808181608083E8ED1F
:1078B000F0E080818F77808319BCA7EDB0E08C91D8
:1078C0008E7F8C9380818F7E8083109270010895CB
:1078D0000F931F93CF93DF9341D048D0C8EDD0E0F2
:1078E0008881982F9F7798838068888388818F7D8F
:1078F000888319BC1EBA10926F0100EE10E0F801E7
:1079000080818B7F808388818160888342E260E010
:1079100080E098DFE1EEF0E080818E7F8083E2EE10
:10792000F0E0808181608083808188608083F801BD
:1079300080818E7F8083888180618883DF91CF9171
:107940001F910F910895E7EDF0E0808181608083C1
:107950008AE482BF81E080937001BACFE8EDF0E065
:1079600080818E7F80831092E20008951092DA0069
:107970001092E10008951F920F920FB60F921124FA
:107980002F933F934F935F936F937F938F939F9327
:10799000AF93BF93EF93FF938091DA0080FF1AC0FB
:1079A0008091D80080FF16C08091DA008E7F80938E
:1079B000DA008091D90019BC80FF0AC089B58260C5
:1079C00089BD09B400FEFDCF81E08EBB47D102C066
:1079D0001EBA44D18091E10080FF17C08091E2007F
:1079E00080FF13C08091E2008E7F8093E20080913F
:1079F000E20080618093E2008091D80080628093F1
:107A0000D80019BC85E08EBB29D18091E10084FFAC
:107A10002CC08091E20084FF28C019BC89B5826027
:107A200089BD09B400FEFDCF8091D8008F7D809381
:107A3000D8008091E1008F7E8093E1008091E20088
:107A40008F7E8093E2008091E20081608093E2006B
:107A500080916F01811106C08091E30087FD02C013
:107A600081E001C084E08EBBF9D08091E10083FF0A
:107A700021C08091E20083FF1DC08091E100877FDB
:107A80008093E10082E08EBB10926F018091E10053
:107A90008E7F8093E1008091E2008E7F8093E200F0
:107AA0008091E20080618093E20042E260E080E049
:107AB000C9DED4D0FF91EF91BF91AF919F918F918B
:107AC0007F916F915F914F913F912F910F900FBEDA
:107AD0000F901F9018950F931F93CF93DF9300D0B3
:107AE000CDB7DEB78091F100809371018091F100F4
:107AF000809372019091F1008091F1009093730155
:107B0000809374019091F1008091F1009093750140
:107B1000809376019091F1008091F100909377012C
:107B2000809378016BDC8091E80083FF82C08091B4
:107B3000710190917201963079F118F4953041F00D
:107B400078C0983009F448C0993009F457C071C022
:107B500081116FC0109173011F770FB7F894809156
:107B6000E800877F8093E8007EDE8091E80080FF58
:107B7000FCCF8091E3008078812B8093E30080919B
:107B8000E30080688093E300111102C082E001C02D
:107B900083E08EBB0FBF4DC08058823008F049C0D3
:107BA000AE014F5F5F4F60917501809173019091BD
:107BB00074011FDEBC01892B09F43BC09091E800E1
:107BC000977F9093E80089819A8149D08091E8005D
:107BD0008B7F8093E8002DC0803859F58091E800B4
:107BE000877F8093E80080916F018093F1008091FE
:107BF000E8008E7F8093E80036DE1BC0811119C03B
:107C0000909173019230A8F48091E800877F80936F
:107C1000E80090936F0127DE80916F01811106C00B
:107C20008091E30087FD02C081E001C084E08EBB4B
:107C300015D08091E80083FF0AC08091EB0080623C
:107C40008093EB008091E800877F8093E8000F909D
:107C50000F90DF91CF911F910F910895089520917A
:107C60007701309178012617370748F061157105C3
:107C700039F42091E8002E7F2093E80001C0B9017B
:107C800040E061157105A1F12EB3222309F440C033
:107C9000253009F43FC02091E80023FD37C0209132
:107CA000E80022FD2DC02091E80020FFEACF40919E
:107CB000F3002091F20030E0342BFC01CF0161157C
:107CC000710559F02032310540F481918093F10023
:107CD000615071092F5F3F4FF1CF41E020323105F4
:107CE00009F040E02091E8002E7F2093E800C9CF02
:107CF0004111CACF05C08EB3882351F0853051F0B1
:107D00008091E80082FFF7CF80E0089581E0089538
:107D100082E0089583E008958EB3882321F0809156
:107D2000E80083FDD8CE0895F999FECF92BD81BDBC
:107D3000F89A992780B50895262FF999FECF1FBA92
:107D400092BD81BD20BD0FB6F894FA9AF99A0FBE84
:107D500001960895F894FFCF0201260341005600D2
:107D600052002000440046005500200042006F00F1
:107D70006F0074006C006F006100640065007200A9
:107D800000000403090409021B00010100803209FC
:107D900004000000FE0102000921030000000C00A5
:107DA000011201100100000020EB03F42F0000007D
:047DB00001000100CD
:00000001FF
