:020000020000FC
:100000000C944C000C9468200C9468200C9468208C
:100010000C9468200C9468200C9468200C94682040
:100020000C9468200C9468200C9423ED0C945DEDE6
:100030000C9416060C941B130C9468200C946820E6
:100040000C9468200C9468200C9468200C94682010
:100050000C9468200C94CA130C9468200C946820AB
:100060000C9468200C9468200C9468200C946820F0
:100070000C94EE100C9468200C9468200C9468206A
:100080000C9468200C9468200C9468200C946820D0
:100090000C9468200C946820A8950FEF0DBF00E227
:1000A0000EBF0E947C0A0E94C90278940E948A01B5
:1000B000CC240E945E000E94BE00F7CF4EE30E9457
:1000C0009C20CFE0D0E20E9485203D3021F4F198C1
:1000D000F0980C947600323229F4F09902C0F09A2C
:1000E00001C0F098333211F4F09BF19A0F93C031B4
:1000F00000E2D0070F9121F447E00E949C20E3CF5B
:100100003531E9F0383069F13F3759F13A30D9F2F9
:100110003930C9F2F19B38833D3009F408950F93CB
:10012000CA3A0FE1D0070F9121F447E00E949C20CA
:10013000CACFF19B2197432F0E949101C4CFEF9327
:10014000FF93EFE0F0E2EC1BFD0B2E2EE0E3FDE36E
:100150000E94B1012A94D1F7CFE0D0E2FF91EF9154
:10016000B2CF0F93CF3000E2D0070F9131F0332799
:100170003993E0E3FDE30E94B101A5CFCFE0D0E2E7
:1001800038810E945601023011F40C9428060E9416
:100190008A01A16002C0AE7FBF7B8DB79EB70F936F
:1001A0008F3500E290070F9110F40C94080A0E941A
:1001B00020015D3021F4B2FD0E945C051BC05B3361
:1001C000C9F0032D023021F4FCD20E943402E5CFA5
:1001D0007F756F755F75053041F0413031F4032D47
:1001E000033019F40E941C02D8CF0E94FC005D303D
:1001F00009F00895A1600895EAE3F4E30E94140170
:10020000071671F40E941401061659F40E94140195
:10021000051641F431960591F491E02F0995089562
:10022000319631963096EACF0590002041F4149033
:10023000112029F400E0009312200C943A0A08954A
:1002400070EF60EF41E038810E945601013019F4EF
:100250000E944801F5CF532F0E9448013D30A1F084
:100260003D2C38813D3081F00E9456013D1439F417
:100270000E9499050E9448014395433091F73881C7
:100280000E9456013D1409F008950E944801F7CFDD
:100290000F93C93A0FE1D0070F9131F404E00093B6
:1002A00012200C943A0A0895219708953F9300274D
:1002B0003D3011F40C947C013F75303011F40C94F6
:1002C00063013C3011F401E018C0323011F405E054
:1002D00014C0303411F405E010C030310AF40DC000
:1002E0003B350AF00AC0303412F003E006C03A3160
:1002F00012F41AF402E001C004E0D02E3F910895F8
:100300000E9426098F93492F0E949C204F910E94A2
:100310009C2008954DE00E949C204AE00E949C2071
:1003200008954D3011F4F6DF08950C949C20472F6A
:100330000E94A101462F0E94A101452F0E94A10108
:1003400008954F93407F4295405D0E949C204F91BD
:100350004F70405D0E949C2008950E94B101DADF39
:1003600008954591442309F40895483F19F40E94E3
:10037000F001F7CF493F29F4159045910E941702EB
:10038000F0CF4A3F11F4C6DFECCF4B3F41F4EF937F
:10039000FF93E4E5FEE3E5DFFF91EF91E2CF4C3F11
:1003A00041F4EF93FF93E2E2FEE3DBDFFF91EF9195
:1003B000D8CF4D3F41F4EF93FF93E8E3FEE3D1DF65
:1003C000FF91EF91CECF4E3F41F4EF93FF93EEE3D9
:1003D000FEE3C7DFFF91EF91C4CF0E949C20C1CF05
:1003E0000F93EF93FF93112445914A30A1F04D30C4
:1003F00091F04A3F81F0493F71F04C3F11F404E124
:10040000100E4D3F11F405E0100E4E3F11F40CE0BC
:10041000100E1394E9CF1A9446E3141A119416940B
:1004200040E20E941702FF91EF910F9108950E9400
:100430009C201A94E1F7089551545A312AF005E0AE
:10044000009312200C943A0AA0FF21F40E94340277
:10045000A2600895E8E3FFE16627E50FF61F5081EB
:100460000E943402AD7F08950F9300E20C1511F441
:100470000C94FE091F921124E1E9FFE1EC19F10946
:100480005083C39423951F900F910895CC2011F4AD
:100490000C94030A1F921124E2E9FFE1EC19F1091F
:1004A0005081CA942A951F900895EF93FF9304E01A
:1004B0000B1511F40C94080A32E00B2D039FEAE9A6
:1004C000FFE1E019F109D293C293B394FF91EF9148
:1004D0000895EF93FF93BB2011F40C94030A32E0CC
:1004E0000B2D039FEAE9FFE1E019F109C191D081E9
:1004F000BA94FF91EF910895EF93FF9304E00A15EA
:1005000011F40C94080A34E00A2D039FEAEAFFE193
:10051000E019F1096292729242925292A394FF9171
:10052000EF910895EF93FF93AA2011F40C94030A1E
:1005300034E00A2D0A95039FEAEAFFE1E019F10988
:100540006290729042905290FF91EF9108959EDFD9
:100550000E94430401E0552319F0000F5A95E9F772
:10056000502F0C944F10703049F0705D472F0E944F
:100570009C20603019F440E30E949C20603021F000
:10058000605D462F0E949C20505D452F0E949C205C
:100590000895E4E8F9E3E1DE0895BCDEE7E3FFE176
:1005A000C0911020D0911120EC17FD0721F040815F
:1005B000B8DE3197F9CFAEDEADDE9FE187E3709113
:1005C000102060911120871B960B0E940509AFDE59
:1005D000E0E1FDE3C6DE8091102090911120805073
:1005E00091400E940509A3DEE0E2FDE3BADE089532
:1005F000B0680E94471005E0301651F047DF0E94B6
:100600003C09B1DF40E20E949C202223B9F782DE40
:10061000BF770895B0680E94471044E20E949C2072
:1006200035DF852F6DDE40E20E949C202223A9F752
:1006300071DEBF770895B0680E94471027DF78E029
:1006400040E3551F08F441E30E949C207A95C1F7CE
:1006500040E20E949C20222389F75CDEBF77089548
:10066000488116DE423239F04E3719F00E949C2044
:10067000F7CF50DEF5CF08950E944210E8E3FFE186
:100680006627E50FF61F00830895B5FF0C94910FC0
:100690000E943D10452EFADE052FF8DE552E662706
:1006A000E8E3FFE1E50FF61F0083A062AE7FBF7DA8
:1006B00008950E943D10552309F4A46008950F91F8
:1006C0000F910895B0620895E8E3FFE1552D662784
:1006D000E50FF61F0081041521F003950083A0614A
:1006E0000895AA9409F01EDF089555DD0895B160BC
:1006F00008959881CDDD8881382FD8DD013029F02B
:10070000043019F0C5DD0C948703892F99270E94C6
:100710003309582FA9DE3FDD08950981073211F012
:100720000C94080C552708E0202E8881B1DD382F65
:10073000BDDD302E023019F0CF5FDF4F07C0889447
:10074000317030FD0894551F2A9479F78DDE23DD32
:1007500008950CE1009312200C943A0ACF93DF9392
:100760000E943D100AE0F79888950000F79BFBCFA8
:100770000A95C9F75A95B1F70C944C10552774DEB9
:100780000E943D1001E005174AF00AB50F770ABD37
:1007900050FF08950AB500680ABD08950C94120A26
:1007A00004B7077F04BF0E9413EC0E94D80508E13C
:1007B000009360000EE000936000F89488950000BC
:1007C00008957F706F705F700E94490908950E94BC
:1007D0003D10452FE7E3FFE180911020909111201B
:1007E0000C94FC03F91711F48E17C8F400810D3036
:1007F00011F03197F7CF3197552766277727F917EB
:1008000011F48E1760F4308151DD023021F40E9422
:1008100099053197F4CFD5DF451721F7089509E001
:10082000009312200C943A0AD2DFEF010895CFDF33
:10083000A06C0895B3FF0C941F04A8600895B160E4
:100840000895488125DD4D30E1F708950E943D105F
:10085000452F0E949C200895E7E3FFE1F0931120CB
:10086000E0931020CC24AA27BB270FB70F93F8944E
:100870000E94F0050E94F6050F910FBF4BDDE4E3E7
:10088000F9E36BDD0895583008F408950C940D0ACF
:10089000543008F408950C94170A523008F408955F
:1008A0000C94120ACF93DF930E944710C0E0D0E06F
:1008B0000E94F208222331F0213039F0223081F0F9
:1008C0000C94260A502FD0DD24C0E0DDDCDF552358
:1008D00019F006955A95E9F751E000FF5527F3CF37
:1008E000702FD4DDC1E9DFE10881083069F0D5DF80
:1008F000652FCCDDC8DFB8DD2ADECC2460FD03C067
:100900005095572301C0572B052FC0E0D0E00E941F
:10091000F9080C944C10B7FD0DC0A1FD0BC00E944E
:10092000DD0FB4DD55231AF0EAEFFDE302C0EAE77C
:10093000FDE317DD5AE20C944F10CF93DF930E9432
:10094000FF0540E20E949C20EAE3F4E3D2E3C4E026
:100950007591772309F443C065915591643521F46D
:100960005F34A1F470E220C0693421F4563471F48C
:1009700070E21AC06F3451F4523541F47735A1F06A
:10098000783591F0763481F070E20EC0503439F051
:100990005E352CF45C3514F4503334F4505E70E260
:1009A00060330AF06627605E472F0E949C20462F26
:1009B0000E949C20452F0E949C2040E20E949C2087
:1009C0003396D45022F6A6DC1F9211240E94D3EC59
:1009D0001F900E94CA0540E20E949C20B7CF9ADC7B
:1009E0000E94FF050C944C100BB500FD0EC0D3DB2C
:1009F000CC2059F04BDD07E0051714F40C94260ABF
:100A0000B4600E94F0050E948A07BB24AA240BB59B
:100A10000E7F0BBDB460C7E3DFE10E945C05CC2410
:100A2000A1600E94BF20A6FF02C03FDDAF7BA7FFF1
:100A300003C0EF01B860AF77A3FF05C04ADDBB205C
:100A400009F4B77FA77FA5FF03C03E0155DDAF7D49
:100A5000A4FF02C0E301AF7EB0FF07C00E94820581
:100A6000C0911020D0911120BE7F809110209091D4
:100A700011208C1B9D0B78F4388118DCA2FF04C078
:100A8000043011F02197CBCFAB7F023011F42197C6
:100A9000C6CF83DBC4CF00E000931320BB7FC0E050
:100AA000D0E00E94F20800FF08958091AC208823D6
:100AB00011F40E94E320089500911120D01729F429
:100AC00000911020C01709F40895CF93DF93DF92AF
:100AD0003F93662755273881E9DB023029F00E94D1
:100AE00049095093132005C00E9499055F70219712
:100AF000F2CF0BB503FF02C066D00CDC3F91DF9054
:100B00000C944C101F9211240E9461EC1F90E8E09D
:100B1000FDE327DC089554EBE0E0F1E0019150277C
:100B20000F93EF3F00E2F0070F91C1F750931620AB
:100B30000895762F652F532F089577276627552719
:100B40000895DF93D2E0DA950000E9F7DF91089588
:100B5000DF93D5E0F6DFDA95E9F7DF910895DF93CB
:100B6000DAE0EFDFDA95E9F7DF910895DF93D4E675
:100B7000E8DFDA95E9F7DF910895CF93DF93D3E6C5
:100B8000C3E1CA950000E9F7DA950000C9F7DF91E3
:100B9000CF9108950F930AE0F0DF0A95E9F70F91DE
:100BA00008950F930AE0F6DF0A95E9F70F9108958B
:100BB0000F93CF93DF9304E6EDDF0A95E9F7DF911A
:100BC000CF910F910895ECE4FEE3CBDBCF93DF935D
:100BD000DD27C09113200E94BD09DF91CF910895B8
:100BE000E0E0F1E09EE188E3002705C0E8E3FFE1F3
:100BF00090E08AE1002701930197E9F70895E6E084
:100C0000FCE3AFDB0895F8940091E200002329F0A3
:100C10000093AD2000E00093E20078940895F894EA
:100C20000091AD200093E2007894089508E10093CC
:100C3000600000E000936000F59A189504E00093CE
:100C400012200C943A0A0BE0009312200C943A0AFA
:100C500044270E9410075430B0F7809110209091E3
:100C600011200F9387330FE190070F9109F45BC0B8
:100C7000CFE0D0E262DF0F93C93A0FE1D0070F91C6
:100C8000EAF2388113DB023029F4762F652F532FD7
:100C90002197F1CF96DD452EE0911020F0911120A3
:100CA0004C7F4BDF552431960F93E8330FE1F0076B
:100CB0000F9191F03081FADA043071F0023089F747
:100CC0005394562F672F732FEECF0F93E8330FE116
:100CD000F0070F9131F70895052D033029F0539453
:100CE000562F672F70E0F8CF41FD02C04260D9CF88
:100CF00068DD4516A9F110F441603F010F93E83318
:100D00000FE1F0070F9111F440FF0DC040FFDDCF60
:100D1000541508F455C00F93E8330FE1F0070F9115
:100D200009F44EC0D2CF0E941007003009F4089594
:100D3000CFE0D0E2E0911020F09111200F93E0304D
:100D400001E0F0070F9109F436C008810083319764
:100D500021970D3099F7F0931120E093102008951A
:100D60003197EF010F93E03001E0F0070F9109F4A4
:100D700065CF088121970D30A9F7BF016C1B7D0B52
:100D80008091102090911120860F971F9093112031
:100D9000809310200F93E03001E0F0070F9129F0CD
:100DA0000881008321973197F5CF0E94100700300A
:100DB00009F04ECF089502E0009312200C943A0AF5
:100DC0000E941007003059F100911120013029F4E0
:100DD000009110200050081770F3E0911020F0915E
:100DE0001120DF2FCE2FC81BD040D0931120C093ED
:100DF0001020F71519F4E61509F405C000810883E1
:100E000021963196F6CFCFE0D0E2F72DE62D31973F
:100E1000088100830D3019F031972197F9CF08959B
:100E2000CFE0D0E25527882799274B7F388121973B
:100E300083953D3041F03ADA023039F044600130B8
:100E4000A9F39395F3CF092F089542FF5395EECF61
:100E5000CFE0D0E2E03009F0AECF088100833197D7
:100E600021970D30B9F7F0931120E09310200895E9
:100E7000AF93BF935527F8DA0E943D10583014F015
:100E80000C94260A91D0A7E3BFE1E0911020F091E5
:100E90001120AE1BBF0BAF5FBF4FB5DE6CD1EA1B9D
:100EA000FB0BBF91AF9130F4BADEECEAFCE355DA0C
:100EB0000C948807E8EDFCE354DA852F21DA2ADA6E
:100EC00000E00093292048D11124C8E1D0E0C50FEB
:100ED000D11D022D8ED1E8E3FFE101E03EE1CAE23F
:100EE000D0E2099302910993002371F03A95D1F76A
:100EF00033D128822F920091282000932920C8D036
:100F00000F9100932920E9CF09933A95E9F7C0D0D2
:100F100086DE0895B2FD06C05527A6DA3CD9B6DABA
:100F200058306CF599DCE8EEFCE31BDA852FE8D944
:100F3000F1D902D116F40C94210A30912B20B6D9A4
:100F4000025011F00C94210A5EDEE8E3FFE13EE17D
:100F5000CBE2D0E20991002341F002933A95D1F718
:100F600008810093292090D0F2CF3197CC24F093C0
:100F70001120E093102053DEB2FF1EDB08950C9485
:100F8000260ACF93DF933FE7309329209FD03A95ED
:100F9000D9F7ABD00C944C10552766DAFCD876DA2A
:100FA000583014F00C94260ADD27C52FC85EDF4F99
:100FB00019D1002309F4089500932920BDD086D0CB
:100FC000CAE2D0E20F8D00932920002321F0009582
:100FD00011F05AD0F4CF97D00895CF93DF935527CF
:100FE000852F8ED94AE30E949C2040E20CDE0E94AD
:100FF000D008CF015F930E94050911DE9BD9EEEF67
:10100000FCE3AFD90F93503000E060070F9129F453
:10101000E8EFFCE3A6D95F9112C05F918DD0CBE2DF
:10102000D0E26EE149910E949C204D3041F06A95DA
:1010300009F0F8CF48814093292026D0F0CF6AD913
:1010400011240E94D3ECA6DD5395583009F0C8CF87
:1010500061D9D9DD0E94BB08EF93FF939D2F8C2FA0
:101060000E940509DCDD66D9E0E1FDE37AD9CBDD3C
:101070009F918F910E940509D2DD5CD9E0E2FDE3EA
:1010800070D948D90C944C100AB50F7D0ABD03C025
:101090000AB500620ABDCF93DF93EF93FF9300E29E
:1010A000202EEAE2F0E20091292019D00AB505FFCE
:1010B00003C001919ED002C095D00193CF5FDF4F56
:1010C0002A94A1F7FF91EF910C944C10CF93DF93EA
:1010D00006D00AB500640ABD8CD00C944C1000E216
:1010E00040912920049FE001089588E0C8E1D0E004
:1010F0000AB50F7B0ABD00270E94F908CF5FDF4FBA
:101100008A95C9F708950AB50F7B0ABD0027DD2728
:10111000C52FC85EDF4F0E94F9080895CAE2D0E2E9
:1011200000E000932920B0DF0895CAE2D0E200E099
:1011300000932920ADDF0895F1DF052EC00DD11DEC
:10114000C85EDF4F0881002311F46894089500936E
:1011500029209ADFE8940895CF93DF9320902920E7
:1011600020922820239420922920B9DF3BD00F3FE2
:10117000C9F70C944C10AF93BF935F93BB27AA277A
:1011800057E00E94D008AE0FBF1F5A95D2F7E2EE8B
:10119000FEE0EA1BFB0BED015F91BF91AF9108955B
:1011A0005F93EAE2F0E290E080E070E06EE1B6DFAB
:1011B000052EE00DF11DE85EFF4F0081002379F060
:1011C000EAE2F0E2009329205FDF008101300FB7EF
:1011D00001FF05C0860F971F078D002399F7FC01BB
:1011E0005F910895F999FECFD2BDC1BDF89A00B5BF
:1011F0000895F999FECFD2BDC1BD44E00AB406FC02
:1012000044E100BD4FBBF99A0895FDDC0C018894C0
:1012100000E193DC001C111C551F661F771F0A9507
:1012200011F4FDDC0895352F08D0532F362F05D04B
:10123000632F372F02D0732FEDCF432F4D5F43FD28
:10124000342F432F405D47FD342F0895982F9295FA
:101250009F70905D9A3308F0995F8F70805D8A333C
:1012600008F0895F089596FD975F9F7086FD875F00
:101270008F709295892B089577276627545610F022
:101280007395FCCF5C595A5010F06395FCCF565FB4
:1012900008957330B2F4723032F0663092F46530F3
:1012A00012F0563072F4662321F00AE0500F6A956E
:1012B00081F7772309F4089504E68894500F7A950E
:1012C000C0F701E0009312200C943A0A4FE24395D4
:1012D000C050DA4CEA49FB43D0F7C050D643E5464C
:1012E000F44C0E949C204FE24395C050D14EE54FF4
:1012F000F540D0F7C050DF41EA40FA4F0E949C20F1
:101300004FE24395C058D649E849F040D0F7C0585D
:10131000D946E746FF4F0E949C204FE24395C054B8
:10132000D244EF40F040D0F7C05CDD4BE04FFF4FC0
:101330000E949C204FE24395C05AD648E140F040BD
:10134000D0F7C056D947EE4FFF4F0E949C204FE286
:101350004395C051D742E040F040D0F7C05FD84D30
:10136000EF4FFF4F0E949C204FE24395C85ED34051
:10137000E0F7C851DC4F0E949C204FE24395C456D1
:10138000D040E0F7CC59DF4F0E949C204FE24395BC
:10139000CA50E8F7C65F0E949C204C2F405D0E9417
:1013A0009C2008950FB70F93F89400E199278827A0
:1013B0007695679510F48C0F9D1F97958795779577
:1013C00067950A95B9F70F910FBF08950FB70F935F
:1013D000F8948827991B01E1661F771F0A9519F475
:1013E0000F910FBF0895881F991F841B930B20F442
:1013F000840F931F8894F0CF0894EECF06E00093FB
:1014000012200C943A0A07E0009312200C943A0A36
:1014100008E0009312200C943A0A0AE0009312208C
:101420000C943A0A0CE0009312200C943A0A0DE056
:10143000009312200C943A0A01E1009312200C94BC
:101440003A0A02E1009312200C943A0A06E1009352
:1014500012200C943A0A0BE1009312200C943A0AE1
:101460000DE1009312200C943A0A0EE10093122031
:101470000C943A0A0E948A01112400901220D02C68
:10148000000CE8EBF4E1E00DF11D0591F491E02F83
:10149000EE1FFF1F0E94B1010E948A0194DB0FEF33
:1014A0000DBF00E20EBFAA27BB2700E00093132068
:1014B0000E948A010C9455002E1F3D1F431F4F1F91
:1014C0005E1F6A1F741F7F1F8A1FAF1FC01FC51FAB
:1014D000D11FD61FDB1FE71FF21FFE1F07200D20A5
:1014E0001420172023202A2033203E2047204E207E
:1014F0004E20572066206720F894002411248AD0BB
:101500009BD00FEF00936400009365000BB50E7F36
:101510000BBDC0E0D0E066DE302F00FF03C00BB58E
:1015200001600BBD00E001B900E002B906E204B9B8
:1015300000E005B900E007B900E008B908E008E0FC
:101540000AB900E00BB900E00DB900E00EB900E007
:1015500000BB00E001BB07B10F7C07B906B1006317
:1015600008B922982A9A0BB50F750BBD03E00093BA
:101570002720E0EDF7E0F0932620E09325201124CA
:1015800014BE1EBA1ABC0BB501700BBD1BBE109267
:101590001320C1DA112410921F201092202001E0A4
:1015A00000931D2000E000931E2001E0009317200F
:1015B00058E0C8E1D0E016DE0F3F11F4002719DE35
:1015C000CF5FDF4F5A95B9F70E94DD20789401E094
:1015D00003BF00E000937C0000E000937B0006ED79
:1015E00000937A000E94501400E0009318200BB57D
:1015F00000FF0EC0CC245527B46094DCF5D90E94BE
:101600008A010E948A01E4E3F9E30E94AD01089592
:1016100023D908950FB70F93A89504B7077F04BF88
:10162000F8940091600008610093600000700093DE
:1016300060000F910FBF089550E860E05093610083
:10164000609361000895009164000E7F0093640030
:1016500006ED00937A0000917A0006FDFBCF7FDA59
:10166000089500917A000F7700937A00009164004A
:1016700001600093640073DA0895CF93DF93DF91E4
:10168000CF910E9447102223C1F0CF93DF9301E254
:10169000C01680F411240C2CC0921520C2E7DFE1A3
:1016A000C019D1090E94460259930A94D9F7DF91D3
:1016B000CF9109C00E94600BA1CE0E94600BA3CE07
:1016C00000E00093152000E00093142050911520B5
:1016D0000C944F10CF93DF930E9447101124709108
:1016E000152060911420C1E7DFE1222361F0A1FF02
:1016F00003C00C2D0A9539F00E9446027A957517A1
:1017000072F0652F02C0761751F0C61BD1095881BF
:101710000E9434026395609314200C944C1073CE95
:10172000CF93DF930AB50F7D0ABD0E94CB0001E085
:101730004ED05881DF91CF910C944F10CF93DF930F
:101740000AB500620ABD0E94CB0002E040D0588377
:101750000C944C10CF93DF930AB50F7D0ABD0E9405
:10176000CB0001E034D03EDD502FDF91CF910C94BF
:101770004F10CF93DF933AB53F7B3ABD3AB5306215
:101780003ABD0E94CB0002E022D0052F0F93C0305B
:1017900000E1D0070F9111F02CDD17C0ECECFCE359
:1017A0000E94B10155273AB530643ABD219721DD39
:1017B0005A9519F44EE20E949C200F93C03000E02D
:1017C000D0070F9199F70E948A010C944C100C19C4
:1017D00089F00E9446025F930E9446020AB505FF07
:1017E00006C05F930E944602DF91CF910895D52FE6
:1017F000CF9108950E9446020AB505FF06C0052F45
:101800000E944602C02FDD270895C52FDD270895C9
:10181000EF93FF9350E20E943402CF920E94CB00DC
:10182000E8E4F8E165917591772311F40F9009C010
:101830006517C1F711240F90E2E9FFE1E019F10902
:101840007083FF91EF91089519201A201B201C200E
:101850001F20212022202320242000001124E50F16
:10186000F11D54910C944F10CF93DF9350E00E94E0
:1018700034020E943D10CC2049F058300AF0F5CDDA
:1018800060E8609361005093610004C05091610072
:101890000E9434020C944C10CF93DF935091660059
:1018A0000E9434020E943D105093660050916600E1
:1018B000DF91CF910C944F10009164000F7700934B
:1018C000640055270E9434020E943D100E944D047E
:1018D00000E250FD00E20093B8005098589A5198E9
:1018E000599A00270093B90000950093BB0004E0CB
:1018F0000093BC0004E90093BC00B5D00895D5C0A6
:10190000CAD0CF93DF9321975881523261F45A9114
:10191000523219F00E943402FACF5F915F910E9417
:1019200048012C2D07C0DF91CF910E944710222340
:1019300009F4BCC00FB70F93F894EF93FF931124F1
:10194000E2E9FFE1C21AEC19F1095DD952912A9539
:101950005093BB0004EC0093BC008AD00091B90006
:10196000087F083121F0003411F0083211F42223ED
:1019700069F755D9FF91EF910F910FBF74C08BD0CC
:101980000E94471019F41BB514601BBD3CD90FB75A
:101990000F93F894EF93FF93112451E01BB512FDC0
:1019A00007C001E20E944602501712F038D97CC0ED
:1019B000752F1BB512FD06C0E2E7FFE1109214205F
:1019C0005093152004EC60E57A9519F404E868E575
:1019D0007FEF0093BC004CD05091B900587F561354
:1019E0000BC05091BB001BB512FD04C0529377FF92
:1019F000EBCF06C00E9434021BB512FF10921520D7
:101A0000FF91EF910CD90F910FBF1BB512FF2BC0A7
:101A10001BB51B7F1BBD08953ED00E943D10509307
:101A2000BB0004E80093BC000091BC0007FFFCCFA2
:101A30001AD0089530D0087F0093BC0004EA0093C8
:101A4000BC0016D010D0089526D004E90093BC0045
:101A50000FEF0093BB0007D008955091BC0052FFD8
:101A60001FC001D008955091B900587F0C944F10B9
:101A7000EF93FF93E0EAFFE00090BC0007FC08C092
:101A800067D83197C9F7CBD808E100931220F2CC80
:101A9000FF91EF9108950091BC0002FF01C00895ED
:101AA00003E100931220E6CCD1CCBCCCD9CCA1D0A0
:101AB000CF93DF9321975881523261F45A91523279
:101AC00019F00E943402FACF5F915F910E944801A1
:101AD0002C2D06C0DF91CF910E94471009F4C0CC95
:101AE0000FB70F93F894EF93FF931124E2E9FFE10E
:101AF000C21AEC19F10987D852915EBD0DB507FFE6
:101B0000FDCF5EB52A95C1F78AD8FF91EF910F916D
:101B10000FBF08956ED077D80FB70F93F894EF9357
:101B2000FF9311240E94471011F4552707C001E2CA
:101B30000E944602501712F072D888CC752F0EB44E
:101B4000552341F41EBC0DB507FFFDCF5EB50E94C5
:101B500034020EC0E2E7FFE11092142050931520EA
:101B60001EBC0DB507FFFDCF5EB552937A95C1F748
:101B7000FF91EF9154D80F910FBF08950091640029
:101B80000B7F0093640052E00E94340276D20E94E0
:101B90004804550F550F34D00CB5037F052B0CBDF1
:101BA00008956BD20E944D040CB500620CBD50FD2F
:101BB00003C00CB50F7D0CBD08955FD20E94430495
:101BC000052E53700CB5087F052B0CBD0DB50160BB
:101BD0000DBD02FC03C00DB50E7F0DBD089509D0EB
:101BE00051E00E94340249D2289A50FD01C0289841
:101BF00008950CB506FD08950AE1009312203ACC31
:101C0000009164000B7F0093640004B1076004B985
:101C1000289A01E50CBD0DB50E7F0DBD08955EBD82
:101C20000DB507FFFDCF0EB508955EBD0DB507FFDD
:101C3000FDCF5EB50895AED0EF5DFF4F50810C949F
:101C40004F10A8D0EF93FF9318D2FF91EF91EF5D63
:101C5000FF4F0F93E73200E0F0070F9131F00F9341
:101C6000E03300E0F0070F91A9F4EF93FF93E3E076
:101C7000F0E009E007BF0491FF91EF9107FF0C949A
:101C8000490E05B7006805BF05B7006805BF0C948D
:101C90004A0E5F70508308957DD0EF93FF930E94AA
:101CA000CB000E94A7020E944602FF91EF91EF5DD8
:101CB000FF4F75C06FD0EF93FF930E94CB000E943F
:101CC000A7020E944602FF91EF91EF5DFF4F6BC0AC
:101CD00061D0EF93FF93D1D1FF91EF91EE5DFF4F74
:101CE0005083089557D0E05EFF4F50810C944F1001
:101CF00051D0EF93FF930E94CB000E94A7020E9455
:101D00004602FF91EF91EE5DFF4F49C043D0EF9344
:101D1000FF930E94CB000E94A7020E944602FF91FF
:101D2000EF91EE5DFF4F3FC035D0EF93FF930E94E0
:101D3000CB000E94A7020E944602FF91EF91EE5D48
:101D4000FF4F36C027D0EF93FF930E94CB000E9435
:101D5000A7020E944602FF91EF91EE5DFF4F28D04F
:101D60000E94CA0525D0089515D0EF93FF930E94D5
:101D7000CB000E94A7020E944602FF91EF91E05E15
:101D8000FF4F0081052350E000230FB601FE51E014
:101D90000C944F10515403E0509FF00108950081BE
:101DA000052B008308955095008105230083089535
:101DB0000081052700830895CF93DF935ED1CC2067
:101DC00011F4662705C00E944D04652F0E9446024B
:101DD00000916400077F0093640011241092820038
:101DE00060FF01C009C0009180000168259A10922F
:101DF00089005093880008C0009180000162269AF3
:101E000010928B0050938A000093800009E00093A9
:101E100081000C944C10CF93DF932FD15F930E94DD
:101E200046025F93CC2021F466275F917F9107C023
:101E30007F915F910E944D04652F0E9446020091A0
:101E40006400077F0093640011241092820060FFF9
:101E500001C009C0009180000368259A5093890051
:101E60007093880008C0009180000362269A509306
:101E70008B0070938A000093800009E0009381003A
:101E80000C944C1000270093810000938000009375
:101E90008200009164000860009364000895F2D00D
:101EA000509F11200AB507FD11F4502DF8C00FE026
:101EB00000931220DFCA5F93E0D055230AB407FCD9
:101EC000C1F0052F0E944602652F772759E0661F53
:101ED0005A9541F0771F701B18F4700F8894F7CF54
:101EE0000894F5CF5F915F3011F4562F01C0572F42
:101EF000D6C001E100931220BDCAC4D0500F0AB56C
:101F000007FD08F0CCC00FE000931220B3CABAD08E
:101F1000501B0AB507FD08F0C2C000E10093122073
:101F2000A9CAB0D050170FB701FF10C011C0AAD076
:101F300050170FB701FF0CC009C05F93A3D06F917A
:101F40006C3111F4501701C0051710F0552750FDE2
:101F500051E0A5C00E94BA0F662319F056956A9504
:101F6000E9F79DC00E94BA0F662319F0550F6A95D4
:101F7000E9F795C08CD00E944602222311F461E05B
:101F800008950E944304652F0E94460208957AD066
:101F9000502385C077D0502B82C074D050277FC08B
:101FA0006CD050957CC069D0519579C066D052955F
:101FB00076C063D052955F7072C004EB50911620CA
:101FC000579508F45027509316200E9434020E941F
:101FD000CB00089552D05F7062C04FD000E8551F0B
:101FE0000795E8F7502F5BC0E89401C06894EF9321
:101FF000FF9311240E94471041F400901520002007
:1020000009F401CAE2E7FFE107C000E220170AF085
:10201000F5C9022EE2E9FFE126F00DD0C21A2C2DFF
:1020200005C019D0572F0E943402562F0E94340247
:10203000FF91EF91089550E07CE8029168E0302F25
:10204000352756950695369508F457276A95B9F7BA
:102050000A9499F708957FEF6FEF08E0202E5291D0
:102060007527660F771F20F400E1702701E26027D3
:102070002A94B9F70A9489F708950E94CB000E9428
:1020800046020895FADF052F0E944602089522278E
:102090000E94CB0022230895DF91CF9108950E94E2
:1020A00034020895CF920E94CB0055270F910C194E
:1020B00011F00E944602C7DA00E000937B00009115
:1020C0007C00007E5F71052B00937C00583062F429
:1020D00057700E94AA020E94460200917E00502B77
:1020E00050937E000E94A1055527662770E1F89461
:1020F00006ED00937A0000917A0006FDFBCF8091F7
:10210000780090917900580F691F7A9589F7789433
:1021100076E0669557957A95E1F70E94340200E0E3
:1021200000937E009EDA089555270E943402A5DFB1
:102130000E944D0488DA00E00BBF00917C000F7311
:1021400050FD006050FF006C00937C000E94BD05B4
:10215000089552E00E94340290DF553008F076C9AD
:102160000AB5087F052B0ABD08956DDA0DD05527F5
:1021700000B605FC51E000B7006800BF72DA0E94AB
:1021800034020E94CB00089500E000937A0000E141
:1021900000937A0050917B005F7B50937B0000B7E7
:1021A0000870006500BF5AB552FF02C054E011C06C
:1021B00050917B00506450937B005AB5537000914E
:1021C0007C00007E052B00937C000E94AA02CA942A
:1021D0002A9550937F000E94B6050895F39A1895AA
:1021E00055270E94340249DF0E94430400911720C2
:1021F000087F502B5093172000916400077F0093B5
:102200006400009171000D7F0093710008BB009382
:1022100092000093900000939100089551E00E9475
:1022200034022BDF0E944D04009117200F7750FFDE
:1022300001C00068009317200895CF93DF936FEFDC
:10224000552768BB50939000509391005093920093
:1022500050939500509394006E980E94030600914D
:1022600070000F9300E00093700000911720702F12
:1022700070788894771F771F76600770E3E4F1E148
:10228000E00FF51F09941FC006C005C004C008C0B8
:1022900007C006C00CC0033008F005E0002E09C0DE
:1022A0006AE00350033008F005E0069F02C004E630
:1022B000002E5093950050939400709391000E94CB
:1022C000CA050A94E1F70F91009370000E940F066F
:1022D0005091940060919500002700939100C0995F
:1022E00006C0C1E5DFE16883DF91CF91D8CEDF91F1
:1022F000CF910EE000931220BDD8BFDE352F889419
:102300000AD00895BADE352F089405D008950E94AA
:10231000BE11532FC4CE63D0F59807B10F7C07B917
:102320005AD079E0F59923C0359BFCCF3C98449A6C
:1023300010F03C9A4498F5991AC03D9A45980E942D
:10234000BD053D98459A0E94BD053599F4CF18F01A
:102350003C98449A02C044983C9AF59908C0359B31
:10236000FCCF3C98449A331F7A95E1F604C0E6E628
:10237000F0E40E94AD014ED92AD0089530D007B1C3
:102380000F7C07B928D079E0F59919C03599FCCFB1
:102390008894349B08C0089445983D9AF5990FC0DD
:1023A0003499FCCF06C045983D9AF59908C0349BF6
:1023B000FCCF3D98459A331F7A9531F705C0E6E684
:1023C000F0E40E94AD015FEF25D901D008953D985A
:1023D0003C98459A089506B1006306B90895F598AA
:1023E00008E10093600005E400936000A89508955B
:1023F00044DE952F0E944602852F02DC289853E088
:102400000EDC0E94B81211DC289A49CE36DE952FD8
:102410000E944602852FF4DB289856E000DC289ABB
:1024200052E0FDDB0E94B8120E944602F8DB289AB7
:102430000E94BD0555E0F3DBF8DB289A5523C1F770
:10244000089555270E9434020E94CB0080911F20DE
:1024500090912020E0DF8F5F9F4F9093202080930A
:102460001F20089500240092202000921F2008952C
:1024700051E00E94340201DE552319F050931D20D3
:1024800008950C94260AF9DD552359F1952F8827D4
:102490000E9446020C01952FB3DB0E94BD052898CF
:1024A00053E0BDDB0E94B812C00120901D20BDDBAF
:1024B0000E943C090E94B302019779F02A9429F402
:1024C0000E948A0120901D2003C04CE20E949C20A3
:1024D000B0FFEDCF0E948205BE7F289A0E948A013C
:1024E00008950C941C0A55270E943402C6DD5093AF
:1024F0001E20089555270E94340251E00E943402A4
:10250000BCDD552311F40C941C0A04E0059F0E94C5
:102510004602952F882774DB289856E080DB289A9E
:1025200052E07DDB0E94B81250911E2070E477DBF0
:102530007A95E9F7289A0E94AF0555E070DB75DBC4
:10254000289A5523C1F7805C9F4FCF93DF93E0011A
:1025500021970E01DF91CF9101F708951F208DDDA6
:102560000E944804ECE5F5E279D908950C94120A2A
:10257000592F55DB582F53DB089555270E943402FD
:102580007CDD5523C9F05A3010F00C94260AA8952A
:1025900004B7077F04BF052F5770000F000F0072AC
:1025A0000064502BF89408E10093600050936000A1
:1025B0000EB307700EBB13C046D860917B006F7BD3
:1025C00060937B005AB551FD06C000E100937A008C
:1025D00000E400937B0060B7606160BF42D87894EC
:1025E000889500005EB3507C21F0F799F798F69932
:1025F000F6980091C80007FD0895F59B02C0F59874
:102600000895F39BECCFF3980895CF93DF9355276C
:102610000E94340232DD0E944D0450FD04C053D0AC
:102620005D98559807C066D0002700935020559AB2
:102630005D9829D031CD7F937FB77F936F935F9360
:10264000EF93FF9371E07BBFFFEDE091502050913D
:102650004D2060914E2070914F20E50EF61EE71F31
:102660005691E093502050FF03C000005D9A03C0D4
:102670005D9800000000FF91EF915F916F917F9155
:102680007FBF7F9118951124009164000F7B009308
:10269000640017BA1092B2001092B0001092B1000C
:1026A0001092B3001092B40004E80093B30002E06B
:1026B0000093B00001E00093B1000091700002604F
:1026C000009370000895112417BA1092B000109270
:1026D000B1001092B2001092B4001092B3000091B9
:1026E00070000D7F009370000091640000640093FF
:1026F00064000895CFE4DFE10E949D0500EF102EF5
:10270000088001200294002029F089E999E909EA6A
:102710003CD0F9CF099012940120002029F08CE5DB
:102720009FE80AE232D0F9CF088012940120029487
:10273000002029F089E891E404E027D0F9CF09903E
:1027400012940120002029F084EF9CE600E01DD0C7
:10275000F9CF0880129401200294002029F085EE20
:102760009AE000E012D0F9CF0880129401200020F6
:1027700029F086E191E000E008D0C9F750934D20A0
:1027800060934E2070934F200895581F691F701F4B
:102790000A9408950F93CF93DF93EF93FF93FFB7BE
:1027A000FF93992011F09A9416C0F0911920E091AE
:1027B0001A20D0911B20C0911C20CF5FDF4FEF4F1C
:1027C000FF4FE0931A20F0931920C0931C20D09360
:1027D0001B2090901820E0912520F09126200F9347
:1027E000E03000E0F0070F9149F03197F093262098
:1027F000E09325200BB500640BBD03C00BB50F7B28
:102800000BBDF79AFF91FFBFFF91EF91DF91CF9141
:102810000F9118950E94CB000E9446020E94480426
:10282000552311F450E005C0513011F45AE001C0B5
:1028300054E650931820952E0895CF93DF93C9E165
:10284000D0E20027099309930993088325CC4F937D
:10285000CF93DF93EF93FF93C9E1D0E2A0FD04C0D3
:102860005B810E9434020CC0F0911920E0911A2083
:10287000D0911B20C0911C200E9466090E948A01F1
:10288000FF91EF91DF91CF914F9108951C1B1A1981
:10289000F4DB0E944804ECE8F8E20E942E0C089554
:1028A000CF93DF93C9E1D0E20027099309930993FD
:1028B0000883009164000F7D00936400002705BB2E
:1028C00006BD04BD07BD05BD009508BD0CE707BDED
:1028D00002E004BD03E005BD00916E0002600093BC
:1028E0006E00DACBCF93DF930E94FA14709121200F
:1028F0006091232050912420772311F4662707C08C
:102900000BB505FF0C949014563008F063950BB589
:1029100007FF6F77562F0E943402DF91CF91089501
:1029200067FB6F770AE0609F0027050E101EE0012D
:10293000772769E00E94D2096E5F7F4F332742E319
:102940000E94E60926F0605E7F4F0C94AA14605244
:1029500070406195562F0E943402DF91CF91089507
:102960000C94120ACF93DF930E94FA145091212005
:102970000E943402DF91CF91089555270BB506FDD3
:1029800051E08DCB55276AB565FD51E00E943402B8
:1029900074DB0E9434020E944D0450FF0C94D41446
:1029A0000BB500620BBD08950BB50F7D0BBD0895EF
:1029B00055276AB567FD51E00E9434025EDB0E9434
:1029C00034020E944D0450FF0C94EA140BB50068C9
:1029D0000BBD08950BB50F770BBD089551E205C0EF
:1029E00052E203C053E201C054E20E9434020E944A
:1029F000CB0008950BB506FD08957091272077232D
:102A000019F403E000932720E894009191000770E7
:102A100069F0009191000F93009171000F93009164
:102A200092000F93009190000F93689400E0009340
:102A300091007ED003E0229A2A980E94BD050A9553
:102A4000E1F7C1E2D0E200240092950000929400E8
:102A50008AE095E0552766272A9A229802E000939B
:102A6000910088950000F59B13C07FD00024009250
:102A7000222000922120009127200A9500932720F0
:102A80000FB701FF0895E6E6F0E40E94AD01089556
:102A90001A9B05C00092950000929400E2CF7091BD
:102AA0009400763418F400C0889401C008943A95D4
:102AB000551F8A95B1F69A9521F05993650F88E0D4
:102AC000D0CF53D0561751F000240092222000920C
:102AD0002120ECE7F0E40E94AD010895C2E2D0E2CB
:102AE00090912120809122200E948915C4E2D0E299
:102AF00090912320809124200E94891508950E949E
:102B00000F0600916E00026000936E00F5980C9421
:102B10003A0A97FB9F770E940509052F0F700883DB
:102B20002197507F52950E94490957F9588308957B
:102B300008E10093600000E400936000A895F59818
:102B400001E00BBB01E00093680004E000936B0020
:102B500000916E000D7F00936E0000916500077F6D
:102B6000009365000E94030608950E940F060E94CC
:102B70000A0B2EF000E0009391000C94CB150F91FE
:102B8000009390000F91009392000F9100937100B9
:102B90000F9100939100C0EDD7E0D0932620C09311
:102BA000252000916E00026000936E0000E000930B
:102BB000680000E000936B0001E00BBB089520D893
:102BC000249A2C9851E00E9434020E9434020E9400
:102BD00034025DDA01F1213019F02330E1F014C242
:102BE0000E944602552391F0533009F00BC2ECE4E9
:102BF000FCE255912590222029F1506210D8559180
:102C00000ED82A94E1F7289A3196F3CF50E207D8EC
:102C100058E0DED1D9C156E202D80E944602529550
:102C200056955660D5D155E20E940F0E0E9446027D
:102C30005F77CED150E20E940F0E0E9446025A9555
:102C40005A60C6D155270E943402AEC10001080067
:102C500001013F000201030003010300040103001E
:102C60000501020006010E00070170000A05E7E7F2
:102C7000E7E7E7000B05C2C2C2C2C2000C01C300F5
:102C80000D01C4000E01C5000F01C6001005E7E7E5
:102C9000E7E7E70011010000120100001301000046
:102CA0001401000015010000160100001C010000C5
:102CB0001D01000000000E94F90D0E94150E289AC7
:102CC00056FD02C05FEFEBC95E705695752F5395A8
:102CD000506182D1252E1124CF93DF93C2E7DFE12B
:102CE00010921420509315202C9851E60E940F0E3C
:102CF0000E94150E5A932A94D9F7289A0E94150E0D
:102D0000289A652F5E705E3031F4607457E20E943D
:102D10000F0E562F5DD1DF91CF91572FC0C90E9462
:102D2000F90DCF92CF92B3D90E94150E289A54FF75
:102D300005C057E20E940F0E50E14AD12C98222381
:102D4000A1F0222E11240F90EF93FF93E2E9FFE10F
:102D5000E019F10950EA0E940F0E52910E940F0EE5
:102D60002A94D9F7289AFF91EF912C9A0E94AF05E7
:102D70000E94AF052C985FE00E94BD055A95E1F7CF
:102D80000E94150E289A54FF02C053E004C057E178
:102D900023D150735295CF9082C90E94F90DEF93C1
:102DA000FF93CF93DF9373D909F42EC1622F6A95F5
:102DB000C2E9DFE13A911124E2E1FEE2032E000CC8
:102DC000E00DF11D05901490002009F41BC153E0A3
:102DD00003D15E5F752F011409F4702D1616C2F031
:102DE0006015B2F06717A1F450E3373019F0532F94
:102DF000565F50620E940F0E0E9446020E940F0E04
:102E00006A95D1F7289ADF91CF91FF91EF91DCC0BD
:102E1000FBC00305030501010101010101010000DF
:102E200003050E94F90D33D909F4CEC0223029F0F0
:102E3000D9D053955061D0D032C9DAD0752FD2D0C5
:102E4000352F252E239466270894661F2A94E9F7C8
:102E500052E0C2D0772311F0652B03C060956F73E9
:102E6000652352E20E940F0E562FB2D0532F539576
:102E700050630E940F0E572FABD0A6C0C3C00E9454
:102E8000F90D55270E943402F8D802E005176AF0C0
:102E900051FD02C050FF07C02C9A51FF95C00E94FF
:102EA000AF050E94AF052C988FC0ACC00E94F90DF1
:102EB000EED821F455E00E940F0E86C00E94460213
:102EC00057FDA0C05F9355E20E940F0E5F9180D026
:102ED0007BC00E94F90DDBD829F456E07DD05670F6
:102EE0005695DDC80E9446020E944804550F652F82
:102EF00056E072D0597F652B56E20E940F0E562F76
:102F000067D062C00E94F90DC2D839F456E064D08F
:102F10005870569556955695C2C80E9446020E9412
:102F20004D04550F550F550F652F56E055D0577F5F
:102F3000652B56E20E940F0E562F4AD045C00E94C4
:102F4000F90DA5D811F40C94300A0E944602652FA1
:102F50000E9446020DE1051732F050620E940F0EEA
:102F6000562F36D0089501E0009312200C943A0AAF
:102F70000E94F90D57E10E9434027FD80DE15017ED
:102F80000AF03CC00E940F0E1FC00E94F90D552789
:102F90000E94340272D8752F552331F451EE18D0A7
:102FA00052EE16D073E003C050EE572B11D057E00D
:102FB00013D0652F57E20E940F0E70FD606371FD04
:102FC0006064562F05D000C00E94150E289A67C86D
:102FD0000E940F0E289A08950E940F0E0E94150E4F
:102FE000289A08950E94460205E005175AF00895B0
:102FF0000E94460200E205172AF008950C94120A76
:103000000C94170A0C94260A0C94300A0E940306AA
:103010000FB70F93F8942D9A259A0E94BD052D980D
:1030200002E30E94AF050A95E1F72D9A259806E084
:103030000E94AF050A95E1F751E003B105FD552760
:103040000E94340202E30E94AF050A95E1F70F9156
:103050000FBF0E940F060E94CB00089518D811F4EC
:103060000C94300A0E9403060FB70F93F894EF9365
:10307000FF931124E2E9FFE1C21A58E0252E529194
:10308000579510F456D001C060D00E94A8052A942C
:10309000B9F70E94B1182A9581F7FF91EF910F912E
:1030A0000FBF0E940F0608950E9403060FB70F93EB
:1030B000F8940E94471021F41CD00E94340214C0DE
:1030C000CF93DF9311240E944602752FC2E7DFE100
:1030D00010921420509315200CD05A930E94B118CE
:1030E0007A95D1F7DF91CF910F910FBF0E940F0614
:1030F000089508E0202E09D0889400FD0894579583
:103100000E94A8052A94B9F708952D98259A0E943F
:10311000A8052D9A25980E94A8050FEF33B135FF19
:1031200000270F930AE00E94A8050A95E1F70F9186
:1031300008952D98259A0E94AF052D9A259806E0AE
:103140000E94AF050A95E1F70895259A2D9807E0AA
:103150000E94AF050A95E1F72D9A25980E94A805CF
:1031600008950E94A8050E94A8050E94A805089538
:1031700055270E9434020E943D100E944D04ECE04D
:10318000FCE30E94B10150FF06C0E4E1FCE30BB593
:1031900008600BBD05C0EAE1FCE30BB5077F0BBD82
:1031A0000E94B1010895E8E7FCE30E94B1019DD0BF
:1031B00000E1202EE0E0F0E08BD07FD00F93E030F4
:1031C00001E0F0070F9149F00E94BF20B0FD21C03F
:1031D0000E94CA0500E1202EEFCFBE7F8DC0E8E738
:1031E000FCE30E94B10181D000E1202EE0E0F1E09B
:1031F0006FD063D00F93E03001E2F0070F9149F0F8
:103200000E94BF20B0FD05C00E94CA0500E1202E2B
:10321000EFCFBE7F0E94FF05E2E9FCE30E94B1010F
:10322000809111200E948001809110200E948001D5
:103230000E948A0161C0E8E6FCE30E94B10155D01A
:1032400000E1202EE0E0F0E043D0F2BDE1BDF89ACD
:1032500080B50E94800140E20E949C20EF5FFF4FFA
:103260002A9499F70E948A010F93E03000E1F00759
:103270000F9151F00E94BF20B0FD06C029D00E94DE
:10328000CA0500E1202EE1CFBE7F36C00E94FF05B7
:10329000E4E5FCE30E94B10100E1202EE8E3FFE158
:1032A0000F93E2350FE1F0070F9128F411D005D00C
:1032B00000E1202EF5CF20D0089581910E94800159
:1032C00040E20E949C202A94C1F70E948A0108953E
:1032D0008F2F0E9480018E2F0E9480014AE30E945E
:1032E0009C2040E20E949C200895E0E2FCE30E94C2
:1032F000B1010E94FF0508950E94FF050E948A0106
:1033000008950E943D10852F0E944602952F0E942D
:1033100046025F930E9446025F930E944602052F79
:10332000FF91EF910E94FB05089550D0EF93FF931A
:10333000E4E3FDE30E94B101E2E5FDE30E94B10197
:10334000FF91EF918F2F0E9480018E2F0E948001AC
:103350000E948A010E948A0111240E94D3EC0E94DB
:10336000D1050091E80000FFFCCF0E9413ECF89417
:103370001DBA10BE1FBA10926E0010926F0010920C
:1033800070001092710010927200109273001092EF
:10339000C9001092BC0010927A0011B814B817B886
:1033A0001AB81DB810BA12B815B818B81BB81EB89C
:1033B00011BA01E004BFF89408E10093600009E34A
:1033C00000936000789488950000FFCFE3E0F0E080
:1033D00009E007BF049106950370003019F4E0E09E
:1033E000F0EF14C0013019F4E0E0F8EF0FC0023044
:1033F00019F4E0E0FCEF0AC0033019F4E0E0FEEF5E
:1034000005C00BE0009312200C943A0AEF93FF934F
:1034100008E0102E01E00BBFEE1FFF1F07910F3FCA
:1034200029F0003019F0FF91EF9108951A94B1F747
:1034300005E1009312200C943A0A4C495320CD0226
:1034400048454C509D0452554E20F4045341564576
:1034500038074C4F41448A0750524920F8025052D5
:1034600058200A03505242201B03454D495426045C
:10347000464F5220620350544F2075034E45585416
:10348000640346524520DC024E4557202C04504927
:1034900046205903544845205F03454E4420770396
:1034A00052535420D003434647205204501A1D2043
:1034B0003C0350501E209D0F50501C209D0F501C4F
:1034C0001E20970F50011D20970F50501D204503BF
:1034D00050500B207D0F50500D20870F50500A2068
:1034E0004F0F50500F205B0F4D4F44205B0F50503B
:1034F00005205B0F505004207903505007208D03A6
:10350000505002203003444154413D0B5245414448
:103510006A0B52455354630B5050402075034C5373
:103520005220AA0F4C534C20B20F50500620C70F08
:10353000414E4420C70F50505C20CA0F504F5220BC
:10354000CA0F50505E20CD0F584F5220CD0F434F21
:103550004D20D00F50500120D00F4E454720D30FA3
:1035600053574150D60F52454D2021044E4248201A
:10357000D90F4E424C20EA0F52455620ED0F524EC5
:103580004420DD0F414F5620BE0343524320F40F29
:1035900043525720F60F44454C41AE03474F542049
:1035A0001404474F53201704524554201A044B4526
:1035B00059206920434C4B20340C4F5343204C0C72
:1035C00041434F20B51041435320A910455241209B
:1035D000CC07494E4954C10743415420ED0750459B
:1035E000454B900B504F4B459E0B45455220AA0B27
:1035F00045455720B90B56504720080C534C5020D6
:10360000BD1244465720061244465220F811444643
:103610004C2021124446582032124446462038128B
:1036200044464420431244465620731244464920DF
:103630007A1244464120AF1252464920DF155246C5
:103640004120CD1652464320561752465020691746
:10365000524642201117524645203F1752465420E9
:103660008F16524658205B1652464620C5175246C2
:1036700044208217524657209F1752465220B817AF
:1036800044485420721444484820B21444485220FC
:10369000BD1444485520C21444485320D81444480B
:1036A0004920EE1444484420F01444544920F214B4
:1036B00044544420F414525449200A1452545220C1
:1036C0001D145254502027145254432048144F576D
:1036D000492006184F5757202E184F57522054187C
:1036E0004F444120210E494441201B0E53444120A8
:1036F0004C0E434441205A0E4F504120680E534215
:103700004120780E43424120860E58424120940EBB
:1037100050424120A20E494E4120720E49424120A2
:10372000B40E4F444220210E494442201B0E534404
:1037300042204C0E434442205A0E4F504220680E05
:1037400053424220780E43424220860E5842422085
:10375000940E50424220A20E494E4220720E49421F
:103760004220B40E4F444320210E494443201B0EF7
:10377000534443204C0E434443205A0E4F504320A1
:10378000680E53424320780E43424320860E58422F
:103790004320940E50424320A20E494E4320720E05
:1037A00049424320B40E4F444420210E4944442052
:1037B0001B0E534444204C0E434444205A0E4F5099
:1037C0004420680E53424420780E43424420860E23
:1037D00058424420940E50424420A20E494E4420A8
:1037E000720E49424420B40E4F444520210E4944F4
:1037F00045201B0E534445204C0E434445205A0E91
:103800004F504520680E53424520780E43424520D4
:10381000860E58424520940E50424520A20E494E35
:103820004520720E49424520B40E4F444620210ED9
:10383000494446201B0E534446204C0E4344462028
:103840005A0E4F504620680E53424620780E43428F
:103850004620860E58424620940E50424620A20E24
:10386000494E4620720E49424620B40E44535245FA
:1038700087114453434F8211445344457D114943BA
:103880004720F010494345200E11494350201D1197
:10389000505745200B0F50574D20DC0E50574F20EE
:1038A000420F4444532005134144432052104144E5
:1038B0005220941053504D20BE0D53504F20D10D27
:1038C00053504320DD0D53505720570D5350522075
:1038D0008A0D53505320EF0D545749205C0C545718
:1038E00053201A0D54575020240D545741200C0DCD
:1038F00054575720800C54575220BF0C5457422025
:103900002D0D44454220B81844554D50EF185644EB
:10391000554D46194944554DD3184544554D1B192D
:1039200046494C4C8119575446208B04424C445212
:1039300095190000F9363DFAF84174746F4241530D
:10394000494320666F722041543930555342313219
:103950003836204020384D487AFAF85665723A20B9
:10396000322E3336204275696C6420636F64653A89
:103970002032303231303331302E32333539FAF9AA
:10398000363D0000F8456E68616E63656D656E7466
:1039900073206279204B2053636F747420566974CE
:1039A000616C6520286B73765F70726A40676D7812
:1039B0002E636F6D29FAF841543930555342313234
:1039C000383620706F72742028432932303133FA30
:1039D000F84154393055534231323836205553422C
:1039E00020262044465520426F6F746C6F616465D9
:1039F00072FE3230313320FAF8312D576972652862
:103A00005229FE32303133FAF86E524632344C309D
:103A100031282B29205246205472616E73636569E8
:103A2000766572FE3230313320FAF844485420482B
:103A3000756D696469747920616E642054656D7078
:103A400065726174757265FE3230313320FAF84563
:103A500045502046696C652053797374656DFE325C
:103A6000303133FAF8536C6565702C205254432082
:103A7000616E6420446174612D66696C65FE32304C
:103A8000313220FAF85457492F5350492F444453A8
:103A9000202620496E7075742043617074757265BC
:103AA000FE32303131FAF9362DFAF84F7269676912
:103AB0006E616C20636F6465202843293230303298
:103AC000206279205269636861726420436170707A
:103AD000656C73FAF8687474703A2F2F70726F6A9D
:103AE000656374732E63617070656C732E6F72679B
:103AF000202070726F6A65637473406361707065D3
:103B00006C732E6F726720FAF9362DFAF85553420E
:103B10002053657269616C20492F4F202843293258
:103B20003030382C3230313020504A52432E434FFF
:103B30004D2C204C4C4320FAF8687474703A2F2FA7
:103B40007777772E706A72632E636F6D2F74656559
:103B50006E73792F20FAF9362DFAF84C554641202C
:103B6000426F6F746C6F6164657220577269747410
:103B7000656E206279204465616E2043616D6572D7
:103B800061FAF86465616E40666F757277616C6C9E
:103B9000656463756269636C652E636F6D202D20AB
:103BA000687474703A2F2F7777772E6C7566612D55
:103BB0006C69622E6F7267FAF9362DFAF8416C6CF7
:103BC0002072696768747320616E642072656D6528
:103BD0006469657320657870726573736C7920729F
:103BE00065736572766564FAF84E6F7420666F725D
:103BF00020636F6D6D65726369616C20757365FA22
:103C0000F9363DFA0000F9352DFA00004465627579
:103C1000672000006F6E20FA00006F6666FA0000F1
:103C2000F90620303020303120303220303320303F
:103C300034203035203036203037203038203039AD
:103C40002030412030422030432030442030452075
:103C50003046FA005661726961626C657320696E64
:103C60002052414D3AFA000045455020436F6E7492
:103C7000656E74733AFA000050524F4752414D201E
:103C80004D656D6F727920436F6E74656E74733A13
:103C9000FA004E65787420617661696C61626C65CA
:103CA000206C6F636174696F6E3A2000FB3A20509C
:103CB000726F6772616D20746F6F206C61726765DF
:103CC00020666F72204545502120FA0045726173CD
:103CD000696E672045455000536176696E672046DE
:103CE000696C6520232000004C6F6164696E672059
:103CF00046696C6520232000456D70747900206250
:103D000079746573203E2000427265616BFA000091
:103D100020627974657320757365642E202000001D
:103D200020627974657320667265652E20FA000042
:103D300008200800FA4578697420796F757220743C
:103D400065726D696E616C2070726F6772616D2E45
:103D50000000FA496E766F6B696E6720626F6F7450
:103D60006C6F616465722028696E2038207365630A
:103D700073292061742030780000F8343220697390
:103D80002074686520416E7377657220746F2074AB
:103D9000686520556C74696D617465205175657333
:103DA00074696F6E20FAF86F66204C6966652C2086
:103DB00074686520556E6976657273652C20616E36
:103DC000642045766572797468696E6720FAF82810
:103DD000687474703A2F2F7777772E626574656DEB
:103DE000756E61682E6F72672F666F727479747763
:103DF0006F2E68746D6C29FA0000F8536F204C6FB9
:103E00006E672C20616E64205468616E6B7320664F
:103E10006F7220416C6C207468652046697368FA83
:103E2000000056616C75652065786365656465643E
:103E30002072616E67650000206E6F742000207331
:103E40007570706F72742028432900004C696E658C
:103E5000202320004572726F723A0000FB556E6B92
:103E60006E6F776E20636F6D6D616E64206F722070
:103E70006F70657261746F722E00FBFC206F66209C
:103E8000303A32353500FB50726F6772616D206DCC
:103E9000656D6F72792069732066756C6C00FB43E9
:103EA0006861726163746572FD61207265636F673A
:103EB0006E697A656420747970652E00FB427566C0
:103EC000666572206C696D697420657863656564E8
:103ED00065642E00FB426164207661726961626CE8
:103EE00065206E616D652E00FB546F6F206D616EF5
:103EF0007920617267756D656E74732E2000FB56B4
:103F0000616C756520776173FD617661696C6162D2
:103F10006C652E00FB4D616368696E65207374618A
:103F2000636B206572726F7220FAF9092046756E14
:103F30006374696F6E7320746F6F20636F6D706C44
:103F40006578206F722063616C6C73206E6573748A
:103F5000656420746F6F20646565706C7900FB4741
:103F60004F544F206F7220474F5355422064657362
:103F700074696E6174696F6EFD666F756E642E0094
:103F8000FBFC206F6620303A3700FB4C696E6520E1
:103F90006E756D626572203E2033206469676974B6
:103FA0007300FBFC206F6620303A3100FBFC206F71
:103FB0006620303A3300FB494350207265676973CD
:103FC000746572206F766572666C6F772E00FB41A8
:103FD000726974686D65746963206F766572666C6A
:103FE0006F772E00FB41726974686D657469632098
:103FF000756E646572666C6F772E2000FB4469767F
:10400000696465206279207A65726F2E2000FB4515
:104010006D7074792046696C6500FB545749FD65E5
:104020006E61626C65642E00FB31343A2000FB3A0D
:10403000204E6F20426F6F742D6C6F61646572202B
:10404000666F756E642EFB5370656369666965649F
:1040500020FC2E00FB5365742041432052656620EE
:104060003E20302E2000FB446576696365206E6F2C
:104070006E2D726573706F6E73652E00FB446576EE
:1040800069636520636865636B73756D2E00FB5310
:10409000504920FD656E61626C656400FBFD612026
:1040A00062696E617279206E756D62657200FB499E
:1040B0006E76616C6964206E756D626572206F66E4
:1040C00020617267756D656E74732E0000000000CC
:1040D0001895889500008091AC20882381F02F935B
:1040E0001F9211240E9447EC1F902F91882389F37F
:1040F0002F931F9211240E9424EC1F902F91582F70
:10410000533009F4B1600C944F1003B7016003BF42
:104110007894889500008091AC208823B1F32F9388
:104120003F931F9211240E9424EC1F903F912F91E6
:10413000992371F7382F08951F9211249F932F937D
:104140002091AC20222321F42F919F911F9008955C
:104150000E94BF20B1FF0C94B2200E9447EC88233C
:10416000E1F3BD7F3F934F93842F0E9474EC88232B
:10417000D9F74F913F912F919F911F900895809172
:10418000AC208823C9F02F931F9211240E9447EC82
:104190001F902F91882309F408952F931F921124C3
:1041A0000E9424EC1F902F91082F033111F4B2606C
:1041B0000895033009F4B16008950E9413EC0E9441
:1041C000D1050E94D1050E94F5EB0E94D8050FE0B1
:1041D00011E60BB400FE02C001E010E6202EF598B7
:1041E000A89508E100936000109360008895000096
:1041F000F5990DC08091AC208823C1F30091A820CF
:1042000001FFF4CF0E9461EC0E94D3EC0AC02A9413
:1042100031F70E940A0BF5990E9413EC0BB500FFD1
:0C422000D2CFA8950E940A0BF5980895D3
:020000021000EC
:10D7E0008091E80080FFFCCF0895809165008F77DD
:10D7F0008093650081E88093D70080EA8093D80009
:10D800008EE089BD09B400FEFDCF80E98093D80089
:10D810001092E0001092AC201092A8208CE080932F
:10D82000E2007894089511241092E20081E0809340
:10D83000E0001092D80019BC1092AC208093AB206D
:10D8400008958091AC2008959FB7F8948091AC2002
:10D85000882369F083E08093E9002BE68091E8005B
:10D8600085FD09C082FF03C02093E800F7CF9FBF6A
:10D870008FEF9FEF08958091F1002091E80025FD42
:10D8800003C02BE62093E8009FBF90E008952FB7D8
:10D89000F8948091AC20811102C080E010C083E038
:10D8A0008093E9008091F200811109C09091E80015
:10D8B00092FFF3CF95FDF1CF9BE69093E8002FBF49
:10D8C00008958091AC20882371F08FB7F89493E08D
:10D8D0009093E9002BE69091E80095FF03C0209318
:10D8E000E800F9CF8FBF08959091AC20992371F093
:10D8F0009FB7F89424E02093E9002091A9202223E7
:10D9000049F02091E80025FD03C09FBF8FEF0895E7
:10D910001092A9202091E400275E34E04091E800B5
:10D9200045FD12C09FBF9091E400921304C081E0B6
:10D930008093A920EBCF9091AC20992339F39FB726
:10D94000F8943093E900EACF8093F1008091E800E9
:10D9500085FD03C08AE38093E80085E08093AA20D8
:10D960009FBF80E008959091AC209923D1F09FB79C
:10D97000F89424E02093E9002091E80025FD02C0FE
:10D980009FBF0FC08093F1008091E80085FD03C028
:10D990008AE38093E80085E08093AA209FBF80E01F
:10D9A00008958FEF08958FB7F8949091AA20992346
:10D9B00041F094E09093E9009AE39093E80010928C
:10D9C000AA208FBF08956091A0207091A12080911E
:10D9D000A2209091A32008958091A4200895809181
:10D9E000A52008958091A62008958091A8200895EB
:10D9F0009FB7F8942091AC20222339F022E02093A5
:10DA0000E9002091E80025FD03C09FBF8FEF089536
:10DA100021EA2093F10020E22093F1001092F1001E
:10DA20001092F1001092F1001092F10021E0209389
:10DA3000F1001092F1008093F1008AE38093E800F6
:10DA40009FBF80E008951F920F920FB60F9211248E
:10DA50008F939F938091E1001092E10083FF11C0AA
:10DA60001092E90091E09093EB001092EC0092E1AB
:10DA70009093ED0098E09093F0001092AC201092FB
:10DA8000A82082FF13C08091AC20882379F0809178
:10DA9000AA20882359F081508093AA20811106C0C2
:10DAA00084E08093E9008AE38093E8009F918F915E
:10DAB0000F900FBE0F901F9018951F920F920FB6E8
:10DAC0000F9211240BB60F92EF92FF921F932F9398
:10DAD0003F934F935F936F937F938F939F93AF93F6
:10DAE000BF93CF93DF93EF93FF931092E900809160
:10DAF000E80083FF25C11091F1008091F100E090D2
:10DB0000F1009091F100F12CF92AC091F10090916F
:10DB1000F100D0E0D92B2091F100A091F10092EF1B
:10DB20009093E800863009F057C036E080E29EED21
:10DB3000E1E0EBBFFC01479156914E155F0559F4AA
:10DB4000AC014E5F5F4FE1E0EBBFFA0147915691A8
:10DB50004C175D0721F00796315051F7F1C0BC0119
:10DB60006C5F7F4FE1E0EBBFFB016791769106961A
:10DB7000E1E0EBBFFC018791969130E03A2B2F3F1B
:10DB8000310519F010F02FEF30E0281708F4822F3C
:10DB90003EEF9091E800292F2570D9F392FDD3C074
:10DBA000982F813108F090E1AB01292F222351F009
:10DBB000E1E0EBBFFA01A791A093F10021504F5F84
:10DBC0005F4FF4CF690F711D891B3093E8008111FD
:10DBD000E0CF9031F1F2B7C0853049F48EEF8093F9
:10DBE000E800FEDD8E2D80688093E300ACC08930B4
:10DBF00009F032C01111A4C0E092AC201092A8200C
:10DC00001092AA208EEF8093E80041E08DEE9EED09
:10DC10004093E9009C012F5F3F4FE1E0EBBFFC0127
:10DC200057915093EB00552381F0E1E0EBBFF901F0
:10DC300027912093EC009C012D5F3F4F0296E1E07D
:10DC4000EBBFFC0187918093ED004F5F453011F0F1
:10DC5000C901DECF8EE16FC0883049F4103809F079
:10DC60006FC0BEDD8091AC208093F10043C0813253
:10DC700071F4113A09F064C0B3DDE0EAF0E287E044
:10DC80008E0F91919093F1008E13FBCF33C08032B1
:10DC9000A1F4113209F054C08091E80082FFFCCF5A
:10DCA000E0EAF0E287E08E0F9091F10091938E13FD
:10DCB000FBCF8BEF8093E8001DC0823239F4113224
:10DCC00009F03EC0E092A8208BDD14C0811116C07F
:10DCD00087DD123851F4C093E9008091EB0085FB99
:10DCE000882780F91092E90001C080E08093F1005C
:10DCF0001092F1008EEF8093E80025C0982F9D7F51
:10DD00009130F1F41230E1F4EF28D1F4CF779FEFA6
:10DD10009C0F9430A8F49EEF9093E800C093E90024
:10DD2000833071F089E18093EB0081E090E001C0E5
:10DD3000880FCA95EAF78093EA001092EA0003C0C0
:10DD400081E28093EB00FF91EF91DF91CF91BF9142
:10DD5000AF919F918F917F916F915F914F913F9183
:10DD60002F911F91FF90EF900F900BBE0F900FBE61
:10DD70000F901F90189500E1000000000800FFFFC1
:10DD8000FFFFFFFFFFFFFFFFFFFFFFFFFFFFFFFFA3
:10DD9000FFFFFFFFFFFFFFFFFFFFFFFFFFFFFFFF93
:10DDA000FFFFFFFFFFFFFFFFFFFFFFFFFFFFFFFF83
:10DDB000FFFFFFFFFFFFFFFFFFFFFFFFFFFFFFFF73
:10DDC000FFFFFFFFFFFFFFFFFFFFFFFFFFFFFFFF63
:10DDD000FFFFFFFFFFFFFFFFFFFFFFFFFFFFFFFF53
:10DDE000FFFFFFFFFFFFFFFFFFFFFFFFFFFFFFFF43
:10DDF000FFFFFFFFFFFFFFFFFFFFFFFFFFFFFFFF33
:10DE0000FFFFFFFFFFFFFFFFFFFFFFFFFFFFFFFF22
:10DE1000FFFFFFFFFFFFFFFFFFFFFFFFFFFFFFFF12
:10DE200000010000DBDE120002000098DE43000368
:10DE3000000094DE04010309048ADE0802030904D9
:10DE400068DE20030309044ADE1C1C03530046005D
:10DE500047002D0032003000300020005600320014
:10DE60002E003600310000002003410074007400D1
:10DE70006F0042004100530049004300200056005B
:10DE800032002E0033003600000008034B00530020
:10DE9000560000000403090409024300020100C007
:10DEA00032090400000102020100052400100105EE
:10DEB000240101010424020605240600010705824D
:10DEC0000310004009040100020A000000070503D6
:10DED0000280000007058402800000120100020297
:10DEE000000010C0167A040001010203010001C104
:08DEF000120180060181060009
:10DF00000000000000000000000000000000000011
:10DF10000000000000000000000000000000000001
:10DF200000000000000000000000000000000000F1
:10DF300000000000000000000000000000000000E1
:10DF400000000000000000000000000000000000D1
:10DF500000000000000000000000000000000000C1
:10DF600000000000000000000000000000000000B1
:10DF700000000000000000000000000000000000A1
:10DF8000FFFFFFFFFFFFFFFFFFFFFFFFFFFFFFFFA1
:10DF9000FFFFFFFFFFFFFFFFFFFFFFFFFFFFFFFF91
:10DFA000FFFFFFFFFFFFFFFFFFFFFFFFFFFFFFFF81
:10DFB000FFFFFFFFFFFFFFFFFFFFFFFFFFFFFFFF71
:10DFC000FFFFFFFFFFFFFFFFFFFFFFFFFFFFFFFF61
:10DFD000FFFFFFFFFFFFFFFFFFFFFFFFFFFFFFFF51
:10DFE000FFFFFFFFFFFFFFFFFFFFFFFFFFFFFFFF41
:10DFF000FFFFFFFFFFFFFFFFFFFFFFFFFFFFFFFF31
:10E0000055C0000070C000006EC000006CC0000071
:10E010006AC0000068C0000066C0000064C0000064
:10E0200062C0000060C0000076C400005CC0000058
:10E030005AC0000058C0000056C0000054C0000084
:10E0400052C0000050C000004EC000004CC0000094
:10E05000A8C0000048C0000046C0000044C0000046
:10E0600042C0000040C000003EC000003CC00000B4
:10E070003AC0000038C0000036C0000034C00000C4
:10E0800032C0000030C000002EC000002CC00000D4
:10E090002AC0000028C000007CF595F53EF695F5F5
:10E0A0003EF6CDF5F1F53EF611F623F611241FBE2E
:10E0B000CFEFD0E2DEBFCDBF11E0A0E0B1E0E6E3FC
:10E0C000FEEE01E00BBF02C007900D92AC38B10725
:10E0D000D9F721E0ACE8B1E001C01D92AA39B2073E
:10E0E000E1F717D3A6C68CCF84E08093E900809136
:10E0F000E80085FD0DC08091E8008B778093E800F3
:10E100008091E80082FDF3CF8EB38111F9CF02C078
:10E110008091F100089593E09093E9009091E800D8
:10E1200095FF03C08093F10008959091E8009E77D9
:10E130009093E8009091E80090FDF4CF9EB3911188
:10E14000F9CF0895CF9384B7877F84BF0FB6F89433
:10E15000A8958091600088618093600010926000B3
:10E160000FBE90E080E80FB6F89480936100909322
:10E1700061000FBEC1E0C5BF82E085BFB6D36E9A15
:10E180007698C0936F0083E080938100CF910895CB
:10E19000E0EEF0E080818160808381E085BF15BE84
:10E1A00008951F920F920FB60F9211248F938EB184
:10E1B00080748EB98F910F900FBE0F901F9018959D
:10E1C00042E061EC82E021D342E161E883E01DD3CB
:10E1D00042E160E884E019C3809192018F77813237
:10E1E00071F58EB180748EB9809193018032A1F067
:10E1F000813229F580919201813A09F58091E800F8
:10E20000877F8093E80067E070E081E091E04CD583
:10E210008091E8008B7711C080919201813279F46E
:10E220008091E800877F8093E80067E070E081E0FC
:10E2300091E093D58091E8008E778093E80008956F
:10E240006F927F928F929F92AF92BF92CF92DF9206
:10E25000EF92FF920F931F93CF93DF9384E080930D
:10E26000E9008091E80082FF45C23EDFC82F853477
:10E2700019F41092000103C0843521F435DF8DE0DC
:10E280004ADF0FC28C34D9F38035C9F3843711F4D7
:10E2900084E482C0813611F489E5F2CF813491F4AF
:10E2A00023DFC82F21DF90E0880F991F2C2F30E04B
:10E2B000322F2227330F822B932B092E000CAA0B0F
:10E2C000BB0BC3C1803711F483E5DACF833549F442
:10E2D000C4E8D1E01C2F195F89911DDF1C13FCCF0E
:10E2E000E0C1863521F481E316DF80E3C9CF8337AF
:10E2F00031F482E810DF87E90EDF8EE1C1CF853689
:10E3000011F580E090E0DC0123E035E0FC01A09312
:10E310005B0020935700E89507B600FCFDCFFC0199
:10E32000A0935B0030935700E89507B600FCFDCF43
:10E330009F5FAF4FBF4F811540EE940741E0A407A8
:10E34000B10521F79CCF8C3651F4CEDE809599E053
:10E35000E1E0F0E0082E90935700E89590CF8237E7
:10E3600019F4E1E0F0E00EC0863419F4E0E0F0E0EA
:10E3700009C08E3419F4E3E0F0E004C0813539F4CB
:10E38000E2E0F0E089E080935700849179CF823613
:10E3900031F489E5C0DE81E0BEDE80E071CF8234F9
:10E3A00019F0873609F0D2C09FDE082F9DDED82FE6
:10E3B0009BDE182F8BEB810F823010F08FE360CF44
:10E3C0002D2F30E0302BC73609F048C081E1809313
:10E3D0005700E895E90100E0BB24B394209709F4C5
:10E3E00060C1C0908C01D0908D01E0908E01F090C2
:10E3F0008F01D701C6011634B1F4802BABBFFC01ED
:10E40000879189DE002369F082E0C80ED11CE11CEF
:10E41000F11CC0928C01D0928D01E0928E01F0929D
:10E420008F010B2519C0B695A79597958795EBD4C5
:10E4300072DE80918C0190918D01A0918E01B0913E
:10E440008F010296A11DB11D80938C0190938D01C7
:10E45000A0938E01B0938F012197C0CF80908C0143
:10E4600090908D01A0908E01B0908F01163451F4E0
:10E4700083E0F401A0925B0080935700E89507B613
:10E4800000FCFDCFE901712C00E066246394209725
:10E4900009F44EC0163441F5002311F1C0908C01EF
:10E4A000D0908D01E0908E01F0908F011DDE272D20
:10E4B00030E0382B0901F601E0925B0060925700D2
:10E4C000E895112442E0C40ED11CE11CF11CC0925D
:10E4D0008C01D0928D01E0928E01F0928F0102C0EA
:10E4E00003DE782E062522C0FFDD682F80918C0187
:10E4F00090918D01A0918E01B0918F01B695A79555
:10E500009795879588D480918C0190918D01A091E9
:10E510008E01B0918F010296A11DB11D80938C01D7
:10E5200090938D01A0938E01B0938F012197AFCF6F
:10E53000163409F0A4CE85E0F401A0925B0080932C
:10E540005700E89507B600FCFDCF99CE8334A1F4BF
:10E55000C0908C01D0908D01E0908E01F0908F01E1
:10E56000C3DD90E021E00C01F601E0925B00209316
:10E570005700E895112483CE833621F5C0908C0195
:10E58000D0908D01E0908E01F0908F01ADDDB7014C
:10E59000A601416090E021E00C01FA0160935B006C
:10E5A00020935700E895112482E0C80ED11CE11C8D
:10E5B000F11CC0928C01D0928D01E0928E01F092FC
:10E5C0008F015DCE8D3699F440918C0150918D0173
:10E5D00060918E0170918F0185E0FA0160935B007C
:10E5E00080935700E89507B600FCFDCF48CE8235F2
:10E5F00081F480918C0190918D01A0918E01B09158
:10E600008F01ABBFFC01C791D6918D2F84DD8C2F7C
:10E6100037CE843419F568DD682F80918C01909194
:10E620008D01A0918E01B0918F01B695A795979518
:10E630008795F1D380918C0190918D01A0918E01ED
:10E64000B0918F010296A11DB11D80938C01909312
:10E650008D01A0938E01B0938F0111CE8436F1F419
:10E66000C0908C01D0908D01E0908E01F0908F01D0
:10E67000D701C601B695A79597958795C4D34BDD6D
:10E6800042E0C40ED11CE11CF11CC0928C01D0925E
:10E690008D01E0928E01F0928F0103C08B3109F061
:10E6A0008DCE83E08093E9009091E8008091E800AE
:10E6B0008E778093E80095FD11C08091E80080FD81
:10E6C00004C08EB38111F9CF15C08091E8008E7718
:10E6D0008093E80003C08EB3882361F08091E80046
:10E6E00080FFF9CF84E08093E9008091E8008B7788
:10E6F0008093E800DF91CF911F910F91FF90EF90F1
:10E70000DF90CF90BF90AF909F908F907F906F9051
:10E71000089518DD85B7806885BF85B7806885BF97
:10E720008FEC97E00197F1F700C0000084988C9A75
:10E73000EFE1FEE43197F1F700C000008FB184FBF8
:10E74000992790F981E08927809300018C9885B7FB
:10E750008F7785BF80910001882339F1769A78946C
:10E7600080910001882319F06BDD33D3F9CF8091BC
:10E77000E00081608093E00084B7877F84BF0FB69C
:10E78000F894A89580916000886180936000109251
:10E7900060000FBE9CE088E10FB6F894A8958093C6
:10E7A00060000FBE90936000FFCFF2DCE0E0F0E08D
:10E7B000099580E090E00895292F30E0223031055E
:10E7C00059F02330310569F02130310589F482E1B7
:10E7D00090E022E731E015C08EE390E024E331E0E1
:10E7E00010C0882351F086E290E028E031E009C0B3
:10E7F00080E090E020E030E004C084E090E020E39E
:10E8000031E0FA013183208308958093E900EBEE33
:10E81000F0E0808181608083EDEEF0E01082609313
:10E82000EC0040838091EE00881F8827881F0895A0
:10E830008091920187FF0FC08091E80082FD04C0A3
:10E840008EB38111F9CF10C08091E8008B770AC098
:10E850008EB3882349F08091E80080FFF9CF809142
:10E86000E8008E778093E80008950F931F93CF936D
:10E87000DF9344D04BD0C8EDD0E08881982F9F77AC
:10E8800098838068888388818F7D8883E7EDF0E0B6
:10E8900080818068808319BC1EBA1092900100EEBE
:10E8A00010E0F80180818B7F80838881816088837C
:10E8B00042E060E080E0A9DFE1EEF0E080818E7F61
:10E8C0008083E2EEF0E080818160808380818860D7
:10E8D0008083F80180818E7F808388818061888336
:10E8E000DF91CF911F910F910895E7EDF0E08081C6
:10E8F0008160808381E080939101B7CFE8EDF0E003
:10E9000080818C7F80831092E20008951092DA005B
:10E910001092E10008951F920F920FB60F921124EA
:10E920000BB60F922F933F934F935F936F937F9309
:10E930008F939F93AF93BF93EF93FF938091DA00F0
:10E9400080FF1CC08091D80080FF18C08091DA0041
:10E950008E7F8093DA008091D90080FF0CC08CE01C
:10E9600089BD89B5826089BD09B400FEFDCF81E013
:10E970008EBB99D103C019BC1EBA95D18091E1001C
:10E9800080FF17C08091E20080FF13C08091E200F9
:10E990008E7F8093E2008091E20080618093E200AC
:10E9A0008091D80080628093D80019BC85E08EBB2E
:10E9B0007AD18091E10084FF2DC08091E20084FF34
:10E9C00029C08CE089BD89B5826089BD09B400FE8B
:10E9D000FDCF8091D8008F7D8093D8008091E10099
:10E9E0008F7E8093E1008091E2008F7E8093E20031
:10E9F0008091E20081608093E2008091900181111A
:10EA000006C08091E30087FD02C081E001C084E080
:10EA10008EBB49D18091E10083FF21C08091E2004B
:10EA200083FF1DC08091E100877F8093E10082E039
:10EA30008EBB109290018091E1008E7F8093E10067
:10EA40008091E2008E7F8093E2008091E2008061FD
:10EA50008093E20042E060E080E0D7DE24D1FF91C5
:10EA6000EF91BF91AF919F918F917F916F915F9146
:10EA70004F913F912F910F900BBE0F900FBE0F90B3
:10EA80001F9018950F931F93CF93DF9300D0CDB7AE
:10EA9000DEB78091F100809392018091F100809324
:10EAA00093019091F1008091F100909394018093F3
:10EAB00095019091F1008091F100909396018093DF
:10EAC00097019091F1008091F100909398018093CB
:10EAD000990182DB8091E80083FFD0C08091920190
:10EAE00090919301492F50E04A30510508F0C6C07B
:10EAF000FA01E45BFF407EC1823809F0BFC080911B
:10EB0000960187708093E9008091EB001092E900F4
:10EB10009091E800977F9093E80085FB882780F923
:10EB20008093F1001092F10087C0282F2D7F09F00B
:10EB3000A5C0823009F0A2C080919401811127C044
:10EB400080919601877009F499C08093E900209123
:10EB5000EB0020FF1CC0933021F48091EB00806219
:10EB600014C09091EB0090619093EB0021E030E0B5
:10EB7000A90102C0440F551F8A95E2F74093EA00AD
:10EB80001092EA008091EB0088608093EB00109275
:10EB9000E9008091E800877F52C081116FC0109119
:10EBA00094011F770FB7F8948091E800877F8093D6
:10EBB000E8003EDE8091E80080FFFCCF8091E3001A
:10EBC0008078812B8093E3008091E30080688093BC
:10EBD000E300111102C082E001C083E08EBB0FBFD1
:10EBE0004DC08058823008F049C0AE014F5F5F4F82
:10EBF000609196018091940190919501DDDDBC01B9
:10EC0000892B09F43BC09091E800977F9093E8002E
:10EC100089819A8149D08091E8008B778093E800C0
:10EC20002DC0803859F58091E800877F8093E800F7
:10EC3000809190018093F1008091E8008E7780931D
:10EC4000E800F6DD1BC0811119C09091940192304B
:10EC5000A8F48091E800877F8093E800909390016A
:10EC6000E7DD80919001811106C08091E30087FD6E
:10EC700002C081E001C084E08EBBA2DA8091E8008E
:10EC800083FF0AC08091EB0080628093EB0080914B
:10EC9000E800877F8093E8000F900F90DF91CF917D
:10ECA0001F910F9108950895209198013091990135
:10ECB0002617370748F06115710539F42091E800EF
:10ECC0002E772093E80001C0B90140E0611571057D
:10ECD00081F12EB32223E9F12530E9F12091E800FA
:10ECE00023FD35C02091E80022FD2BC02091E800D3
:10ECF00020FFECCF2091F2003091F300FC01CF0116
:10ED00006115710559F02830310540F481918093E7
:10ED1000F100615071092F5F3F4FF1CF41E0283082
:10ED2000310509F040E02091E8002E772093E800BB
:10ED3000CDCF4111CECF05C08EB3882351F08530A1
:10ED400051F08091E80082FFF7CF80E0089581E0E4
:10ED5000089582E0089583E008956115710529F40E
:10ED60002091E8002B772093E800FC0161157105E4
:10ED700021F18EB3882349F1853049F18091E80073
:10ED800083FD21C08091E80082FFF0CF8091F200E6
:10ED90009091F300892B31F08091F10081936150C3
:10EDA0007109A1F78091E8008B778093E800DECFAE
:10EDB0008EB3882351F0853051F08091E80080FFB8
:10EDC000F7CF80E0089581E0089582E0089583E020
:10EDD0000895CF938EB3882359F0C091E900C7708E
:10EDE0001092E9008091E80083FD4CDEC093E900B9
:10EDF000CF910895EE0FFF1F0024001C0BBE07905B
:10EE0000F691E02D0994F999FECF92BD81BDF89A53
:10EE1000992780B50895262FF999FECF1FBA92BD84
:10EE200081BD20BD0FB6F894FA9AF99A0FBE0196EB
:10EE30000895F894FFCF01000000000000082603A9
:10EE400041005600520020004300440043002000CF
:10EE500042006F006F0074006C006F00610064007E
:10EE60006500720000000403090409023E0002016B
:10EE70000080320904000001020201000524001094
:10EE8000010424020405240600010705820308008A
:10EE9000FF09040100020A00000007050402100037
:10EEA0000107058302100001120110010200000891
:10EEB000EB034A200100000100014C554641434448
:02EEC00043000D
:00000001FF
