:020000020000FC
:100000000C944A000C941E200C941E200C941E206C
:100010000C941E200C941E200C941E200C941E2068
:100020000C941E200C941E20BEC8F7C80C94140615
:100030000C9419130C941E200C941E200C941E205A
:100040000C941E200C941E200C941E200C941E2038
:100050000C94C8130C941E200C941E200C941E208B
:100060000C941E200C941E200C941E200C94EC105A
:100070000C941E200C941E200C941E200C941E2008
:100080000C941E200C941E200C941E200C941E20F8
:100090000C941E20A8950FEF0DBF00E20EBF0E942A
:1000A0007A0A0E94C70278940E948801CC240E9498
:1000B0005C000E94BC00F7CF4EE30E945220CFE0CC
:1000C000D0E20E943B203D3021F4F198F0980C944E
:1000D0007400323229F4F09902C0F09A01C0F0980D
:1000E000333211F4F09BF19A0F93C03100E2D00744
:1000F0000F9121F447E00E945220E3CF3531E9F01F
:10010000383069F13F3759F13A30D9F23930C9F214
:10011000F19B38833D3009F408950F93CA3A0FE1FB
:10012000D0070F9121F447E00E945220CACFF19BE3
:100130002197432F0E948F01C4CFEF93FF93EFE0ED
:10014000F0E2EC1BFD0B2E2EECE9FCE30E94AF016C
:100150002A94D1F7CFE0D0E2FF91EF91B2CF0F9385
:10016000CF3000E2D0070F9131F033273993ECE91B
:10017000FCE30E94AF01A5CFCFE0D0E238810E941E
:100180005401023011F40C9426060E948801A160EB
:1001900002C0AE7FBF7B8DB79EB70F938F3500E255
:1001A00090070F9110F40C94060A0E941E015D3016
:1001B00021F4B2FD0E945A051BC05B33C9F0032D28
:1001C000023021F4FCD20E943202E5CF7F756F75B8
:1001D0005F75053041F0413031F4032D033019F4DF
:1001E0000E941A02D8CF0E94FA005D3009F00895EB
:1001F000A1600895E6E3F4E30E941201071671F48A
:100200000E941201061659F40E941201051641F4CB
:1002100031960591F491E02F099508953196319624
:100220003096EACF0590002041F41490112029F473
:1002300000E0009312200C94380A089570EF60EFEC
:1002400041E038810E945401013019F40E944601B6
:10025000F5CF532F0E9446013D30A1F03D2C38814F
:100260003D3081F00E9454013D1439F40E949705FD
:100270000E9446014395433091F738810E94540112
:100280003D1409F008950E944601F7CF0F93C93A33
:100290000FE1D0070F9131F404E0009312200C9489
:1002A000380A0895219708953F9300273D3011F4AF
:1002B0000C947A013F75303011F40C9461013C309C
:1002C00011F401E018C0323011F405E014C03034EC
:1002D00011F405E010C030310AF40DC03B350AF0CE
:1002E0000AC0303412F003E006C03A3112F41AF4B6
:1002F00002E001C004E0D02E3F9108950E9424093D
:100300008F93492F0E9452204F910E9452200895AE
:100310004DE00E9452204AE00E94522008954D3044
:1003200011F4F6DF08950C945220472F0E949F018C
:10033000462F0E949F01452F0E949F0108954F93D1
:10034000407F4295405D0E9452204F914F70405D2A
:100350000E94522008950E94AF01DADF089545916E
:10036000442309F40895483F19F40E94EE01F7CFA1
:10037000493F29F4159045910E941502F0CF4A3F5C
:1003800011F4C6DFECCF4B3F41F4EF93FF93E0EC69
:10039000FDE3E5DFFF91EF91E2CF4C3F41F4EF93B6
:1003A000FF93EEE8FDE3DBDFFF91EF91D8CF4D3F08
:1003B00041F4EF93FF93E4EAFDE3D1DFFF91EF9186
:1003C000CECF4E3F41F4EF93FF93EAEAFDE3C7DF60
:1003D000FF91EF91C4CF0E945220C1CF0F93EF93B2
:1003E000FF93112445914A30A1F04D3091F04A3FDE
:1003F00081F0493F71F04C3F11F404E1100E4D3F84
:1004000011F405E0100E4E3F11F40CE0100E1394A1
:10041000E9CF1A9446E3141A1194169440E20E940C
:100420001502FF91EF910F9108950E9452201A94A6
:10043000E1F7089551545A312AF005E00093122053
:100440000C94380AA0FF21F40E943202A2600895A1
:10045000E8E3FFE16627E50FF61F50810E943202B4
:10046000AD7F08950F9300E20C1511F40C94FC0974
:100470001F921124E1E9FFE1EC19F1095083C394C3
:1004800023951F900F910895CC2011F40C94010A2C
:100490001F921124E2E9FFE1EC19F1095081CA949D
:1004A0002A951F900895EF93FF9304E00B1511F424
:1004B0000C94060A32E00B2D039FEAE9FFE1E019F4
:1004C000F109D293C293B394FF91EF910895EF9302
:1004D000FF93BB2011F40C94010A32E00B2D039F13
:1004E000EAE9FFE1E019F109C191D081BA94FF91E5
:1004F000EF910895EF93FF9304E00A1511F40C9423
:10050000060A34E00A2D039FEAEAFFE1E019F10947
:100510006292729242925292A394FF91EF91089547
:10052000EF93FF93AA2011F40C94010A34E00A2DF2
:100530000A95039FEAEAFFE1E019F10962907290DF
:1005400042905290FF91EF9108959EDF0E944104E6
:1005500001E0552319F0000F5A95E9F7502F0C943C
:100560004D10703049F0705D472F0E94522060306E
:1005700019F440E30E945220603021F0605D462F64
:100580000E945220505D452F0E9452200895EAE7B4
:10059000F9E3E1DE0895BCDEE7E3FFE1C09110205E
:1005A000D0911120EC17FD0721F04081B8DE319782
:1005B000F9CFAEDEADDE9FE187E370911020609150
:1005C0001120871B960B0E940309AFDEECE7FCE3CA
:1005D000C6DE8091102090911120805091400E94A1
:1005E0000309A3DEECE8FCE3BADE0895B0680E94DC
:1005F000451005E0301651F047DF0E943A09B1DF9F
:1006000040E20E9452202223B9F782DEBF7708958C
:10061000B0680E94451044E20E94522035DF852FC9
:100620006DDE40E20E9452202223A9F771DEBF77DF
:100630000895B0680E94451027DF78E040E3551F19
:1006400008F441E30E9452207A95C1F740E20E94EB
:100650005220222389F75CDEBF770895488116DE99
:10066000423239F04E3719F00E945220F7CF50DE57
:10067000F5CF08950E944010E8E3FFE16627E50FFB
:10068000F61F00830895B5FF0C948F0F0E943B1056
:10069000452EFADE052FF8DE552E6627E8E3FFE14A
:1006A000E50FF61F0083A062AE7FBF7D08950E9414
:1006B0003B10552309F4A46008950F910F910895FC
:1006C000B0620895E8E3FFE1552D6627E50FF61FB8
:1006D0000081041521F003950083A0610895AA9478
:1006E00009F01EDF089555DD0895B16008959881E1
:1006F000CDDD8881382FD8DD013029F0043019F0A4
:10070000C5DD0C948503892F99270E943109582F44
:10071000A9DE3FDD08950981073211F00C94060C23
:10072000552708E0202E8881B1DD382FBDDD302E21
:10073000023019F0CF5FDF4F07C08894317030FD71
:100740000894551F2A9479F78DDE23DD08950CE176
:10075000009312200C94380ACF93DF930E943B1031
:100760000AE0F79888950000F79BFBCF0A95C9F738
:100770005A95B1F70C944A10552774DE0E943B102D
:1007800001E005174AF00AB50F770ABD50FF08953A
:100790000AB500680ABD08950C94100A04B7077FD3
:1007A00004BF0E94C3F70E94D60508E100936000D1
:1007B0000EE000936000F8948895000008957F7023
:1007C0006F705F700E94470908950E943B10452F8B
:1007D000E7E3FFE180911020909111200C94FA033F
:1007E000F91711F48E17C8F400810D3011F031970C
:1007F000F7CF3197552766277727F91711F48E170A
:1008000060F4308151DD023021F40E949705319768
:10081000F4CFD5DF451721F7089509E000931220A2
:100820000C94380AD2DFEF010895CFDFA06C089551
:10083000B3FF0C941D04A8600895B1600895488129
:1008400025DD4D30E1F708950E943B10452F0E94B1
:1008500052200895E7E3FFE1F0931120E093102088
:10086000CC24AA27BB270FB70F93F8940E94EE055C
:100870000E94F4050F910FBF4BDDEAE2F9E36BDD57
:100880000895583008F408950C940B0A543008F475
:1008900008950C94150A523008F408950C94100A27
:1008A000CF93DF930E944510C0E0D0E00E94F00893
:1008B000222331F0213039F0223081F00C94240AC7
:1008C000502FD0DD24C0E0DDDCDF552319F0069584
:1008D0005A95E9F751E000FF5527F3CF702FD4DD8B
:1008E000C1E9DFE10881083069F0D5DF652FCCDD93
:1008F000C8DFB8DD2ADECC2460FD03C05095572345
:1009000001C0572B052FC0E0D0E00E94F7080C94DF
:100910004A10B7FD0DC0A1FD0BC00E94DB0FB4DD76
:1009200055231AF0E6E6FDE302C0E6EEFCE317DD30
:100930005AE20C944D10CF93DF930E94FD0540E2E4
:100940000E945220E6E3F4E3D2E3C4E075917723FA
:1009500009F443C065915591643521F45F34A1F4E5
:1009600070E220C0693421F4563471F470E21AC088
:100970006F3451F4523541F47735A1F0783591F068
:10098000763481F070E20EC0503439F05E352CF4CC
:100990005C3514F4503334F4505E70E260330AF086
:1009A0006627605E472F0E945220462F0E945220E9
:1009B000452F0E94522040E20E9452203396D4508C
:1009C00022F6A6DC1F9211240E9483F81F900E9439
:1009D000C80540E20E945220B7CF9ADC0E94FD0574
:1009E0000C944A100BB500FD0EC0D3DBCC2059F09F
:1009F0004BDD07E0051714F40C94240AB4600E9440
:100A0000EE050E948807BB24AA240BB50E7F0BBD00
:100A1000B460C7E3DFE10E945A05CC24A1600E94C4
:100A20007520A6FF02C03FDDAF7BA7FF03C0EF012B
:100A3000B860AF77A3FF05C04ADDBB2009F4B77FDC
:100A4000A77FA5FF03C03E0155DDAF7DA4FF02C017
:100A5000E301AF7EB0FF07C00E948005C091102067
:100A6000D0911120BE7F80911020909111208C1B7D
:100A70009D0B78F4388118DCA2FF04C0043011F01B
:100A80002197CBCFAB7F023011F42197C6CF83DB08
:100A9000C4CF00E000931320BB7FC0E0D0E00E94F1
:100AA000F00800FF08958091AC20882311F40E9483
:100AB0009920089500911120D01729F40091102059
:100AC000C01709F40895CF93DF93DF923F93662711
:100AD00055273881E9DB023029F00E9447095093FD
:100AE000132005C00E9497055F702197F2CF0BB5C8
:100AF00003FF02C066D00CDC3F91DF900C944A10DB
:100B00001F9211240E9411F81F90E4E7FCE327DCF8
:100B1000089554EBE0E0F1E0019150270F93EF3F8F
:100B200000E2F0070F91C1F7509316200895762F39
:100B3000652F532F08957727662755270895DF934C
:100B4000D2E0DA950000E9F7DF910895DF93D5E070
:100B5000F6DFDA95E9F7DF910895DF93DAE0EFDF6A
:100B6000DA95E9F7DF910895DF93D4E6E8DFDA95C7
:100B7000E9F7DF910895CF93DF93D3E6C3E1CA95F8
:100B80000000E9F7DA950000C9F7DF91CF910895E9
:100B90000F930AE0F0DF0A95E9F70F9108950F939C
:100BA0000AE0F6DF0A95E9F70F9108950F93CF93C6
:100BB000DF9304E6EDDF0A95E9F7DF91CF910F911E
:100BC0000895E8EBFDE3CBDBCF93DF93DD27C09106
:100BD00013200E94BB09DF91CF910895E0E0F1E07E
:100BE0009EE188E3002705C0E8E3FFE190E08AE1A9
:100BF000002701930197E9F70895E2E7FBE3AFDBF4
:100C00000895F8940091E200002329F00093AD20AC
:100C100000E00093E20078940895F8940091AD20EC
:100C20000093E2007894089508E10093600000E0EA
:100C300000936000F59A189504E0009312200C943C
:100C4000380A0BE0009312200C94380A44270E94C3
:100C50000E075430B0F780911020909111200F931F
:100C600087330FE190070F9109F45BC0CFE0D0E22A
:100C700062DF0F93C93A0FE1D0070F91EAF2388192
:100C800013DB023029F4762F652F532F2197F1CFF4
:100C900096DD452EE0911020F09111204C7F4BDF26
:100CA000552431960F93E8330FE1F0070F9191F03F
:100CB0003081FADA043071F0023089F75394562FFC
:100CC000672F732FEECF0F93E8330FE1F0070F91EB
:100CD00031F70895052D033029F05394562F672FCF
:100CE00070E0F8CF41FD02C04260D9CF68DD451603
:100CF000A9F110F441603F010F93E8330FE1F007D1
:100D00000F9111F440FF0DC040FFDDCF541508F4E2
:100D100055C00F93E8330FE1F0070F9109F44EC06F
:100D2000D2CF0E940E07003009F40895CFE0D0E240
:100D3000E0911020F09111200F93E03001E0F007D6
:100D40000F9109F436C008810083319721970D3047
:100D500099F7F0931120E093102008953197EF0157
:100D60000F93E03001E0F0070F9109F465CF08819F
:100D700021970D30A9F7BF016C1B7D0B80911020CE
:100D800090911120860F971F90931120809310202F
:100D90000F93E03001E0F0070F9129F00881008304
:100DA00021973197F5CF0E940E07003009F04ECF02
:100DB000089502E0009312200C94380A0E940E0756
:100DC000003059F100911120013029F400911020D8
:100DD0000050081770F3E0911020F0911120DF2FE0
:100DE000CE2FC81BD040D0931120C0931020F715F0
:100DF00019F4E61509F405C000810883219631969F
:100E0000F6CFCFE0D0E2F72DE62D319708810083B1
:100E10000D3019F031972197F9CF0895CFE0D0E246
:100E20005527882799274B7F3881219783953D3017
:100E300041F03ADA023039F044600130A9F3939579
:100E4000F3CF092F089542FF5395EECFCFE0D0E2C4
:100E5000E03009F0AECF08810083319721970D3043
:100E6000B9F7F0931120E09310200895AF93BF934A
:100E70005527F8DA0E943B10583014F00C94240ADD
:100E800091D0A7E3BFE1E0911020F0911120AE1BBB
:100E9000BF0BAF5FBF4FB5DE6CD1EA1BFB0BBF9141
:100EA000AF9130F4BADEE8E1FCE355DA0C94860742
:100EB000E4E4FCE354DA852F21DA2ADA00E0009337
:100EC000292048D11124C8E1D0E0C50FD11D022D41
:100ED0008ED1E8E3FFE101E03EE1CAE2D0E209930E
:100EE00002910993002371F03A95D1F733D128820A
:100EF0002F920091282000932920C8D00F910093B1
:100F00002920E9CF09933A95E9F7C0D086DE089504
:100F1000B2FD06C05527A6DA3CD9B6DA58306CF5D2
:100F200099DCE4E5FCE31BDA852FE8D9F1D902D19D
:100F300016F40C941F0A30912B20B6D9025011F0F0
:100F40000C941F0A5EDEE8E3FFE13EE1CBE2D0E273
:100F50000991002341F002933A95D1F7088100935B
:100F6000292090D0F2CF3197CC24F0931120E09338
:100F7000102053DEB2FF1EDB08950C94240ACF9399
:100F8000DF933FE7309329209FD03A95D9F7ABD034
:100F90000C944A10552766DAFCD876DA583014F0EB
:100FA0000C94240ADD27C52FC85EDF4F19D100231A
:100FB00009F4089500932920BDD086D0CAE2D0E27A
:100FC0000F8D00932920002321F0009511F05AD0B5
:100FD000F4CF97D00895CF93DF935527852F8ED9DF
:100FE0004AE30E94522040E20CDE0E94CE08CF016C
:100FF0005F930E94030911DE9BD9EAE6FCE3AFD9B7
:101000000F93503000E060070F9129F4E4E6FCE311
:10101000A6D95F9112C05F918DD0CBE2D0E26EE194
:1010200049910E9452204D3041F06A9509F0F8CF65
:1010300048814093292026D0F0CF6AD911240E94FC
:1010400083F8A6DD5395583009F0C8CF61D9D9DDB2
:101050000E94B908EF93FF939D2F8C2F0E940309E4
:10106000DCDD66D9ECE7FCE37AD9CBDD9F918F918B
:101070000E940309D2DD5CD9ECE8FCE370D948D9C1
:101080000C944A100AB50F7D0ABD03C00AB5006270
:101090000ABDCF93DF93EF93FF9300E2202EEAE2A5
:1010A000F0E20091292019D00AB505FF03C0019193
:1010B0009ED002C095D00193CF5FDF4F2A94A1F755
:1010C000FF91EF910C944A10CF93DF9306D00AB5AD
:1010D00000640ABD8CD00C944A1000E24091292093
:1010E000049FE001089588E0C8E1D0E00AB50F7BD5
:1010F0000ABD00270E94F708CF5FDF4F8A95C9F726
:1011000008950AB50F7B0ABD0027DD27C52FC85EED
:10111000DF4F0E94F7080895CAE2D0E200E0009392
:101120002920B0DF0895CAE2D0E200E00093292030
:10113000ADDF0895F1DF052EC00DD11DC85EDF4F74
:101140000881002311F468940895009329209ADF00
:10115000E8940895CF93DF932090292020922820AF
:10116000239420922920B9DF3BD00F3FC9F70C947C
:101170004A10AF93BF935F93BB27AA2757E00E9403
:10118000CE08AE0FBF1F5A95D2F7E2EEFEE0EA1B83
:10119000FB0BED015F91BF91AF9108955F93EAE280
:1011A000F0E290E080E070E06EE1B6DF052EE00D49
:1011B000F11DE85EFF4F0081002379F0EAE2F0E2E2
:1011C000009329205FDF008101300FB701FF05C0C8
:1011D000860F971F078D002399F7FC015F910895F3
:1011E000F999FECFD2BDC1BDF89A00B50895F9991D
:1011F000FECFD2BDC1BD44E00AB406FC44E100BD4F
:101200004FBBF99A0895FDDC0C01889400E193DC52
:10121000001C111C551F661F771F0A9511F4FDDC79
:101220000895352F08D0532F362F05D0632F372F31
:1012300002D0732FEDCF432F4D5F43FD342F432F4B
:10124000405D47FD342F0895982F92959F70905DD3
:101250009A3308F0995F8F70805D8A3308F0895F58
:10126000089596FD975F9F7086FD875F8F709295BA
:10127000892B089577276627545610F07395FCCF75
:101280005C595A5010F06395FCCF565F0895733047
:10129000B2F4723032F0663092F4653012F05630AB
:1012A00072F4662321F00AE0500F6A9581F77723E4
:1012B00009F4089504E68894500F7A95C0F701E088
:1012C000009312200C94380A4FE24395C050DA4C38
:1012D000EA49FB43D0F7C050D643E546F44C0E94A0
:1012E00052204FE24395C050D14EE54FF540D0F724
:1012F000C050DF41EA40FA4F0E9452204FE243952E
:10130000C058D649E849F040D0F7C058D946E7461A
:10131000FF4F0E9452204FE24395C054D244EF4009
:10132000F040D0F7C05CDD4BE04FFF4F0E945220F1
:101330004FE24395C05AD648E140F040D0F7C0563E
:10134000D947EE4FFF4F0E9452204FE24395C051C4
:10135000D742E040F040D0F7C05FD84DEF4FFF4F8D
:101360000E9452204FE24395C85ED340E0F7C85137
:10137000DC4F0E9452204FE24395C456D040E0F724
:10138000CC59DF4F0E9452204FE24395CA50E8F7F4
:10139000C65F0E9452204C2F405D0E94522008954B
:1013A0000FB70F93F89400E19927882776956795F2
:1013B00010F48C0F9D1F97958795779567950A95E3
:1013C000B9F70F910FBF08950FB70F93F8948827BF
:1013D000991B01E1661F771F0A9519F40F910FBF42
:1013E0000895881F991F841B930B20F4840F931F6B
:1013F0008894F0CF0894EECF06E0009312200C946E
:10140000380A07E0009312200C94380A08E0009391
:1014100012200C94380A0AE0009312200C94380A27
:101420000CE0009312200C94380A0DE00093122077
:101430000C94380A01E1009312200C94380A02E15E
:10144000009312200C94380A06E1009312200C94A9
:10145000380A0BE1009312200C94380A0DE1009336
:1014600012200C94380A0EE1009312200C94380AD2
:101470000E948801112400901220D02C000CE4EB73
:10148000F4E1E00DF11D0591F491E02FEE1FFF1F37
:101490000E94AF010E94880194DB0FEF0DBF00E2B4
:1014A0000EBFAA27BB2700E0009313200E948801EB
:1014B0000C945300E41EF31EF91E051F141F201F79
:1014C0002A1F351F401F651F761F7B1F871F8C1F1C
:1014D000911F9D1FA81FB41FBD1FC31FCA1FCD1F73
:1014E000D91FE01FE91FF41FFD1F042004200D2059
:1014F0001C201D20F894002411248AD09BD00FEFCB
:1015000000936400009365000BB50E7F0BBDC0E037
:10151000D0E066DE302F00FF03C00BB501600BBDCD
:1015200000E001B900E002B906E204B900E005B943
:1015300000E007B900E008B908E008E00AB900E0F7
:101540000BB900E00DB900E00EB900E000BB00E00F
:1015500001BB07B10F7C07B906B1006308B9229837
:101560002A9A0BB50F750BBD03E000932720E0ED21
:10157000F7E0F0932620E0932520112414BE1EBA34
:101580001ABC0BB501700BBD1BBE10921320C1DA43
:10159000112410921F201092202001E000931D20A2
:1015A00000E000931E2001E00093172058E0C8E1FE
:1015B000D0E016DE0F3F11F4002719DECF5FDF4FBA
:1015C0005A95B9F70E949320789401E003BF00E098
:1015D00000937C0000E000937B0006ED00937A000E
:1015E0000E944E1400E0009318200BB500FF0EC0BF
:1015F000CC245527B46094DCF5D90E9488010E9460
:101600008801EAE2F9E30E94AB01089523D9089525
:101610000FB70F93A89504B7077F04BFF894009104
:1016200060000861009360000070009360000F91FB
:101630000FBF089550E861E050936100609361002E
:101640000895009164000E7F0093640006ED0093FE
:101650007A0000917A0006FDFBCF7FDA08950091B1
:101660007A000F7700937A00009164000160009384
:10167000640073DA0895CF93DF93DF91CF910E94D6
:1016800045102223C1F0CF93DF9301E2C01680F40E
:1016900011240C2CC0921520C2E7DFE1C019D1093A
:1016A0000E94440259930A94D9F7DF91CF9109C05F
:1016B0000E945E0BA1CE0E945E0BA3CE00E00093C1
:1016C000152000E000931420509115200C944D102B
:1016D000CF93DF930E9445101124709115206091E3
:1016E0001420C1E7DFE1222361F0A1FF03C00C2D2C
:1016F0000A9539F00E9444027A95751772F0652FA9
:1017000002C0761751F0C61BD10958810E943202DF
:101710006395609314200C944A1073CECF93DF939B
:101720000AB50F7D0ABD0E94C90001E04ED0588164
:10173000DF91CF910C944D10CF93DF930AB50062E7
:101740000ABD0E94C90002E040D058830C944A10A0
:10175000CF93DF930AB50F7D0ABD0E94C90001E057
:1017600034D03EDD502FDF91CF910C944D10CF93AC
:10177000DF933AB53F7B3ABD3AB530623ABD0E943D
:10178000C90002E022D0052F0F93C03000E1D0073E
:101790000F9111F02CDD17C0E8E3FCE30E94AF01CC
:1017A00055273AB530643ABD219721DD5A9519F491
:1017B0004EE20E9452200F93C03000E0D0070F91FC
:1017C00099F70E9488010C944A100C1989F00E9424
:1017D00044025F930E9444020AB505FF06C05F936E
:1017E0000E944402DF91CF910895D52FCF910895A3
:1017F0000E9444020AB505FF06C0052F0E9444025C
:10180000C02FDD270895C52FDD270895EF93FF939F
:1018100050E20E943202CF920E94C900E4E4F8E153
:1018200065917591772311F40F9009C06517C1F781
:1018300011240F90E2E9FFE1E019F1097083FF91B3
:10184000EF91089519201A201B201C201F20212011
:1018500022202320242000001124E50FF11D5491A3
:101860000C944D10CF93DF9351E00E9432020E94FE
:101870003B10CC2049F058300AF0F5CD60E8609379
:1018800061005093610004C0509161000E943202D7
:101890000C944A10CF93DF93509166000E9432025D
:1018A0000E943B105093660050916600DF91CF91EB
:1018B0000C944D10009164000F770093640055273D
:1018C0000E9432020E943B100E944B0400E250FD35
:1018D00000E20093B8005098589A5198599A0027FE
:1018E0000093B90000950093BB0004E00093BC0096
:1018F00004E90093BC00B5D00895D5C0CAD0CF93F9
:10190000DF9321975881523261F45A91523219F083
:101910000E943202FACF5F915F910E9446012C2D06
:1019200007C0DF91CF910E944510222309F4BCC06B
:101930000FB70F93F894EF93FF931124E2E9FFE1BF
:10194000C21AEC19F1095DD952912A955093BB0046
:1019500004EC0093BC008AD00091B900087F0831E4
:1019600021F0003411F0083211F4222369F755D91F
:10197000FF91EF910F910FBF74C08BD00E94451063
:1019800019F41BB514601BBD3CD90FB70F93F89425
:10199000EF93FF93112451E01BB512FD07C001E244
:1019A0000E944402501712F038D97CC0752F1BB525
:1019B00012FD06C0E2E7FFE11092142050931520BB
:1019C00004EC60E57A9519F404E868E57FEF00938C
:1019D000BC004CD05091B900587F56130BC05091A9
:1019E000BB001BB512FD04C0529377FFEBCF06C0BE
:1019F0000E9432021BB512FF10921520FF91EF9149
:101A00000CD90F910FBF1BB512FF2BC01BB51B7F4D
:101A10001BBD08953ED00E943B105093BB0004E8CC
:101A20000093BC000091BC0007FFFCCF1AD00895C2
:101A300030D0087F0093BC0004EA0093BC0016D0AD
:101A400010D0089526D004E90093BC000FEF009356
:101A5000BB0007D008955091BC0052FF1FC001D0B9
:101A600008955091B900587F0C944D10EF93FF9357
:101A7000E0EAFFE00090BC0007FC08C067D831979F
:101A8000C9F7CBD808E100931220F2CCFF91EF9177
:101A900008950091BC0002FF01C0089503E1009386
:101AA0001220E6CCD1CCBCCCD9CCA1D0CF93DF9343
:101AB00021975881523261F45A91523219F00E94A2
:101AC0003202FACF5F915F910E9446012C2D06C031
:101AD000DF91CF910E94451009F4C0CC0FB70F934E
:101AE000F894EF93FF931124E2E9FFE1C21AEC1995
:101AF000F10987D852915EBD0DB507FFFDCF5EB5E8
:101B00002A95C1F78AD8FF91EF910F910FBF0895E1
:101B10006ED077D80FB70F93F894EF93FF931124FB
:101B20000E94451011F4552707C001E20E944402AB
:101B3000501712F072D888CC752F0EB4552341F48B
:101B40001EBC0DB507FFFDCF5EB50E9432020EC070
:101B5000E2E7FFE110921420509315201EBC0DB552
:101B600007FFFDCF5EB552937A95C1F7FF91EF91D4
:101B700054D80F910FBF0895009164000B7F00931C
:101B8000640052E00E94320276D20E944604550F51
:101B9000550F34D00CB5037F052B0CBD08956BD2C7
:101BA0000E944B040CB500620CBD50FD03C00CB587
:101BB0000F7D0CBD08955FD20E944104052E537025
:101BC0000CB5087F052B0CBD0DB501600DBD02FCE9
:101BD00003C00DB50E7F0DBD089509D051E00E94E0
:101BE000320249D2289A50FD01C0289808950CB5B8
:101BF00006FD08950AE1009312203ACC009164009A
:101C00000B7F0093640004B1076004B9289A01E5D2
:101C10000CBD0DB50E7F0DBD08955EBD0DB507FF62
:101C2000FDCF0EB508955EBD0DB507FFFDCF5EB5C6
:101C30000895AED0EF5DFF4F50810C944D10A8D0A9
:101C4000EF93FF9318D2FF91EF91EF5DFF4F0F934A
:101C5000E73200E0F0070F9131F00F93E03300E03E
:101C6000F0070F91A9F4EF93FF93E3E0F0E009E0B0
:101C700007BF0491FF91EF9107FF0C94470E05B742
:101C8000006805BF05B7006805BF0C94480E5F707B
:101C9000508308957DD0EF93FF930E94C9000E9466
:101CA000A5020E944402FF91EF91EF5DFF4F75C0C6
:101CB0006FD0EF93FF930E94C9000E94A5020E947B
:101CC0004402FF91EF91EF5DFF4F6BC061D0EF9346
:101CD000FF93D1D1FF91EF91EE5DFF4F50830895B7
:101CE00057D0E05EFF4F50810C944D1051D0EF93D0
:101CF000FF930E94C9000E94A5020E944402FF9126
:101D0000EF91EE5DFF4F49C043D0EF93FF930E94E8
:101D1000C9000E94A5020E944402FF91EF91EE5D6E
:101D2000FF4F3FC035D0EF93FF930E94C9000E9440
:101D3000A5020E944402FF91EF91EE5DFF4F36C075
:101D400027D0EF93FF930E94C9000E94A5020E9432
:101D50004402FF91EF91EE5DFF4F28D00E94C8052D
:101D600025D0089515D0EF93FF930E94C9000E94DB
:101D7000A5020E944402FF91EF91E05EFF4F0081B7
:101D8000052350E000230FB601FE51E00C944D10E6
:101D9000515403E0509FF00108950081052B00830A
:101DA000089550950081052300830895008105273B
:101DB00000830895CF93DF935ED1CC2011F4662782
:101DC00005C00E944B04652F0E94440200916400EC
:101DD000077F0093640011241092820060FF01C00D
:101DE00009C0009180000168259A109289005093E3
:101DF000880008C0009180000162269A10928B0032
:101E000050938A000093800009E0009381000C94B5
:101E10004A10CF93DF932FD15F930E9444025F93C8
:101E2000CC2021F466275F917F9107C07F915F915D
:101E30000E944B04652F0E94440200916400077FBA
:101E40000093640011241092820060FF01C009C059
:101E5000009180000368259A509389007093880050
:101E600008C0009180000362269A50938B00709303
:101E70008A000093800009E0009381000C944A10CE
:101E8000002700938100009380000093820000915E
:101E900064000860009364000895F2D0509F112000
:101EA0000AB507FD11F4502DF8C00FE00093122081
:101EB000DFCA5F93E0D055230AB407FCC1F0052FB9
:101EC0000E944402652F772759E0661F5A9541F01A
:101ED000771F701B18F4700F8894F7CF0894F5CF14
:101EE0005F915F3011F4562F01C0572FD6C001E12A
:101EF00000931220BDCAC4D0500F0AB507FD08F0E8
:101F0000CCC00FE000931220B3CABAD0501B0AB560
:101F100007FD08F0C2C000E100931220A9CAB0D0AA
:101F200050170FB701FF10C011C0AAD050170FB73C
:101F300001FF0CC009C05F93A3D06F916C3111F405
:101F4000501701C0051710F0552750FD51E0A5C0EE
:101F50000E94B80F662319F056956A95E9F79DC05F
:101F60000E94B80F662319F0550F6A95E9F795C0DE
:101F70008CD00E944402222311F461E008950E9453
:101F80004104652F0E94440208957AD0502385C0F1
:101F900077D0502B82C074D050277FC06CD0509522
:101FA0007CC069D0519579C066D0529576C063D017
:101FB00052955F7072C004EB50911620579508F44B
:101FC0005027509316200E9432020E94C9000895A3
:101FD00052D05F7062C04FD000E8551F0795E8F7F8
:101FE000502F5BC0E89401C06894EF93FF931124D5
:101FF0000E94451041F400901520002009F401CA08
:10200000E2E7FFE107C000E220170AF0F5C9022E5F
:10201000E2E9FFE126F00DD0C21A2C2D05C019D03F
:10202000572F0E943202562F0E943202FF91EF91E9
:10203000089550E07CE8029168E0302F35275695EE
:102040000695369508F457276A95B9F70A9499F7D3
:1020500008957FEF6FEF08E0202E52917527660FED
:10206000771F20F400E1702701E260272A94B9F776
:102070000A9489F708950E94C9000E9444020895B5
:10208000FADF052F0E944402089522270E94C9000A
:1020900022230895DF91CF9108950E94320208957E
:1020A000CF920E94C90055270F910C1911F00E9480
:1020B0004402C7DA00E000937B0000917C00007EC0
:1020C0005F71052B00937C00583062F457700E94BA
:1020D000A8020E94440200917E00502B50937E0083
:1020E0000E949F055527662770E1F89406ED00933E
:1020F0007A0000917A0006FDFBCF809178009091E4
:102100007900580F691F7A9589F7789476E066957B
:1021100057957A95E1F70E94320200E000937E0025
:102120009EDA089555270E943202A5DF0E944B04D3
:1021300088DA00E00BBF00917C000F7350FD006057
:1021400050FF006C00937C000E94BB05089552E094
:102150000E94320290DF553008F076C90AB5087F38
:10216000052B0ABD08956DDA0DD0552700B605FC84
:1021700051E000B7006800BF72DA0E9432020E948C
:10218000C900089500E000937A0000E100937A000E
:1021900050917B005F7B50937B0000B70870006517
:1021A00000BF5AB552FF02C054E011C050917B00ED
:1021B000506450937B005AB5537000917C00007EB0
:1021C000052B00937C000E94A802CA942A95509384
:1021D0007F000E94B4050895F39A189555270E9430
:1021E000320249DF0E94410400911720087F502BE2
:1021F0005093172000916400077F009364000091C2
:1022000071000D7F0093710008BB00939200009352
:10221000900000939100089551E00E9432022BDF5C
:102220000E944B04009117200F7750FF01C00068F7
:10223000009317200895CF93DF936FEF552768BB66
:1022400050939000509391005093920050939500BA
:10225000509394006E980E940106009170000F93B5
:1022600000E00093700000911720702F7078889420
:10227000771F771F76600770E1E4F1E1E00FF51F4B
:1022800009941FC006C005C004C008C007C006C02E
:102290000CC0033008F005E0002E09C06AE00350CE
:1022A000033008F005E0069F02C004E6002E5093BC
:1022B000950050939400709391000E94C8050A9471
:1022C000E1F70F91009370000E940D065091940069
:1022D00060919500002700939100C09906C0C1E568
:1022E000DFE16883DF91CF91D8CEDF91CF910EE00F
:1022F00000931220BDD8BFDE352F88940AD00895F0
:10230000BADE352F089405D008950E94BC11532FD2
:10231000C4CE63D0F59807B10F7C07B95AD079E0E5
:10232000F59923C0359BFCCF3C98449A10F03C9A19
:102330004498F5991AC03D9A45980E94BB053D986E
:10234000459A0E94BB053599F4CF18F03C98449A01
:1023500002C044983C9AF59908C0359BFCCF3C9844
:10236000449A331F7A95E1F604C0E2EDFFE30E9440
:10237000AB014ED92AD0089530D007B10F7C07B9F0
:1023800028D079E0F59919C03599FCCF8894349B11
:1023900008C0089445983D9AF5990FC03499FCCF30
:1023A00006C045983D9AF59908C0349BFCCF3D98EE
:1023B000459A331F7A9531F705C0E2EDFFE30E949D
:1023C000AB015FEF25D901D008953D983C98459A1F
:1023D000089506B1006306B90895F59808E10093E1
:1023E000600005E400936000A895089544DE952FF1
:1023F0000E944402852F02DC289853E00EDC0E94E4
:10240000B61211DC289A49CE36DE952F0E9444027E
:10241000852FF4DB289856E000DC289A52E0FDDB9B
:102420000E94B6120E944402F8DB289A0E94BB0563
:1024300055E0F3DBF8DB289A5523C1F708955527BB
:102440000E9432020E94C90080911F20909120209A
:10245000E0DF8F5F9F4F9093202080931F2008958F
:1024600000240092202000921F20089551E00E9435
:10247000320201DE552319F050931D2008950C946B
:10248000240AF9DD552359F1952F88270E9444022B
:102490000C01952FB3DB0E94BB05289853E0BDDBF0
:1024A0000E94B612C00120901D20BDDB0E943A0997
:1024B0000E94B102019779F02A9429F40E948801C0
:1024C00020901D2003C04CE20E945220B0FFEDCFAF
:1024D0000E948005BE7F289A0E94880108950C946E
:1024E0001A0A55270E943202C6DD50931E20089515
:1024F00055270E94320251E00E943202BCDD552372
:1025000011F40C941A0A04E0059F0E944402952FCE
:10251000882774DB289856E080DB289A52E07DDB20
:102520000E94B61250911E2070E477DB7A95E9F78D
:10253000289A0E94AD0555E070DB75DB289A55237B
:10254000C1F7805C9F4FCF93DF93E00121970E018D
:10255000DF91CF9101F708951F208DDD0E94460481
:10256000E8E5F5E279D908950C94100A592F55DB66
:10257000582F53DB089555270E9432027CDD5523E6
:10258000C9F05A3010F00C94240AA89504B7077FBC
:1025900004BF052F5770000F000F00720064502B0E
:1025A000F89408E100936000509360000EB3077048
:1025B0000EBB13C046D860917B006F7B60937B009D
:1025C0005AB551FD06C000E100937A0000E4009383
:1025D0007B0060B7606160BF42D878948895000046
:1025E0005EB3507C21F0F799F798F699F698009130
:1025F000C80007FD0895F59B02C0F5980895F39B68
:10260000ECCFF3980895CF93DF9355270E943202C1
:1026100032DD0E944B0450FD04C053D05D985598A4
:1026200007C066D0002700935020559A5D9829D0A6
:1026300031CD7F937FB77F936F935F93EF93FF933A
:1026400071E07BBFFBEFE091502050914D206091F5
:102650004E2070914F20E50EF61EE71F5691E09335
:10266000502050FF03C000005D9A03C05D98000039
:102670000000FF91EF915F916F917F917FBF7F91FC
:1026800018951124009164000F7B0093640017BA21
:102690001092B2001092B0001092B1001092B300EC
:1026A0001092B40004E80093B30002E00093B0007D
:1026B00001E00093B100009170000260009370008F
:1026C0000895112417BA1092B0001092B100109220
:1026D000B2001092B4001092B300009170000D7F10
:1026E00000937000009164000064009364000895FA
:1026F000CFE4DFE10E949B0500EF102E088001204F
:102700000294002029F089E999E909EA3CD0F9CF3F
:10271000099012940120002029F08CE59FE80AE23C
:1027200032D0F9CF0880129401200294002029F0C1
:1027300089E891E404E027D0F9CF099012940120B0
:10274000002029F084EF9CE600E01DD0F9CF08803E
:10275000129401200294002029F085EE9AE000E016
:1027600012D0F9CF088012940120002029F086E1D0
:1027700091E000E008D0C9F750934D2060934E20BF
:1027800070934F200895581F691F701F0A94089571
:102790000F93CF93DF93EF93FF93FFB7FF939920AE
:1027A00011F09A9416C0F0911920E0911A20D0915E
:1027B0001B20C0911C20CF5FDF4FEF4FFF4FE093F6
:1027C0001A20F0931920C0931C20D0931B209090C6
:1027D0001820E0912520F09126200F93E03000E0B2
:1027E000F0070F9149F03197F0932620E0932520D0
:1027F0000BB500640BBD03C00BB50F7B0BBDF79A87
:10280000FF91FFBFFF91EF91DF91CF910F9118954D
:102810000E94C9000E9444020E944604552311F4FC
:1028200050E005C0513011F45AE001C054E6509315
:102830001820952E0895CF93DF93C9E1D0E20027A9
:10284000099309930993088325CC4F93CF93DF9382
:10285000EF93FF93C9E1D0E2A0FD04C05B810E9429
:1028600032020CC0F0911920E0911A20D0911B2067
:10287000C0911C200E9464090E948801FF91EF9181
:10288000DF91CF914F9108951C1B1A19F4DB0E9420
:102890004604E8E8F8E20E942C0C0895CF93DF93F9
:1028A000C9E1D0E2002709930993099308830091B5
:1028B00064000F7D00936400002705BB06BD04BDC6
:1028C00007BD05BD009508BD0CE707BD02E004BDCE
:1028D00003E005BD00916E00026000936E00DACB4C
:1028E000CF93DF930E94F8147091212060912320F0
:1028F00050912420772311F4662707C00BB505FFFC
:102900000C948E14563008F063950BB507FF6F7763
:10291000562F0E943202DF91CF91089567FB6F77A7
:102920000AE0609F0027050E101EE001772769E08E
:102930000E94D0096E5F7F4F332742E30E94E40973
:1029400026F0605E7F4F0C94A81460527040619531
:10295000562F0E943202DF91CF9108950C94100AF5
:10296000CF93DF930E94F814509121200E943202ED
:10297000DF91CF91089555270BB506FD51E08DCB22
:1029800055276AB565FD51E00E94320274DB0E9452
:1029900032020E944B0450FF0C94D2140BB500621B
:1029A0000BBD08950BB50F7D0BBD089555276AB576
:1029B00067FD51E00E9432025EDB0E9432020E94FB
:1029C0004B0450FF0C94E8140BB500680BBD089540
:1029D0000BB50F770BBD089551E205C052E203C05D
:1029E00053E201C054E20E9432020E94C9000895DD
:1029F0000BB506FD089570912720772319F403E0A5
:102A000000932720E89400919100077069F00091ED
:102A100091000F93009171000F93009192000F931A
:102A2000009190000F93689400E0009391007ED095
:102A300003E0229A2A980E94BB050A95E1F7C1E2B9
:102A4000D0E2002400929500009294008AE095E084
:102A5000552766272A9A229802E0009391008895CC
:102A60000000F59B13C07FD000240092222000922A
:102A70002120009127200A95009327200FB701FFFE
:102A80000895E2EDFFE30E94AB0108951A9B05C093
:102A90000092950000929400E2CF709194007634F9
:102AA00018F400C0889401C008943A95551F8A957F
:102AB000B1F69A9521F05993650F88E0D0CF53D0A5
:102AC000561751F000240092222000922120E8EEB7
:102AD000FFE30E94AB010895C2E2D0E29091212071
:102AE000809122200E948715C4E2D0E29091232099
:102AF000809124200E94871508950E940D06009160
:102B00006E00026000936E00F5980C94380A97FBF3
:102B10009F770E940309052F0F7008832197507F2C
:102B200052950E94470957F95883089508E1009388
:102B3000600000E400936000A895F59801E00BBBED
:102B400001E00093680004E000936B0000916E00C8
:102B50000D7F00936E0000916500077F0093650074
:102B60000E94010608950E940D060E94080B2EF097
:102B700000E0009391000C94C9150F910093900010
:102B80000F91009392000F91009371000F910093A9
:102B90009100C0EDD7E0D0932620C093252000916E
:102BA0006E00026000936E0000E00093680000E099
:102BB00000936B0001E00BBB089520D8249A2C9859
:102BC00051E00E9432020E9432020E9432025DDA1B
:102BD00001F1213019F02330E1F014C20E944402C7
:102BE000552391F0533009F00BC2E8E4FCE2559113
:102BF0002590222029F1506210D855910ED82A94A0
:102C0000E1F7289A3196F3CF50E207D858E0DED1A9
:102C1000D9C156E202D80E94440252955695566098
:102C2000D5D155E20E940D0E0E9444025F77CED1AD
:102C300050E20E940D0E0E9444025A955A60C6D17D
:102C400055270E943202AEC10001080001013F0079
:102C50000201030003010300040103000501020057
:102C600006010E00070170000A05E7E7E7E7E70045
:102C70000B05C2C2C2C2C2000C01C3000D01C400D8
:102C80000E01C5000F01C6001005E7E7E7E7E70002
:102C900011010000120100001301000014010000E6
:102CA00015010000160100001C0100001D010000BC
:102CB00000000E94F70D0E94130E289A56FD02C0D4
:102CC0005FEFEBC95E705695752F5395506182D1B9
:102CD000252E1124CF93DF93C2E7DFE11092142059
:102CE000509315202C9851E60E940D0E0E94130E51
:102CF0005A932A94D9F7289A0E94130E289A652F7E
:102D00005E705E3031F4607457E20E940D0E562FF3
:102D10005DD1DF91CF91572FC0C90E94F70DCF929F
:102D2000CF92B3D90E94130E289A54FF05C057E2E0
:102D30000E940D0E50E14AD12C982223A1F0222EA0
:102D400011240F90EF93FF93E2E9FFE1E019F109FD
:102D500050EA0E940D0E52910E940D0E2A94D9F74E
:102D6000289AFF91EF912C9A0E94AD050E94AD0523
:102D70002C985FE00E94BB055A95E1F70E94130E64
:102D8000289A54FF02C053E004C057E123D1507386
:102D90005295CF9082C90E94F70DEF93FF93CF9386
:102DA000DF9373D909F42EC1622F6A95C2E9DFE17E
:102DB0003A911124EEE0FEE2032E000CE00DF11D2D
:102DC00005901490002009F41BC153E003D15E5F0D
:102DD000752F011409F4702D1616C2F06015B2F0AB
:102DE0006717A1F450E3373019F0532F565F506244
:102DF0000E940D0E0E9444020E940D0E6A95D1F7AA
:102E0000289ADF91CF91FF91EF91DCC0FBC00305C1
:102E100003050101010101010101000003050E94F8
:102E2000F70D33D909F4CEC0223029F0D9D053950B
:102E30005061D0D032C9DAD0752FD2D0352F252E9F
:102E4000239466270894661F2A94E9F752E0C2D0BB
:102E5000772311F0652B03C060956F73652352E2F1
:102E60000E940D0E562FB2D0532F539550630E94DF
:102E70000D0E572FABD0A6C0C3C00E94F70D55272B
:102E80000E943202F8D802E005176AF051FD02C034
:102E900050FF07C02C9A51FF95C00E94AD050E94BB
:102EA000AD052C988FC0ACC00E94F70DEED821F470
:102EB00055E00E940D0E86C00E94440257FDA0C03E
:102EC0005F9355E20E940D0E5F9180D07BC00E94FF
:102ED000F70DDBD829F456E07DD056705695DDC845
:102EE0000E9444020E944604550F652F56E072D09E
:102EF000597F652B56E20E940D0E562F67D062C097
:102F00000E94F70DC2D839F456E064D05870569537
:102F100056955695C2C80E9444020E944B04550F14
:102F2000550F550F652F56E055D0577F652B56E24C
:102F30000E940D0E562F4AD045C00E94F70DA5D80D
:102F400011F40C942E0A0E944402652F0E94440240
:102F50000DE1051732F050620E940D0E562F36D04B
:102F6000089501E0009312200C94380A0E94F70D96
:102F700057E10E9432027FD80DE150170AF03CC0A1
:102F80000E940D0E1FC00E94F70D55270E943202AD
:102F900072D8752F552331F451EE18D052EE16D059
:102FA00073E003C050EE572B11D057E013D0652FBC
:102FB00057E20E940D0E70FD606371FD6064562F34
:102FC00005D000C00E94130E289A67C80E940D0EFB
:102FD000289A08950E940D0E0E94130E289A0895B3
:102FE0000E94440205E005175AF008950E94440229
:102FF00000E205172AF008950C94100A0C94150AA3
:103000000C94240A0C942E0A0E9401060FB70F9309
:10301000F8942D9A259A0E94BB052D9802E30E94F0
:10302000AD050A95E1F72D9A259806E00E94AD05B9
:103030000A95E1F751E003B105FD55270E943202E0
:1030400002E30E94AD050A95E1F70F910FBF0E94C0
:103050000D060E94C900089518D811F40C942E0A88
:103060000E9401060FB70F93F894EF93FF9311247A
:10307000E2E9FFE1C21A58E0252E5291579510F46B
:1030800056D001C060D00E94A6052A94B9F70E94CC
:10309000AF182A9581F7FF91EF910F910FBF0E9412
:1030A0000D0608950E9401060FB70F93F8940E9431
:1030B000451021F41CD00E94320214C0CF93DF933C
:1030C00011240E944402752FC2E7DFE11092142000
:1030D000509315200CD05A930E94AF187A95D1F7CF
:1030E000DF91CF910F910FBF0E940D06089508E068
:1030F000202E09D0889400FD089457950E94A605BB
:103100002A94B9F708952D98259A0E94A6052D9A1C
:1031100025980E94A6050FEF33B135FF00270F93C6
:103120000AE00E94A6050A95E1F70F9108952D98EF
:10313000259A0E94AD052D9A259806E00E94AD05BE
:103140000A95E1F70895259A2D9807E00E94AD05AC
:103150000A95E1F72D9A25980E94A60508950E94E8
:10316000A6050E94A6050E94A605089555270E945F
:1031700032020E943B100E944B04E8E7FBE30E94EE
:10318000AF0150FF06C0E0E8FBE30BB508600BBDE4
:1031900005C0E6E8FBE30BB5077F0BBD0E94AF015E
:1031A0000895E4EEFBE30E94AF019DD000E1202EE4
:1031B000E0E0F0E08BD07FD00F93E03001E0F0074B
:1031C0000F9149F00E947520B0FD21C00E94C805F2
:1031D00000E1202EEFCFBE7F8DC0E4EEFBE30E9426
:1031E000AF0181D000E1202EE0E0F1E06FD063D0AC
:1031F0000F93E03001E2F0070F9149F00E94752033
:10320000B0FD05C00E94C80500E1202EEFCFBE7FB3
:103210000E94FD05EEEFFBE30E94AF0180911120BB
:103220000E947E01809110200E947E010E948801F0
:1032300061C0E4EDFBE30E94AF0155D000E1202E18
:10324000E0E0F0E043D0F2BDE1BDF89A80B50E9425
:103250007E0140E20E945220EF5FFF4F2A9499F7CF
:103260000E9488010F93E03000E1F0070F9151F0C8
:103270000E947520B0FD06C029D00E94C80500E15B
:10328000202EE1CFBE7F36C00E94FD05E0ECFBE3BF
:103290000E94AF0100E1202EE8E3FFE10F93E23549
:1032A0000FE1F0070F9128F411D005D000E1202E96
:1032B000F5CF20D0089581910E947E0140E20E94C6
:1032C00052202A94C1F70E94880108958F2F0E94EE
:1032D0007E018E2F0E947E014AE30E94522040E22E
:1032E0000E9452200895ECE8FBE30E94AF010E9487
:1032F000FD0508950E94FD050E94880108950E9421
:103300003B10852F0E944402952F0E9444025F9338
:103310000E9444025F930E944402052FFF91EF91A7
:103320000E94F905089550D0EF93FF93E0EAFCE383
:103330000E94AF01EEEBFCE30E94AF01FF91EF9121
:103340008F2F0E947E018E2F0E947E010E94880195
:103350000E94880111240E9483F80E94CF050091E9
:10336000E80000FFFCCF0E94C3F7F8941DBA10BE1E
:103370001FBA10926E0010926F001092700010929F
:10338000710010927200109273001092C900109296
:10339000BC0010927A0011B814B817B81AB81DB84A
:1033A00010BA12B815B818B81BB81EB811BA01E097
:1033B00004BFF89408E10093600009E30093600003
:1033C000789488950000FFCFE3E0F0E009E007BFC4
:1033D000049106950370003019F4E0E0F0EF14C09A
:1033E000013019F4E0E0F8EF0FC0023019F4E0E02A
:1033F000FCEF0AC0033019F4E0E0FEEF05C00BE07B
:10340000009312200C94380AEF93FF9308E0102EDB
:1034100001E00BBFEE1FFF1F07910F3F29F00030A7
:1034200019F0FF91EF9108951A94B1F705E1009317
:1034300012200C94380A4C495320CB0248454C507A
:103440009B0452554E20F2045341564536074C4FCB
:103450004144880750524920F60250525820080330
:10346000505242201903454D49542404464F5220DE
:10347000600350544F2073034E4558546203465224
:103480004520DA024E4557202A045049462057036A
:10349000544845205D03454E442075035253542043
:1034A000CE03434647205004501A1D203A03505083
:1034B0001E209B0F50501C209B0F501C1E20950F50
:1034C00050011D20950F50501D20430350500B20DC
:1034D0007B0F50500D20850F50500A204D0F50503B
:1034E0000F20590F4D4F4420590F50500520590FB0
:1034F000505004207703505007208B035050022077
:103500002E03444154413B0B52454144680B524504
:103510005354610B5050402073034C535220A80F5A
:103520004C534C20B00F50500620C50F414E442044
:10353000C50F50505C20C80F504F5220C80F50503C
:103540005E20CB0F584F5220CB0F434F4D20CE0F54
:1035500050500120CE0F4E454720D10F53574150B8
:10356000D40F52454D201F044E424820D70F4E42E3
:103570004C20E80F52455620EB0F524E4420DB0FF3
:10358000414F5620BC0343524320F20F4352572071
:10359000F40F44454C41AC03474F54201204474FAD
:1035A000532015045245542018044B4559201F2020
:1035B000434C4B20320C4F5343204A0C41434F2085
:1035C000B31041435320A71045524120CA07494E2A
:1035D0004954BF0743415420EB075045454B8E0BE0
:1035E000504F4B459C0B45455220A80B4545572055
:1035F000B70B56504720060C534C5020BB12444684
:103600005720041244465220F61144464C201F1203
:103610004446582030124446462036124446442040
:1036200041124446562071124446492078124446BD
:103630004120AD1252464920DD1552464120CB169D
:103640005246432054175246502067175246422094
:103650000F17524645203D17524654208D165246AC
:103660005820591652464620C31752464420801708
:10367000524657209D1752465220B61744485420B0
:10368000701444484820B01444485220BB144448A5
:103690005520C01444485320D61444484920EC1403
:1036A00044484420EE1444544920F0144454442027
:1036B000F214525449200814525452201B145254EC
:1036C000502025145254432046144F5749200418C3
:1036D0004F5757202C184F57522052184F44412013
:1036E0001F0E49444120190E534441204A0E4344C1
:1036F0004120580E4F504120660E53424120760E15
:1037000043424120840E58424120920E50424120B3
:10371000A00E494E4120700E49424120B20E4F4446
:1037200042201F0E49444220190E534442204A0EA3
:1037300043444220580E4F504220660E53424220CE
:10374000760E43424220840E58424220920E50424E
:103750004220A00E494E4220700E49424220B20E35
:103760004F4443201F0E49444320190E5344432025
:103770004A0E43444320580E4F504320660E534296
:103780004320760E43424320840E58424320920E3B
:1037900050424320A00E494E4320700E4942432020
:1037A000B20E4F4444201F0E49444420190E534486
:1037B00044204A0E43444420580E4F504420660E85
:1037C00053424420760E43424420840E5842442003
:1037D000920E50424420A00E494E4420700E4942A1
:1037E0004420B20E4F4445201F0E49444520190E77
:1037F000534445204A0E43444520580E4F5045201F
:10380000660E53424520760E43424520840E5842B0
:103810004520920E50424520A00E494E4520700E84
:1038200049424520B20E4F4446201F0E49444620CF
:10383000190E534446204A0E43444620580E4F501A
:103840004620660E53424620760E43424620840EA2
:1038500058424620920E50424620A00E494E462025
:10386000700E49424620B20E4453524585114453CE
:10387000434F8011445344457B1149434720EE1088
:10388000494345200C11494350201B1150574520F6
:10389000090F50574D20DA0E50574F20400F444427
:1038A00053200313414443205010414452209210AE
:1038B00053504D20BC0D53504F20CF0D535043203B
:1038C000DB0D53505720550D53505220880D535047
:1038D0005320ED0D545749205A0C54575320180DBE
:1038E00054575020220D545741200A0D5457572049
:1038F0007E0C54575220BD0C545742202B0D44458A
:103900004220B61844554D50ED185644554D4419B3
:103910004944554DD1184544554D191946494C4C0B
:103920007F195754462089040000F9363DFAF841C2
:1039300074746F424153494320666F722041543979
:103940003055534231323836204020384D487AFACB
:10395000F85665723A20322E3336204275696C640F
:1039600020636F64653A2032303231303331302E8B
:1039700032333539FAF9363D0000F8456E68616E2C
:1039800063656D656E7473206279204B2053636F9D
:10399000747420566974616C6520286B73765F704F
:1039A000726A40676D782E636F6D29FAF841543959
:1039B000305553423132383620706F7274202843AC
:1039C0002932303133FAF8312D576972652852297E
:1039D000FE32303133FAF86E524632344C303128F0
:1039E0002B29205246205472616E73636569766597
:1039F00072FE3230313320FAF84448542048756D55
:103A0000696469747920616E642054656D706572B3
:103A10006174757265FE3230313320FAF8454550D5
:103A20002046696C652053797374656DFE323031C0
:103A300033FAF8536C6565702C2052544320616E44
:103A40006420446174612D66696C65FE32303132E8
:103A500020FAF85457492F5350492F4444532026F5
:103A600020496E7075742043617074757265FE3202
:103A7000303131FAF9362DFAF84F726967696E61A3
:103A80006C20636F64652028432932303032206215
:103A90007920526963686172642043617070656C5B
:103AA00073FAF8687474703A2F2F70726F6A6563D6
:103AB00074732E63617070656C732E6F7267202053
:103AC00070726F6A656374734063617070656C7364
:103AD0002E6F726720FAF9362DFAF85553422053AB
:103AE000657269616C20492F4F202843293230309C
:103AF000382C3230313020504A52432E434F4D2C17
:103B0000204C4C4320FAF8687474703A2F2F777762
:103B1000772E706A72632E636F6D2F7465656E7396
:103B2000792F20FAF9362DFAF8416C6C207269670A
:103B300068747320616E642072656D656469657375
:103B400020657870726573736C7920726573657225
:103B5000766564FAF84E6F7420666F7220636F6D3D
:103B60006D65726369616C20757365FAF9363DFAAB
:103B70000000F9352DFA00004465627567200000E9
:103B80006F6E20FA00006F6666FA0000F9062030BA
:103B90003020303120303220303320303420303566
:103BA0002030362030372030382030392030412046
:103BB0003042203043203044203045203046FA0047
:103BC0005661726961626C657320696E2052414D65
:103BD0003AFA000045455020436F6E74656E747369
:103BE0003AFA000050524F4752414D204D656D6FDB
:103BF000727920436F6E74656E74733AFA004E6585
:103C0000787420617661696C61626C65206C6F63A9
:103C10006174696F6E3A2000FB3A2050726F6772D0
:103C2000616D20746F6F206C6172676520666F72C2
:103C3000204545502120FA0045726173696E672066
:103C400045455000536176696E672046696C652072
:103C5000232000004C6F6164696E672046696C65C3
:103C600020232000456D707479002062797465739B
:103C7000203E2000427265616BFA00002062797478
:103C8000657320757365642E2020000020627974AE
:103C9000657320667265652E20FA00000820080012
:103CA000FA4578697420796F7572207465726D6950
:103CB0006E616C2070726F6772616D2E0000FA4940
:103CC0006E766F6B696E6720626F6F746C6F616484
:103CD00065722028696E203820736563732920611E
:103CE000742030780000F8343220697320746865DD
:103CF00020416E7377657220746F2074686520555B
:103D00006C74696D617465205175657374696F6E4B
:103D100020FAF86F66204C6966652C20746865206F
:103D2000556E6976657273652C20616E64204576E8
:103D30006572797468696E6720FAF828687474701F
:103D40003A2F2F7777772E626574656D756E61688F
:103D50002E6F72672F666F72747974776F2E687426
:103D60006D6C29FA0000F8536F204C6F6E672C20A1
:103D7000616E64205468616E6B7320666F722041BF
:103D80006C6C207468652046697368FA000056619F
:103D90006C75652065786365656465642072616E25
:103DA00067650000206E6F74200020737570706F5F
:103DB00072742028432900004C696E65202320007E
:103DC0004572726F723A0000FB556E6B6E6F776EC4
:103DD00020636F6D6D616E64206F72206F7065720D
:103DE00061746F722E00FBFC206F6620303A323512
:103DF0003500FB50726F6772616D206D656D6F727B
:103E0000792069732066756C6C00FB436861726190
:103E100063746572FD61207265636F676E697A65B0
:103E20006420747970652E00FB42756666657220A9
:103E30006C696D69742065786365656465642E00DE
:103E4000FB426164207661726961626C65206E611B
:103E50006D652E00FB546F6F206D616E792061726D
:103E600067756D656E74732E2000FB56616C756509
:103E700020776173FD617661696C61626C652E000B
:103E8000FB4D616368696E6520737461636B2065C7
:103E900072726F7220FAF9092046756E6374696F49
:103EA0006E7320746F6F20636F6D706C6578206F18
:103EB000722063616C6C73206E657374656420742A
:103EC0006F6F20646565706C7900FB474F544F201D
:103ED0006F7220474F5355422064657374696E6159
:103EE00074696F6EFD666F756E642E00FBFC206F4B
:103EF0006620303A3700FB4C696E65206E756D6246
:103F00006572203E20332064696769747300FBFC8E
:103F1000206F6620303A3100FBFC206F6620303A7B
:103F20003300FB49435020726567697374657220E2
:103F30006F766572666C6F772E00FB4172697468EC
:103F40006D65746963206F766572666C6F772E009D
:103F5000FB41726974686D6574696320756E646590
:103F600072666C6F772E2000FB4469766964652069
:103F70006279207A65726F2E2000FB456D7074792E
:103F80002046696C6500FB545749FD656E61626CA3
:103F900065642E00FB31343A2000FB3A204E6F203E
:103FA000426F6F742D6C6F6164657220666F756E01
:103FB000642EFB53706563696669656420FC2E009E
:103FC000FB53657420414320526566203E20302E0D
:103FD0002000FB446576696365206E6F6E2D726507
:103FE00073706F6E73652E00FB44657669636520A0
:103FF000636865636B73756D2E00FB53504920FD3C
:10400000656E61626C656400FBFD612062696E61D2
:104010007279206E756D62657200FB496E76616C17
:104020006964206E756D626572206F6620617267CB
:10403000756D656E74732E000000000018958895EC
:1040400000008091AC20882381F02F931F921124CF
:104050000E94F7F71F902F91882389F32F931F92C7
:1040600011240E94D4F71F902F91582F533009F438
:10407000B1600C944D1003B7016003BF789488952C
:1040800000008091AC208823B1F32F933F931F92BF
:1040900011240E94D4F71F903F912F91992371F71B
:1040A000382F08951F9211249F932F932091AC20B5
:1040B000222321F42F919F911F9008950E94752033
:1040C000B1FF0C9468200E94F7F78823E1F3BD7FCD
:1040D0003F934F93842F0E9424F88823D9F74F9160
:1040E0003F912F919F911F9008958091AC2088233C
:1040F000C9F02F931F9211240E94F7F71F902F9160
:10410000882309F408952F931F9211240E94D4F755
:104110001F902F91082F033111F4B26008950330DE
:1041200009F4B16008950E94C3F70E94CF050E9470
:10413000CF050E94A5F70E94D6050FE011E60BB44B
:1041400000FE02C001E010E6202EF598A89508E1D7
:10415000009360001093600088950000F5990DC0F1
:104160008091AC208823C1F30091A82001FFF4CFF7
:104170000E9411F80E9483F80AC02A9431F70E9425
:10418000080BF5990E94C3F70BB500FFD2CFA89595
:084190000E94080BF598089548
:020000021000EC
:10EF40008091E80080FFFCCF0895809165008F7765
:10EF50008093650081E88093D70080EA8093D80091
:10EF60008EE089BD09B400FEFDCF80E98093D80012
:10EF70001092E0001092AC201092A8208CE08093B8
:10EF8000E2007894089511241092E20081E08093C9
:10EF9000E0001092D80019BC1092AC208093AB20F6
:10EFA00008958091AC2008959FB7F8948091AC208B
:10EFB000882369F083E08093E9002BE68091E800E4
:10EFC00085FD09C082FF03C02093E800F7CF9FBFF3
:10EFD0008FEF9FEF08958091F1002091E80025FDCB
:10EFE00003C02BE62093E8009FBF90E008952FB761
:10EFF000F8948091AC20811102C080E010C083E0C1
:10F000008093E9008091F200811109C09091E8009D
:10F0100092FFF3CF95FDF1CF9BE69093E8002FBFD1
:10F0200008958091AC20882371F08FB7F89493E015
:10F030009093E9002BE69091E80095FF03C02093A0
:10F04000E800F9CF8FBF08959091AC20992371F01B
:10F050009FB7F89424E02093E9002091A92022236F
:10F0600049F02091E80025FD03C09FBF8FEF089570
:10F070001092A9202091E400275E34E04091E8003E
:10F0800045FD12C09FBF9091E400921304C081E03F
:10F090008093A920EBCF9091AC20992339F39FB7AF
:10F0A000F8943093E900EACF8093F1008091E80072
:10F0B00085FD03C08AE38093E80085E08093AA2061
:10F0C0009FBF80E008959091AC209923D1F09FB725
:10F0D000F89424E02093E9002091E80025FD02C087
:10F0E0009FBF0FC08093F1008091E80085FD03C0B1
:10F0F0008AE38093E80085E08093AA209FBF80E0A8
:10F1000008958FEF08958FB7F8949091AA209923CE
:10F1100041F094E09093E9009AE39093E800109214
:10F12000AA208FBF08956091A0207091A1208091A6
:10F13000A2209091A32008958091A4200895809109
:10F14000A52008958091A62008958091A820089573
:10F150009FB7F8942091AC20222339F022E020932D
:10F16000E9002091E80025FD03C09FBF8FEF0895BF
:10F1700021EA2093F10020E22093F1001092F100A7
:10F180001092F1001092F1001092F10021E0209312
:10F19000F1001092F1008093F1008AE38093E8007F
:10F1A0009FBF80E008951F920F920FB60F92112417
:10F1B0008F939F938091E1001092E10083FF11C033
:10F1C0001092E90091E09093EB001092EC0092E134
:10F1D0009093ED0098E09093F0001092AC20109284
:10F1E000A82082FF13C08091AC20882379F0809101
:10F1F000AA20882359F081508093AA20811106C04B
:10F2000084E08093E9008AE38093E8009F918F91E6
:10F210000F900FBE0F901F9018951F920F920FB670
:10F220000F9211240BB60F92EF92FF921F932F9320
:10F230003F934F935F936F937F938F939F93AF937E
:10F24000BF93CF93DF93EF93FF931092E9008091E8
:10F25000E80083FF25C11091F1008091F100E0905A
:10F26000F1009091F100F12CF92AC091F1009091F8
:10F27000F100D0E0D92B2091F100A091F10092EFA4
:10F280009093E800863009F057C036E080E29EEDAA
:10F29000E1E0EBBFFC01479156914E155F0559F433
:10F2A000AC014E5F5F4FE1E0EBBFFA014791569131
:10F2B0004C175D0721F00796315051F7F1C0BC01A2
:10F2C0006C5F7F4FE1E0EBBFFB01679176910696A3
:10F2D000E1E0EBBFFC018791969130E03A2B2F3FA4
:10F2E000310519F010F02FEF30E0281708F4822FC5
:10F2F0003EEF9091E800292F2570D9F392FDD3C0FD
:10F30000982F813108F090E1AB01292F222351F091
:10F31000E1E0EBBFFA01A791A093F10021504F5F0C
:10F320005F4FF4CF690F711D891B3093E800811185
:10F33000E0CF9031F1F2B7C0853049F48EEF809381
:10F34000E800FEDD8E2D80688093E300ACC089303C
:10F3500009F032C01111A4C0E092AC201092A82094
:10F360001092AA208EEF8093E80041E08DEE9EED92
:10F370004093E9009C012F5F3F4FE1E0EBBFFC01B0
:10F3800057915093EB00552381F0E1E0EBBFF90179
:10F3900027912093EC009C012D5F3F4F0296E1E006
:10F3A000EBBFFC0187918093ED004F5F453011F07A
:10F3B000C901DECF8EE16FC0883049F4103809F002
:10F3C0006FC0BEDD8091AC208093F10043C08132DC
:10F3D00071F4113A09F064C0B3DDE0EAF0E287E0CD
:10F3E0008E0F91919093F1008E13FBCF33C080323A
:10F3F000A1F4113209F054C08091E80082FFFCCFE3
:10F40000E0EAF0E287E08E0F9091F10091938E1385
:10F41000FBCF8BEF8093E8001DC0823239F41132AC
:10F4200009F03EC0E092A8208BDD14C0811116C007
:10F4300087DD123851F4C093E9008091EB0085FB21
:10F44000882780F91092E90001C080E08093F100E4
:10F450001092F1008EEF8093E80025C0982F9D7FD9
:10F460009130F1F41230E1F4EF28D1F4CF779FEF2F
:10F470009C0F9430A8F49EEF9093E800C093E900AD
:10F48000833071F089E18093EB0081E090E001C06E
:10F49000880FCA95EAF78093EA001092EA0003C049
:10F4A00081E28093EB00FF91EF91DF91CF91BF91CB
:10F4B000AF919F918F917F916F915F914F913F910C
:10F4C0002F911F91FF90EF900F900BBE0F900FBEEA
:10F4D0000F901F90189500E1000000000800FFFF4A
:10F4E000FFFFFFFFFFFFFFFFFFFFFFFFFFFFFFFF2C
:10F4F000FFFFFFFFFFFFFFFFFFFFFFFFFFFFFFFF1C
:10F50000FFFFFFFFFFFFFFFFFFFFFFFFFFFFFFFF0B
:10F51000FFFFFFFFFFFFFFFFFFFFFFFFFFFFFFFFFB
:10F52000FFFFFFFFFFFFFFFFFFFFFFFFFFFFFFFFEB
:10F53000FFFFFFFFFFFFFFFFFFFFFFFFFFFFFFFFDB
:10F54000FFFFFFFFFFFFFFFFFFFFFFFFFFFFFFFFCB
:10F55000FFFFFFFFFFFFFFFFFFFFFFFFFFFFFFFFBB
:10F56000FFFFFFFFFFFFFFFFFFFFFFFFFFFFFFFFAB
:10F57000FFFFFFFFFFFFFFFFFFFFFFFFFFFFFFFF9B
:10F5800000010000DBDE120002000098DE430003F1
:10F59000000094DE04010309048ADE080203090462
:10F5A00068DE20030309044ADE1C1C0353004600E6
:10F5B00047002D003200300030002000560032009D
:10F5C0002E0036003100000020034100740074005A
:10F5D0006F004200410053004900430020005600E4
:10F5E00032002E0033003600000008034B005300A9
:10F5F000560000000403090409024300020100C090
:10F600003209040000010202010005240010010576
:10F6100024010101042402060524060001070582D5
:10F620000310004009040100020A0000000705035E
:10F63000028000000705840280000012010002021F
:10F64000000010C0167A040001010203010001C18C
:08F65000120180060181060091
:10FB000000000000000000000000000000000000F5
:10FB100000000000000000000000000000000000E5
:10FB200000000000000000000000000000000000D5
:10FB300000000000000000000000000000000000C5
:10FB400000000000000000000000000000000000B5
:10FB500000000000000000000000000000000000A5
:10FB60000000000000000000000000000000000095
:10FB70000000000000000000000000000000000085
:10FB8000FFFFFFFFFFFFFFFFFFFFFFFFFFFFFFFF85
:10FB9000FFFFFFFFFFFFFFFFFFFFFFFFFFFFFFFF75
:10FBA000FFFFFFFFFFFFFFFFFFFFFFFFFFFFFFFF65
:10FBB000FFFFFFFFFFFFFFFFFFFFFFFFFFFFFFFF55
:10FBC000FFFFFFFFFFFFFFFFFFFFFFFFFFFFFFFF45
:10FBD000FFFFFFFFFFFFFFFFFFFFFFFFFFFFFFFF35
:10FBE000FFFFFFFFFFFFFFFFFFFFFFFFFFFFFFFF25
:10FBF000FFFFFFFFFFFFFFFFFFFFFFFFFFFFFFFF15
:00000001FF
