:020000020000FC
:1000000010C05BCF5ACFB5CB9BC457CF25CA55CFB5
:1000100054CFC9CB03CC51CF50CF4FCF4ECF4DCFC4
:100020004CCFA8950FE50DBF02E00EBFF4D631D23C
:1000300078940DD1CC2402D059D0FACF4EE343DBD3
:10004000CBE1D2E033DB3D3019F4999898980BC09E
:10005000323229F4989902C0989A01C098983332A4
:1000600011F4989B999A0F93CC3102E0D0070F912D
:1000700019F447E028DBE6CF3531D9F0383051F1BB
:100080003F3741F13A30F1F23930E1F2999B388350
:100090003D3009F408950F93C63E01E0D0070F915B
:1000A00019F447E010DBCECF999B2197432FD4D092
:1000B000C9CFEF93FF93EBE1F2E0EC1BFD0B2E2E8B
:1000C000E8E9FCE1E2D02A94D9F7CBE1D2E0FF9154
:1000D000EF91B8CF0F93CB3102E0D0070F9129F009
:1000E00033273993E8E9FCE1D0D0ACCFCBE1D2E0C3
:1000F00038817ED0023009F431C4A9D0A16002C099
:10010000AE7FBF7B8DB79EB70F938F3202E0900713
:100110000F9108F41BC63FD05D3019F4B2FD71D3C6
:1001200018C05B33B1F0032D023019F4ACD228D1E2
:10013000E9CF7F756F755F75053039F0413029F46F
:10014000032D033011F407D1DDCF05D05D3009F068
:100150000895A1600895E2E7F8E112D0071661F46E
:100160000FD0061651F40CD0051641F431960591C6
:10017000F491E02F09950895319631963096EDCFA0
:100180000590002039F41490112021F400E0009330
:100190001E0204C6089570EF60EF41E0388128D058
:1001A000013011F418D0F7CF532F15D03D3081F026
:1001B0003D2C38813D3061F01BD03D1429F455D3DE
:1001C0000AD043954330A9F7388112D03D1409F085
:1001D000089501D0F9CF0F93C53E01E0D0070F91EC
:1001E00029F404E000931E02D9C5089521970895CB
:1001F0003F9300273D3009F41FC03F75303009F4AC
:1002000002C03C3011F401E018C0323011F405E0B6
:1002100014C0303411F405E010C030310AF40DC0C0
:100220003B350AF00AC0303412F003E006C03A3120
:1002300012F41AF402E001C004E0D02E3F910895B8
:100240001CD58F93492F3FDA4F913DDA08954DE049
:100250003ADA4AE038DA08954D3011F4F8DF0895BB
:1002600032CA472F05D0462F03D0452F01D008951D
:100270004F93407F4295405D26DA4F914F70405D2D
:1002800022DA089502D0E3DF08954591442309F46A
:100290000895483F11F435D0F8CF493F21F4159027
:1002A000459155D0F2CF4A3F11F4D1DFEECF4B3F0D
:1002B00041F4EF93FF93EEECFCE1E7DFFF91EF9168
:1002C000E4CF4C3F41F4EF93FF93ECE9FCE1DDDF39
:1002D000FF91EF91DACF4D3F41F4EF93FF93E2EBC3
:1002E000FCE1D3DFFF91EF91D0CF4E3F41F4EF938C
:1002F000FF93E8EBFCE1C9DFFF91EF91C6CFE3D9B3
:10030000C4CF0F93EF93FF93112445914A30A1F08E
:100310004D3091F04A3F81F0493F71F04C3F11F46C
:1003200004E1100E4D3F11F405E0100E4E3F11F4A4
:100330000CE0100E1394E9CF1A9446E3141A1194AA
:10034000169440E204D0FF91EF910F910895BBD92C
:100350001A94E9F7089551545D3022F005E00093B6
:100360001E021CC5A0FF19F40BD0A2600895ECEB8F
:10037000F1E06627E50FF61F508102D0AD7F0895AA
:100380000F9309E00C1509F4D9C41F921124E9ED6B
:10039000F1E0EC19F1095083C39423951F900F915C
:1003A0000895CC2009F4CEC41F921124EAEDF1E0A7
:1003B000EC19F1095081CA942A951F900895EF9382
:1003C000FF9302E00B1509F4C1C402E05B2DA6D433
:1003D000EEEDF1E0E019F109D293C293B394FF91ED
:1003E000EF910895EF93FF93BB2009F4ABC402E0B3
:1003F0005B2D94D4EEEDF1E0E019F109C191D081CB
:10040000BA94FF91EF910895EF93FF9302E00A15DC
:1004100009F49CC404E05A2D81D4E6EEF1E0E01921
:10042000F1096292729242925292A394FF91EF91DB
:100430000895EF93FF93AA2009F484C404E05A2D91
:100440005A956CD4E6EEF1E0E019F10962907290F1
:1004500042905290FF91EF910895A3DF67D101E0A0
:10046000552319F0000F5A95E9F7502F3CC770300B
:1004700039F0705D472F27D9603011F440E323D95C
:10048000603019F0605D462F1ED9505D452F1BD995
:100490000895E8EFFAE1F6DE0895D9DEEBEBF1E03E
:1004A000C0911C02D0911D02EC17FD0721F0408184
:1004B000D3DE3197F9CFCBDECADE91E08BEB7091C2
:1004C0001C0260911D02871B960BB8D3CADEE8E7B9
:1004D000FCE1DBDE80911C0290911D028056904071
:1004E000ADD3BFDEE8E8FCE1D0DE0895B068F4D615
:1004F00005E0301641F055DFD6D3B9DF40E2E3D84E
:100500002223C9F7A4DEBF770895B068E5D644E298
:10051000DAD847DF852F94DE40E2D5D82223B9F719
:1005200096DEBF770895B068D7D63BDF78E040E32A
:10053000551F08F441E3C7D87A95C9F740E2C3D8FC
:10054000222399F784DEBF770895488144DE423242
:1005500031F04E3711F0B7D8F8CF79DEF6CF0895E5
:10056000B7D6ECEBF1E06627E50FF61F00830895A0
:10057000B5FF3BC6AAD6452E14DF052F12DF552E38
:100580006627ECEBF1E0E50FF61F0083A062AE7F7B
:10059000BF7D08959AD6552309F4A46008950F915C
:1005A0000F910895B0620895ECEBF1E0552D6627A8
:1005B000E50FF61F0081041521F003950083A0616B
:1005C0000895AA9409F035DF08959ADD0895B16081
:1005D0000895988100DE8881382F0ADE013021F0ED
:1005E000043011F0F8DD02C0892F992753D3582F1A
:1005F000C7DE86DD0895552708E0202E8881EBDDD3
:10060000382FF6DD302E023019F0CF5FDF4F07C0F4
:100610008894317030FD0894551F2A9479F7B0DE24
:100620006FDD08950CE100931E02B8C3CF93DF93F2
:100630004CD6D0E9C9EFCA950000E9F7DA95000079
:10064000C9F7D2ECC3E1CA950000E9F7DA950000DA
:10065000C9F75A9571F744C6552792DE36D601E0A0
:1006600005172AF0A79850FF0895A79A089576C312
:1006700004B7077F04BF08E101BD0EE001BDF89497
:100680008895000008957F706F705F7019D308958A
:100690001CD6452FEBEBF1E080911C0290911D02DE
:1006A0000AC0F91711F48E17C0F400810D3011F053
:1006B0003197F7CF3197552766277727F91711F428
:1006C0008E1758F4308194DD023019F4CED0319772
:1006D000F5CFD9DF451729F7089509E000931E02E9
:1006E0005DC3D6DFEF010895D3DFA06C0895B3FF9B
:1006F00002C0A8600895B1600895E7D5452FE3D7FB
:100700000895EBEBF1E0F0931D02E0931C02CC2482
:10071000AA27BB270FB70F93F894F2D0F7D00F9109
:100720000FBF95DDE8EAFAE1ADDD0895583008F431
:10073000089510C3543008F4089514C3523008F4D7
:1007400008950CC3CF93DF93C7D5C0E0D0E064D247
:10075000222319F0213021F011C3502F11DE06C0E1
:1007600020DE00C0052FC0E0D0E05DD2B9C55AE25E
:10077000BAC540E245CCBB24AA24A898B460CBEB10
:10078000D1E03FD0CC24A160B0D7A6FF02C017DED5
:10079000AF7BA7FF03C0EF01B860AF77A3FF05C031
:1007A00021DEBB2009F4B77FA77FA5FF03C03E0170
:1007B0002BDEAF7DA4FF02C0E301AF7EB0FF06C019
:1007C00042D0C0911C02D0911D02BE7F80911C02BC
:1007D00090911D028C1B9D0B78F4388109DDA2FFDE
:1007E00004C0043011F02197CDCFAB7F023011F45B
:1007F0002197C8CF87DCC6CF00E000931F02BB7FE4
:10080000089500911D02D01729F400911C02C01711
:1008100009F40895CF93DF93DF923F93662755271E
:100820003881E6DC023021F04BD250931F0204C025
:100830001CD05F702197F4CFAB9B02C055D007DD71
:100840003F91DF904DC5E0E7FCE11FDD089554EBDB
:10085000E0E6F0E0019150270F93EF3502E0F0075A
:100860000F91C1F7509322020895762F652F532FD1
:1008700008957727662755270895DF93D4E0DA9502
:100880000000E9F7DF910895DF93D5E0F6DFDA9510
:10089000E9F7DF910895DF93DAE0EFDFDA95E9F722
:1008A000DF910895DF93D4E6E8DFDA95E9F7DF9189
:1008B0000895CF93DF93D6ECC3E1CA950000E9F722
:1008C000DA950000C9F7DF91CF9108950F930AE000
:1008D000F0DF0A95E9F70F9108950F930AE0F6DF2C
:1008E0000A95E9F70F910895E6ECFCE1CEDCCF9391
:1008F000DF93DD27C0911F02FFD1DF91CF910895D3
:10090000E0E6F0E091E08CE5002705C0ECEBF1E0DB
:1009100090E08DE0002701930197E9F70895ECE05E
:10092000FCE1B3DC089580912F0280FFFCCF89B7F2
:10093000897F89BF0895F89489B7866089BF089533
:1009400008E101BD00E001BD9D9A189504E0009307
:100950001E0224C20BE000931E0220C24427E1D0F5
:100960005430C0F780911C0290911D020F938B3B75
:1009700001E090070F9109F45BC0CBE1D2E079DF91
:100980000F93C53E01E0D0070F9102F3388130DCB0
:10099000023029F4762F652F532F2197F1CF73DE84
:1009A000452EE0911C02F0911D024C7F62DF552420
:1009B00031960F93EC3B01E0F0070F9191F03081FD
:1009C00017DC043071F0023089F75394562F672FEB
:1009D000732FEECF0F93EC3B01E0F0070F9131F74F
:1009E0000895052D033029F05394562F672F70E09A
:1009F000F8CF41FD02C04260D9CF45DE4516A1F1D6
:100A000010F441603F010F93EC3B01E0F0070F91C0
:100A100011F440FF0DC040FFDDCF541508F452C063
:100A20000F93EC3B01E0F0070F9109F44BC0D2CFDC
:100A300078D0003009F40895CBE1D2E0E0911C02B7
:100A4000F0911D020F93E03600E0F0070F9109F4DA
:100A500035C008810083319721970D3099F7F093C5
:100A60001D02E0931C0208953197EF010F93E036C9
:100A700000E0F0070F9109F469CF088121970D304C
:100A8000A9F7BF016C1B7D0B80911C0290911D0288
:100A9000860F971F90931D0280931C020F93E036E0
:100AA00000E0F0070F9129F008810083219731972A
:100AB000F5CF37D0003009F051CF089502E0009310
:100AC0001E026CC12ED0003059F100911D02003081
:100AD00029F400911C020056081780F3E0911C02D3
:100AE000F0911D02DF2FCE2FC81BD040D0931D02E6
:100AF000C0931C02F71519F4E61509F405C000812E
:100B0000088321963196F6CFCBE1D2E0F72DE62D82
:100B10003197088100830D3019F031972197F9CF73
:100B20000895CBE1D2E05527882799274B7F38815C
:100B3000219783953D3041F05BDB023039F0446012
:100B40000130A9F39395F3CF092F089542FF5395F0
:100B5000EECFCBE1D2E0E03609F0B0CF08810083E0
:100B6000319721970D30B9F7F0931D02E0931C02E5
:100B70000895CBEBD1E0E0911C02F0911D02CE1B59
:100B8000DF0BEFEDF1E0EC17FD0724F4E6E2FCE10A
:100B900079DB0895EEE4FCE175DBCC24EBEBF1E0CE
:100BA000CFEFD1E060911C0270911D02A6980081E8
:100BB0003AD00F93E03600E0F0070F9161F0E617AE
:100BC000F70749F021970F93C03000E0D0070F914D
:100BD00011F03197ECCF002726D0089592DDEEE595
:100BE000FCE150DBECEBF1E0CFEFD1E015D00F3FB3
:100BF00019F4002718D0BEC00FD00293002311F0C3
:100C00002197D1F73197CC24F0931D02E0931C0279
:100C1000B2FF52DC0895B2C0E199FECFDFBBCEBB7C
:100C2000E09A0DB30895E199FECFDFBBCEBB44E05F
:100C3000A69944E10DBB4CBBE19A08950C01889440
:100C400000E117DE001C111C551F661F771F0A9557
:100C500009F40895352F08D0532F362F05D0632F70
:100C6000372F02D0732FEECF432F4D5F43FD342F2C
:100C7000432F405D47FD342F0895982F92959F7024
:100C8000905D9A3308F0995F8F70805D8A3308F029
:100C9000895F089596FD975F9F7086FD875F8F70CF
:100CA0009295892B089577276627545610F07395EF
:100CB000FCCF5C595A5010F06395FCCF565F0895F5
:100CC0007330B2F4723032F0663092F4653012F064
:100CD000563072F4662321F00AE0500F6A9581F7CE
:100CE000772309F4089504E68894500F7A95C0F7A5
:100CF00001E000931E0252C04FE24395C456D0401B
:100D0000E0F7CC59DF4FDFD44FE24395CA50E8F704
:100D1000C65FD9D44C2F405DD6D408957FB77F935A
:100D2000F894052E112458E0069408F4100E179438
:100D300007945A95D1F70F910FBF089506E00093DD
:100D40001E022CC007E000931E0228C008E000939A
:100D50001E0224C00AE000931E0220C00CE0009393
:100D60001E021CC00DE000931E0218C001E100939A
:100D70001E0214C002E100931E0210C006E100939F
:100D80001E020CC00BE100931E0208C00DE100938F
:100D90001E0204C00EE100931E0200C058DA1124A6
:100DA00000901E02D02C000CE6EDFDE0E00DF11DE0
:100DB0000591F491E02FEE1FFF1F67DA48DA94DD0A
:100DC0000FE50DBF02E00EBFAA27BB2700E000938E
:100DD0001F023DDA2DC96B0E730E790E850E940E2F
:100DE000A00EAA0EB50EC00EDC0EE80EED0EF90E2A
:100DF000FE0E030F040F0C0F150F1E0F240F250FEF
:100E0000260F270F2E0F370F3E0F470F480F480FA3
:100E1000510F5B0F5C0FF8940024112433D041D0A4
:100E20000FEF00B9A898C0E0D0E0F6DE302F00FF49
:100E300001C0A89A00E00ABB00E00BBB00E007BBC2
:100E400000E008BB112414BE13BA14BA05B3017034
:100E500005BB10921F02FBDC6ED4789400E205BF44
:100E600000E007B900E003B907ED06B9A89B08C088
:100E7000B5DE81DCECD9EBD9E8EAFAE103DA0895D2
:100E800040DC08950FB70F93A89504B7077F04BF00
:100E9000F89401B5086101BD007001BD0F910FBF4D
:100EA000089550E860E056BD66BD0895009807EDCE
:100EB00006B906B104FFFDCFEEDC0895009AEBDC25
:100EC00008950AD2B1F0CF93DF9309E0C01678F409
:100ED00011240C2CC0922102C1EDD1E0C019D1091E
:100EE00060DA59930A94E1F7DF91CF9107C003D0FC
:100EF00025CF01D027CF00E00093210200E000932E
:100F0000200250912102EFC1CF93DF93E5D111244C
:100F10007091210260912002C0EDD1E0222359F0AE
:100F2000A1FF03C00C2D0A9531F03BDA7A957517B5
:100F300062F0652F02C0761741F0C61BD1095881B7
:100F40001FDA639560932002CBC1FCCECF93DF9371
:100F5000A598D6D801E03AD05881DF91CF91C3C18E
:100F6000CF93DF93A59ACCD802E030D05883B8C194
:100F7000CF93DF93A598C4D801E028D04DDE502F41
:100F8000DF91CF91B0C1CF93DF93A698A59AB8D83F
:100F900002E01CD0052F0F93C03002E0D0070F9164
:100FA00011F041DE12C0E2E4FCE16FD95527A69AA8
:100FB000219739DE5A9511F44EE285D30F93C03054
:100FC00000E0D0070F91A1F742D98AC10C1969F04E
:100FD000E8D95F93E6D9A59B05C05F93E2D9DF917D
:100FE000CF910895D52FCF910895DBD9A59B05C04A
:100FF000052FD7D9C02FDD270895C52FDD270895E8
:10100000CF93DF9350E0BCD960D1CC2039F0583079
:101010000AF0C0CE60E866BD56BD02C056B5B0D974
:101020005FC1CF93DF9351B7ABD94FD151BF51B708
:10103000DF91CF9158C159B356C156B354C1152F42
:1010400044D110FF02C05BBB089558BB08955AB34A
:101050004AC157B348C1152F38D110FF02C05ABB3F
:10106000089557BB0895152F4CD010FF03C0EAE335
:10107000F0E04BC0E7E3F0E048C0152F42D010FF8E
:1010800003C0EAE3F0E045C0E7E3F0E042C0152F1B
:1010900038D010FF03C0EBE3F0E037C0E8E3F0E046
:1010A00034C0152F2ED010FF03C0EBE3F0E031C0A9
:1010B000E8E3F0E02EC0152F24D010FF03C0EBE3CF
:1010C000F0E002C0E8E3F0E00081052350E00023F7
:1010D00009F451E008C1152F14D010FF03C0EBE351
:1010E000F0E01CC0E8E3F0E019C0152F0AD010FFB3
:1010F00003C0EBE3F0E002C0E8E3F0E00FD0E6DB92
:101100000DC0FED7AAD94DD908950081052B0083C3
:1011100008955095008105230083089500810527D7
:1011200000830895CF93DF93D0D0CC2019F4652F9E
:10113000552705C05F9335D9652F5F91FFDA1124DC
:1011400012BC50FF01C006C00FB50168D69A1BBC87
:101150006ABD05C00FB50162D59A19BC68BD0FBD47
:1011600009E00EBDBDC000270EBD0FBD02BD089534
:10117000AFD0D4DD1120A79911F4502DB4C00FE0E9
:1011800000931E020BCE5F93A0D05523A799B9F010
:10119000052F07D9652F772759E0661F5A9541F02B
:1011A000771F701B18F4700F8894F7CF0894F5CF51
:1011B0005F915F3011F4562F01C0572F94C001E1A9
:1011C00000931E02EBCD84D0500FA79908F08BC07E
:1011D0000FE000931E02E2CD7BD0501BA79908F0D0
:1011E00082C000E100931E02D9CD72D050170FB714
:1011F00001FF10C011C06CD050170FB701FF0CC019
:1012000009C05F9365D06F916C3111F4501701C024
:10121000051710F0552750FD51E065C00DD066232D
:1012200019F056956A95E9F75EC006D0662319F065
:10123000550F6A95E9F757C04FD0B3D8222311F460
:1012400061E0089573DA652FACD8089541D050233A
:101250004AC03ED0502B47C03BD0502744C035D069
:10126000509541C032D051953EC02FD052953BC0D1
:101270002CD052955F7037C0EF93FF9311242CD080
:1012800041F400902102002009F45CCDE1EDF1E091
:1012900007C009E020170AF051CD022EEAEDF1E077
:1012A00004D06ED8FF91EF91089550E07CE8029150
:1012B00068E0302F352756950695369508F4572760
:1012C0006A95B9F70A9499F708951AD76AD80895D4
:1012D000FCDF052F66D80895222712D72223089510
:1012E000DF91CF9108954CD80895CF9209D7552713
:1012F0000F910C1909F055D8D9DD00E003B907B1F9
:10130000007C5F73052B07B9583032F45770A7D8AB
:1013100048D801B1502B51B95527662770E1F89490
:1013200007ED06B906B104FFFDCF84B195B1580FA2
:10133000691F7A95A9F7789476E0669557957A951E
:10134000E1F71ED8BBDD089555271AD8BEDFF6D9C0
:10135000ADDD07B10F7350FD006450FF006807B9A1
:10136000A8DA089552E00CD8B0DF553008F006CD69
:1013700004B3087F052B04BB089598DD08D05527DA
:10138000459951E0479A9ADDFBD7BAD6089500E017
:1013900006B900E106B91E9808B10870006508B9E1
:1013A000A29B02C054E00AC01E9A54B3537007B106
:1013B000007C052B07B953D8CA942A9551B972DA23
:1013C00008959B9A18955527DBD77FDF5523B1F0F9
:1013D0005A3008F0D3CCA89504B7077F04BF052F77
:1013E0005770000F000F00720064502BF89408E152
:1013F00001BD51BD03B3077003BB0AC057DD1E9882
:10140000A19904C000E106B900E403B9449A56DD8D
:1014100078948895000053B3507C11F09E999E9863
:101420009D9B02C09D9808959B9BF2CF9B98089529
:10143000CF93DF935527A4D748DF80D950FD04C050
:1014400045D0C298BA9807C04ED000270093290211
:10145000BA9AC29827D044CF7F937FB77F936F9378
:101460005F93EF93FF93FFE1E091290250912602F1
:101470006091270270912802E50EF61EE71F549135
:10148000E093290250FF03C00000C29A03C0C29833
:1014900000000000FF91EF915F916F917F917FBFFE
:1014A0007F911895112403981BB81DBC1CBC1FBC50
:1014B0001EBC1BBC1ABC19BC18BC04E81BBC0ABD72
:1014C00000E00FBD09E00EBD619A089511241BB81C
:1014D0001FBC1EBC1DBC1CBC19BC18BC1BBC1ABC50
:1014E0006198039A0895C6ECD1E0C3D900EF102E9D
:1014F000088001200294002029F08CEC9CEC04ED83
:101500003CD0F9CF099012940120002029F08EEAF6
:1015100097E405E132D0F9CF0880129401200294BB
:10152000002029F084EC90E202E027D0F9CF099066
:1015300012940120002029F08AE796E300E01DD0F4
:10154000F9CF0880129401200294002029F082E74C
:1015500095E000E012D0F9CF08801294012000201D
:1015600029F08BE890E000E008D0C9F750932602FC
:1015700060932702709328020895581F691F701FF7
:101580000A9408950FB70F93F894DC9AD49A91D9DE
:10159000DC9802E380D90A95E9F7DC9AD49806E052
:1015A0007AD90A95E9F751E009B304FD5527E8D641
:1015B00002E371D90A95E9F70F910FBFA1D50895FC
:1015C0008BDE09F4E3CB0FB70F93F894EF93FF93FF
:1015D0001124EAEDF1E0C21A58E0252E52915795F8
:1015E00010F446D001C04ED04FD92A94C1F754D040
:1015F0002A9591F7FF91EF910F910FBF08950FB7C3
:101600000F93F89469DE19F417D0BAD612C0CF93AD
:10161000DF931124C6D6752FC1EDD1E010922002C0
:101620005093210209D05A9337D07A95D9F7DF9198
:10163000CF910F910FBF089508E0202E08D0889415
:1016400000FD0894579520D92A94C1F70895DC9895
:10165000D49A1AD9DC9AD49817D90FEF39B334FF3A
:1016600000270F930AE010D90A95E9F70F91089522
:10167000DC98D49A10D9DC9AD49806E00CD90A9553
:10168000E9F70895D49ADC9807E005D90A95E9F7B7
:10169000DC9AD498F9D80895F7D8F6D8F5D80895F3
:1016A00005D0532F533009F4B1601DCE30912F0275
:1016B00032FD03C088950000F9CF3B7F30932F02A5
:1016C00030912C02089511D04F93B1FF07C0889537
:1016D000000040912F0242FFFACFBD7F13D044E3B8
:1016E000DAD84A95E9F74F91089580912F0282FF49
:1016F0000895DCDF333111F4B2600895333009F41A
:10170000B160089580912F0280FFFCCF8E7F80937F
:101710002F0240932A0200E000932B02F894C19814
:1017200082B78C5C8CBF88B7846088BF89B78460BF
:1017300089BF789408958F93029880B5816080BDA9
:101740008AB780628ABF8BB780628BBF89B78D7F73
:1017500089BFB89889B78B7F89BFB99AC19A01E0D0
:1017600000932F0200E000BF02E003BF8F91789446
:101770000895B09918950F930FB70F9302B70F5BA9
:1017800006BF08B7026008BF09B7026009BF0BB700
:101790000F7D0BBF002700932D0200932E020F91A7
:1017A0000FBF0F9118952F932FB72F933F938F93C0
:1017B0009F9386B78C5C86BFB09B0EC020912D0294
:1017C00030912E0281E0992702C0880F991F3A9527
:1017D000E2F7282B20932D0280912E02839580938F
:1017E0002E0280912E02893091F480912D028093F7
:1017F0002C0280912F02846080932F0289B78D7F05
:1018000089BF8AB780628ABF8BB780628BBF9F9186
:101810008F913F912F912FBF2F9118958F938FB755
:101820008F938CB78C5C8CBF80912B02883068F4CE
:1018300080912A0280FF02C0C19A01C0C1988091A4
:101840002A02869580932A0201C0C19A80912B02B8
:10185000839580932B0280912B028A3030F003E035
:1018600000932F0289B78B7F89BF8F912FBF8F91F4
:1018700018954C4953204D0252554E20BB035341FD
:101880005645B9054C4F4144EE0550524920760269
:10189000505258208502505242209302454D4954DF
:1018A0007D03464F5220D20250544F20E5024E4550
:1018B0005854D402465245205C024E4557208103BD
:1018C00050494620CA0254484520CF02454E442084
:1018D000E70252535420380343464720A203501ACC
:1018E0001D20B00250501E20010950501C2001093B
:1018F000501C1E20FB0850011D20FB0850501D20CD
:10190000B80250500B20E30850500D20EC08505006
:101910000A20B80850500F20C3084D4F4420C30878
:1019200050500520C30850500420E90250500720B1
:10193000FB0250500220A502444154416107524528
:1019400041448407524553547E074C5352200E099C
:101950004C534C201509505006202609414E442076
:10196000260950505C202909504F52202909505017
:101970005E202C09584F52202C09434F4D202F092F
:10198000505001202F094E454720320953574150EE
:101990003509414F56202C03435243203C0944450E
:1019A0004C411603474F54207103474F5320740393
:1019B0005245542077034B455920500B434C4B2044
:1019C00000084F534320110841434F20BD094143B4
:1019D0005320B2095045454BA607504F4B45B00721
:1019E00045455220B80745455720C307534C502062
:1019F000E3094F574920C20A4F575720E00A4F5773
:101A00005220FF0A4F4441202B0849444120270817
:101A1000534441203308434441203D084F50412066
:101A20001F08534241204708434241205108584271
:101A300041206B08504241207508494E41201B0847
:101A4000494241205B084F4442202B084944422030
:101A50002908534442203308434442203D084F5054
:101A600042201F0853424220470843424220510867
:101A7000584242206B08504242207508494E42208D
:101A80001D08494242205B0850574D20920850578C
:101A90004F20B30844445320180A41444320750999
:101AA00041445220A4090000F9363DFAF84174740B
:101AB0006F424153494320666F7220415474696EEE
:101AC000793834284129204031364D487AFAF85681
:101AD00065723A20322E3334204275696C6420637B
:101AE0006F64653A2032303137303230372E323041
:101AF0003235FAF9363D0000F8456E68616E63656F
:101B000064206279204B2053636F7474205669748B
:101B1000616C6520286B73765F70726A40676D78C0
:101B20002E636F6D29FAF8415474696E7938342F39
:101B3000383520706F72742028432932303136FADC
:101B4000F8312D57697265285229FE32303133FA47
:101B5000F8536C656570FE32303132FAF844445304
:101B6000FE32303131FAF9362DFAF84261736520D0
:101B7000436F646520284329323030322044696342
:101B80006B2043617070656C73FAF8687474703A16
:101B90002F2F70726F6A656374732E636170706546
:101BA0006C732E6F7267202070726F6A6563747336
:101BB0004063617070656C732E6F726720FAF9363E
:101BC0002DFAF8416C6C2072696768747320616E3D
:101BD000642072656D6564696573206578707265EF
:101BE00073736C79207265736572766564FAF84E6A
:101BF0006F7420666F7220636F6D6D6572636961CB
:101C00006C20757365FAF9363DFA0000F9352DFA46
:101C1000000044656275672000006F6E20FA0000C6
:101C20006F6666FA0000FB3A2050676D20746F6F94
:101C3000206C6172676520666F72204545502120D7
:101C4000FA0045726173696E672045455000536123
:101C500076696E6720746F204545502EFA004C6FF0
:101C60006164696E672066726F6D20454550FA00A9
:101C7000427265616BFA00002062797465732075A9
:101C80007365642E202000002062797465732066DD
:101C90007265652E20FA00000820080056616C75F8
:101CA000652065786365656465642072616E67654B
:101CB0000000206E6F74200020737570706F727456
:101CC0002028432900004C696E65202320004572BE
:101CD000726F723A0000FB434D442F4F5020556EF7
:101CE0006B6E6F776E00FBFC206F6620303A3235EA
:101CF0003500FB50726F6772616D206D656D6F729C
:101D0000792069732066756C6C00FB4368617261B1
:101D100063746572FD61207265636F676E697A65D1
:101D20006420747970652E00FB42756666657220CA
:101D30006C696D69742065786365656465642E00FF
:101D4000FB426164207661726961626C65206E613C
:101D50006D652E00FB546F6F206D616E792061728E
:101D600067756D656E74732E2000FB56616C75652A
:101D700020776173FD617661696C61626C652E002C
:101D8000FB537461636B206572726F7220FAF909FC
:101D90002046756E632F63616C6C7320746F6F20C7
:101DA000636F6D706C65782F6E65737465642074F5
:101DB0006F6F206465657000FB474F54206F722081
:101DC000474F532064657374FD666F756E642E0013
:101DD000FBFC206F6620303A3700FB4C696E6520B3
:101DE0006E756D626572203E203320646967697488
:101DF0007300FBFC206F6620303A3100FBFC206F43
:101E00006620303A33000000FB4D617468206F7625
:101E10006572666C6F772E00FB4D61746820756E7D
:101E2000646572666C6F772E2000FB446976696486
:101E300065206279207A65726F2E2000FB456D70F7
:101E400074792046696C6500000000000000FB53B7
:101E5000706563696669656420FC2E00FB536574D8
:101E600020414320526566203E20302E2000FB4456
:101E70004556206E6F20726573702E00FB446576A8
:101E800069636520636865636B73756D2E00000080
:101E9000FBFD612062696E617279206E756D62650D
:101EA0007200FB496E76616C69642023206F6620A6
:101EB000617267732E0000000000189517BFE89547
:081EC00007B700FDFDCF0895F6
:101F000000000000000000000000000000000000D1
:101F100000000000000000000000000000000000C1
:101F200000000000000000000000000000000000B1
:101F300000000000000000000000000000000000A1
:101F40000000000000000000000000000000000091
:101F50000000000000000000000000000000000081
:101F60000000000000000000000000000000000071
:101F70000000000000000000000000000000000061
:101F8000FFFFFFFFFFFFFFFFFFFFFFFFFFFFFFFF61
:101F9000FFFFFFFFFFFFFFFFFFFFFFFFFFFFFFFF51
:101FA000FFFFFFFFFFFFFFFFFFFFFFFFFFFFFFFF41
:101FB000FFFFFFFFFFFFFFFFFFFFFFFFFFFFFFFF31
:101FC000FFFFFFFFFFFFFFFFFFFFFFFFFFFFFFFF21
:101FD000FFFFFFFFFFFFFFFFFFFFFFFFFFFFFFFF11
:101FE000FFFFFFFFFFFFFFFFFFFFFFFFFFFFFFFF01
:101FF000FFFFFFFFFFFFFFFFFFFFFFFFFFFFFFFFF1
:00000001FF
