:020000020000FC
:1000000019C0E1CFE0CFDFCFDECFDDCFEBC4DBCF58
:10001000DACFD9CFD8CFD7CFD6CFD5CFD4CFD3CFB4
:10002000D2CFD1CFD0CFCFCFCECFCDCFCCCFE8CBCB
:10003000CACFC9CFA8950FEF0DBF04E00EBF33D7CD
:1000400034D2789410D1CC2402D05CD0FACF48E9D5
:100050004093C1004EE32EDCC8EAD4E01EDC3D3004
:1000600019F4F198F0980BC0323229F4F09902C0DB
:10007000F09A01C0F098333211F4F09BF19A0F938B
:10008000C93A04E0D0070F9119F447E013DCE6CF3A
:100090003531D9F0383051F13F3741F13A30F1F292
:1000A0003930E1F2F19B38833D3009F408950F9324
:1000B000C33404E0D0070F9119F447E0FBDBCECF47
:1000C000F19B2197432FD4D0C9CFEF93FF93E8EA58
:1000D000F4E0EC1BFD0B2E2EECE9FDE1E2D02A94BE
:1000E000D9F7C8EAD4E0FF91EF91B8CF0F93C83A9F
:1000F00004E0D0070F9129F033273993ECE9FDE1B3
:10010000D0D0ACCFC8EAD4E038817ED0023009F438
:1001100079C4A9D0A16002C0AE7FBF7B8DB79EB766
:100120000F938F3A04E090070F9108F45BC63FD01D
:100130005D3019F4B2FDC3D318C05B33B1F0032DA9
:10014000023019F4B2D228D1E9CF7F756F755F758F
:10015000053039F0413029F4032D033011F407D173
:10016000DDCF05D05D3009F00895A1600895ECE081
:10017000F9E112D0071661F40FD0061651F40CD035
:10018000051641F431960591F491E02F09950895F3
:10019000319631963096EDCF0590002039F41490C9
:1001A000112021F400E00093AB0440C6089570EFE5
:1001B00060EF41E0388128D0013011F418D0F7CF3A
:1001C000532F15D03D3081F03D2C38813D3061F00A
:1001D0001BD03D1429F4A8D30AD043954330A9F786
:1001E000388112D03D1409F0089501D0F9CF0F9352
:1001F000C23404E0D0070F9129F404E00093AB046B
:1002000015C60895219708953F9300273D3009F4BE
:100210001FC03F75303009F402C03C3011F401E0DA
:1002200018C0323011F405E014C0303411F405E088
:1002300010C030310AF40DC03B350AF00AC030342A
:1002400012F003E006C03A3112F41AF402E001C0E1
:1002500004E0D02E3F9108956CD58F93492F2ADB6F
:100260004F9128DB08954DE025DB4AE023DB08951C
:100270004D3011F4F8DF08951DCB472F05D0462FE0
:1002800003D0452F01D008954F93407F4295405DA4
:1002900011DB4F914F70405D0DDB089502D0E3DF1D
:1002A00008954591442309F40895483F11F435D049
:1002B000F8CF493F21F41590459155D0F2CF4A3FF0
:1002C00011F4D1DFEECF4B3F41F4EF93FF93E2ED1A
:1002D000FDE1E7DFFF91EF91E4CF4C3F41F4EF9375
:1002E000FF93E0EAFDE1DDDFFF91EF91DACF4D3FD3
:1002F00041F4EF93FF93E6EBFDE1D3DFFF91EF9144
:10030000D0CF4E3F41F4EF93FF93ECEBFDE1C9DF1B
:10031000FF91EF91C6CFCEDAC4CF0F93EF93FF9347
:10032000112445914A30A1F04D3091F04A3F81F0BF
:10033000493F71F04C3F11F404E1100E4D3F11F4B0
:1003400005E0100E4E3F11F40CE0100E1394E9CFAF
:100350001A9446E3141A1194169440E204D0FF91C3
:10036000EF910F910895A6DA1A94E9F70895515480
:100370005A3122F005E00093AB0458C5A0FF19F4F0
:100380000BD0A2600895EDECF3E06627E50FF61FB1
:10039000508102D0AD7F08950F9302E20C1509F44D
:1003A00019C51F921124EAE2F4E0EC19F109508317
:1003B000C39423951F900F910895CC2009F40EC586
:1003C0001F921124EBE2F4E0EC19F1095081CA9478
:1003D0002A951F900895EF93FF9304E00B1509F4FD
:1003E00001C532E00B2D039FE3E3F4E0E019F109CE
:1003F000D293C293B394FF91EF910895EF93FF933B
:10040000BB2009F4EBC432E00B2D039FE3E3F4E0DF
:10041000E019F109C191D081BA94FF91EF9108954B
:10042000EF93FF9304E00A1509F4DCC434E00A2DCD
:10043000039FE3E4F4E0E019F109629272924292C0
:100440005292A394FF91EF910895EF93FF93AA2006
:1004500009F4C4C434E00A2D0A95039FE3E4F4E0F0
:10046000E019F1096290729042905290FF91EF91E1
:100470000895A3DF72D101E0552319F0000F5A95BA
:10048000E9F7502F2FC9703039F0705D472F12DA1D
:10049000603011F440E30EDA603019F0605D462FF1
:1004A00009DA505D452F06DA0895EEE0FCE1F6DE4C
:1004B0000895D9DEECECF3E0C091A904D091AA0430
:1004C000EC17FD0721F04081D3DE3197F9CFCBDE69
:1004D000CADE93E08CEC7091A9046091AA04871B9A
:1004E000960B08D4CADEECE7FDE1DBDE8091A904BF
:1004F0009091AA0480509140FDD3BFDEECE8FDE16D
:10050000D0DE0895B068E7D805E0301641F055DF39
:1005100026D4B9DF40E2CED92223C9F7A4DEBF77C3
:100520000895B068D8D844E2C5D947DF852F94DE56
:1005300040E2C0D92223B9F796DEBF770895B068AC
:10054000CAD83BDF78E040E3551F08F441E3B2D955
:100550007A95C9F740E2AED9222399F784DEBF77B6
:100560000895488144DE423231F04E3711F0A2D96D
:10057000F8CF79DEF6CF0895AAD8EDECF3E0662740
:10058000E50FF61F00830895B5FF2EC89DD8452EB0
:1005900014DF052F12DF552E6627EDECF3E0E50F93
:1005A000F61F0083A062AE7FBF7D08958DD85523CE
:1005B00009F4A46008950F910F910895B062089511
:1005C000EDECF3E0552D6627E50FF61F00810415CD
:1005D00021F003950083A0610895AA9409F035DF06
:1005E00008959ADD0895B1600895988100DE8881AC
:1005F000382F0ADE013021F0043011F0F8DD02C09E
:10060000892F9927A3D3582FC7DE86DD0895552754
:1006100008E0202E8881EBDD382FF6DD302E023009
:1006200019F0CF5FDF4F07C08894317030FD089418
:10063000551F2A9479F7B0DE6FDD08950CE1009321
:10064000AB04F4C3CF93DF933FD8D4EBC9EFCA9583
:100650000000E9F7DA950000C9F7D2EFC3E1CA95C7
:100660000000E9F7DA950000C9F75A9571F737C825
:10067000552792DE29D801E005174AF00AB50F7711
:100680000ABD50FF08950AB500680ABD0895B2C3B7
:1006900004B7077F04BF08E1009360000EE00093F9
:1006A0006000F8948895000008957F706F705F7007
:1006B00063D3089509D8452FECECF3E08091A904A9
:1006C0009091AA040AC0F91711F48E17C0F40081A2
:1006D0000D3011F03197F7CF3197552766277727DF
:1006E000F91711F48E1758F430818EDD023019F4A9
:1006F0001BD13197F5CFD9DF451729F7089509E0C8
:100700000093AB0493C3D6DFEF010895D3DFA06C51
:100710000895B3FF02C0A8600895B16008954881AC
:1007200066DD4D30E1F70895CFD7452FC3D8089542
:10073000ECECF3E0F093AA04E093A904CC24AA27FC
:10074000BB270FB70F93F8943AD13FD10F910FBF4A
:100750008ADDE0ECFBE1A2DD0895583008F408954D
:1007600045C3543008F4089549C3523008F408953D
:1007700041C3CF93DF93AFD7C0E0D0E0A8D222230C
:1007800019F0213021F046C3502F06DE06C015DED9
:1007900000C0052FC0E0D0E0A1D2A1C75AE2A2C795
:1007A000CF93DF931BD140E285D8ECE0F9E1D2E3AF
:1007B000C4E07591772309F437C06591559164358C
:1007C00021F45F34A1F470E220C0693421F456347E
:1007D00071F470E21AC06F3451F4523541F4773538
:1007E000A1F0783591F0763481F070E20EC050348B
:1007F00039F05E352CF45C3514F4503334F4505E2B
:1008000070E260330AF06627605E472F53D8462FA8
:1008100051D8452F4FD840E24DD83396D45042F6A8
:1008200022DD40E247D8C3CF1EDDD8D058C7BB2455
:10083000AA240BB50E7F0BBDB460CCECD3E03FD047
:10084000CC24A16046D8A6FF02C0C5DDAF7BA7FFC0
:1008500003C0EF01B860AF77A3FF05C0CFDDBB20B9
:1008600009F4B77FA77FA5FF03C03E01D9DDAF7DA7
:10087000A4FF02C0E301AF7EB0FF06C043D0C09129
:10088000A904D091AA04BE7F8091A9049091AA04E2
:100890008C1B9D0B78F43881B7DCA2FF04C00430B8
:1008A00011F02197CDCFAB7F023011F42197C8CF43
:1008B00035DCC6CF00E00093AC04BB7F0895009107
:1008C000AA04D01729F40091A904C01709F40895C7
:1008D000CF93DF93DF923F9366275527388194DCCF
:1008E000023021F049D25093AC0404C01DD05F7097
:1008F0002197F4CF0BB503FF02C055D0B4DC3F9174
:10090000DF90EDC6E4E7FDE1CCDC089554EBE0E0D8
:10091000F1E0019150270F93EF3F04E0F0070F91B2
:10092000C1F75093AF040895762F652F532F089584
:100930007727662755270895DF93D5E0DA950000DD
:10094000E9F7DF910895DF93D5E0F6DFDA95E9F76F
:10095000DF910895DF93DAE0EFDFDA95E9F7DF91D1
:100960000895DF93D4E6E8DFDA95E9F7DF9108959B
:10097000CF93DF93D7EFC3E1CA950000E9F7DA958B
:100980000000C9F7DF91CF9108950F930AE0F0DFDF
:100990000A95E9F70F9108950F930AE0F6DF0A959B
:1009A000E9F70F910895EAECFDE17BDCCF93DF934B
:1009B000DD27C091AC04FCD1DF91CF910895E0E038
:1009C000F1E092E08DEC002705C0EDECF3E090E063
:1009D0008AE1002701930197E9F70895E0E1FDE13D
:1009E00060DC089508E10093600000E0009360007F
:1009F000F59A189504E00093AB0418C20BE000933D
:100A0000AB0414C24427E1D05430C0F78091A9044C
:100A10009091AA040F938C3C03E090070F9109F486
:100A20005BC0C8EAD4E084DF0F93C23404E0D0078F
:100A30000F9102F33881E8DB023029F4762F652F1D
:100A4000532F2197F1CF31DE452EE091A904F0918B
:100A5000AA044C7F6DDF552431960F93ED3C03E0E3
:100A6000F0070F9191F03081CFDB043071F002304C
:100A700089F75394562F672F732FEECF0F93ED3CCA
:100A800003E0F0070F9131F70895052D033029F0A9
:100A90005394562F672F70E0F8CF41FD02C042609B
:100AA000D9CF03DE4516A1F110F441603F010F9349
:100AB000ED3C03E0F0070F9111F440FF0DC040FF43
:100AC000DDCF541508F452C00F93ED3C03E0F0075E
:100AD0000F9109F44BC0D2CF78D0003009F40895BB
:100AE000C8EAD4E0E091A904F091AA040F93E030A1
:100AF00001E0F0070F9109F435C0088100833197B8
:100B000021970D3099F7F093AA04E093A904089572
:100B10003197EF010F93E03001E0F0070F9109F4F6
:100B200069CF088121970D30A9F7BF016C1B7D0BA0
:100B30008091A9049091AA04860F971F9093AA040C
:100B40008093A9040F93E03001E0F0070F9129F0A2
:100B50000881008321973197F5CF37D0003009F015
:100B600051CF089502E00093AB0460C12ED0003055
:100B700059F10091AA04013029F40091A904005010
:100B8000081780F3E091A904F091AA04DF2FCE2F7B
:100B9000C81BD040D093AA04C093A904F71519F438
:100BA000E61509F405C00081088321963196F6CF39
:100BB000C8EAD4E0F72DE62D3197088100830D3087
:100BC00019F031972197F9CF0895C8EAD4E0552755
:100BD000882799274B7F3881219783953D3041F0B5
:100BE00013DB023039F044600130A9F39395F3CF61
:100BF000092F089542FF5395EECFC8EAD4E0E030C4
:100C000009F0B0CF08810083319721970D30B9F7F3
:100C1000F093AA04E093A9040895CCECD3E0E0910A
:100C2000A904F091AA04CE1BDF0BEFEDF1E0EC1765
:100C3000FD0724F4EAE2FDE131DB0895E2E5FDE1A0
:100C40002DDBCC24ECECF3E0CFEFD1E06091A904F4
:100C50007091AA040AB50F7B0ABD00813FD00F93A3
:100C6000E03001E0F0070F9161F0E617F70749F077
:100C700021970F93C03000E0D0070F9111F031970A
:100C8000ECCF00272BD0089553DDE2E6FDE106DB33
:100C9000EDECF3E0CFEFD1E01AD00F3F19F40027CD
:100CA0001DD0B4C014D0302FAFDA025009F0AEC05E
:100CB0000ED00293002311F02197D1F7CC24F093AA
:100CC000AA04E093A904B2FF03DC0895A3C0F99934
:100CD000FECFD2BDC1BDF89A00B50895F999FECFF7
:100CE000D2BDC1BD44E00AB406FC44E100BD4FBB27
:100CF000F99A08950C01889400E11ADE001C111C79
:100D0000551F661F771F0A9509F40895352F08D0DF
:100D1000532F362F05D0632F372F02D0732FEECFEE
:100D2000432F4D5F43FD342F432F405D47FD342F4C
:100D30000895982F92959F70905D9A3308F0995F6F
:100D40008F70805D8A3308F0895F089596FD975F04
:100D50009F7086FD875F8F709295892B0895772706
:100D60006627545610F07395FCCF5C595A5010F01A
:100D70006395FCCF565F08957330B2F4723032F051
:100D8000663092F4653012F0563072F4662321F02A
:100D90000AE0500F6A9581F7772309F4089504E675
:100DA0008894500F7A95C0F701E00093AB043EC0E1
:100DB0004FE24395C456D040E0F7CC59DF4F7AD587
:100DC0004FE24395CA50E8F7C65F74D54C2F405D9B
:100DD00071D5089506E00093AB0428C007E00093A6
:100DE000AB0424C008E00093AB0420C00AE00093E9
:100DF000AB041CC00CE00093AB0418C00DE00093E2
:100E0000AB0414C001E10093AB0410C002E10093F5
:100E1000AB040CC006E10093AB0408C00BE10093E7
:100E2000AB0404C00DE10093AB0400C01CDA112434
:100E30000090AB04D02C000CE6E6FEE0E00DF11DC6
:100E40000591F491E02FEE1FFF1F2BDA0CDAABDDDA
:100E50000FEF0DBF04E00EBFAA27BB2700E00093F1
:100E6000AC0401DAEEC8ED0EF50EFB0E070F160FFF
:100E7000220F2C0F370F420F5E0F6A0F6F0F7B0F81
:100E8000800F850F860F8E0F970FA00FA60FAD0F47
:100E9000AE0FAF0FB60FBF0FC60FC70FCE0FCE0FDF
:100EA000D70FE10FE20FF8940024112441D052D063
:100EB0000FEF009364000BB50E7F0BBDC0E0D0E0D8
:100EC00006DF302F00FF03C00BB501600BBD00E053
:100ED00004B900E005B900E007B900E008B900E096
:100EE00000E00AB900E00BB9112414BE1EBA1ABC06
:100EF0000BB501700BBD1092AC0408DDF8D47894EA
:100F000001E003BF00E000937C0000E000937B0061
:100F100007ED00937A000BB500FF08C0B5DE87DC53
:100F2000A2D9A1D9E0ECFBE1B9D9089501DC08957B
:100F30000FB70F93A89504B7077F04BFF8940091EB
:100F400060000861009360000070009360000F91E2
:100F50000FBF089550E860E0509361006093610016
:100F60000895009164000E7F0093640007ED0093E4
:100F70007A0000917A0006FDFBCFECDC0895009129
:100F80007A000F7700937A0000916400016000936B
:100F90006400E0DC0895CF93DF93DF91CF919BD382
:100FA0002223B1F0CF93DF9303E2C01678F411242B
:100FB0000C2CC092AE04C9E0D4E0C019D109FDD90F
:100FC00059930A94E1F7DF91CF9107C003D002CF84
:100FD00001D004CF00E00093AE0400E00093AD0424
:100FE0005091AE047FC3CF93DF9375D311247091DA
:100FF000AE046091AD04C8E0D4E0222359F0A1FF13
:1010000003C00C2D0A9531F0D8D97A95751762F086
:10101000652F02C0761741F0C61BD1095881BCD993
:1010200063956093AD045BC3D9CECF93DF930AB5CC
:101030000F7D0ABD71D801E044D05881DF91CF9176
:1010400051C3CF93DF930AB500620ABD65D802E0B1
:1010500038D0588344C3CF93DF930AB50F7D0ABDC0
:101060005BD801E02ED033DE502FDF91CF913AC311
:10107000CF93DF933AB53F7B3ABD3AB530623ABD84
:101080004BD802E01ED0052F0F93C03002E0D007EE
:101090000F9111F023DE14C0E6E4FDE102D95527DB
:1010A0003AB530643ABD219719DE5A9511F44EE2F3
:1010B00001D40F93C03000E0D0070F91A1F7D3D82F
:1010C0000EC30C1971F079D95F9377D90AB505FF72
:1010D00005C05F9372D9DF91CF910895D52FCF913D
:1010E00008956BD90AB505FF05C0052F66D9C02F35
:1010F000DD270895C52FDD270895009164000F773F
:1011000000936400552748D9DFD22FDB01E150FD61
:101110000CE50093B8003D98459A3C98449A002706
:101120000093B90000950093BB0004E00093BC005D
:1011300004E90093BC00B3D00895D1C0C6D0CF93CA
:10114000DF9321975881523251F45A91523211F063
:1011500023D9FBCF5F915F914AD82C2D06C0DF9138
:10116000CF91B9D2222309F4BBC00FB70F93F894E3
:10117000EF93FF931124EBE2F4E0C21AEC19F109AA
:101180000091C1000F770093C10052912A955093AE
:10119000BB0004EC0093BC0086D00091B900087F2E
:1011A000083121F0003411F0083211F4222369F7DC
:1011B000FF91EF910F910FBF72C087D08CD219F4BD
:1011C0001BB514601BBD0091C1000F770093C100D7
:1011D0000FB70F93F894EF93FF93112451E01BB5D1
:1011E00012FD05C003E2E9D850170AF077C0752F49
:1011F0001BB512FD06C0E9E0F4E01092AD04509377
:10120000AE0404EC60E57A9519F404E868E57FEF34
:101210000093BC0048D05091B900587F56130AC0C3
:101220005091BB001BB512FD04C0529377FFEBCF6A
:1012300005C0B2D81BB512FF1092AE04FF91EF911A
:101240000F910FBF1BB512FF2AC01BB51B7F1BBD23
:1012500008953BD039D25093BB0004E80093BC0002
:101260000091BC0007FFFCCF1AD008952ED0087F54
:101270000093BC0004EA0093BC0015D010D0089580
:1012800024D004E90093BC000FEF0093BB0007D00B
:1012900008955091BC0052FF1DC001D00895509197
:1012A000B900587F1FC2EF93FF93E0EAFFE0009080
:1012B000BC0007FC07C047DB3197C9F708E1009382
:1012C000AB04B4CDFF91EF9108950091BC0002FFF3
:1012D00001C0089503E10093AB04A8CD9BCD8ACD56
:1012E000A1CD44D0F1D15EBD0DB407FEFDCF5EB5FA
:1012F00008953CD05EBD0DB407FEFDCF5EB5F2C1D2
:10130000009164000B7F0093640052E045D8DCD16B
:1013100028DA550F550F31D00CB5037F052B0CBDC6
:101320000895D2D122DA0CB500620CBD50FD03C085
:101330000CB50F7D0CBD0895C7D10FDA052E537083
:101340000CB5087F052B0CBD0DB501600DBD02FC71
:1013500003C00DB50E7F0DBD089508D051E01CD817
:10136000B3D12A9A50FD01C02A9808950CB506FD04
:1013700008950AE10093AB0459CD009164000B7FFE
:101380000093640004B10C6204B92A9A01E50CBD13
:101390000DB50E7F0DBD08955EBD0DB507FFFDCFE8
:1013A0000EB508955EBD0DB507FFFDCF5EB508957E
:1013B00074D0EF5DFF4F508195C16FD0EF93FF93D5
:1013C00083D1FF91EF91EF5DFF4F5083089565D07A
:1013D000EF93FF93A1D64DD8F0D7FF91EF91EF5D3A
:1013E000FF4F60C05AD0EF93FF9396D642D8E5D70F
:1013F000FF91EF91EF5DFF4F59C04FD0EF93FF93F7
:1014000063D1FF91EF91EE5DFF4F5083089545D07A
:10141000E05EFF4F508166C140D0EF93FF937CD6D2
:1014200028D8CBD7FF91EF91EE5DFF4F3BC035D071
:10143000EF93FF9371D61DD8C0D7FF91EF91EE5D6A
:10144000FF4F34C02AD0EF93FF9366D612D8B5D79A
:10145000FF91EF91EE5DFF4F2EC01FD0EF93FF93F2
:101460005BD607D8AAD7FF91EF91EE5DFF4F23D04F
:101470008CDA21D0089511D0EF93FF934DD6F9D790
:101480009CD7FF91EF91E05EFF4F0081052350E074
:1014900000230FB601FE51E025C1515403E0509FD7
:1014A000F00108950081052B008308955095008177
:1014B0000523008308950081052700830895CF93B5
:1014C000DF9302D100916400077F00936400112430
:1014D00010928200009180000168219A1092890088
:1014E0005093880008C0009180000162229A1092F7
:1014F0008B0050938A000093800009E000938100E4
:10150000EEC0CF93DF93E0D05F9357D75F93009106
:101510006400077F00936400112410928200009100
:1015200080000368219A509389007093880008C056
:10153000009180000362229A50938B0070938A007E
:101540000093800009E000938100C9C00027009348
:101550008100009380000093820000916400086085
:10156000009364000895B3D0509F11200AB507FD81
:1015700011F4502DB7C00FE00093AB0457CC5F932C
:10158000A3D055230AB407FCB9F0052F16D7652F51
:10159000772759E0661F5A9541F0771F701B18F4A2
:1015A000700F8894F7CF0894F5CF5F915F3011F4F6
:1015B000562F01C0572F96C001E10093AB0436CCE3
:1015C00086D0500F0AB507FD08F08CC00FE00093DD
:1015D000AB042CCC7CD0501B0AB507FD08F082C0B0
:1015E00000E10093AB0422CC72D050170FB701FF7B
:1015F00010C011C06CD050170FB701FF0CC009C04C
:101600005F9365D06F916C3111F4501701C00517CD
:1016100010F0552750FD51E065C00DD0662319F03C
:1016200056956A95E9F75EC006D0662319F0550F06
:101630006A95E9F757C04FD0C0D6222311F461E074
:1016400008958BD8652FB9D6089541D050234AC04C
:101650003ED0502B47C03BD0502744C035D050958A
:1016600041C032D051953EC02FD052953BC02CD0B6
:1016700052955F7037C0EF93FF9311242CD041F443
:101680000090AE04002009F4A9CBE9E0F4E007C023
:1016900002E220170AF09ECB022EEBE2F4E004D027
:1016A0007BD6FF91EF91089550E07CE8029168E0CD
:1016B000302F352756950695369508F457276A95A5
:1016C000B9F70A9499F7089527D577D60895FCDFDE
:1016D000052F73D6089522271FD522230895DF9161
:1016E000CF91089559D60895CF9216D555270F91C9
:1016F0000C1909F062D635DC00E000937B00009104
:101700007C00007F5F70052B00937C0058304AF40A
:101710005770B1D652D600917E00502B50937E0068
:101720000BD95527662770E1F89407ED00937A00EE
:1017300000917A0006FDFBCF8091780090917900AE
:10174000580F691F7A9589F7789476E066955795D2
:101750007A95E1F721D600E000937E0010DC089531
:1017600055271AD6B1DF01D8FCDB00917C000F733E
:1017700050FD006050FF006C00937C00F9D8089584
:1017800052E00AD6A1DF553008F044CB0AB5087FF5
:10179000052B0ABD0895E5DB0BD0552700B605FCE7
:1017A00051E000B7006800BFEADBF6D5B5D4089574
:1017B00000E000937A0000E100937A0050917B00F2
:1017C0005F7B50937B0000B70870006500BF5AB57F
:1017D00052FF02C054E010C050917B0050645093FF
:1017E0007B005AB5537000917C00007F052B00935D
:1017F0007C0041D6CA942A9550937F00B2D80895B0
:10180000F39A18955527C8D55FDF5523C1F05A3094
:1018100008F000CBA89504B7077F04BF052F5770C9
:10182000000F000F00720064502BF89408E1009341
:101830006000509360000EB307700EBB13C091DBC5
:1018400060917B006F7B60937B005AB551FD06C0B1
:1018500000E100937A0000E400937B0060B76061D0
:1018600060BF8DDB7894889500000091C00007FD73
:101870000895F59B02C0F5980895F39BF3CFF39874
:101880000895889500000091C00007FFFACF50919D
:10189000C600533009F4B16025CF03B7016003BF20
:1018A0007894889500000091C00007FFF9CF30912F
:1018B000C60008950090C00005FEFCCF0AD0B1FF1D
:1018C00005C00090C00007FEFCCFBD7F4093C6005E
:1018D00008950090C00007FE09C00091C6000331C2
:1018E00011F4B2600895033009F4B16008950091D5
:1018F00064000D7F0093640000E00093C5000FE1D9
:101900000093C40008E90093C10008954C49532096
:10191000590248454C50D00352554E2017045341AC
:1019200056450D064C4F4144440650524920820210
:10193000505258209102505242209F02454D495426
:101940009403464F5220DE0250544F20F1024E4580
:101950005854E0024652452068024E4557209803ED
:1019600050494620D60254484520DB02454E4420CB
:10197000F30252535420480343464720B903501AF8
:101980001D20BC0250501E20000B50501C20000B8C
:10199000501C1E20FA0A50011D20FA0A50501D202A
:1019A000C40250500B20E00A50500D20EA0A50505B
:1019B0000A20B30A50500F20BF0A4D4F4420BF0ADF
:1019C00050500520BF0A50500420F5025050072007
:1019D000070350500220B10244415441CB07524505
:1019E0004144F30752455354ED074C5352200D0B1D
:1019F0004C534C20140B50500620250B414E4420D4
:101A0000250B50505C20280B504F5220280B505073
:101A10005E202B0B584F52202B0B434F4D202E0B8B
:101A2000505001202E0B4E454720310B535741504B
:101A3000340B52454D208F03414F562038034352FB
:101A400043203B0B44454C412203474F5420830322
:101A5000474F532086035245542089034B45592054
:101A6000410C41434F20CB0B41435320C00B504509
:101A7000454B1508504F4B452108454552202B0832
:101A8000454557203808534C5020020C4F44422003
:101A9000DD0949444220D80953444220E709434420
:101AA0004220F2094F504220FD09534242200C0AC5
:101AB00043424220170A58424220220A5042422002
:101AC0002D0A494E4220070A494242203B0A4F4410
:101AD0004320DD0949444320D80953444320E70902
:101AE00043444320F2094F504320FD095342432011
:101AF0000C0A43424320170A58424320220A50420C
:101B000043202D0A494E4320070A494243203B0AFD
:101B10004F444420DD0949444420D809534444201B
:101B2000E70943444420F2094F504420FD09534241
:101B300044200C0A43424420170A58424420220AF7
:101B4000504244202D0A494E4420070A494244206D
:101B50003B0A50574520810A50574D205F0A505785
:101B60004F20A60A41444320740B41445220B00B3D
:101B700053504D20800953504F209109535043201A
:101B80009C095350572071095350522079095350E2
:101B90005320AD09545749207D0854575320360926
:101BA0005457502040095457412029095457572071
:101BB0009E0854575220DD0854574220490900001E
:101BC000F9363DFAF84174746F4241534943206637
:101BD0006F722041546D6567613838204032304D56
:101BE000487A20FAF85665723A20322E333620426F
:101BF00075696C6420636F64653A2032303231302D
:101C00003331302E32333533FAF9363D0000F845A2
:101C10006E68616E636564206279204B2053636F48
:101C2000747420566974616C6520286B73765F70DC
:101C3000726A40676D782E636F6D29FAF841546DB2
:101C400065676138382F3136382F33323820706F5E
:101C50007274202843293230313120FAF8536C65F0
:101C600065702C2052544320616E6420446174617D
:101C70002D66696C65FE3230313220FAF8545749CE
:101C80002F5350492F444453202620496E707574B9
:101C90002043617074757265FE32303131FAF93665
:101CA0002DFAF84261736520436F6465202843294B
:101CB00032303032204469636B2043617070656C50
:101CC00073FAF9362DFAF8416C6C20726967687402
:101CD0007320616E642072656D656469657320654B
:101CE0007870726573736C7920726573657276654E
:101CF00064FAF84E6F7420666F7220636F6D6D65C5
:101D0000726369616C20757365FAF9363DFA0000FB
:101D1000F9352DFA000044656275672000006F6E8A
:101D200020FA00006F6666FA0000FB3A2050676DEB
:101D300020746F6F206C6172676520666F7220453A
:101D400045502120FA0045726173696E6720454550
:101D50005000536176696E6720746F204545502EA0
:101D6000FA004C6F6164696E672066726F6D204582
:101D70004550FA00427265616BFA00002062797486
:101D8000657320757365642E2020000020627974CD
:101D9000657320667265652E20FA00000820080031
:101DA00056616C756520657863656564656420724D
:101DB000616E67650000206E6F742000207375707F
:101DC000706F72742028432900004C696E652023CF
:101DD00020004572726F723A0000FB434D442F4F52
:101DE0005020556E6B6E6F776E00FBFC206F662087
:101DF000303A32353500FB50726F6772616D206D7D
:101E0000656D6F72792069732066756C6C00FB4399
:101E10006861726163746572FD61207265636F67EA
:101E20006E697A656420747970652E00FB42756670
:101E3000666572206C696D69742065786365656498
:101E400065642E00FB426164207661726961626C98
:101E500065206E616D652E00FB546F6F206D616EA5
:101E60007920617267756D656E74732E2000FB5664
:101E7000616C756520776173FD617661696C616283
:101E80006C652E00FB537461636B206572726F7218
:101E900020FAF9092046756E632F63616C6C73201C
:101EA000746F6F20636F6D706C65782F6E657374DF
:101EB000656420746F6F206465657000FB474F5444
:101EC000206F7220474F532064657374FD666F75F1
:101ED0006E642E00FBFC206F6620303A3700FB4C0E
:101EE000696E65206E756D626572203E20332064D8
:101EF000696769747300FBFC206F6620303A31001B
:101F0000FBFC206F6620303A33000000FB4D61740B
:101F100068206F766572666C6F772E00FB4D61747A
:101F20006820756E646572666C6F772E2000FB44C6
:101F30006976696465206279207A65726F2E200067
:101F4000FB456D7074792046696C6500FB545749F8
:101F5000FD656E61626C65642E0000000000FB533D
:101F6000706563696669656420FC2E00FB536574C7
:101F700020414320526566203E20302E2000FB4445
:101F80004556206E6F20726573702E000000FB5363
:101F9000504920FD656E61626C656400FBFD612047
:101FA00062696E617279206E756D62657200FB49BF
:101FB0006E76616C69642023206F6620617267739E
:081FC0002E000000000018953E
:00000001FF
