:020000020000FC
:02000000FFCE31
:101E000060E070E014B764BF08E101BD61BD13FD7F
:101E10009BC00EE001BD0FEF08BB02E007BB95D0F1
:101E2000013439F492D0F02F90D0E02FEE0FFF1F45
:101E300088C0023409F032C088D0B02F86D0A02FDD
:101E400084D0102FC0E6D0E01D017FD009931197F8
:101E5000E1F7C0E6D0E0D101163421F520E2099087
:101E60001990E030FE0741F4C0019F700FE0845AE2
:101E7000900B9F70906C8CD001E0A1D0329612979D
:101E800011F02A9561F70EE1E030F00758F432972F
:101E900093D03296A030BA0709F753C0043519F42D
:101EA00054D04FC04CC00736F9F44FD0B02F4DD0AE
:101EB000A02F4BD00634B1F7E030FE0769F4E8E418
:101EC000FFE1059195919F7010EF0C55910B9F705C
:101ED000906CF0E0E2E002C00591959147D0092FA7
:101EE00045D0129749F79BCF023631F409E53ED031
:101EF00001E03CD000EC26C0013611F409E522C017
:101F0000033731F40BE032D003E930D00EE11AC0D0
:101F1000063759F0063549F0043739F0033549F4EE
:101F200015E003E523D01A95E1F70CE11FD000E09E
:101F300009C0053631F0003521F00C3411F00FE303
:101F400001C00DE013D06BCFFFCF38E0B09BFECFC8
:101F5000B099FECF19D018D017D08894B0990894B2
:101F60000795A8953A9509F0F6CF08953AE00095BF
:101F7000089410F4C19802C0C19AA89505D004D065
:101F800006953A95B1F7089522E42A95F1F7089558
:101F9000E0E8FFE110E23197149031970490E834C3
:101FA00009F40C0101E00BD01A95A9F705D0FB014B
:101FB0001EEC0FEF0801089503E001D005E007BF14
:041FC000E895089503
:00000001FF
