:020000020000FC
:100000000C9472000C94DF200C94DF200C94DF2001
:100010000C94DF200C94DF200C94DF200C94DF2064
:100020000C94DF200C94DF200C94DF200C94DF2054
:100030000C9406060C94E0120C94DF200C94DF2044
:100040000C94DF200C94DF200C94DF200C94DF2034
:100050000C94DF200C948F130C94DF200C94DF2081
:100060000C94DF200C94DF200C94DF200C94DF2014
:100070000C94B7100C94DF200C94DF200C94DF203C
:100080000C94DF200C94DF200C94DF200C94DF20F4
:100090000C94DF200C94DF200C94DF200C94DF20E4
:1000A0000C94DF200C94DF200C94DF200C94DF20D4
:1000B0000C94DF200C94DF200C94DF200C94DF20C4
:1000C0000C94DF200C94DF200C94DF200C94DF20B4
:1000D0000C94DF200C94DF200C94DF200C94DF20A4
:1000E0000C94DF20A8950FEF0DBF01E20EBF0E9418
:1000F000540A0E94F20278940E94B301CC240E9418
:1001000084000E94E700F7CF48E94093C1004EE326
:100110000E946719CEE1D1E20E945A193D3021F4C4
:10012000F198F0980C949F00323229F4F09902C0B3
:10013000F09A01C0F098333211F4F09BF19A0F93CA
:10014000CF3101E2D0070F9121F447E00E946719F7
:10015000E3CF3531E9F0383069F13F3759F13A30C2
:10016000D9F23930C9F2F19B38833D3009F4089552
:100170000F93C93B00E2D0070F9121F447E00E94A2
:100180006719CACFF19B2197432F0E94BA01C4CFB0
:10019000EF93FF93EEE1F1E2EC1BFD0B2E2EEEE16F
:1001A000FEE30E94DA012A94D1F7CEE1D1E2FF9179
:1001B000EF91B2CF0F93CE3101E2D0070F9131F022
:1001C00033273993EEE1FEE30E94DA01A5CFCEE1B9
:1001D000D1E238810E947F01023011F40C9418069C
:1001E0000E94B301A16002C0AE7FBF7B8DB79EB7F6
:1001F0000F938F3501E290070F9110F40C94E009F2
:100200000E9449015D3021F4B2FD0E946F051BC0C0
:100210005B33C9F0032D023021F4F9D20E945D0254
:10022000E5CF7F756F755F75053041F0413031F472
:10023000032D033019F40E944502D8CF0E942501F6
:100240005D3009F00895A1600895E0E5F4E30E94AF
:100250003D01071671F40E943D01061659F40E94F3
:100260003D01051641F431960591F491E02F099571
:100270000895319631963096EACF0590002041F4EA
:100280001490112029F400E0009321210C94120A0B
:10029000089570EF60EF41E038810E947F010130E6
:1002A00019F40E947101F5CF532F0E9471013D3066
:1002B000A1F03D2C38813D3081F00E947F013D143A
:1002C00039F40E94A7050E9471014395433091F7CC
:1002D00038810E947F013D1409F008950E94710148
:1002E000F7CF0F93C83B00E2D0070F9131F404E041
:1002F000009321210C94120A0895219708953F93A9
:1003000000273D3011F40C94A5013F75303011F4F5
:100310000C948C013C3011F401E018C0323011F41F
:1003200005E014C0303411F405E010C030310AF497
:100330000DC03B350AF00AC0303412F003E006C0AD
:100340003A3112F41AF402E001C004E0D02E3F91D9
:1003500008950E94FE088F93492F0E9467194F91BC
:100360000E94671908954DE00E9467194AE00E94B3
:10037000671908954D3011F4F6DF08950C9467194C
:10038000472F0E94CA01462F0E94CA01452F0E9492
:10039000CA0108954F93407F4295405D0E946719BE
:1003A0004F914F70405D0E94671908950E94DA01D5
:1003B000DADF08954591442309F40895483F19F47C
:1003C0000E941902F7CF493F29F4159045910E94E8
:1003D0004002F0CF4A3F11F4C6DFECCF4B3F41F46F
:1003E000EF93FF93E2E4FFE3E5DFFF91EF91E2CFCC
:1003F0004C3F41F4EF93FF93E0E1FFE3DBDFFF913C
:10040000EF91D8CF4D3F41F4EF93FF93E6E2FFE346
:10041000D1DFFF91EF91CECF4E3F41F4EF93FF93A9
:10042000ECE2FFE3C7DFFF91EF91C4CF0E946719B1
:10043000C1CF0F93EF93FF93112445914A30A1F060
:100440004D3091F04A3F81F0493F71F04C3F11F43B
:1004500004E1100E4D3F11F405E0100E4E3F11F473
:100460000CE0100E1394E9CF1A9446E3141A119479
:10047000169440E20E944002FF91EF910F9108957F
:100480000E9467191A94E1F7089551545A312AF0DD
:1004900005E0009321210C94120AA0FF21F40E9490
:1004A0005D02A2600895E7E4F0E26627E50FF61F1B
:1004B00050810E945D02AD7F08950F9300E20C15FC
:1004C00011F40C94D6091F921124E0EAF0E2EC1921
:1004D000F1095083C39423951F900F910895CC2068
:1004E00011F40C94DB091F921124E1EAF0E2EC19FB
:1004F000F1095081CA942A951F900895EF93FF93B4
:1005000004E00B1511F40C94E00932E00B2D039F6D
:10051000E9EAF0E2E019F109D293C293B394FF91B2
:10052000EF910895EF93FF93BB2011F40C94DB0936
:1005300032E00B2D039FE9EAF0E2E019F109C191E5
:10054000D081BA94FF91EF910895EF93FF9304E067
:100550000A1511F40C94E00934E00A2D039FE9EB2D
:10056000F0E2E019F1096292729242925292A394DF
:10057000FF91EF910895EF93FF93AA2011F40C944B
:10058000DB0934E00A2D0A95039FE9EBF0E2E0195C
:10059000F1096290729042905290FF91EF9108950C
:1005A0009EDF0E94690401E0552319F0000F5A955F
:1005B000E9F7502F0C941110703049F0705D472FFF
:1005C0000E946719603019F440E30E946719603097
:1005D00021F0605D462F0E946719505D452F0E94F3
:1005E00067190895EEEDFAE3E1DE0895BCDEE6E476
:1005F000F0E2C0911F21D0912021EC17FD0721F0DE
:100600004081B8DE3197F9CFAEDEADDE90E286E410
:1006100070911F2160912021871B960B0E94DF089B
:10062000AFDEEEEFFDE3C6DE80911F219091202129
:10063000805092400E94DF08A3DEEEE0FEE3BADEC7
:100640000895B0680E94091005E0301651F047DFA8
:100650000E941409B1DF40E20E9467192223B9F712
:1006600082DEBF770895B0680E94091044E20E94BC
:10067000671935DF852F6DDE40E20E94671922235E
:10068000A9F771DEBF770895B0680E94091027DFCF
:1006900078E040E3551F08F441E30E9467197A951A
:1006A000C1F740E20E946719222389F75CDEBF7719
:1006B0000895488116DE423239F04E3719F00E9413
:1006C0006719F7CF50DEF5CF08950E940410E7E4D4
:1006D000F0E26627E50FF61F00830895B5FF0C943E
:1006E000530F0E94FF0F452EFADE052FF8DE552E20
:1006F0006627E7E4F0E2E50FF61F0083A062AE7F15
:10070000BF7D08950E94FF0F552309F4A46008954A
:100710000F910F910F910895B0620895E7E4F0E210
:10072000552D6627E50FF61F0081041521F003956E
:100730000083A0610895AA9409F01DDF089554DD97
:100740000895B16008959881CCDD8881382FD7DD78
:10075000013029F0043019F0C4DD0C94B103892F65
:1007600099270E940B09582FA8DE3EDD08950981C4
:10077000073211F00C94D60B552708E0202E888103
:10078000B0DD382FBCDD302E023019F0CF5FDF4FE7
:1007900007C08894317030FD0894551F2A9479F76A
:1007A0008CDE22DD08950CE1009321210C94120AC5
:1007B000CF93DF930E94FF0F0AE0F798889500001F
:1007C000F79BFBCF0A95C9F75A95B1F70C940E1019
:1007D000552773DE0E94FF0F01E005174AF00AB5A6
:1007E0000F770ABD50FF08950AB500680ABD089545
:1007F0000C94EA0904B7077F04BF08E10093600086
:100800000EE000936000F8948895000008957F70D2
:100810006F705F700E94210908950E94FF0F452F9D
:10082000E6E4F0E280911F21909120210C942204B3
:10083000F91711F48E17C8F400810D3011F03197BB
:10084000F7CF3197552766277727F91711F48E17B9
:1008500060F4308154DD023021F40E94A705319705
:10086000F4CFD5DF451721F7089509E00093212142
:100870000C94120AD2DFEF010895CFDFA06C089527
:10088000B3FF0C944504A8600895B16008954881B1
:1008900028DD4D30E1F708950E94FF0F452F0E949B
:1008A00067190895E6E4F0E2F0932021E0931F2118
:1008B000CC24AA27BB270FB70F93F8940E94F30507
:1008C0000E94F9050F910FBF4EDDEEE8FAE36EDDF1
:1008D0000895583008F408950C94E509543008F44C
:1008E00008950C94EF09523008F408950C94EA0925
:1008F000CF93DF930E940910C0E0D0E00E94CC08A3
:10090000222331F0213039F0223081F00C94FE099D
:10091000502FD3DD24C0E3DDDCDF552319F006952D
:100920005A95E9F751E000FF5527F3CF702FD7DD37
:10093000C0EAD0E20881083069F0D5DF652FCFDD4D
:10094000C8DFBBDD2DDECC2460FD03C050955723EE
:1009500001C0572B052FC0E0D0E00E94D3080C94B3
:100960000E10B7FD0DC0A1FD0BC00E949F0FB7DD9B
:1009700055231AF0E8EEFEE302C0E8E6FEE31ADDD6
:100980005AE20C941110CF93DF930E94020640E2CA
:100990000E946719E0E5F4E3D2E3C4E075917723A0
:1009A00009F43CC065915591643521F45F34A1F49C
:1009B00070E220C0693421F4563471F470E21AC038
:1009C0006F3451F4523541F47735A1F0783591F018
:1009D000763481F070E20EC0503439F05E352CF47C
:1009E0005C3514F4503334F4505E70E260330AF036
:1009F0006627605E472F0E946719462F0E9467197D
:100A0000452F0E94671940E20E9467193396D4501F
:100A100022F6A9DC40E20E946719BECFA4DC0E9446
:100A200002060C940E100BB500FD0EC0DDDBCC20D1
:100A300059F055DD07E0051714F40C94FE09B46075
:100A40000E94F3050E947707BB24AA240BB50E7FF2
:100A50000BBDB460C6E4D0E20E946F05CC24A16057
:100A60000E947819A6FF02C049DDAF7BA7FF03C033
:100A7000EF01B860AF77A3FF05C054DDBB2009F4D8
:100A8000B77FA77FA5FF03C03E015FDDAF7DA4FF59
:100A900002C0E301AF7EB0FF07C00E949505C09180
:100AA0001F21D0912021BE7F80911F219091202174
:100AB0008C1B9D0B78F4388122DCA2FF04C004302B
:100AC00011F02197CBCFAB7F023011F42197C6CF25
:100AD0008DDBC4CF00E000932221BB7F08950091FD
:100AE0002021D01729F400911F21C01709F408957F
:100AF000CF93DF93DF923F93662755273881FFDB43
:100B0000023029F00E9421095093222105C00E9441
:100B1000A7055F702197F2CF0BB503FF02C056D037
:100B200022DC3F91DF900C940E10E6EFFDE342DCF7
:100B3000089554EBE0E0F2E0019150270F93EF3F6E
:100B400001E2F0070F91C1F7509325210895762F08
:100B5000652F532F08957727662755270895DF932C
:100B6000D5E0DA950000E9F7DF910895DF93D5E04D
:100B7000F6DFDA95E9F7DF910895DF93DAE0EFDF4A
:100B8000DA95E9F7DF910895DF93D4E6E8DFDA95A7
:100B9000E9F7DF910895CF93DF93D7EFC3E1CA95CB
:100BA0000000E9F7DA950000C9F7DF91CF910895C9
:100BB0000F930AE0F0DF0A95E9F70F9108950F937C
:100BC0000AE0F6DF0A95E9F70F910895EAE3FFE3FB
:100BD000F1DBCF93DF93DD27C09122210E9495099D
:100BE000DF91CF910895E0E0F2E09EE187E40027F5
:100BF00005C0E7E4F0E290E08AE100270193019765
:100C0000E9F70895E4EFFCE3D5DB089508E10093EC
:100C1000600000E000936000F59A189504E00093EE
:100C200021210C94120A0BE0009321210C94120A4A
:100C300044270E9400075430B0F780911F21909103
:100C400020210F93863400E290070F9109F45BC0D6
:100C5000CEE1D1E280DF0F93C83B00E2D0070F91D5
:100C6000EAF238814CDB023029F4762F652F532FBE
:100C70002197F1CFCCDD452EE0911F21F09120216D
:100C80004C7F69DF552431960F93E73400E2F0077B
:100C90000F9191F0308133DB043071F0023089F72D
:100CA0005394562F672F732FEECF0F93E73400E244
:100CB000F0070F9131F70895052D033029F0539473
:100CC000562F672F70E0F8CF41FD02C04260D9CFA8
:100CD0009EDD4516A9F110F441603F010F93E73402
:100CE00000E2F0070F9111F440FF0DC040FFDDCF8F
:100CF000541508F455C00F93E73400E2F0070F9144
:100D000009F44EC0D2CF0E940007003009F40895C4
:100D1000CEE1D1E2E0911F21F09120210F93E0304C
:100D200002E0F0070F9109F436C008810083319783
:100D300021970D3099F7F0932021E0931F2108951A
:100D40003197EF010F93E03002E0F0070F9109F4C3
:100D500065CF088121970D30A9F7BF016C1B7D0B72
:100D600080911F2190912021860F971F9093202121
:100D700080931F210F93E03002E0F0070F9129F0DC
:100D80000881008321973197F5CF0E94000700303A
:100D900009F04ECF089502E0009321210C94120A2D
:100DA0000E940007003059F100912021023029F4FF
:100DB00000911F210050081770F3E0911F21F0915E
:100DC0002021DF2FCE2FC81BD040D0932021C093ED
:100DD0001F21F71519F4E61509F405C000810883F1
:100DE00021963196F6CFCEE1D1E2F72DE62D31975F
:100DF000088100830D3019F031972197F9CF0895BC
:100E0000CEE1D1E25527882799274B7F388121975A
:100E100083953D3041F073DA023039F0446001309F
:100E2000A9F39395F3CF092F089542FF5395EECF81
:100E3000CEE1D1E2E03009F0AECF088100833197F6
:100E400021970D30B9F7F0932021E0931F210895E9
:100E5000AF93BF93552731DB0E94FF0F583014F03A
:100E60000C94FE0985D0A6E4B0E2E0911F21F09138
:100E70002021AE1BBF0BAF5FBF4F57D1EA1BFB0B4F
:100E8000BF91AF9128F4EAE9FDE390DA0C9476077C
:100E9000E6ECFDE38FDA852F5CDA65DA00E000939B
:100EA000382134D11124C8E1D0E0C50FD11D022D65
:100EB0007AD1E7E4F0E201E03EE1C9E3D1E209934F
:100EC00002910993002371F03A95D1F71FD128823E
:100ED0002F920091372100933821B4D00F910093C5
:100EE0003821E9CF09933A95E9F7ACD00895B2FDDE
:100EF00006C05527E2DA78D9F2DA583024F5D2DC88
:100F0000E6EDFDE357DA852F24DA2DDAEFD016F47B
:100F10000C94F909E7E4F0E23EE1CAE3D1E2099179
:100F2000002341F002933A95D1F7088100933821CC
:100F300085D0F2CF3197CC24F0932021E0931F216C
:100F4000B2FF63DB08950C94FE09CF93DF933FE774
:100F50003093382195D03A95D9F7A1D00C940E1042
:100F60005527ABDA41D9BBDA583014F00C94FE099E
:100F7000DD27C52FC85EDF4F0FD1002309F4089588
:100F800000933821B3D07CD0C9E3D1E20F8D009318
:100F90003821002321F0009511F050D0F4CF8DD0EE
:100FA0000895CF93DF935527852FD3D94AE30E9425
:100FB000671940E20E94AA08CF015F930E94DF08F0
:100FC000E2D9ECEEFDE3F6D90F93503000E0600774
:100FD0000F9129F4E6EEFDE3EDD95F9112C05F9128
:100FE00085D0CAE3D1E26EE149910E9467194D3084
:100FF00041F06A9509F0F8CF4881409338211ED01E
:10100000F0CFB1D95395583009F0CECFACD90E946A
:101010009508EF93FF939D2F8C2F0E94DF08B3D983
:10102000EEEFFDE3C7D99F918F910E94DF08ABD906
:10103000EEE0FEE3BFD997D90C940E100AB50F7DF0
:101040000ABD03C00AB500620ABDCF93DF93EF93D8
:10105000FF9300E2202EE9E3F1E20091382119D05C
:101060000AB505FF03C001919ED002C095D001933F
:10107000CF5FDF4F2A94A1F7FF91EF910C940E10F0
:10108000CF93DF9306D00AB500640ABD8CD00C94D0
:101090000E1000E240913821049FE001089588E09D
:1010A000C8E1D0E00AB50F7B0ABD00270E94D30833
:1010B000CF5FDF4F8A95C9F708950AB50F7B0ABD48
:1010C0000027DD27C52FC85EDF4F0E94D308089593
:1010D000C9E3D1E200E000933821B0DF0895C9E30D
:1010E000D1E200E000933821ADDF0895F1DF052E55
:1010F000C00DD11DC85EDF4F0881002311F4689434
:101100000895009338219ADFE8940895CF93DF93F0
:101110002090382120923721239420923821B9DF62
:101120003BD00F3FC9F70C940E10AF93BF935F9362
:10113000BB27AA2757E00E94AA08AE0FBF1F5A95E7
:10114000D2F7E2EEFEE0EA1BFB0BED015F91BF91EF
:10115000AF9108955F93E9E3F1E290E080E070E001
:101160006EE1B6DF052EE00DF11DE85EFF4F008158
:10117000002379F0E9E3F1E2009338215FDF008199
:1011800001300FB701FF05C0860F971F078D0023A1
:1011900099F7FC015F910895F999FECFD2BDC1BDC9
:1011A000F89A00B50895F999FECFD2BDC1BD44E0CB
:1011B0000AB406FC44E100BD4FBBF99A08950C0146
:1011C000889400E1C8DC001C111C551F661F771FA6
:1011D0000A9509F40895352F08D0532F362F05D0DE
:1011E000632F372F02D0732FEECF432F4D5F43FD78
:1011F000342F432F405D47FD342F0895982F92954B
:101200009F70905D9A3308F0995F8F70805D8A338C
:1012100008F0895F089596FD975F9F7086FD875F50
:101220008F709295892B089577276627545610F072
:101230007395FCCF5C595A5010F06395FCCF565F04
:1012400008957330B2F4723032F0663092F4653043
:1012500012F0563072F4662321F00AE0500F6A95BE
:1012600081F7772309F4089504E68894500F7A955E
:10127000C0F701E0009321210C94120A4FE243953C
:10128000C050DA4CEA49FB43D0F7C050D643E5469C
:10129000F44C0E9467194FE24395C050D14EE54F80
:1012A000F540D0F7C050DF41EA40FA4F0E9467197D
:1012B0004FE24395C058D649E849F040D0F7C058AE
:1012C000D946E746FF4F0E9467194FE24395C05445
:1012D000D244EF40F040D0F7C05CDD4BE04FFF4F11
:1012E0000E9467194FE24395C05AD648E140F0404A
:1012F000D0F7C056D947EE4FFF4F0E9467194FE213
:101300004395C051D742E040F040D0F7C05FD84D80
:10131000EF4FFF4F0E9467194FE24395C85ED340DD
:10132000E0F7C851DC4F0E9467194FE24395C4565D
:10133000D040E0F7CC59DF4F0E9467194FE2439548
:10134000CA50E8F7C65F0E9467194C2F405D0E94A3
:10135000671908950FB70F93F89400E1992788272C
:101360007695679510F48C0F9D1F979587957795C7
:1013700067950A95B9F70F910FBF08950FB70F93AF
:10138000F8948827991B01E1661F771F0A9519F4C5
:101390000F910FBF0895881F991F841B930B20F492
:1013A000840F931F8894F0CF0894EECF06E000934B
:1013B00021210C94120A07E0009321210C94120AB7
:1013C00008E0009321210C94120A0AE000932121E5
:1013D0000C94120A0CE0009321210C94120A0DE0E7
:1013E000009321210C94120A01E1009321210C9415
:1013F000120A02E1009321210C94120A06E10093E3
:1014000021210C94120A0BE1009321210C94120A61
:101410000DE1009321210C94120A0EE10093212189
:101420000C94120A0E94B301112400902121D02CA7
:10143000000CE8E6F4E1E00DF11D0591F491E02FD8
:10144000EE1FFF1F0E94DA010E94B301BFDB0FEF06
:101450000DBF01E20EBFAA27BB2700E000932221A7
:101460000E94B3010C947B00A51FB41FBA1FC61FB6
:10147000D51FE11FEB1FF61F0120262037203C203F
:1014800048204D2052205E20692075207E20842037
:101490008B208E209A20A120AA20B520BE20C52016
:1014A000C520CE20DD20DE20F894002411248AD02F
:1014B0009BD00FEF00936400009365000BB50E7F87
:1014C0000BBDC0E0D0E068DE302F00FF03C00BB5DD
:1014D00001600BBD00E001B900E002B906E204B909
:1014E00000E005B900E007B900E008B908E008E04D
:1014F0000AB900E00BB900E00DB900E00EB900E058
:1015000000BB00E001BB07B10F7C07B906B1006367
:1015100008B922982A9A0BB50F750BBD03E000930A
:101520003621E0EDF7E0F0933521E09334211124EA
:1015300014BE1EBA1ABC0BB501700BBD1BBE1092B7
:101540002221F7DA112410922E2110922F2101E08E
:1015500000932C2100E000932D2101E0009326212F
:1015600058E0C8E1D0E018DE0F3F11F400271BDE81
:10157000CF5FDF4F5A95B9F70E948719789401E041
:1015800003BF00E000937C0000E000937B0007EDC8
:1015900000937A000E94151400E0009327210BB5F8
:1015A00000FF0EC0CC245527B460A9DC3CDA0E94B1
:1015B000B3010E94B301EEE8FAE30E94D601089558
:1015C00071D908950FB70F93A89504B7077F04BF8B
:1015D000F89400916000086100936000007000932F
:1015E00060000F910FBF089550E860E050936100D4
:1015F000609361000895009164000E7F0093640081
:1016000007ED00937A0000917A0004FFFBCFB5DA72
:10161000089500916400016000936400AEDA0895BB
:101620000E940910C1F0CF93DF9301E2C01680F44D
:1016300011240C2CC0922421C1E8D0E2C019D10998
:101640000E946F0259930A94D9F7DF91CF9109C094
:101650000E942E0BABCE0E942E0BADCE00E000936D
:10166000242100E000932321509124210C94111097
:10167000CF93DF930E94091011247091242160916F
:101680002321C0E8D0E2222361F0A1FF03C00C2D8A
:101690000A9539F00E946F027A95751772F0652FDE
:1016A00002C0761751F0C61BD10958810E945D0215
:1016B0006395609323210C940E107DCECF93DF931E
:1016C0000AB50F7D0ABD0E94F40001E04ED058819A
:1016D000DF91CF910C941110CF93DF930AB5006284
:1016E0000ABD0E94F40002E040D058830C940E1012
:1016F000CF93DF930AB50F7D0ABD0E94F40001E08D
:1017000034D04ADD502FDF91CF910C941110CF933C
:10171000DF933AB53F7B3ABD3AB530623ABD0E949D
:10172000F40002E022D0052F0F93C03000E1D00773
:101730000F9111F038DD17C0EAEBFDE30E94DA01EA
:1017400055273AB530643ABD21972DDD5A9519F4E5
:101750004EE20E9467190F93C03000E0D0070F914E
:1017600099F70E94B3010C940E100C1989F00E9495
:101770006F025F930E946F020AB505FF06C05F9378
:101780000E946F02DF91CF910895D52FCF910895D8
:101790000E946F020AB505FF06C0052F0E946F0266
:1017A000C02FDD270895C52FDD270895EF93FF9300
:1017B00051E20E945D02CF920E94F400E4EEF7E154
:1017C00065917591772311F40F9009C06517C1F7E2
:1017D00011240F90E1EAF0E2E019F1097083FF9122
:1017E000EF910895282129212A212B212E21302112
:1017F00031213221332100001124E50FF11D5491D4
:101800000C941110CF93DF9350E00E945D020E9470
:10181000FF0FCC2049F058300AF0FFCD60E860930C
:1018200061005093610004C0509161000E945D020C
:101830000C940E10CF93DF93509166000E945D02CE
:101840000E94FF0F5093660050916600DF91CF9188
:101850000C941110009164000F77009364005527D9
:101860000E945D020E94FF0F3ED801E150FD0CE591
:101870000093B8005098589A5198599A00270093AD
:10188000B90000950093BB0004E00093BC0004E99C
:101890000093BC00ACD00895CBC0C0D0CF93DF93F1
:1018A00021975881523261F45A91523219F00E94B4
:1018B0005D02FACF5F915F910E9471012C2D07C0EC
:1018C000DF91CF910E940910222309F4B2C00FB713
:1018D0000F93F894EF93FF931124E1EAF0E2C21A18
:1018E000EC19F1090091C1000F770093C1005291EA
:1018F0002A955093BB0004EC0093BC007DD000916E
:10190000B900087F083121F0003411F0083211F4D9
:10191000222369F7FF91EF910F910FBF68C07ED02E
:101920000E94091019F41BB514601BBD0091C10081
:101930000F770093C1000FB70F93F894EF93FF93C5
:10194000112451E01BB512FD06C001E20E946F0296
:1019500050170AF06CC0752F1BB512FD06C0E1E8E8
:10196000F0E2109223215093242104EC60E57A9553
:1019700019F404E868E57FEF0093BC003DD0509176
:10198000B900587F56130BC05091BB001BB512FD18
:1019900004C0529377FFEBCF06C00E945D021BB5D7
:1019A00012FF10922421FF91EF910F910FBF1BB5F1
:1019B00012FF1DC01BB51B7F1BBD08952FD0087FD4
:1019C0000093BC0004EA0093BC0016D010D0089528
:1019D00025D004E90093BC000FEF0093BB0007D0B3
:1019E00008955091BC0052FF1EC001D0089550913F
:1019F000B900587F0C941110EF93FF93E0EAFFE0D9
:101A00000090BC0007FC07C0B1D83197C9F708E1C6
:101A10000093212107CDFF91EF9108950091BC0023
:101A200002FF01C0089503E100932121FBCCE6CC25
:101A3000D1CCEECCA6D0CF93DF93219758815232F0
:101A400061F45A91523219F00E945D02FACF5F910F
:101A50005F910E9471012C2D06C0DF91CF910E94F1
:101A6000091009F4D5CC0FB70F93F894EF93FF93B7
:101A70001124E1EAF0E2C21AEC19F1090091C10067
:101A80000F770093C10052915EBD0DB507FFFDCFEA
:101A90005EB52A95C1F7FF91EF910F910FBF0895A1
:101AA00070D00091C1000F770093C1000FB70F9362
:101AB000F894EF93FF9311240E94091011F4552715
:101AC00006C001E20E946F0250170AF097CC752FF2
:101AD0000EB4552341F41EBC0DB507FFFDCF5EB516
:101AE0000E945D020EC0E1E8F0E2109223215093C3
:101AF00024211EBC0DB507FFFDCF5EB552937A952C
:101B0000C1F7FF91EF910F910FBF0895009164000D
:101B10000B7F0093640052E00E945D0270D20E942D
:101B20006E04550F550F34D00CB5037F052B0CBD3B
:101B3000089565D20E9473040CB500620CBD50FD7F
:101B400003C00CB50F7D0CBD089559D20E946904E5
:101B5000052E53700CB5087F052B0CBD0DB501602B
:101B60000DBD02FC03C00DB50E7F0DBD089509D05B
:101B700051E00E945D0243D2289A50FD01C028988E
:101B800008950CB506FD08950AE1009321214ACC81
:101B9000009164000B7F0093640004B1076004B9F6
:101BA000289A01E50CBD0DB50E7F0DBD08955EBDF3
:101BB0000DB507FFFDCF0EB508955EBD0DB507FF4E
:101BC000FDCF5EB50895AAD0EF5FFF4F50810C9412
:101BD0001110A4D0EF93FF9312D2FF91EF91EF5F1A
:101BE000FF4F0F93E73200E0F0070F9131F00F93B2
:101BF000E03300E0F0070F91A9F4EF93FF93E3E0E7
:101C0000F0E009E007BF0491FF91EF9107FF0C940A
:101C1000110E05B7006805BF05B7006805BF0C9435
:101C2000120E5F705083089579D0EF93FF930E9456
:101C3000F4000E94D0020E946F02FF91EF91EF5FCB
:101C4000FF4F83C06BD0EF93FF930E94F4000E947C
:101C5000D0020E946F02FF91EF91EF5FFF4F79C0BA
:101C60005DD0EF93FF93CBD1FF91EF91EE5FFF4FEC
:101C70005083089553D050810C9411104FD0EF939E
:101C8000FF930E94F4000E94D0020E946F02FF9115
:101C9000EF91EE5FFF4F59C041D0EF93FF930E9449
:101CA000F4000E94D0020E946F02FF91EF91EE5F5C
:101CB000FF4F4FC033D0EF93FF930E94F4000E9478
:101CC000D0020E946F02FF91EF91EE5FFF4F46C07E
:101CD00025D0EF93FF930E94F4000E94D0020E944F
:101CE0006F02FF91EF91EE5FFF4F38D00E94D80551
:101CF00035D0089513D0EF93FF930E94F4000E9413
:101D0000D0020E946F02FF91EF910081052350E005
:101D100000230FB601FE51E00C9411105154112410
:101D2000E2E3FDE1550FE50FF11D05901490F00180
:101D3000089520002300260029002C002F003200E7
:101D4000000100000301060109010081052B008349
:101D5000089550950081052300830895008105278B
:101D600000830895CF93DF934AD1CC2019F4652FD7
:101D7000552703C05F93652F5F9111241092820055
:101D800050FF01C009C0009180000168259A10929F
:101D900089006093880008C0009180000162269A43
:101DA00010928B0060938A000093800009E00093FA
:101DB00081000C940E10CF93DF9321D1752F0E94D8
:101DC0006F02CC2021F4672F752F552704C07F9315
:101DD000652F752F5F9111241092820050FF01C072
:101DE00009C0009180000368259A70938900609370
:101DF000880008C0009180000362269A70938B00CF
:101E000060938A000093800009E0009381000C94A5
:101E10000E10002700938100009380000093820041
:101E20000895F2D0509F11200AB507FD11F4502DEE
:101E3000F8C00FE000932121F5CA5F93E0D055234D
:101E40000AB407FCC1F0052F0E946F02652F7727A7
:101E500059E0661F5A9541F0771F701B18F4700FF8
:101E60008894F7CF0894F5CF5F915F3011F4562F27
:101E700001C0572FD6C001E100932121D3CAC4D09D
:101E8000500F0AB507FD08F0CCC00FE000932121E8
:101E9000C9CABAD0501B0AB507FD08F0C2C000E19C
:101EA00000932121BFCAB0D050170FB701FF10C057
:101EB00011C0AAD050170FB701FF0CC009C05F9323
:101EC000A3D06F916C3111F4501701C0051710F0B9
:101ED000552750FD51E0A5C00E947C0F662319F0E4
:101EE00056956A95E9F79DC00E947C0F662319F00C
:101EF000550F6A95E9F795C08CD00E946F02222396
:101F000011F461E008950E946904652F0E946F0238
:101F100008957AD0502385C077D0502B82C074D0DA
:101F200050277FC06CD050957CC069D0519579C046
:101F300066D0529576C063D052955F7072C004EB44
:101F400050912521579508F45027509325210E9440
:101F50005D020E94F400089552D05F7062C04FD0BD
:101F600000E8551F0795E8F7502F5BC0E89401C0C3
:101F70006894EF93FF9311240E94091041F400909C
:101F80002421002009F417CAE1E8F0E207C000E2CA
:101F900020170AF00BCA022EE1EAF0E226F00DD07B
:101FA000C21A2C2D05C019D0572F0E945D02562F42
:101FB0000E945D02FF91EF91089550E07CE802914C
:101FC00068E0302F352756950695369508F4572743
:101FD0006A95B9F70A9499F708957FEF6FEF08E0D3
:101FE000202E52917527660F771F20F400E170278D
:101FF00001E260272A94B9F70A9489F708950E94AC
:10200000F4000E946F020895FADF052F0E946F020C
:10201000089522270E94F40022230895DF91CF9192
:1020200008950E945D020895CF920E94F400552702
:102030000F910C1911F00E946F02DDDA00E000939D
:102040007B0000917C00007F60917B00677F609344
:102050007B0055FF04C060917B00686060937B004B
:102060005F70052B00937C00583052F457700E942B
:10207000D3020E946F0200917E00502B50937E008D
:102080005527662770E1F89407ED00937A000091D8
:102090007A0004FFFBCF8091780090917900580F6F
:1020A000691F7A9589F7789476E0669557957A95C1
:1020B000E1F70E945D02ADDA089555270E945D02A6
:1020C0009EDF0E94730497DA00E00BBF00917C0052
:1020D0000F7350FD006050FF006C00937C000E9465
:1020E000CB05089552E00E945D0289DF553008F06B
:1020F00085C90AB5087F052B0ABD08957CDA0DD085
:10210000552700B605FC51E000B7006800BF81DA32
:102110000E945D020E94F400089500E000937A009E
:1021200000E100937A0050917B005F7B50937B002D
:1021300000B70870006500BF5AB552FF02C054E0F6
:1021400011C050917B00506450937B005AB553707E
:1021500000917C00007F052B00937C000E94D3023D
:10216000CA942A9550937F000E94C4050895F39A5B
:10217000189555270E945D0242DF0E946904009174
:102180002621087F502B5093262100916400077F61
:1021900000936400009171000D7F0093710008BBF3
:1021A000009392000093900000939100089551E0F5
:1021B0000E945D0224DF0E947304009126210F77A4
:1021C00050FF01C00068009326210895CF93DF934C
:1021D0006FEF552768BB5093900050939100509338
:1021E000920050939500509394003B98009170009A
:1021F0000F9300E00093700000912621702F7078FB
:102200008894771F771F76600770EAE0F1E1E00FAE
:10221000F51F09941FC006C005C004C008C007C050
:1022200006C00CC0033008F005E0002E09C06AE0CB
:102230000350033008F005E0069F02C004E6002EBC
:102240005093950050939400709391000E94D8058C
:102250000A94E1F70F9100937000509194006091FF
:102260009500002700939100C09906C0C0E6D0E217
:102270006883DF91CF91D5CEDF91CF910EE00093AF
:102280002121D0D8BCDE352F88940AD00895B7DE3E
:10229000352F089405D008950E948311532FC1CE85
:1022A00063D0F59807B10F7C07B95AD079E0F5995A
:1022B00023C0359BFCCF3C98449A10F03C9A44983C
:1022C000F5991AC03D9A45980E94CB053D98459ACC
:1022D0000E94CB053599F4CF18F03C98449A02C07F
:1022E00044983C9AF59908C0359BFCCF3C98449A99
:1022F000331F7A95E1F604C0E4E5F1E40E94D601CB
:1023000061D92AD0089530D007B10F7C07B928D001
:1023100079E0F59919C03599FCCF8894349B08C0B1
:10232000089445983D9AF5990FC03499FCCF06C0A2
:1023300045983D9AF59908C0349BFCCF3D98459A45
:10234000331F7A9531F705C0E4E5F1E40E94D60128
:102350005FEF38D901D008953D983C98459A08958B
:1023600006B1006306B90895F59808E1009360008E
:1023700005E400936000A895089541DE952F0E9422
:102380006F02852F05DC289853E011DC0E947D1236
:1023900014DC289A46CE33DE952F0E946F02852FDB
:1023A000F7DB289856E003DC289A52E000DC0E9414
:1023B0007D120E946F02FBDB289A0E94CB0555E03C
:1023C000F6DBFBDB289A5523C1F7089555270E94B9
:1023D0005D020E94F40080912E2190912F21E0DF78
:1023E0008F5F9F4F90932F2180932E21089500247B
:1023F00000922F2100922E21089551E00E945D024B
:10240000FEDD552319F050932C2108950C94FE09FC
:10241000F6DD552359F1952F88270E946F020C0194
:10242000952FB6DB0E94CB05289853E0C0DB0E94B5
:102430007D12C00120902C21C0DB0E9414090E9453
:10244000DC02019779F02A9429F40E94B3012090CC
:102450002C2103C04CE20E946719B0FFEDCF0E940F
:102460009505BE7F289A0E94B30108950C94F40943
:1024700055270E945D02C3DD50932D2108955527F5
:102480000E945D0251E00E945D02B9DD552311F406
:102490000C94F40904E0059F0E946F02952F882791
:1024A00077DB289856E083DB289A52E080DB0E9495
:1024B0007D1250912D2170E47ADB7A95E9F7289A04
:1024C0000E94BD0555E073DB78DB289A5523C1F7E0
:1024D000805C9F4FCF93DF93E00121970E01DF9146
:1024E000CF9101F708952E2F8ADD0E946E04E6EE4B
:1024F000F4E282D908950C94EA09592F58DB582F39
:1025000056DB089555270E945D0279DD5523C9F0F9
:102510005A3010F00C94FE09A89504B7077F04BF49
:10252000052F5770000F000F00720064502BF894B5
:1025300008E100936000509360000EB307700EBB7B
:1025400013C059D860917B006F7B60937B005AB5B4
:1025500051FD06C000E100937A0000E400937B0087
:1025600060B7606160BF55D87894889500005EB30D
:10257000507C21F0F799F798F699F6980091C000F1
:1025800007FD0895F59B02C0F5980895F39BECCFE5
:10259000F3980895CF93DF9355270E945D022FDDB6
:1025A0000E94730450FD04C053D074986C9807C007
:1025B00066D0002700935F216C9A749829D02ECDA5
:1025C0007F937FB77F936F935F93EF93FF9373E056
:1025D0007BBFFFEDE0915F2150915C2160915D2117
:1025E00070915E21E50EF61EE71F5691E0935F2184
:1025F00050FF03C00000749A03C0749800000000EC
:10260000FF91EF915F916F917F917FBF7F911895BF
:102610001124009164000F7B0093640017BA10929C
:10262000B2001092B0001092B1001092B30010925C
:10263000B40004E80093B30002E00093B00001E0AE
:102640000093B10000917000026000937000089543
:10265000112417BA1092B0001092B1001092B2007B
:102660001092B4001092B300009170000D7F00939F
:102670007000009164000064009364000895CEE54A
:10268000D0E20E94AB0500EF102E088001200294DA
:10269000002029F080E79DE30AEA3CD0F9CF0990B9
:1026A00012940120002029F084E296E001E132D06A
:1026B000F9CF0880129401200294002029F080EDC7
:1026C00093EB01E027D0F9CF09901294012000206C
:1026D00029F084E99BE200E01DD0F9CF0880129434
:1026E00001200294002029F08BE594E000E012D054
:1026F000F9CF088012940120002029F08FE690E0A5
:1027000000E008D0C9F750935C2160935D2170937D
:102710005E210895581F691F701F0A9408950F9332
:10272000CF93DF93EF93FF93FFB7FF93992011F0BF
:102730009A9416C0F0912821E0912921D0912A2164
:10274000C0912B21CF5FDF4FEF4FFF4FE093292147
:10275000F0932821C0932B21D0932A2190902721F8
:10276000E0913421F09135210F93E03000E0F00743
:102770000F9149F03197F0933521E09334210BB557
:1027800000640BBD03C00BB50F7B0BBDF79AFF9127
:10279000FFBFFF91EF91DF91CF910F9118950E94AC
:1027A000F4000E946F020E946E04552311F450E061
:1027B00005C0513011F45AE001C054E6509327216E
:1027C000952E0895CF93DF93C8E2D1E200270993B5
:1027D00009930993088322CC4F93CF93DF93EF9310
:1027E000FF93C8E2D1E2A0FD04C05B810E945D02BC
:1027F0000CC0F0912821E0912921D0912A21C0918B
:102800002B210E943E090E94B301FF91EF91DF91BD
:10281000CF914F9108952B2A2928F1DB0E946E0455
:10282000E6E1F8E20E94FC0B0895CF93DF93C8E243
:10283000D1E200270993099309930883009164006A
:102840000F7D00936400002705BB06BD04BD07BDD6
:1028500005BD009508BD0DE407BD02E004BD04E020
:1028600005BD00916E00026000936E00D7CBCF9340
:10287000DF930E94BF1470913021609132215091FA
:102880003321772311F4662707C00BB505FF0C949D
:102890005514563008F063950BB507FF6F77562F28
:1028A0000E945D02DF91CF91089567FB6F770AE088
:1028B000609F0027050E101EE001772769E00E9447
:1028C000AA096E5F7F4F332742E30E94BE0926F0BC
:1028D000605E7F4F0C946F14605270406195562F6C
:1028E0000E945D02DF91CF9108950C94EA09CF9385
:1028F000DF930E94BF14509130210E945D02DF914E
:10290000CF91089555270BB506FD51E08ACB552789
:102910006AB565FD51E00E945D0271DB0E945D02B7
:102920000E94730450FF0C9499140BB500620BBD08
:1029300008950BB50F7D0BBD089555276AB567FD4A
:1029400051E00E945D025BDB0E945D020E94730405
:1029500050FF0C94AF140BB500680BBD08950BB578
:102960000F770BBD089550E305C051E303C052E358
:1029700001C053E30E945D020E94F40008950BB56C
:1029800006FD089570913621772319F403E0009332
:102990003621E89400919100077069F00091910050
:1029A0000F93009171000F93009192000F9300918B
:1029B00090000F93689400E0009391007CD003E0B6
:1029C000229A2A980E94CB050A95E1F7C0E3D1E24A
:1029D000002400929500009294008AE095E055272B
:1029E00066272A9A229802E00093910088950000B9
:1029F000F59B13C080D00024009231210092302139
:102A0000009136210A95009336210FB701FF0895F2
:102A1000E4E5F1E40E94D60108951A9B05C00092F6
:102A2000950000929400E2CF709194007F3A18F4E0
:102A300000C0889401C008943A95551F8A95B1F654
:102A40009A9521F05993650F88E0D0CF54D056174E
:102A500051F000240092312100923021EAE6F1E4A5
:102A60000E94D6010895C1E3D1E290913021809176
:102A700031210E944C15C3E3D1E290913221809123
:102A800033210E944C15089500916E00026000935E
:102A90006E00F5980C94120A97FB9F770E94DF084E
:102AA000052F0F7008832197507F52950E942109AE
:102AB00057F95883089508E10093600000E40093FB
:102AC0006000A895F59801E00BBB01E00093680059
:102AD00004E000936B0000916E000D7F00936E0088
:102AE00000916500077F009365000091C1000F779A
:102AF0000093C10008950E94E20A2EF000E00093C6
:102B000091000C948F150F91009390000F910093FA
:102B100092000F91009371000F9100939100C0ED0E
:102B2000D7E0D0933521C093342100916E0002602C
:102B300000936E0000E00093680000E000936B00DB
:102B400001E00BBB089524D8249A2C9851E00E94F0
:102B50005D020E945D020E945D025BDA01F121309C
:102B600019F02330E1F014C20E946F02552391F056
:102B7000533009F00BC2E4EDFBE255912590222081
:102B800029F1506214D8559112D82A94E1F7289A65
:102B90003196F3CF50E20BD858E0DED1D9C156E2DE
:102BA00006D80E946F02529556955660D5D155E2CF
:102BB0000E94D70D0E946F025F77CED150E20E9433
:102BC000D70D0E946F025A955A60C6D155270E94B0
:102BD0005D02AEC10001080001013F0002010300D7
:102BE00003010300040103000501020006010E00B9
:102BF000070170000A05E7E7E7E7E7000B05C2C237
:102C0000C2C2C2000C01C3000D01C4000E01C50008
:102C10000F01C6001005E7E7E7E7E7001101000034
:102C20001201000013010000140100001501000052
:102C3000160100001C0100001D01000000000E94A0
:102C4000C10D0E94DD0D289A56FD02C05FEFE9C953
:102C50005E705695752F5395506182D1252E1124A3
:102C6000CF93DF93C1E8D0E2109223215093242127
:102C70002C9851E60E94D70D0E94DD0D5A932A949C
:102C8000D9F7289A0E94DD0D289A652F5E705E3074
:102C900031F4607457E20E94D70D562F5DD1DF9159
:102CA000CF91572FBEC90E94C10DCF92CF92B1D9FB
:102CB0000E94DD0D289A54FF05C057E20E94D70DEF
:102CC00050E14AD12C982223A1F0222E11240F90FA
:102CD000EF93FF93E1EAF0E2E019F10950EA0E9474
:102CE000D70D52910E94D70D2A94D9F7289AFF91B7
:102CF000EF912C9A0E94BD050E94BD052C985FE0C3
:102D00000E94CB055A95E1F70E94DD0D289A54FFE9
:102D100002C053E004C057E123D150735295CF90C5
:102D200080C90E94C10DEF93FF93CF93DF9371D9B8
:102D300009F42EC1622F6A95C1EAD0E23A911124BA
:102D4000EAE9FDE2032E000CE00DF11D0590149060
:102D5000002009F41BC153E003D15E5F752F0114FD
:102D600009F4702D1616C2F06015B2F06717A1F4C1
:102D700050E3373019F0532F565F50620E94D70D41
:102D80000E946F020E94D70D6A95D1F7289ADF91B1
:102D9000CF91FF91EF91DCC0FBC00305030501015A
:102DA000010101010101000003050E94C10D31D99B
:102DB00009F4CEC0223029F0D9D053955061D0D03B
:102DC00030C9DAD0752FD2D0352F252E239466271F
:102DD0000894661F2A94E9F752E0C2D0772311F0D5
:102DE000652B03C060956F73652352E20E94D70D77
:102DF000562FB2D0532F539550630E94D70D572FA3
:102E0000ABD0A6C0C3C00E94C10D55270E945D0271
:102E1000F6D802E005176AF051FD02C050FF07C066
:102E20002C9A51FF95C00E94BD050E94BD052C98AB
:102E30008FC0ACC00E94C10DECD821F455E00E94B7
:102E4000D70D86C00E946F0257FDA0C05F9355E268
:102E50000E94D70D5F9180D07BC00E94C10DD9D850
:102E600029F456E07DD056705695DBC80E946F025B
:102E70000E946E04550F652F56E072D0597F652B66
:102E800056E20E94D70D562F67D062C00E94C10D36
:102E9000C0D839F456E064D058705695569556957A
:102EA000C0C80E946F020E947304550F550F550F42
:102EB000652F56E055D0577F652B56E20E94D70DFF
:102EC000562F4AD045C00E94C10DA3D811F40C94CE
:102ED000080A0E946F02652F0E946F020DE105171C
:102EE00032F050620E94D70D562F36D0089501E07F
:102EF000009321210C94120A0E94C10D57E10E94F7
:102F00005D027DD80DE150170AF03CC00E94D70D3C
:102F10001FC00E94C10D55270E945D0270D8752FF9
:102F2000552331F451EE18D052EE16D073E003C0A1
:102F300050EE572B11D057E013D0652F57E20E9467
:102F4000D70D70FD606371FD6064562F05D000C021
:102F50000E94DD0D289A65C80E94D70D289A089511
:102F60000E94D70D0E94DD0D289A08950E946F02DD
:102F700005E005175AF008950E946F0200E2051758
:102F80002AF008950C94EA090C94EF090C94FE09B8
:102F90000C94080A0FB70F93F8942D9A259A0E9463
:102FA000CB052D9802E30E94BD050A95E1F72D9A05
:102FB000259806E00E94BD050A95E1F751E003B1AE
:102FC00005FD55270E945D0202E30E94BD050A959A
:102FD000E1F70F910FBF0E94F40008951AD811F481
:102FE0000C94080A0FB70F93F894EF93FF931124F2
:102FF000E1EAF0E2C21A58E0252E5291579510F4FA
:1030000050D001C05AD00E94B6052A94B9F70E9448
:1030100069182A9581F7FF91EF910F910FBF0895DD
:103020000FB70F93F8940E94091021F41AD00E9450
:103030005D0214C0CF93DF9311240E946F02752F9D
:10304000C1E8D0E210922321509324210AD05A9350
:103050000E9469187A95D1F7DF91CF910F910FBF38
:10306000089508E0202E09D0889400FD0894579513
:103070000E94B6052A94B9F708952D98259A0E94C2
:10308000B6052D9A25980E94B6050FEF33B135FF8E
:1030900000270F930AE00E94B6050A95E1F70F9109
:1030A00008952D98259A0E94BD052D9A259806E031
:1030B0000E94BD050A95E1F70895259A2D9807E02D
:1030C0000E94BD050A95E1F72D9A25980E94B60544
:1030D00008950E94B6050E94B6050E94B60508959F
:1030E00055270E945D020E94FF0F0E947304EAEFC1
:1030F000FCE30E94DA0150FF06C0E2E0FDE30BB5FD
:1031000008600BBD05C0E8E0FDE30BB5077F0BBD14
:103110000E94DA010895E6E6FDE30E94DA019DD0FF
:1031200000E1202EE0E0F0E08BD07FD00F93E03084
:1031300002E0F0070F9149F00E947819B0FD21C01C
:103140000E94D80500E1202EEFCFBE7F8DC0E6E6BD
:10315000FDE30E94DA0181D000E1202EE0E0F2E000
:103160006FD063D00F93E03002E2F0070F9149F087
:103170000E947819B0FD05C00E94D80500E1202EFC
:10318000EFCFBE7F0E940206E0E8FDE30E94DA0175
:10319000809120210E94A90180911F210E94A901F4
:1031A0000E94B30161C0E6E5FDE30E94DA0155D05B
:1031B00000E1202EE0E0F0E043D0F2BDE1BDF89A5E
:1031C00080B50E94A90140E20E946719EF5FFF4F9E
:1031D0002A9499F70E94B3010F93E03000E1F007C1
:1031E0000F9151F00E947819B0FD06C029D00E94BD
:1031F000D80500E1202EE1CFBE7F36C00E94020636
:10320000E2E4FDE30E94DA0100E1202EE7E4F0E2CF
:103210000F93E13600E2F0070F9128F411D005D0AA
:1032200000E1202EF5CF20D0089581910E94A901C0
:1032300040E20E9467192A94C1F70E94B3010895E1
:103240008F2F0E94A9018E2F0E94A9014AE30E949C
:10325000671940E20E9467190895EEE0FDE30E94BD
:10326000DA010E94020608950E9402060E94B3013C
:1032700008950E94FF0F852F0E946F02952F0E94D4
:103280006F025F930E946F025F930E946F02052F8F
:10329000FF91EF910E94FE0508958895000000912E
:1032A000C00007FFFACF5091C600533009F4B16057
:1032B0000C94111003B7016003BF78948895000047
:1032C0000091C00007FFF9CF3091C600089500902B
:1032D000C00005FEFCCF0E947819B1FF0C9475194F
:1032E0000090C00007FEFCCFBD7F4093C60008954C
:1032F0000090C00007FE0C9486190091C6000331AF
:1033000011F4B2600895033009F4B160089500919A
:1033100064000D7F0093640000E00093C5000FE19E
:103320000093C40008E90093C10008955AD0EF93B8
:10333000FF93E2E2FEE30E94DA01E0E4FEE30E9492
:10334000DA01FF91EF918F2F0E94A9018E2F0E9429
:10335000A9010E94B3010E94B3011124F8941DBA7F
:1033600010BE1FBA10926E0010926F001092700083
:103370001092710010927200109273001092C100AE
:103380001092C9001092BC0010927A0011B814B8C3
:1033900017B81AB81DB810BA13BA109201011092DA
:1033A00004011092070110920A0112B815B818B85A
:1033B0001BB81EB811BA14BA10920201109205017E
:1033C0001092080110920B0101E004BFF89408E18B
:1033D0000093600009E300936000789488950000F2
:1033E000FFCFE3E0F0E009E007BF0491069503702A
:1033F000003019F4E0E0F0EF14C0013019F4E0E01F
:10340000F8EF0FC0023019F4E0E0FCEF0AC003301F
:1034100019F4E0E0FEEF05C00BE0009321210C94CD
:10342000120AEF93FF9308E0102E02E00BBFEE1F8D
:10343000FF1F07910F3F29F0003019F0FF91EF9126
:1034400008951A94B1F705E1009321210C94120A12
:103450004C495320F60248454C50C30452554E2067
:1034600013055341564528074C4F414477075052A6
:103470004920210350525820330350524220440324
:10348000454D49544C04464F52208C0350544F2014
:103490009F034E4558548E034652452005034E4522
:1034A000572052045049462082035448452088033F
:1034B000454E4420A10352535420FA03434647206B
:1034C0007804501A1D20650350501E205F0F505085
:1034D0001C205F0F501C1E20590F50011D20590F3A
:1034E00050501D206E0350500B203F0F50500D20A8
:1034F000490F50500A20110F50500F201D0F4D4FF3
:1035000044201D0F505005201D0F50500420A303D0
:1035100050500720B70350500220590344415441F2
:10352000100B52454144380B52455354310B505007
:1035300040209F034C5352206C0F4C534C20740F6F
:1035400050500620890F414E4420890F50505C2076
:103550008C0F504F52208C0F50505E208F0F584FC1
:1035600052208F0F434F4D20920F50500120920F49
:103570004E454720950F53574150980F4E424820D3
:103580009B0F4E424C20AC0F52455620AF0F524E6F
:1035900044209F0F414F5620E80343524320B60F6B
:1035A00043525720B80F44454C41D803474F54204D
:1035B0003A04474F53203D045245542040044B45A4
:1035C00059204D19434C4B20020C4F5343201A0CE9
:1035D00041434F207E1041435320721045524120F9
:1035E000B007494E4954A50743415420D1075245DD
:1035F0004D2047045045454B5E0B504F4B456C0BDF
:1036000045455220780B45455720870B565047209B
:10361000D60B534C5020821244465720CB114446BF
:103620005220BD1144464C20E61144465820F71163
:1036300044464620FD114446442008124446562084
:103640003812444649203F124446412074125246E3
:103650004920A315524641209116524643201A177D
:10366000524650202D1752464220D516524645202C
:103670000317524654205316524658201F165246DE
:103680004620891752464420461752465720631752
:10369000524652207C17444854203714444848204E
:1036A00077144448522082144448552087144448D3
:1036B00053209D1444484920B31444484420B51471
:1036C00044544920B71444544420B9145254492056
:1036D000CF1352545220E21352545020EC13525440
:1036E00043200D144F574920CA174F575720EE1744
:1036F0004F57522010184F444120E90D49444120B2
:10370000E30D53444120140E43444120220E4F50F8
:103710004120300E534241203E0E434241204C0E88
:10372000584241205A0E50424120680E494E4120D5
:103730003A0E494241207A0E4F444220E90D494455
:103740004220E30D53444220140E43444220220EF3
:103750004F504220300E534242203E0E4342422000
:103760004C0E584242205A0E50424220680E494E9A
:1037700042203A0E494242207A0E4F444320E90D3E
:1037800049444320E30D53444320140E4344432053
:10379000220E4F504320300E534243203E0E4342F0
:1037A00043204C0E584243205A0E50424320680E8C
:1037B000494E43203A0E494243207A0E4F4444205A
:1037C000E90D49444420E30D53444420140E43447E
:1037D0004420220E4F504420300E534244203E0ECF
:1037E000434244204C0E584244205A0E504244203A
:1037F000680E494E44203A0E494244207A0E4F4406
:103800004520E90D49444520E30D53444520140E5D
:1038100043444520220E4F504520300E5342452050
:103820003E0E434245204C0E584245205A0E50420F
:103830004520680E494E45203A0E494245207A0EF1
:103840004F444620E90D49444620E30D53444620A9
:10385000140E43444620220E4F504620300E534251
:1038600046203E0E434246204C0E584246205A0EF9
:1038700050424620680E494E46203A0E49424620A4
:103880007A0E4F444720E90D49444720E30D534445
:103890004720140E43444720220E4F504720300E3D
:1038A000534247203E0E434247204C0E5842472089
:1038B0005A0E50424720680E494E47203A0E494260
:1038C00047207A0E4F444820E90D49444820E30D33
:1038D00053444820140E43444820220E4F504820A1
:1038E000300E534248203E0E434248204C0E584270
:1038F00048205A0E50424820680E494E48203A0E41
:10390000494248207A0E4F444A20E90D49444A2052
:10391000E30D53444A20140E43444A20220E4F50D4
:103920004A20300E53424A203E0E43424A204C0E5B
:1039300058424A205A0E50424A20680E494E4A20A8
:103940003A0E49424A207A0E4F444B20E90D494431
:103950004B20E30D53444B20140E43444B20220EC6
:103960004F504B20300E53424B203E0E43424B20D3
:103970004C0E58424B205A0E50424B20680E494E76
:103980004B203A0E49424B207A0E4F444C20E90D11
:1039900049444C20E30D53444C20140E43444C2026
:1039A000220E4F504C20300E53424C203E0E4342CC
:1039B0004C204C0E58424C205A0E50424C20680E5F
:1039C000494E4C203A0E49424C207A0E44535245FF
:1039D0004C114453434F471144534445421149430A
:1039E0004720B91049434520D71049435020E610DD
:1039F00050574520DB0E50574D20B20E50574F20E8
:103A0000090F44445320CA12414443201410414436
:103A100052205D1053504D20860D53504F20990D6C
:103A200053504320A50D535057201A0D5350522088
:103A3000500D53505320B70D545749202A0C54575A
:103A40005320DE0C54575020E80C545757204D0C8F
:103A5000545752208F0C54574220F10C44454220B9
:103A6000701844554D50A7185644554DFE184944FA
:103A7000554D8B184544554DD31846494C4C391972
:103A800057544620B104424C445296190000F9366E
:103A90003DFAF84174746F424153494320666F7296
:103AA0002041546D65676132353630204032304DEB
:103AB000487A20FAF85665723A20322E3334204282
:103AC00075696C6420636F64653A20323031373039
:103AD0003230372E32303331FAF9363D0000F845B6
:103AE0006E68616E63656D656E7473206279204BDC
:103AF0002053636F747420566974616C6520286B61
:103B000073765F70726A40676D782E636F6D29FA05
:103B1000F841546D6567613235363020706F7274CC
:103B2000202843293230313320FAF8312D57697279
:103B300065285229FE32303133FAF86E524632345B
:103B40004C3031282B29205246205472616E736309
:103B50006569766572FE3230313320FAF844485494
:103B60002048756D696469747920616E64205465BC
:103B70006D7065726174757265FE3230313320FA92
:103B8000F84545502046696C652053797374656D1E
:103B9000FE32303133FAF8536C6565702C20525484
:103BA0004320616E6420446174612D66696C65FE1A
:103BB0003230313220FAF85457492F5350492F44AC
:103BC0004453202620496E707574204361707475CB
:103BD0007265FE32303131FAF9362DFAF84F7269DA
:103BE00067696E616C20636F6465202843293230F9
:103BF00030322062792052696368617264204361C7
:103C00007070656C73FAF8687474703A2F2F707264
:103C10006F6A656374732E63617070656C732E6F69
:103C20007267202070726F6A65637473406361709D
:103C300070656C732E6F726720FAF9362DFAF8539F
:103C4000544B353030763220426F6F746C6F616444
:103C5000657220506574657220466C6575727920B6
:103C60003C70666C6575727940676D782E63683E4E
:103C700020FAF820616E6420576F7261706F68746B
:103C8000204B6F726E6B61657777617474616E61E2
:103C90006B756C203C646576406176726964652E54
:103CA000636F6D3E20FAF9362DFAF8416C6C207284
:103CB000696768747320616E642072656D656469FC
:103CC000657320657870726573736C7920726573A3
:103CD0006572766564FAF84E6F7420666F722063C1
:103CE0006F6D6D65726369616C20757365FAF93685
:103CF0003DFA0000F9352DFA000044656275672031
:103D000000006F6E20FA00006F6666FA0000F90688
:103D100020303020303120303220303320303420F9
:103D200030352030362030372030382030392030C0
:103D3000412030422030432030442030452030465E
:103D4000FA005661726961626C657320696E205277
:103D5000414D3AFA000045455020436F6E74656E40
:103D600074733AFA000050524F4752414D204D654E
:103D70006D6F727920436F6E74656E74733AFA00DA
:103D80004E65787420617661696C61626C65206C47
:103D90006F636174696F6E3A2000FB3A2050726F56
:103DA0006772616D20746F6F206C61726765206649
:103DB0006F72204545502120FA0045726173696E8B
:103DC000672045455000536176696E672046696CEF
:103DD0006520232000004C6F6164696E672046698E
:103DE0006C6520232000456D707479002062797421
:103DF0006573203E2000427265616BFA000020620C
:103E00007974657320757365642E2020000020622C
:103E10007974657320667265652E20FA00000820AB
:103E20000800FA4578697420796F7572207465729C
:103E30006D696E616C2070726F6772616D2E00002B
:103E4000FA496E766F6B696E6720626F6F746C6F84
:103E5000616465722028696E203820736563732958
:103E60002061742030780000F834322069732074A7
:103E7000686520416E7377657220746F2074686581
:103E800020556C74696D6174652051756573746932
:103E90006F6E20FAF86F66204C6966652C20746896
:103EA0006520556E6976657273652C20616E64209D
:103EB00045766572797468696E6720FAF8286874C7
:103EC00074703A2F2F7777772E626574656D756EF3
:103ED00061682E6F72672F666F72747974776F2EB8
:103EE00068746D6C29FA0000F8536F204C6F6E6790
:103EF0002C20616E64205468616E6B7320666F7253
:103F000020416C6C207468652046697368FA000073
:103F100056616C75652065786365656465642072BB
:103F2000616E67650000206E6F74200020737570ED
:103F3000706F72742028432900004C696E6520233D
:103F400020004572726F723A0000FB556E6B6E6F07
:103F5000776E20636F6D6D616E64206F72206F707D
:103F6000657261746F722E00FBFC206F6620303A20
:103F700032353500FB50726F6772616D206D656D73
:103F80006F72792069732066756C6C00FB43686101
:103F9000726163746572FD61207265636F676E693B
:103FA0007A656420747970652E00FB4275666665DB
:103FB00072206C696D6974206578636565646564F9
:103FC0002E00FB426164207661726961626C65203B
:103FD0006E616D652E00FB546F6F206D616E7920F0
:103FE000617267756D656E74732E2000FB56616C8F
:103FF000756520776173FD617661696C61626C65DE
:104000002E00FB4D616368696E6520737461636B9C
:10401000206572726F7220FAF9092046756E63741A
:10402000696F6E7320746F6F20636F6D706C65784D
:10403000206F722063616C6C73206E6573746564AD
:1040400020746F6F20646565706C7900FB474F5476
:104050004F206F7220474F53554220646573746937
:104060006E6174696F6EFD666F756E642E00FBFC89
:10407000206F6620303A3700FB4C696E65206E7504
:104080006D626572203E2033206469676974730035
:10409000FBFC206F6620303A3100FBFC206F66206D
:1040A000303A3300FB494350207265676973746589
:1040B00072206F766572666C6F772E00FB417269B5
:1040C00074686D65746963206F766572666C6F776E
:1040D0002E00FB41726974686D6574696320756EAA
:1040E000646572666C6F772E2000FB4469766964A4
:1040F00065206279207A65726F2E2000FB456D7015
:1041000074792046696C6500FB545749FD656E6102
:10411000626C65642E00FB31343A2000FB3A204E7D
:104120006F20426F6F742D6C6F6164657220666FD3
:10413000756E642EFB53706563696669656420FC67
:104140002E00FB53657420414320526566203E20BB
:10415000302E2000FB446576696365206E6F6E2DFE
:10416000726573706F6E73652E00FB4465766963CC
:104170006520636865636B73756D2E00FB53504952
:1041800020FD656E61626C656400FBFD6120626903
:104190006E617279206E756D62657200FB496E7694
:1041A000616C6964206E756D626572206F66206156
:1041B0007267756D656E74732E00000000001895AF
:020000023000CC
:10DF00000000000000000000000000000000000011
:10DF10000000000000000000000000000000000001
:10DF200000000000000000000000000000000000F1
:10DF300000000000000000000000000000000000E1
:10DF400000000000000000000000000000000000D1
:10DF500000000000000000000000000000000000C1
:10DF600000000000000000000000000000000000B1
:10DF700000000000000000000000000000000000A1
:10DF8000FFFFFFFFFFFFFFFFFFFFFFFFFFFFFFFFA1
:10DF9000FFFFFFFFFFFFFFFFFFFFFFFFFFFFFFFF91
:10DFA000FFFFFFFFFFFFFFFFFFFFFFFFFFFFFFFF81
:10DFB000FFFFFFFFFFFFFFFFFFFFFFFFFFFFFFFF71
:10DFC000FFFFFFFFFFFFFFFFFFFFFFFFFFFFFFFF61
:10DFD000FFFFFFFFFFFFFFFFFFFFFFFFFFFFFFFF51
:10DFE000FFFFFFFFFFFFFFFFFFFFFFFFFFFFFFFF41
:10DFF000FFFFFFFFFFFFFFFFFFFFFFFFFFFFFFFF31
:10E0000012E0A0E0B2E0EEEFF7EE03E00BBF02C0DB
:10E0100007900D92A431B107D9F712E0A4E1B2E064
:10E0200001C01D92A631B107E1F701E20EBF0FEF6B
:10E030000DBF11241FBE0D9438F08093C60080914F
:10E04000C00086FFFCCF8091C00080648093C00038
:10E05000089520E030E008C0E3ECF9E03197F1F7F3
:10E0600000C000002F5F3F4F28173907A8F308951D
:10E070002F923F924F925F926F927F928F929F92D8
:10E08000AF92BF92CF92DF92EF92FF920F931F93C6
:10E09000DF93CF93CDB7DEB7C952D1400FB6F89416
:10E0A000DEBF0FBECDBF01E20EBF0FEF0DBF94B7B5
:10E0B000F894A89514BE80916000886180936000F8
:10E0C00010926000789493FF05C0E0911402F091E3
:10E0D00015021995279A2F9A8091C000826080932B
:10E0E000C00085E18093C40088E18093C1000000F6
:10E0F000EE24FF24870198EB892E92E2992EA12C21
:10E10000B12CCC24DD2425C026E02A95F1F700C0EF
:10E110000894E11CF11C011D111D81E0C82ED12CB9
:10E1200031E2E3163EE4F30630E0030730E0130784
:10E1300010F4CC24DD24C801B701A50194010F948B
:10E14000CFF3611571058105910519F485B18058EA
:10E1500085B98091C00087FD03C0C114D104A1F22C
:10E1600096012F5F3F4F2130310509F0FCC2222478
:10E1700033242101EE24FF248701C25EDE4F188282
:10E18000CE51D1408824C15EDE4F19821882CF5112
:10E19000D1404BBEF10147915691C95DDE4F598385
:10E1A0004883C752D140D5C220E030E0213031054C
:10E1B000D1F420C02F5F3F4F4F4F5F4F213896E97A
:10E1C000390798E9490790E0590780F0C95DDE4FAB
:10E1D000A881B981C752D1402FEFAF3FB20719F0E4
:10E1E000EE27FF27099420E030E0A9019091C000BC
:10E1F00097FFE0CF2091C6008330F1F0843028F4FF
:10E20000813069F0823098F407C0853021F1853083
:10E21000D0F0863091F52DC02B3131F6B8C2822670
:10E22000C25EDE4F2883CE51D14082E0BDCF722F37
:10E2300060E0822683E0B8CF822F90E0682B792BB4
:10E24000822684E0B1CF2E3009F0A5C28226E0E01C
:10E25000F0E085E0A9CFA1E0B0E0AC0FBD1FAE0FAC
:10E26000BF1F2C9331968226E617F70709F09CCF43
:10E2700094C2281509F08FC203C0873009F094CFEB
:10E28000C15EDE4FF983E883CF51D140898183316C
:10E2900009F406C18431C0F4863009F4D4C0873053
:10E2A00048F4823069F1833009F470C0813009F09C
:10E2B000EDC154C0813109F476C0823108F0B9C093
:10E2C000803109F0E3C11CC0883109F488C089316C
:10E2D00050F4853109F4E4C0853108F47DC18631FC
:10E2E00009F0D4C179C18A3109F46BC08A3108F4CC
:10E2F0008DC08B3109F45AC08D3109F0C7C102C0FD
:10E3000090E052C08D81803339F49F819923B1F020
:10E310009130B1F498E917C0982F907599F0803535
:10E3200021F499E0E0E0F0E005C0883559F4E3E03D
:10E33000F0E099E090935700949105C09EE103C0EE
:10E3400091E001C090E01A821B828C831D829E8323
:10E350001F8290E0B7E0CB2ED12C9EC11A8288E0BC
:10E360008B8381E48C8386E58D8382E58E8389E4CB
:10E370008F8383E5888780E589878FE58A8782E3B5
:10E380008B8790E0ABE0CA2ED12C86C1EA81E058A1
:10E39000E33128F4F0E0E050FE4F808101C080E0DE
:10E3A0001A828B8341C091E01A8273C18D818823C8
:10E3B00021F0813021F488E926C08EE124C081E07B
:10E3C00022C01A82E1E0F0E089E080935700E491F6
:10E3D000EB831C8290E0F4E0CF2ED12C5DC18B81C9
:10E3E000803559F48C81883021F489E0E2E0F0E056
:10E3F00007C089E0E0E0F0E003C0E3E0F0E089E09E
:10E400008093570084911A828B83E3CF8D81836C34
:10E4100099E0E1E0F0E0082E90935700E89507B608
:10E4200000FCFDCF1A821B8290E0E3E0CE2ED12CBF
:10E4300033C1F0ECFA8390E072E0C72ED12C222495
:10E440003324210129C1EA80FF2400E010E01E2DC1
:10E450000027FF24EE248B8190E0A0E0B0E0DC01F7
:10E4600099278827E82AF92A0A2B1B2B8D8190E00F
:10E47000A0E0B0E0E82AF92A0A2B1B2B8C8190E05F
:10E48000A0E0B0E0BA2FA92F982F8827E82AF92A10
:10E490000A2B1B2BEE0CFF1C001F111F1A82F8C049
:10E4A000DA80CE5DDE4FD882C252D140CF5DDE4FE2
:10E4B0001882C152D140CB80DD24CF5DDE4F288150
:10E4C0003981C152D140C22AD32A833109F058C0C0
:10E4D00030E0231630EC330633E0430630E05306D9
:10E4E00090F443E0F10140925B0040935700E895BF
:10E4F00007B600FCFDCF80E091E0A0E0B0E0280E80
:10E50000391E4A1E5B1ED801C701AE01455F5F4F31
:10E51000B601FA01208131814E5F5F4FCC5DDE4F45
:10E520003883C452D140CD5DDE4F1882C352D140F2
:10E5300030E0CD5DDE4FE881F981C352D1402E2B12
:10E540003F2BDD24D3940901FC01A0935B00D09202
:10E550005700E89511240296A11DB11D625070402C
:10E56000C1F625E0F70100935B0020935700E89582
:10E5700007B600FCFDCF31E130935700E89528C085
:10E58000D801C701B695A795979587955C01460177
:10E59000FBE06F2E712C6C0E7D1E0CC0D3016D91B3
:10E5A0003D01C5010F94F1F30894A11CB11C08941E
:10E5B000810891088114910489F7C601A0E0B0E0B8
:10E5C000880F991FAA1FBB1F8E0D9F1DA01FB11F73
:10E5D0001A827C018D015CC0BA81CA5DDE4FB883AE
:10E5E000C652D140CB5DDE4F1882C552D1402B813F
:10E5F00030E0CB5DDE4FE881F981C552D1402E2B52
:10E600003F2B73E0C72ED12CC20ED31E1A82843149
:10E61000C1F4DE011396AD01D801C701ABBFFC0107
:10E6200067917691FA01608371834E5F5F4F029626
:10E63000A11DB11D2250304089F77C018D01DA0106
:10E6400022C0FE0133962150304040E050E02F5F61
:10E650003F4F4F4F5F4F2E0D3F1D401F511FE1BCDD
:10E66000BB27A12F902F8F2D82BD0894E11CF11C98
:10E67000011D111DF89A80B58193DF01E216F306A2
:10E680000407150761F71C9290E006C0F0ECFA83CE
:10E6900090E022E0C22ED12C8BE1C75DDE4F988343
:10E6A000C952D1400F941DF0C25EDE4F8881CE5119
:10E6B000D1400F941DF08D2D0F941DF08C2D0F94D3
:10E6C0001DF08EE00F941DF095E1892EC25EDE4FA5
:10E6D0002881CE51D14082268C248D245E0108945D
:10E6E000A11CB11C0FC0D5016D905D01862DC75DC9
:10E6F000DE4F9883C952D1400F941DF086240894B0
:10E70000C108D108C75DDE4F9881C952D140C114FC
:10E71000D10449F7882DC75DDE4F9883C952D14097
:10E720000F941DF085B1805885B9C75DDE4F988183
:10E73000C952D1409923B9F4C25EDE4FB881CE519F
:10E74000D140BF5FC25EDE4FB883CE51D14020E0E2
:10E7500030E060E070E080E0C15EDE4FE881F9818A
:10E76000CF51D14023CD27982F9884E690E00F9485
:10E7700029F000008091C0008D7F8093C00081E16E
:10E7800080935700E895EE27FF270994FFCF8BE190
:10E79000882E81E009CD80E007CD86E005CDA1E29D
:10E7A0001A2EAA1BBB1BFD010DC0AA1FBB1FEE1F0B
:10E7B000FF1FA217B307E407F50720F0A21BB30B56
:10E7C000E40BF50B661F771F881F991F1A9469F7D2
:10E7D00060957095809590959B01AC01BD01CF012E
:10E7E0000895262FF999FECF1FBA92BD81BD20BD95
:10E7F0000FB6F894FA9AF99A0FBE019608950000A0
:10E8000000000000000000000000000000000F02F7
:02E810000A00FC
:00000001FF
