:020000020000FC
:100000000C9456000C94D31F0C94D31F0C94D31F44
:100010000C94D31F0C94D31F0C94D31F0C94D31F98
:100020000C94D31F0C94D31F0C945A350C94943514
:100030000C9420060C94D31F0C94D31F0C94D31F44
:100040000C94D31F0C94D31F0C94D31F0C94D31F68
:100050000C94D31F0C94AA130C94D31F0C94D31F8D
:100060000C94D31F0C94D31F0C94D31F0C94D31F48
:100070000C94C5100C94D31F0C94D31F0C94D31F55
:100080000C94D31F0C94D31F0C94D31F0C94D31F28
:100090000C94D31F0C94D31F0C94F1120C94D31F07
:1000A0000C94D31F0C94D31F0C94D31FA8950FEF5F
:1000B0000DBF0AE00EBF0E947F0A0E94D30278940F
:1000C0000E949401CC240E9468000E94C800F7CFCF
:1000D0004EE30E940720CFE5DAE00E94F01F3D309A
:1000E00021F4F198F0980C948000323229F4F099C0
:1000F00002C0F09A01C0F098333211F4F09BF19AEB
:100100000F93C0360AE0D0070F9121F447E00E9418
:100110000720E3CF3531E9F0383069F13F3759F145
:100120003A30D9F23930C9F2F19B38833D3009F4C5
:1001300008950F93CA3F09E0D0070F9121F447E0DB
:100140000E940720CACFF19B2197432F0E949B0159
:10015000C4CFEF93FF93EFE5FAE0EC1BFD0B2E2EDF
:10016000E6E0FCE30E94BB012A94D1F7CFE5DAE098
:10017000FF91EF91B2CF0F93CF350AE0D0070F91E7
:1001800031F033273993E6E0FCE30E94BB01A5CFB1
:10019000CFE5DAE038810E946001023011F40C945E
:1001A00032060E949401A16002C0AE7FBF7B8DB772
:1001B0009EB70F938F3A0AE090070F9110F40C94BA
:1001C0000B0A0E942A015D3021F4B2FD0E946605EF
:1001D0001BC05B33C9F0032D023021F4FCD20E9416
:1001E0003E02E5CF7F756F755F75053041F0413098
:1001F00031F4032D033019F40E942602D8CF0E9457
:1002000006015D3009F00895A1600895E8EEF3E37A
:100210000E941E01071671F40E941E01061659F471
:100220000E941E01051641F431960591F491E02FCC
:1002300009950895319631963096EACF05900020C1
:1002400041F41490112029F400E00093620A0C9408
:100250003D0A089570EF60EF41E038810E9460012F
:10026000013019F40E945201F5CF532F0E94520120
:100270003D30A1F03D2C38813D3081F00E9460017D
:100280003D1439F40E94A3050E9452014395433066
:1002900091F738810E9460013D1409F008950E9491
:1002A0005201F7CF0F93C93F09E0D0070F9131F406
:1002B00004E00093620A0C943D0A08952197089582
:1002C0003F9300273D3011F40C9486013F75303088
:1002D00011F40C946D013C3011F401E018C032307F
:1002E00011F405E014C0303411F405E010C03031D1
:1002F0000AF40DC03B350AF00AC0303412F003E0B6
:1003000006C03A3112F41AF402E001C004E0D02E23
:100310003F9108950E9429098F93492F0E94072039
:100320004F910E94072008954DE00E9407204AE067
:100330000E94072008954D3011F4F6DF08950C94C3
:100340000720472F0E94AB01462F0E94AB01452F8B
:100350000E94AB0108954F93407F4295405D0E94FB
:1003600007204F914F70405D0E94072008950E9422
:10037000BB01DADF08954591442309F40895483F0D
:1003800019F40E94FA01F7CF493F29F415904591DD
:100390000E942102F0CF4A3F11F4C6DFECCF4B3F61
:1003A00041F4EF93FF93EAE2FDE3E5DFFF91EF9184
:1003B000E2CF4C3F41F4EF93FF93E8EFFCE3DBDF48
:1003C000FF91EF91D8CF4D3F41F4EF93FF93EEE0D3
:1003D000FDE3D1DFFF91EF91CECF4E3F41F4EF939C
:1003E000FF93E4E1FDE3C7DFFF91EF91C4CF0E94EB
:1003F0000720C1CF0F93EF93FF93112445914A300B
:10040000A1F04D3091F04A3F81F0493F71F04C3FEF
:1004100011F404E1100E4D3F11F405E0100E4E3FB3
:1004200011F40CE0100E1394E9CF1A9446E3141A59
:100430001194169440E20E942102FF91EF910F91D6
:1004400008950E9407201A94E1F7089551545A31F3
:100450002AF005E00093620A0C943D0AA0FF21F403
:100460000E943E02A2600895E8E8F9E06627E50FE1
:10047000F61F50810E943E02AD7F08950F9300E267
:100480000C1511F40C94010A1F921124E1EEF9E00D
:10049000EC19F1095083C39423951F900F9108958F
:1004A000CC2011F40C94060A1F921124E2EEF9E01C
:1004B000EC19F1095081CA942A951F900895EF9381
:1004C000FF9304E00B1511F40C940B0A32E00B2D92
:1004D000039FEAEEF9E0E019F109D293C293B394D5
:1004E000FF91EF910895EF93FF93BB2011F40C94CB
:1004F000060A32E00B2D039FEAEEF9E0E019F1095C
:10050000C191D081BA94FF91EF910895EF93FF9339
:1005100004E00A1511F40C940B0A34E00A2D039F31
:10052000EAEFF9E0E019F109629272924292529276
:10053000A394FF91EF910895EF93FF93AA2011F4F4
:100540000C94060A34E00A2D0A95039FEAEFF9E0BD
:10055000E019F1096290729042905290FF91EF91F0
:1005600008959EDF0E944D0401E0552319F0000F0D
:100570005A95E9F7502F0C942110703049F0705DB6
:10058000472F0E940720603019F440E30E940720A3
:10059000603021F0605D462F0E940720505D452F9E
:1005A0000E9407200895E4EEF8E3E1DE0895BCDE42
:1005B000E7E8F9E0C091600AD091610AEC17FD0705
:1005C00021F04081B8DE3197F9CFAEDEADDE99E0A3
:1005D00087E87091600A6091610A871B960B0E9400
:1005E0000809AFDEE6EEFBE3C6DE8091600A90917B
:1005F000610A805091400E940809A3DEE6EFFBE308
:10060000BADE0895B0680E94191005E0301651F066
:1006100047DF0E943F09B1DF40E20E94072022230A
:10062000B9F782DEBF770895B0680E94191044E2DE
:100630000E94072035DF852F6DDE40E20E940720F3
:100640002223A9F771DEBF770895B0680E941910C0
:1006500027DF78E040E3551F08F441E30E940720BC
:100660007A95C1F740E20E940720222389F75CDED9
:10067000BF770895488116DE423239F04E3719F0BF
:100680000E940720F7CF50DEF5CF08950E94141086
:10069000E8E8F9E06627E50FF61F00830895B5FF47
:1006A0000C94630F0E940F10452EFADE052FF8DE22
:1006B000552E6627E8E8F9E0E50FF61F0083A062F3
:1006C000AE7FBF7D08950E940F10552309F4A460EA
:1006D00008950F910F910895B0620895E8E8F9E048
:1006E000552D6627E50FF61F0081041521F00395AF
:1006F0000083A0610895AA9409F01EDF089555DDD6
:100700000895B16008959881CDDD8881382FD8DDB6
:10071000013029F0043019F0C5DD0C949103892FC4
:1007200099270E943609582FA9DE3FDD08950981D7
:10073000073211F00C94FC0B552708E0202E88811D
:10074000B1DD382FBDDD302E023019F0CF5FDF4F25
:1007500007C08894317030FD0894551F2A9479F7AA
:100760008DDE23DD08950CE10093620A0C943D0AAE
:10077000CF93DF930E940F100AE0F798889500004E
:10078000F79BFBCF0A95C9F75A95B1F70C941E1049
:10079000552774DE0E940F1001E005174AF00AB5D4
:1007A0000F770ABD50FF08950AB500680ABD089585
:1007B0000C94150A04B7077F04BF0E9445340E94B9
:1007C000E20508E1009360000EE000936000F894F9
:1007D0008895000008957F706F705F700E944C09CB
:1007E00008950E940F10452FE7E8F9E08091600A14
:1007F0009091610A0C940604F91711F48E17C8F44D
:1008000000810D3011F03197F7CF319755276627CA
:100810007727F91711F48E1760F4308151DD02301B
:1008200021F40E94A3053197F4CFD5DF451721F7B6
:10083000089509E00093620A0C943D0AD2DFEF01AB
:100840000895CFDFA06C0895B3FF0C942904A8602D
:100850000895B1600895488125DD4D30E1F7089590
:100860000E940F10452F0E9407200895E7E8F9E045
:10087000F093610AE093600ACC24AA27BB270FB744
:100880000F93F8940E94FA050E9400060F910FBF83
:100890004BDDE4E9F8E36BDD0895583008F4089582
:1008A0000C94100A543008F408950C941A0A52302B
:1008B00008F408950C94150ACF93DF930E94191041
:1008C000C0E0D0E00E94F508222331F0213039F059
:1008D000223081F00C94290A502FD0DD24C0E0DDB5
:1008E000DCDF552319F006955A95E9F751E000FF32
:1008F0005527F3CF702FD4DDC1EED9E00881083041
:1009000069F0D5DF652FCCDDC8DFB8DD2ADECC2469
:1009100060FD03C05095572301C0572B052FC0E041
:10092000D0E00E94FC080C941E10B7FD0DC0A1FD84
:100930000BC00E94AF0FB4DD55231AF0E0EDFCE3CD
:1009400002C0E0E5FCE317DD5AE20C942110CF93DE
:10095000DF930E94090640E20E940720E8EEF3E3DD
:10096000D2E3C4E07591772309F443C065915591B2
:10097000643521F45F34A1F470E220C0693421F4BD
:10098000563471F470E21AC06F3451F4523541F4A8
:100990007735A1F0783591F0763481F070E20EC0B1
:1009A000503439F05E352CF45C3514F4503334F4A3
:1009B000505E70E260330AF06627605E472F0E9447
:1009C0000720462F0E940720452F0E94072040E263
:1009D0000E9407203396D45022F6A6DC1F921124E1
:1009E0000E940A351F900E94D40540E20E94072011
:1009F000B7CF9ADC0E9409060C941E100BB500FDBF
:100A00000EC0D3DBCC2059F04BDD03E0051714F406
:100A10000C94290AB4600E94FA050E949407BB2432
:100A2000AA240BB50E7F0BBDB460C7E8D9E00E94C5
:100A30006605CC24A1600E942A20A6FF02C03FDDEB
:100A4000AF7BA7FF03C0EF01B860AF77A3FF05C07E
:100A50004ADDBB2009F4B77FA77FA5FF03C03E0195
:100A600055DDAF7DA4FF02C0E301AF7EB0FF07C03C
:100A70000E948C05C091600AD091610ABE7F80916E
:100A8000600A9091610A8C1B9D0B78F4388118DC08
:100A9000A2FF04C0043011F02197CBCFAB7F02300E
:100AA00011F42197C6CF83DBC4CF00E00093630A23
:100AB000BB7FC0E0D0E00E94F50800FF0895809160
:100AC000A80A882311F40E944E2008950091610A1B
:100AD000D01729F40091600AC01709F40895CF9344
:100AE000DF93DF923F93662755273881E9DB023099
:100AF00029F00E944C095093630A05C00E94A30587
:100B00005F702197F2CF0BB503FF02C066D00CDCFB
:100B10003F91DF900C941E101F9211240E94943478
:100B20001F90EEEDFBE327DC089554EBE0E0F1E0ED
:100B3000019150270F93EF3F0AE0F0070F91C1F7A3
:100B40005093660A0895762F652F532F08957727BF
:100B5000662755270895DF93D4E0DA950000E9F77A
:100B6000DF910895DF93D5E0F6DFDA95E9F7DF91BD
:100B70000895DF93DAE0EFDFDA95E9F7DF91089582
:100B8000DF93D4E6E8DFDA95E9F7DF910895CF93B4
:100B9000DF93D6ECC3E1CA950000E9F7DA950000CF
:100BA000C9F7DF91CF9108950F930AE0F0DF0A951E
:100BB000E9F70F9108950F930AE0F6DF0A95E9F738
:100BC0000F9108950F93CF93DF9304E6EDDF0A951D
:100BD000E9F7DF91CF910F910895E2E2FDE3CBDBDE
:100BE000CF93DF93DD27C091630A0E94C009DF9194
:100BF000CF910895E0E0F1E098E088E8002705C093
:100C0000E8E8F9E090E08AE1002701930197E9F72D
:100C10000895ECEDFAE3AFDB0895F8940091E2005B
:100C2000002329F00093AD0A00E00093E2007894DD
:100C30000895F8940091AD0A0093E2007894089525
:100C400008E10093600000E000936000F59A1895B9
:100C500004E00093620A0C943D0A0BE00093620AE0
:100C60000C943D0A44270E941A075430B0F7809133
:100C7000600A9091610A0F93873809E090070F91FD
:100C800009F45BC0CFE5DAE062DF0F93C93F09E00A
:100C9000D0070F91EAF2388113DB023029F4762F66
:100CA000652F532F2197F1CF96DD452EE091600AF5
:100CB000F091610A4C7F4BDF552431960F93E83851
:100CC00009E0F0070F9191F03081FADA043071F009
:100CD000023089F75394562F672F732FEECF0F935F
:100CE000E83809E0F0070F9131F70895052D03303A
:100CF00029F05394562F672F70E0F8CF41FD02C0C2
:100D00004260D9CF68DD4516A9F110F441603F017A
:100D10000F93E83809E0F0070F9111F440FF0DC080
:100D200040FFDDCF541508F455C00F93E83809E0B3
:100D3000F0070F9109F44EC0D2CF0E941A0700307D
:100D400009F40895CFE5DAE0E091600AF091610AD4
:100D50000F93E03001E0F0070F9109F436C00881ED
:100D60000083319721970D3099F7F093610AE09352
:100D7000600A08953197EF010F93E03001E0F0072A
:100D80000F9109F465CF088121970D30A9F7BF01B4
:100D90006C1B7D0B8091600A9091610A860F971FF2
:100DA0009093610A8093600A0F93E03001E0F007AE
:100DB0000F9129F00881008321973197F5CF0E9488
:100DC0001A07003009F04ECF089502E00093620A3E
:100DD0000C943D0A0E941A07003059F10091610AF3
:100DE000013029F40091600A0050081770F3E09177
:100DF000600AF091610ADF2FCE2FC81BD040D0933C
:100E0000610AC093600AF71519F4E61509F405C0E4
:100E10000081088321963196F6CFCFE5DAE0F72DF1
:100E2000E62D3197088100830D3019F03197219715
:100E3000F9CF0895CFE5DAE05527882799274B7F2A
:100E40003881219783953D3041F03ADA023039F00C
:100E500044600130A9F39395F3CF092F089542FF21
:100E60005395EECFCFE5DAE0E03009F0AECF088160
:100E70000083319721970D30B9F7F093610AE09321
:100E8000600A0895AF93BF935527F8DA0E940F10B8
:100E9000543014F00C94290A8AD0A7E8B9E0E09104
:100EA000600AF091610AAE1BBF0BAF5FBF4FB5DEAA
:100EB00065D1EA1BFB0BBF91AF9130F4BADEE2E8DB
:100EC000FBE355DA0C949207EEEAFBE354DA852F44
:100ED00021DA2ADA00E00093790A41D11124C8E12D
:100EE000D0E0C50FD11D022D87D1E8E8F9E001E07F
:100EF0003EE1CAE7DAE0099302910993002371F019
:100F00003A95D1F72CD128822F920091780A00933C
:100F1000790AC1D00F910093790AE9CF09933A95E4
:100F2000E9F7B9D086DE0895B2FD06C05527A6DAE6
:100F30003CD9B6DA543034F599DCEEEBFBE31BDA3E
:100F4000852FE8D9F1D9FBD016F40C94240A65DE7C
:100F5000E8E8F9E03EE1CBE7DAE00991002341F06F
:100F600002933A95D1F708810093790A90D0F2CF95
:100F70003197CC24F093610AE093600A5ADEB2FF05
:100F800025DB08950C94290ACF93DF933FE130933A
:100F9000790A9FD03A95D9F7ABD00C941E105527FB
:100FA0006DDA03D97DDA543014F00C94290ADD2768
:100FB000C52FC85EDF4F19D1002309F408950093AF
:100FC000790ABDD086D0CAE7DAE00F8D0093790A9E
:100FD000002321F0009511F05AD0F4CF97D0089556
:100FE000CF93DF935527852F95D94AE30E94072099
:100FF00040E213DE0E94D308CF015F930E940809EC
:1010000018DEA2D9E4EDFBE3B6D90F93503000E02F
:1010100060070F9129F4EEECFBE3ADD95F9112C0AC
:101020005F918DD0CBE7DAE06EE149910E94072015
:101030004D3041F06A9509F0F8CF48814093790A24
:1010400026D0F0CF71D911240E940A35ADDD539519
:10105000543009F0C8CF68D9E0DD0E94BE08EF9394
:10106000FF939D2F8C2F0E940809E3DD6DD9E6EEDA
:10107000FBE381D9D2DD9F918F910E940809D9DDD0
:1010800063D9E6EFFBE377D94FD90C941E100AB56C
:101090000F7D0ABD03C00AB500620ABDCF93DF937E
:1010A000EF93FF9300E2202EEAE7FAE00091790A3D
:1010B00019D00AB505FF03C001919ED002C095D09A
:1010C0000193CF5FDF4F2A94A1F7FF91EF910C942A
:1010D0001E10CF93DF9306D00AB500640ABD8CD0F2
:1010E0000C941E1000E24091790A049FE0010895DB
:1010F00084E0C8E1D0E00AB50F7B0ABD00270E945A
:10110000FC08CF5FDF4F8A95C9F708950AB50F7BBA
:101110000ABD0027DD27C52FC85EDF4F0E94FC08EF
:101120000895CAE7DAE000E00093790AB0DF089595
:10113000CAE7DAE000E00093790AADDF0895F1DF55
:10114000052EC00DD11DC85EDF4F0881002311F4AC
:10115000689408950093790A9ADFE8940895CF93EC
:10116000DF932090790A2092780A23942092790ABA
:10117000B9DF3BD00F3FC9F70C941E10AF93BF935C
:101180005F93BB27AA2753E00E94D308AE0FBF1F6F
:101190005A95D2F7E2EAF3E0EA1BFB0BED015F910F
:1011A000BF91AF9108955F93EAE7FAE090E080E0A5
:1011B00070E06EE1B6DF052EE00DF11DE85EFF4F39
:1011C0000081002379F0EAE7FAE00093790A5FDF13
:1011D000008101300FB701FF05C0860F971F078DF3
:1011E000002399F7FC015F910895F999FECFD2BDD4
:1011F000C1BDF89A00B50895F999FECFD2BDC1BD21
:1012000044E00AB406FC44E100BD4FBBF99A0895DE
:1012100004DD0C01889400E19ADC001C111C551FB0
:10122000661F771F0A9511F404DD0895352F08D045
:10123000532F362F05D0632F372F02D0732FEDCFCA
:10124000432F4D5F43FD342F432F405D47FD342F27
:101250000895982F92959F70905D9A3308F0995F4A
:101260008F70805D8A3308F0895F089596FD975FDF
:101270009F7086FD875F8F709295892B08957727E1
:101280006627545610F07395FCCF5C595A5010F0F5
:101290006395FCCF565F08957330B2F4723032F02C
:1012A000663092F4653012F0563072F4662321F005
:1012B0000AE0500F6A9581F7772309F4089504E650
:1012C0008894500F7A95C0F701E00093620A0C945D
:1012D0003D0A4FE24395C050DA4CEA49FB43D0F750
:1012E000C050D643E546F44C0E9407204FE2439598
:1012F000C050D14EE54FF540D0F7C050DF41EA4035
:10130000FA4F0E9407204FE24395C058D649E8495A
:10131000F040D0F7C058D946E746FF4F0E9407205B
:101320004FE24395C054D244EF40F040D0F7C05C48
:10133000DD4BE04FFF4F0E9407204FE24395C05A1C
:10134000D648E140F040D0F7C056D947EE4FFF4FA6
:101350000E9407204FE24395C051D742E040F04041
:10136000D0F7C05FD84DEF4FFF4F0E9407204FE2EC
:101370004395C85ED340E0F7C851DC4F0E94072078
:101380004FE24395C456D040E0F7CC59DF4F0E945E
:1013900007204FE24395CA50E8F7C65F0E94072036
:1013A0004C2F405D0E94072008950FB70F93F894CB
:1013B00000E1992788277695679510F48C0F9D1F7B
:1013C00097958795779567950A95B9F70F910FBF10
:1013D00008950FB70F93F8948827991B01E1661FB2
:1013E000771F0A9519F40F910FBF0895881F991F51
:1013F000841B930B20F4840F931F8894F0CF0894E0
:10140000EECF06E00093620A0C943D0A07E00093D9
:10141000620A0C943D0A08E00093620A0C943D0AAB
:101420000AE00093620A0C943D0A0CE00093620A01
:101430000C943D0A0DE00093620A0C943D0A01E110
:101440000093620A0C943D0A02E10093620A0C9434
:101450003D0A06E10093620A0C943D0A0BE10093F9
:10146000620A0C943D0A0DE10093620A0C943D0A55
:101470000EE10093620A0C943D0A0E94940111242B
:101480000090620AD02C000CEEEBF4E1E00DF11DAF
:101490000591F491E02FEE1FFF1F0E94BB010E94F7
:1014A00094019BDB0FEF0DBF0AE00EBFAA27BB27FD
:1014B00000E00093630A0E9494010C945F00991E5F
:1014C000A81EAE1EBA1EC91ED51EDF1EEA1EF51EC0
:1014D0001A1F2B1F301F3C1F411F461F521F5D1F2D
:1014E000691F721F781F7F1F821F8E1F951F9E1FEF
:1014F000A91FB21FB91FB91FC21FD11FD21FF89455
:101500000024112485D096D00FEF0093640000933F
:1015100065000BB50E7F0BBDC0E0D0E066DE302F5E
:1015200000FF03C00BB501600BBD06E204B900E08B
:1015300005B900E007B900E008B908E008E00AB919
:1015400000E00BB900E00DB900E00EB900E000BB0F
:1015500000E001BB07B10F7307B906B1006C08B911
:1015600022982A9A0BB50F750BBD03E00093770AFA
:10157000E0EDF7E0F093760AE093750A112414BECB
:101580001EBA1ABC0BB501700BBD1092630ACDDAFE
:10159000112410926F0A1092700A01E000936D0AF4
:1015A00000E000936E0A01E00093670A54E0C8E18E
:1015B000D0E01BDE0F3F11F400271EDECF5FDF4FB0
:1015C0005A95B9F70E944820789401E003BF00E0E3
:1015D00000937C0000E000937B0007ED00937A000D
:1015E0000E94301400E00093680A0BB500FF0EC0A3
:1015F000CC245527B460A0DC01DA0E9494010E943B
:101600009401E4E9F8E30E94B70108952FD9089501
:101610000FB70F93A89504B7077F04BFF894009104
:1016200060000861009360000070009360000F91FB
:101630000FBF089550E860E050936100609361002F
:101640000895009164000E7F0093640007ED0093FD
:101650007A0000917A0004FFFBCF8BDA08950091A5
:10166000640001600093640084DA08950E941910F8
:10167000C1F0CF93DF9301E2C01680F411240C2C4B
:10168000C092650AC2ECD9E0C019D1090E9450028B
:1016900059930A94D9F7DF91CF9109C00E94540B56
:1016A000B0CE0E94540BB2CE00E00093650A00E079
:1016B0000093640A5091650A0C942110CF93DF9334
:1016C0000E94191011247091650A6091640AC1EC9E
:1016D000D9E0222361F0A1FF03C00C2D0A9539F057
:1016E0000E9450027A95751772F0652F02C0761726
:1016F00051F0C61BD10958810E943E026395609348
:10170000640A0C941E1082CECF93DF930AB50F7D2E
:101710000ABD0E94D50001E04ED05881DF91CF91E3
:101720000C942110CF93DF930AB500620ABD0E948A
:10173000D50002E040D058830C941E10CF93DF9365
:101740000AB50F7D0ABD0E94D50001E034D04DDD01
:10175000502FDF91CF910C942110CF93DF933AB5A6
:101760003F7B3ABD3AB530623ABD0E94D50002E0F7
:1017700022D0052F0F93C03004E0D0070F9111F055
:101780003BDD17C0E2EAFBE30E94BB0155273AB5F7
:1017900030643ABD219730DD5A9519F44EE20E942B
:1017A00007200F93C03000E0D0070F9199F70E94F7
:1017B00094010C941E100C1989F00E9450025F9342
:1017C0000E9450020AB505FF06C05F930E945002B6
:1017D000DF91CF910895D52FCF9108950E945002A7
:1017E0000AB505FF06C0052F0E945002C02FDD2755
:1017F0000895C52FDD270895EF93FF935AE00E94C7
:101800003E02CF920E94D500E0E3F8E16591759128
:10181000772311F40F9009C06517C1F711240F90B9
:10182000E2EEF9E0E019F1097083FF91EF9108957C
:10183000690A6A0A6B0A6C0A6F0A710A720A730AE9
:10184000740A00001124E50FF11D54910C9421102D
:10185000CF93DF9350E00E943E020E940F10CC20F5
:1018600049F058300AF004CE60E86093610050936C
:10187000610004C0509161000E943E020C941E1051
:10188000CF93DF93509166000E943E020E940F109A
:101890005093660050916600DF91CF910C94211017
:1018A000009164000F770093640055270E943E0268
:1018B0000E940F100E9457040CE050FD08E40093B2
:1018C000B8005098589A5198599A00270093B90037
:1018D00000950093BB0004E00093BC0004E9009372
:1018E000BC00A7D00895C7C0BCD0CF93DF93219789
:1018F0005881523261F45A91523219F00E943E02DC
:10190000FACF5F915F910E9452012C2D07C0DF91A9
:10191000CF910E941910222309F4AEC00FB70F9384
:10192000F894EF93FF931124E2EEF9E0C21AEC1958
:10193000F10973D952912A955093BB0004EC00939E
:10194000BC007CD00091B900087F083121F0003440
:1019500011F0083211F4222369F76BD9FF91EF914E
:101960000F910FBF66C07DD00E94191019F41BB5EE
:1019700014601BBD52D90FB70F93F894EF93FF93E8
:10198000112451E01BB512FD07C001E20E94500274
:10199000501712F04ED96EC0752F1BB512FD06C040
:1019A000E2ECF9E01092640A5093650A04EC60E5F9
:1019B0007A9519F404E868E57FEF0093BC003ED007
:1019C0005091B900587F56130BC05091BB001BB506
:1019D00012FD04C0529377FFEBCF06C00E943E0277
:1019E0001BB512FF1092650AFF91EF9122D90F915A
:1019F0000FBF1BB512FF1DC01BB51B7F1BBD08957C
:101A000030D0087F0093BC0004EA0093BC0016D0DD
:101A100010D0089526D004E90093BC000FEF009386
:101A2000BB0007D008955091BC0052FF1FC001D0E9
:101A300008955091B900587F0C942110EF93FF93B3
:101A4000E0EAFFE00090BC0007FC08C08BD83197AB
:101A5000C9F7EFD808E10093620A0FCDFF91EF912B
:101A600008950091BC0002FF01C0089503E10093B6
:101A7000620A03CDEECCD9CCF6CCA1D0CF93DF93C4
:101A800021975881523261F45A91523219F00E94D2
:101A90003E02FACF5F915F910E9452012C2D06C049
:101AA000DF91CF910E94191009F4DDCC0FB70F938D
:101AB000F894EF93FF931124E2EEF9E0C21AEC19C7
:101AC000F109ABD852915EBD0DB507FFFDCF5EB5F4
:101AD0002A95C1F7AED8FF91EF910F910FBF0895EE
:101AE0006ED09BD80FB70F93F894EF93FF93112408
:101AF0000E94191011F4552707C001E20E945002FC
:101B0000501712F096D8A5CC752F0EB4552341F47A
:101B10001EBC0DB507FFFDCF5EB50E943E020EC094
:101B2000E2ECF9E01092640A5093650A1EBC0DB510
:101B300007FFFDCF5EB552937A95C1F7FF91EF9104
:101B400078D80F910FBF0895009164000B7F009328
:101B5000640052E00E943E0262D20E945204550F7D
:101B6000550F34D00CB5037F052B0CBD089557D20B
:101B70000E9457040CB500620CBD50FD03C00CB5AB
:101B80000F7D0CBD08954BD20E944D04052E53705D
:101B90000CB5087F052B0CBD0DB501600DBD02FC19
:101BA00003C00DB50E7F0DBD089509D051E00E9410
:101BB0003E0235D2289A50FD01C0289808950CB5F0
:101BC00006FD08950AE10093620A57CC0091640073
:101BD0000B7F0093640004B1076004B9289A01E503
:101BE0000CBD0DB50E7F0DBD08955EBD0DB507FF93
:101BF000FDCF0EB508955EBD0DB507FFFDCF5EB5F7
:101C00000895AED0EF5DFF4F50810C942110A8D005
:101C1000EF93FF9304D2FF91EF91EF5DFF4F0F938E
:101C2000E73200E0F0070F9131F00F93E03300E06E
:101C3000F0070F91A9F4EF93FF93E3E0F0E009E0E0
:101C400007BF0491FF91EF9107FF0C942F0E05B78A
:101C5000006805BF05B7006805BF0C94300E5F70C3
:101C6000508308957DD0EF93FF930E94D5000E948A
:101C7000B1020E945002FF91EF91EF5DFF4F75C0DE
:101C80006FD0EF93FF930E94D5000E94B1020E9493
:101C90005002FF91EF91EF5DFF4F6BC061D0EF936A
:101CA000FF93BDD1FF91EF91EE5DFF4F50830895FB
:101CB00057D0E05EFF4F50810C94211051D0EF932C
:101CC000FF930E94D5000E94B1020E945002FF9132
:101CD000EF91EE5DFF4F49C043D0EF93FF930E9419
:101CE000D5000E94B1020E945002FF91EF91EE5D7B
:101CF000FF4F3FC035D0EF93FF930E94D5000E9465
:101D0000B1020E945002FF91EF91EE5DFF4F36C08D
:101D100027D0EF93FF930E94D5000E94B1020E944A
:101D20005002FF91EF91EE5DFF4F28D00E94D40545
:101D300025D0089515D0EF93FF930E94D5000E94FF
:101D4000B1020E945002FF91EF91E05EFF4F0081CF
:101D5000052350E000230FB601FE51E00C94211042
:101D6000515403E0509FF00108950081052B00833A
:101D7000089550950081052300830895008105276B
:101D800000830895CF93DF934AD1CC2019F4652FB7
:101D9000552703C05F93652F5F9111241092820035
:101DA00050FF01C009C0009180000168259A10927F
:101DB00089006093880008C0009180000162269A23
:101DC00010928B0060938A000093800009E00093DA
:101DD00081000C941E10CF93DF9321D1752F0E94A8
:101DE0005002CC2021F4672F752F552704C07F9314
:101DF000652F752F5F9111241092820050FF01C052
:101E000009C0009180000368259A7093890060934F
:101E1000880008C0009180000362269A70938B00AE
:101E200060938A000093800009E0009381000C9485
:101E30001E10002700938100009380000093820011
:101E40000895F2D0509F11200AB507FD11F4502DCE
:101E5000F8C00FE00093620A10CB5F93E0D05523E7
:101E60000AB407FCC1F0052F0E945002652F7727A6
:101E700059E0661F5A9541F0771F701B18F4700FD8
:101E80008894F7CF0894F5CF5F915F3011F4562F07
:101E900001C0572FD6C001E10093620AEECAC4D038
:101EA000500F0AB507FD08F0CCC00FE00093620A9E
:101EB000E4CABAD0501B0AB507FD08F0C2C000E161
:101EC0000093620ADACAB0D050170FB701FF10C0F2
:101ED00011C0AAD050170FB701FF0CC009C05F9303
:101EE000A3D06F916C3111F4501701C0051710F099
:101EF000552750FD51E0A5C00E948C0F662319F0B4
:101F000056956A95E9F79DC00E948C0F662319F0DB
:101F1000550F6A95E9F795C08CD00E945002222394
:101F200011F461E008950E944D04652F0E94500253
:101F300008957AD0502385C077D0502B82C074D0BA
:101F400050277FC06CD050957CC069D0519579C026
:101F500066D0529576C063D052955F7072C004EB24
:101F60005091660A579508F450275093660A0E94CC
:101F70003E020E94D500089552D05F7062C04FD0DB
:101F800000E8551F0795E8F7502F5BC0E89401C0A3
:101F90006894EF93FF9311240E94191041F400906C
:101FA000650A002009F432CAE2ECF9E007C000E259
:101FB00020170AF026CA022EE2EEF9E026F00DD034
:101FC000C21A2C2D05C019D0572F0E943E02562F41
:101FD0000E943E02FF91EF91089550E07CE802914B
:101FE00068E0302F352756950695369508F4572723
:101FF0006A95B9F70A9499F708957FEF6FEF08E0B3
:10200000202E52917527660F771F20F400E170276C
:1020100001E260272A94B9F70A9489F708950E948B
:10202000D5000E9450020895FADF052F0E94500249
:10203000089522270E94D50022230895DF91CF9191
:1020400008950E943E020895CF920E94D500552720
:102050000F910C1911F00E945002F3DA00E0009386
:102060007B0000917C00007C60917B006F7D609321
:102070007B0055FF04C060917B00606260937B0031
:102080005F73052B00937C00583052F457700E9408
:10209000B4020E94500200917E00502B50937E00AB
:1020A0005527662770E1F89407ED00937A000091B8
:1020B0007A0004FFFBCF8091780090917900580F4F
:1020C000691F7A9589F7789476E0669557957A95A1
:1020D000E1F70E943E02C3DA089555270E943E02AE
:1020E0009EDF0E945704ADDA00917C000F7350FD13
:1020F000006050FF006C00937C000E94C7050895AB
:1021000052E00E943E028BDF553008F0A2C90AB5AA
:10211000087F052B0ABD089594DA0DD0552700B627
:1021200005FC51E000B7006800BF99DA0E943E024A
:102130000E94D500089500E000937A0000E100932A
:102140007A0050917B005F7B50937B0000B7087052
:10215000006500BF5AB552FF02C054E011C0509153
:102160007B00506450937B005AB5537000917C0003
:10217000007C052B00937C000E94B402CA942A952F
:1021800050937F000E94C0050895F39A1895552733
:102190000E943E0244DF0E944D040091670A087FBE
:1021A000502B5093670A00916400077F00936400EE
:1021B00000916F000D7F00936F0006BB00938200BB
:1021C0000093800000938100089551E00E943E0238
:1021D00026DF0E9457040091670A0F7750FF01C065
:1021E00000680093670A0895CF93DF936FEF552738
:1021F00066BB5093800050938100509382005093AF
:1022000085005093840056980E940D06009172003C
:102210000F9300E0009372000091670A702F7078AE
:102220008894771F771F76600770EAE1F1E1E00F8D
:10223000F51F09941FC006C005C004C008C007C030
:1022400006C00CC0033008F005E0002E09C06AE0AB
:102250000350033008F005E0069F02C004E6002E9C
:102260005093850050938400709381000E94D405A0
:102270000A94E1F70F91009372000E9419065091A1
:10228000840060918500002700938100B09906C00A
:10229000C1EAD9E06883DF91CF91D3CEDF91CF91AE
:1022A0000EE00093620AE9D8BADE352F88940AD08E
:1022B0000895B5DE352F089405D008950E94951134
:1022C000532FBFCE63D0F59807B10F7307B95AD01B
:1022D00079E0F59923C0379BFCCF3E98469A10F0E1
:1022E0003E9A4698F5991AC03F9A47980E94C705AA
:1022F0003F98479A0E94C7053799F4CF18F03E9847
:10230000469A02C046983E9AF59908C0379BFCCF82
:102310003E98469A331F7A95E1F604C0ECE3FFE35A
:102320000E94B70175D92AD0089530D007B10F7334
:1023300007B928D079E0F59919C03799FCCF88946E
:10234000369B08C0089447983F9AF5990FC0369974
:10235000FCCF06C047983F9AF59908C0369BFCCF42
:102360003F98479A331F7A9531F705C0ECE3FFE3B6
:102370000E94B7015FEF4CD901D008953F983E9875
:10238000479A089506B1006C06B90895F59808E1DA
:102390000093600005E400936000A89508953FDE77
:1023A000952F0E945002852F11DC289853E01DDCE8
:1023B0000E948E1220DC289A44CE31DE952F0E9496
:1023C0005002852F03DC289856E00FDC289A52E053
:1023D0000CDC0E948E120E94500207DC289A0E9498
:1023E000C70555E002DC07DC289A5523C1F708959C
:1023F00055270E943E020E94D50080916F0A90915D
:10240000700AE0DF8F5F9F4F9093700A80936F0A8E
:10241000089500240092700A00926F0A089551E016
:102420000E943E02FCDD552319F050936D0A089579
:1024300010C8F5DD552359F1952F88270E945002C9
:102440000C01952FC3DB0E94C705289853E0CDDB14
:102450000E948E12C00120906D0ACDDB0E943F09C0
:102460000E94BD02019779F02A9429F40E949401F8
:1024700020906D0A03C04CE20E940720B0FFEDCF10
:102480000E948C05BE7F289A0E94940108950C94A6
:102490001F0A55270E943E02C2DD50936E0A08951E
:1024A00055270E943E0251E00E943E02B8DD5523AE
:1024B00011F40C941F0A04E0059F0E945002952F0E
:1024C000882784DB289856E090DB289A52E08DDB41
:1024D0000E948E1250916E0A70E487DB7A95E9F7BC
:1024E000289A0E94B90555E080DB85DB289A5523A0
:1024F000C1F7805C9F4FCF93DF93E00121970E01DE
:10250000DF91CF9101F708956F7089DD0E94520429
:10251000E8E0F5E297D908950C94150A592F65DB88
:10252000582F63DB089555270E943E0278DD55231E
:10253000C9F05A3010F00C94290AA89504B7077F07
:1025400004BF052F5770000F000F00720064502B5E
:10255000F89408E100936000509360000EB3077098
:102560000EBB13C06ED860917B006F7B60937B00C5
:102570005AB551FD06C000E100937A0000E40093D3
:102580007B0060B7606160BF6AD87894889500006E
:102590005EB3507C21F0F799F798F699F698009180
:1025A000C80007FD0895F59B02C0F5980895F39BB8
:1025B000ECCFF3980895CF93DF9355270E943E0206
:1025C0002EDD0E94570450FD04C057D05D985598E9
:1025D00007C070D000270093A00A559A5D9827D0B5
:1025E0002DCD7F937FB77F936F935F93EF93FF938F
:1025F000FFE6E091A00A50919D0A60919E0A7091B9
:102600009F0AE50EF61EE71F5491E093A00A50FFC3
:1026100003C000005D9A03C05D9800000000FF91B8
:10262000EF915F916F917F917FBF7F9118951124FA
:10263000009165000F7E0093650019BA1092BE00EC
:102640001092C0001092C1001092CF001092D000E2
:102650001092C2001092C3001092C40004E80093CC
:10266000D10000E00093C00001E00093C1000091A0
:1026700072000064009372000895112419BA109238
:10268000C0001092C1001092BE001092D0001092B3
:10269000CF001092C2001092C3001092C4000091AB
:1026A00072000F7B0093720000916500006100933F
:1026B00065000895CFE9D9E00E94A70500EF102E2C
:1026C000088001200294002029F08CEC9CEC04EDA1
:1026D0003CD0F9CF099012940120002029F08EEA15
:1026E00097E405E132D0F9CF0880129401200294DA
:1026F000002029F084EC90E202E027D0F9CF099085
:1027000012940120002029F08AE796E300E01DD012
:10271000F9CF0880129401200294002029F082E76A
:1027200095E000E012D0F9CF08801294012000203B
:1027300029F08BE890E000E008D0C9F750939D0A9B
:1027400060939E0A70939F0A0895581F691F701F17
:102750000A9408950F93CF93DF93EF93FF93FFB7FE
:10276000FF93992011F09A9416C0F091690AE091B4
:102770006A0AD0916B0AC0916C0ACF5FDF4FEF4FAE
:10278000FF4FE0936A0AF093690AC0936C0AD093F2
:102790006B0A9090680AE091750AF091760A0F939F
:1027A000E03000E0F0070F9149F03197F093760A9E
:1027B000E093750A0BB500640BBD03C00BB50F7B2E
:1027C0000BBDF79AFF91FFBFFF91EF91DF91CF9182
:1027D0000F9118950E94D5000E9450020E94520449
:1027E000552311F450E005C0513011F45AE001C0F6
:1027F00054E65093680A952E0895CF93DF93C9E667
:10280000DAE00027099309930993088317CC4F93C3
:10281000CF93DF93EF93FF93C9E6DAE0A0FD04C006
:102820005B810E943E020CC0F091690AE0916A0A45
:10283000D0916B0AC0916C0A0E9469090E949401B0
:10284000FF91EF91DF91CF914F9108956C6B6A6981
:10285000E6DB0E945204ECE4F8E20E94220C0895A8
:10286000CF93DF93C9E6DAE0002709930993099330
:102870000883009164000F7D00936400002705BB6E
:1028800006BD04BD07BD05BD009508BD09EF07BD28
:1028900002E004BD03E005BD00916E0002600093FC
:1028A0006E00CCCBCF93DF930E94DA147091710A43
:1028B0006091730A5091740A772311F4662707C058
:1028C0000BB505FF0C947014563008F063950BB5EA
:1028D00007FF6F77562F0E943E02DF91CF91089538
:1028E00067FB6F770AE0609F0027050E101EE0016E
:1028F000772769E00E94D5096E5F7F4F332742E357
:102900000E94E90926F0605E7F4F0C948A146052A1
:1029100070406195562F0E943E02DF91CF9108953D
:102920000C94150ACF93DF930E94DA145091710A28
:102930000E943E02DF91CF91089555270BB506FD09
:1029400051E07FCB55276AB565FD51E00E943E02FC
:1029500066DB0E943E020E94570450FF0C94B414A0
:102960000BB500620BBD08950BB50F7D0BBD08952F
:1029700055276AB567FD51E00E943E0250DB0E9478
:102980003E020E94570450FF0C94CA140BB5006815
:102990000BBD08950BB50F770BBD089551E705C02A
:1029A00052E703C053E701C054E70E943E020E9471
:1029B000D50008950BB506FD08957091770A772329
:1029C00019F403E00093770AE894009191000770EE
:1029D00069F0009191000F93009171000F930091A5
:1029E00092000F93009190000F93689400E0009381
:1029F00091007ED003E0229A2A980E94C7050A958A
:102A0000E1F7C1E7DAE0002400929500009294001B
:102A10008AE095E0552766272A9A229802E00093DB
:102A2000910088950000F59B13C07FD00024009290
:102A3000720A0092710A0091770A0A950093770A48
:102A40000FB701FF0895ECE3FFE30E94B70108957B
:102A50001A9B05C00092950000929400E2CF7091FD
:102A600094007C3818F400C0889401C008943A950A
:102A7000551F8A95B1F69A9521F05993650F88E014
:102A8000D0CF53D0561751F000240092720A009212
:102A9000710AE2E5FFE30E94B7010895C2E7DAE0B8
:102AA0009091710A8091720A0E946915C4E7DAE078
:102AB0009091730A8091740A0E94691508950E948A
:102AC000190600916E00026000936E00F5980C9458
:102AD0003D0A97FB9F770E940809052F0F70088316
:102AE0002197507F52950E944C0957F958830895B9
:102AF00008E10093600000E400936000A895F59859
:102B000001E00BBB01E00093680004E000936B0060
:102B100000916E000D7F00936E0000916500077FAD
:102B2000009365000E940D0608950E9419060E94F8
:102B3000080B2EF000E0009391000C94AB150F9160
:102B4000009390000F91009392000F9100937100F9
:102B50000F9100939100C0EDD7E0D093760AC09317
:102B6000750A00916E00026000936E0000E0009311
:102B7000680000E000936B0001E00BBB089526D8CD
:102B8000249A2C9851E00E943E020E943E020E942C
:102B90003E024FDA01F1213019F02330E1F013C287
:102BA0000E945002552391F0533009F00AC2EAE026
:102BB000FCE255912590222021F1506216D85591C2
:102BC00014D82A94E1F7289A3196F3CF50E20DD821
:102BD00058E0DDD1D8C156E208D80E945002529583
:102BE00056955660D4D155E200D80E9450025F77C6
:102BF000CED150E20E94F50D0E9450025A955A60C3
:102C0000C6D155270E943E02AEC100010800010155
:102C10003F0002010300030103000401030005015A
:102C2000020006010E00070170000A05E7E7E7E76A
:102C3000E7000B05C2C2C2C2C2000C01C3000D01F5
:102C4000C4000E01C5000F01C6001005E7E7E7E765
:102C5000E70011010000120100001301000014013F
:102C6000000015010000160100001C0100001D01FC
:102C7000000000000E94DF0D0E94FB0D289A56FD07
:102C800002C05FEFDEC95E705695752F5395506197
:102C900082D1252E1124CF93DF93C2ECD9E010927C
:102CA000640A5093650A2C9851E60E94F50D0E9423
:102CB000FB0D5A932A94D9F7289A0E94FB0D289A63
:102CC000652F5E705E3031F4607457E20E94F50D3E
:102CD000562F5DD1DF91CF91572FB3C90E94DF0DE1
:102CE000CF92CF92A6D90E94FB0D289A54FF05C01F
:102CF00057E20E94F50D50E14AD12C982223A1F011
:102D0000222E11240F90EF93FF93E2EEF9E0E019E9
:102D1000F10950EA0E94F50D52910E94F50D2A9496
:102D2000D9F7289AFF91EF912C9A0E94B9050E9439
:102D3000B9052C985FE00E94C7055A95E1F70E94FB
:102D4000FB0D289A54FF02C053E004C057E123D181
:102D500050735295CF9075C90E94DF0DEF93FF938A
:102D6000CF93DF9366D909F42EC1622F6A95C2EE24
:102D7000D9E03A911124E0EDFDE2032E000CE00DC4
:102D8000F11D05901490002009F41BC153E003D1FC
:102D90005E5F752F011409F4702D1616C2F06015D0
:102DA000B2F06717A1F450E3373019F0532F565F94
:102DB00050620E94F50D0E9450020E94F50D6A9526
:102DC000D1F7289ADF91CF91FF91EF91DCC0FBC042
:102DD00003050305010101010101010100000305D3
:102DE0000E94DF0D26D909F4CEC0223029F0D9D0B7
:102DF00053955061D0D025C9DAD0752FD2D0352F58
:102E0000252E239466270894661F2A94E9F752E03A
:102E1000C2D0772311F0652B03C060956F736523D3
:102E200052E20E94F50D562FB2D0532F53955063A6
:102E30000E94F50D572FABD0A6C0C3C00E94DF0D76
:102E400055270E943E02EBD802E005176AF051FDBB
:102E500002C050FF07C02C9A51FF95C00E94B905CF
:102E60000E94B9052C988FC0ACC00E94DF0DE1D83C
:102E700021F455E00E94F50D86C00E94500257FDD6
:102E8000A0C05F9355E20E94F50D5F9180D07BC09A
:102E90000E94DF0DCED829F456E07DD056705695AD
:102EA000D0C80E9450020E945204550F652F56E070
:102EB00072D0597F652B56E20E94F50D562F67D0D0
:102EC00062C00E94DF0DB5D839F456E064D0587066
:102ED000569556955695B5C80E9450020E945704C3
:102EE000550F550F550F652F56E055D0577F652B61
:102EF00056E20E94F50D562F4AD045C00E94DF0DC4
:102F000098D811F40C94330A0E945002652F0E9445
:102F100050020DE1051732F050620E94F50D562F58
:102F200036D0089501E00093620A0C943D0A0E9495
:102F3000DF0D57E10E943E0272D80DE150170AF0F2
:102F40003CC00E94F50D1FC00E94DF0D55270E9456
:102F50003E0265D8752F552331F451EE18D052EE4C
:102F600016D073E003C050EE572B11D057E013D0AA
:102F7000652F57E20E94F50D70FD606371FD60647E
:102F8000562F05D000C00E94FB0D289A5AC80E94F7
:102F9000F50D289A08950E94F50D0E94FB0D289AC0
:102FA00008950E94500205E005175AF008950E9406
:102FB000500200E205172AF008950C94150A0C94AB
:102FC0001A0A0C94290A0C94330A0E940D060FB7B2
:102FD0000F93F8942D9A259A0E94C7052D9802E325
:102FE0000E94B9050A95E1F72D9A259806E00E94FE
:102FF000B9050A95E1F751E003B105FD55270E9497
:103000003E0202E30E94B9050A95E1F70F910FBF56
:103010000E9419060E94D50008950BD811F40C9453
:10302000330A0E940D060FB70F93F894EF93FF93A6
:103030001124E2EEF9E0C21A58E0252E529157957C
:1030400010F456D001C060D00E94B2052A94B9F79E
:103050000E9490182A9581F7FF91EF910F910FBF71
:103060000E94190608950E940D060FB70F93F89459
:103070000E94191021F41CD00E943E0214C0CF936C
:10308000DF9311240E945002752FC2ECD9E01092F8
:10309000640A5093650A0CD05A930E9490187A954E
:1030A000D1F7DF91CF910F910FBF0E9419060895BC
:1030B00008E0202E09D0889400FD089457950E94BE
:1030C000B2052A94B9F708952D98259A0E94B20561
:1030D0002D9A25980E94B2050FEF33B135FF0027D6
:1030E0000F930AE00E94B2050A95E1F70F91089547
:1030F0002D98259A0E94B9052D9A259806E00E94E0
:10310000B9050A95E1F70895259A2D9807E00E94E0
:10311000B9050A95E1F72D9A25980E94B205089500
:103120000E94B2050E94B2050E94B205089555277B
:103130000E943E020E940F100E945704E2EEFAE342
:103140000E94BB0150FF06C0EAEEFAE30BB508602F
:103150000BBD05C0E0EFFAE30BB5077F0BBD0E9486
:10316000BB010895EEE4FBE30E94BB019DD000E1AA
:10317000202EE0E0F0E08BD07FD00F93E03001E034
:10318000F0070F9149F00E942A20B0FD21C00E9453
:10319000D40500E1202EEFCFBE7F8DC0EEE4FBE32F
:1031A0000E94BB0181D000E1202EE0E0F1E06FD071
:1031B00063D00F93E0300BE0F0070F9149F00E94CD
:1031C0002A20B0FD05C00E94D40500E1202EEFCFDB
:1031D000BE7F0E940906E8E6FBE30E94BB018091E6
:1031E000610A0E948A018091600A0E948A010E94FD
:1031F000940161C0EEE3FBE30E94BB0155D000E106
:10320000202EE0E0F0E043D0F2BDE1BDF89A80B5B9
:103210000E948A0140E20E940720EF5FFF4F2A943C
:1032200099F70E9494010F93E03004E0F0070F91AA
:1032300051F00E942A20B0FD06C029D00E94D4057A
:1032400000E1202EE1CFBE7F36C00E940906EAE2EF
:10325000FBE30E94BB0100E1202EE8E8F9E00F93B8
:10326000E23A09E0F0070F9128F411D005D000E10F
:10327000202EF5CF20D0089581910E948A0140E24E
:103280000E9407202A94C1F70E94940108958F2F6D
:103290000E948A018E2F0E948A014AE30E94072021
:1032A00040E20E9407200895E6EFFAE30E94BB0186
:1032B0000E94090608950E9409060E94940108953B
:1032C0000E940F10852F0E945002952F0E945002DD
:1032D0005F930E9450025F930E945002052FFF915E
:1032E000EF910E94050608954AD0EF93FF93EAE01C
:1032F000FCE30E94BB01E8E2FCE30E94BB01FF91FA
:10330000EF918F2F0E948A018E2F0E948A010E94C6
:1033100094010E94940111240E940A350E94DB0549
:103320000091E80000FFFCCF0E944534F8941DBADC
:1033300010BE1FBA10926E0010926F0010927100B2
:10334000109272001092C9001092BC0010927A0084
:1033500014B817B81AB81DB810BA15B818B81BB8F1
:103360001EB811BA01E004BFF89408E100936000B0
:1033700009E300936000789488950000FFCFE3E0B4
:10338000F0E009E007BF049106950370003019F4DE
:10339000E0E0F8E314C0013019F4E0E0FCE30FC012
:1033A000023019F4E0E0FEE30AC0033019F4E0E073
:1033B000FFE305C00BE00093620A0C943D0AEF9313
:1033C000FF9308E0102EEE1FFF1F05910F3F29F01D
:1033D000003019F0FF91EF9108951A94B1F705E1CB
:1033E0000093620A0C943D0A4C495320D702484589
:1033F0004C50A70452554E20FE04534156454207F7
:103400004C4F4144940750524920020350525820D7
:103410001403505242202503454D49543004464F71
:1034200052206C0350544F207F034E4558546E0376
:1034300046524520E6024E45572036045049462064
:103440006303544845206903454E44208103525389
:103450005420DA03434647205C04501A1D204603DB
:1034600050501E206F0F50501C206F0F501C1E20FC
:10347000690F50011D20690F50501D204F035050FF
:103480000B204F0F50500D20590F50500A20210F84
:1034900050500F202D0F4D4F44202D0F5050052020
:1034A0002D0F505004208303505007209703505095
:1034B00002203A0344415441360B524541445E0BCD
:1034C00052455354570B505040207F034C535220C9
:1034D0007C0F4C534C20840F50500620990F414EC6
:1034E0004420990F50505C209C0F504F52209C0F4D
:1034F00050505E209F0F584F52209F0F434F4D203A
:10350000A20F50500120A20F4E454720A50F535740
:103510004150A80F4E424820AB0F4E424C20BC0FEA
:1035200052455620BF0F524E4420AF0F414F5620F8
:10353000C80343524320C60F43525720C80F444587
:103540004C41B803474F54201E04474F53202104D9
:103550005245542024044B455920D41F434C4B2042
:10356000280C4F534320400C41434F208C104143C3
:103570005320801045524120CF07494E4954C4077B
:1035800043415420F00752454D202B045045454BF4
:10359000840B504F4B45920B454552209E0B4545A1
:1035A0005720AD0B56504720FC0B534C5020931224
:1035B00044465720DD1144465220CF1144464C204A
:1035C000F811444658200912444646200F1244463A
:1035D00044201912444656204912444649205012AC
:1035E00044464120851252464920BF15524641208B
:1035F000AC165246432035175246502048175246C3
:103600004220F016524645201E17524654206E1690
:10361000524658203A1652464620A4175246442095
:103620006117524657207E1752465220971744483A
:1036300054205214444848209214444852209D1467
:1036400044485520A21444485320B8144448492003
:10365000CE1444484420D01444544920D214445435
:103660004420D41452544920EA1352545220FD13DA
:103670005254502007145254432028144F574920C5
:10368000E5174F5757200D184F57522033184F4406
:103690004220070E49444220010E53444220320E7C
:1036A00043444220400E4F5042204E0E534242208F
:1036B0005E0E434242206C0E584242207A0E504227
:1036C0004220880E494E4220580E494242209A0E0E
:1036D0004F444320070E49444320010E53444320E6
:1036E000320E43444320400E4F5043204E0E53426F
:1036F00043205E0E434243206C0E584243207A0E14
:1037000050424320880E494E4320580E49424320E0
:103710009A0E4F444420070E49444420010E53445E
:103720004420320E43444420400E4F5044204E0E5D
:10373000534244205E0E434244206C0E58424420C3
:103740007A0E50424420880E494E4420580E494279
:1037500044209A0E4F444520070E49444520010E4F
:1037600053444520320E43444520400E4F504520DF
:103770004E0E534245205E0E434245206C0E584289
:1037800045207A0E50424520880E494E4520580E5D
:10379000494245209A0E4F444620070E4944462090
:1037A000010E53444620320E43444620400E4F50F3
:1037B00046204E0E534246205E0E434246206C0E7B
:1037C000584246207A0E50424620880E494E4620E6
:1037D000580E494246209A0E445352455E114453B6
:1037E000434F591144534445541149434720C7108E
:1037F00049434520E51049435020F41050574520D7
:10380000EB0E50574D20C20E50574F20190F444415
:103810005320DB12414443202410414452206D10B8
:1038200053504D20A40D53504F20B70D53504320FB
:10383000C30D535057203D0D53505220700D53501F
:103840005320D50D54574920500C54575320000D88
:10385000545750200A0D54575720740C5457522077
:10386000B30C54574220130D444542209718445539
:103870004D50CE185644554D25194944554DB21852
:103880004544554DFA1846494C4C6019575446204A
:1038900095040000F9363DFAF84174746F424153C3
:1038A000494320666F722041546D6567613332551C
:1038B00034204031364D487A20FAF85665723A2065
:1038C000322E3334204275696C6420636F64653A2C
:1038D0002032303137303230372E32303238FAF948
:1038E000363D0000F8456E68616E63656D656E7407
:1038F00073206279204B2053636F7474205669746F
:10390000616C6520286B73765F70726A40676D78B2
:103910002E636F6D29FAF841546D65676133325536
:103920003420706F7274202843293230313220FAEB
:10393000F8312D57697265285229FE32303133FA39
:10394000F86E524632344C3031282B292052462012
:103950005472616E73636569766572FE323031331D
:1039600020FAF84448542048756D696469747920D8
:10397000616E642054656D7065726174757265FE68
:103980003230313320FAF84545502046696C6520C5
:1039900053797374656DFE32303133FAF8536C65C8
:1039A00065702C2052544320616E64204461746120
:1039B0002D66696C65FE3230313220FAF854574971
:1039C0002F5350492F444453202620496E7075745C
:1039D0002043617074757265FE32303131FAF93608
:1039E0002DFAF84F726967696E616C20636F6465C8
:1039F00020284329323030322062792052696368AE
:103A00006172642043617070656C73FAF868747455
:103A1000703A2F2F70726F6A656374732E636170D2
:103A200070656C732E6F7267202070726F6A6563A9
:103A300074734063617070656C732E6F726720FAE7
:103A4000F9362DFAF85553422053657269616C209E
:103A5000492F4F20284329323030382C3230313032
:103A600020504A52432E434F4D2C204C4C4320FAB9
:103A7000F8687474703A2F2F7777772E706A7263B4
:103A80002E636F6D2F7465656E73792F20FAF9368A
:103A90002DFAF8416C6C2072696768747320616E4E
:103AA000642072656D656469657320657870726500
:103AB00073736C79207265736572766564FAF84E7B
:103AC0006F7420666F7220636F6D6D6572636961DC
:103AD0006C20757365FAF9363DFA0000F9352DFA58
:103AE000000044656275672000006F6E20FA0000D8
:103AF0006F6666FA0000F906203030203031203041
:103B000032203033203034203035203036203037EA
:103B100020303820303920304120304220304320BE
:103B20003044203045203046FA00566172696162A7
:103B30006C657320696E2052414D3AFA000045458C
:103B40005020436F6E74656E74733AFA00005052E1
:103B50004F4752414D204D656D6F727920436F6E16
:103B600074656E74733AFA004E65787420617661FC
:103B7000696C61626C65206C6F636174696F6E3A29
:103B80002000FB3A2050726F6772616D20746F6F76
:103B9000206C6172676520666F7220454550212058
:103BA000FA0045726173696E6720454550005361A4
:103BB00076696E672046696C6520232000004C6F93
:103BC0006164696E672046696C6520232000456D3D
:103BD00070747900206279746573203E200042720F
:103BE00065616BFA000020627974657320757365F6
:103BF000642E20200000206279746573206672654F
:103C0000652E20FA000008200800FA457869742023
:103C1000796F7572207465726D696E616C20707257
:103C20006F6772616D2E0000FA496E766F6B696E78
:103C30006720626F6F746C6F616465722028696EB3
:103C40002038207365637329206174203078000068
:103C5000F834322069732074686520416E7377658B
:103C60007220746F2074686520556C74696D61747E
:103C700065205175657374696F6E20FAF86F662060
:103C80004C6966652C2074686520556E697665728E
:103C900073652C20616E642045766572797468695D
:103CA0006E6720FAF828687474703A2F2F77777748
:103CB0002E626574656D756E61682E6F72672F6612
:103CC0006F72747974776F2E68746D6C29FA0000C6
:103CD000F8536F204C6F6E672C20616E642054681F
:103CE000616E6B7320666F7220416C6C2074686526
:103CF0002046697368FA000056616C756520657826
:103D00006365656465642072616E67650000206E9E
:103D10006F74200020737570706F727420284329AF
:103D200000004C696E65202320004572726F723A64
:103D30000000FB556E6B6E6F776E20636F6D6D616B
:103D40006E64206F72206F70657261746F722E00E6
:103D5000FBFC206F6620303A32353500FB50726F25
:103D60006772616D206D656D6F7279206973206671
:103D7000756C6C00FB436861726163746572FD6110
:103D8000207265636F676E697A6564207479706507
:103D90002E00FB427566666572206C696D69742041
:103DA00065786365656465642E00FB426164207616
:103DB00061726961626C65206E616D652E00FB54F5
:103DC0006F6F206D616E7920617267756D656E74BD
:103DD000732E2000FB56616C756520776173FD6161
:103DE0007661696C61626C652E00FB4D6163686988
:103DF0006E6520737461636B206572726F7220FA56
:103E0000F9092046756E6374696F6E7320746F6F65
:103E100020636F6D706C6578206F722063616C6CCD
:103E200073206E657374656420746F6F20646565BC
:103E3000706C7900FB474F544F206F7220474F53EF
:103E400055422064657374696E6174696F6EFD66B6
:103E50006F756E642E00FBFC206F6620303A3700D1
:103E6000FB4C696E65206E756D626572203E203375
:103E70002064696769747300FBFC206F6620303A28
:103E80003100FBFC206F6620303A3300FB49435081
:103E9000207265676973746572206F766572666CEF
:103EA0006F772E00FB41726974686D6574696320D9
:103EB0006F766572666C6F772E00FB41726974686D
:103EC0006D6574696320756E646572666C6F772EBC
:103ED0002000FB446976696465206279207A657206
:103EE0006F2E2000FB456D7074792046696C65006B
:103EF000FB545749FD656E61626C65642E00FB31B1
:103F0000343A2000FB3A204E6F20426F6F742D6CC4
:103F10006F6164657220666F756E642EFB53706509
:103F200063696669656420FC2E00FB53657420415B
:103F30004320526566203E20302E2000FB446576EB
:103F4000696365206E6F6E2D726573706F6E736539
:103F50002E00FB44657669636520636865636B7357
:103F6000756D2E00FB53504920FD656E61626C65D6
:103F70006400FBFD612062696E617279206E756D6F
:103F800062657200FB496E76616C6964206E756DC6
:103F9000626572206F6620617267756D656E7473FD
:103FA0002E00000000001895889500008091A80A56
:103FB000882381F02F931F9211240E947A341F903E
:103FC0002F91882389F32F931F9211240E94563436
:103FD0001F902F91582F533009F4B1600C94211089
:103FE00003B7016003BF7894889500008091A80A08
:103FF0008823B1F32F933F931F9211240E945634CC
:104000001F903F912F91992371F7382F08951F9298
:1040100011249F932F932091A80A222321F42F91FA
:104020009F911F9008950E942A20B1FF0C941D209B
:104030000E947A348823E1F3BD7F3F934F93842F0E
:104040000E94A7348823D9F74F913F912F919F91D8
:104050001F9008958091A80A8823C9F02F931F927A
:1040600011240E947A341F902F91882309F4089517
:104070002F931F9211240E9456341F902F91082FC6
:10408000033111F4B2600895033009F4B16008956A
:104090000E9445340E94DB050E94DB050E94253406
:1040A0000E94E2050FE011E60BB400FE02C001E041
:1040B00010E6202EF598A89508E100936000109373
:1040C000600088950000F5990DC08091A80A8823AA
:1040D000C1F30091A90A01FFF4CF0E9494340E9419
:1040E0000A350AC02A9431F70E94080BF5990E94FC
:1040F00045340BB500FFD2CFA8950E94080BF59868
:02410000089520
:106840008091E80080FFFCCF0895809165008F77EC
:106850008093650081E08093D70080EA8093D80020
:106860008AE482BF82E189BD09B400FEFDCF80E9E0
:106870008093D8001092E0001092A80A1092A90A02
:106880008CE08093E2007894089511241092E20045
:1068900081E08093E0001092D80019BC1092A80A01
:1068A0008093AC0A08958091A80A08958FB7F89450
:1068B0009091A80A992369F093E09093E9002BE660
:1068C0009091E80095FD09C092FF03C02093E80075
:1068D000F7CF8FBF2FEF3FEF0BC02091F1009091CA
:1068E000E80095FD03C09BE69093E8008FBF30E081
:1068F000C90108952FB7F8948091A80A882389F0D8
:1069000083E08093E9008091F200882359F490910C
:10691000E80092FF07C095FD05C09BE69093E80054
:1069200001C080E02FBF08958091A80A882371F0EC
:106930008FB7F89493E09093E9009BE602C09093A0
:10694000E8002091E80025FDFACF8FBF08959091CF
:10695000A80A9923D1F19FB7F89424E02093E90085
:106960002091AB0A222341F02091E80025FD02C0CE
:106970009FBF2BC01092AB0A2091E400275E34E049
:106980004091E80045FD12C09FBF9091E40092172E
:1069900021F481E08093AB0A18C09091A80A992352
:1069A000B1F09FB7F8943093E900EACF8093F100FB
:1069B0008091E80085FD03C08AE38093E80085E0CC
:1069C0008093AA0A9FBF80E008958FEF08958FEF0C
:1069D00008959091A80A9923D9F09FB7F89424E0DC
:1069E0002093E9002091E80025FD03C09FBF8FEFB1
:1069F00008958093F1008091E80085FD03C08AE34B
:106A00008093E80085E08093AA0A9FBF80E0089504
:106A10008FEF08958FB7F8949091AA0A992341F0C7
:106A200094E09093E9009AE39093E8001092AA0A08
:106A30008FBF08956091A00A7091A10A8091A20A67
:106A40009091A30A08958091A40A08958091A50ABF
:106A500008958091A60A08958091A90A08959FB784
:106A6000F8942091A80A222339F022E02093E9002B
:106A70002091E80025FD03C09FBF8FEF089521EA14
:106A80002093F10020E22093F1001092F100109287
:106A9000F1001092F1001092F10021E02093F1003A
:106AA0001092F1008093F1008AE38093E8009FBF89
:106AB00080E008951F920F920FB60F9211248F93CA
:106AC0009F938091E1001092E10083FF11C010922A
:106AD000E90091E09093EB001092EC0092E190932A
:106AE000ED0098E09093F0001092A80A1092A90A85
:106AF00082FF13C08091A80A882379F08091AA0AA6
:106B0000882359F081508093AA0A882331F484E0C5
:106B10008093E9008AE38093E8009F918F910F9022
:106B20000FBE0F901F9018951F920F920FB60F92E5
:106B30001124EF92FF920F931F932F933F934F9344
:106B40005F936F937F938F939F93AF93BF93EF93D5
:106B5000FF93DF93CF930F92CDB7DEB71092E9008A
:106B60008091E80083FF29C12091F1003091F1006C
:106B70008091F100E82EFF244091F100942F80E0F5
:106B8000E82AF92A0091F10010E04091F100942FD9
:106B900080E0082B192B6091F100A091F10082EFA9
:106BA0008093E800363009F059C08AEA9EE69C01DD
:106BB00025503040FC013797459154914E155F05A3
:106BC000F9F4F9014591549140175107C9F42E5F2A
:106BD0003F4FF901859194912E5F3F4FF901249128
:106BE000462F50E07A2F60E0462B572B4F3F510540
:106BF00019F010F04FEF50E0421750F4242F08C066
:106C00000796295F3F4FFEE6843D9F0799F6D5C062
:106C1000AEEF4091E80050E0BA0165707070611508
:106C20007105B9F342FDCCC0322F213108F030E1BB
:106C3000632FAC0107C0FA014F5F5F4FE491E0930F
:106C4000F10061506623B9F7830F911D231BA093B8
:106C5000E8002223F1F63031E1F2B2C0353049F4D8
:106C60008EEF8093E800ECDD8E2D80688093E3004A
:106C7000A7C0393051F5222309F09FC0E092A80A3D
:106C80001092A90A1092AA0A8EEF8093E80041E0C0
:106C90008DEC9EE64093E900FC010196E491E093BF
:106CA000EB00EE2369F09C012F5F3F4FFC018491C4
:106CB0008093EC00C9010196F90124912093ED0025
:106CC0004F5F453039F78EE173C0383049F42038D2
:106CD00009F073C0B5DD8091A80A8093F10045C02A
:106CE000313271F4213A09F068C0AADDE0EAFAE035
:106CF00081918093F1002AE0E73AF207C9F735C0A5
:106D00003032A1F4213209F058C08091E80082FFAE
:106D1000FCCFE0EAFAE08091F10081933AE0E73AB3
:106D2000F307C9F78BEF8093E8001FC0323239F4C4
:106D3000213209F042C0E092A90A82DD16C0332355
:106D4000C1F429837DDD2981223851F40093E900C3
:106D50009091EB0081E095FF80E01092E90001C086
:106D600080E08093F1001092F1008EEF8093E800B4
:106D700027C0313011F0333001F52230F1F4E11445
:106D8000F104D9F40F77802F81508430B0F48EEF66
:106D90008093E8000093E900333079F089E1809333
:106DA000EB0081E090E002C0880F991F0A95E2F79E
:106DB0008093EA001092EA0003C081E28093EB0026
:106DC0000F90CF91DF91FF91EF91BF91AF919F9184
:106DD0008F917F916F915F914F913F912F911F9173
:106DE0000F91FF90EF900F900FBE0F901F9018958E
:106DF00000E1000000000800FFFFFFFFFFFFFFFFB2
:106E00001201000202000010C0167A040001010203
:106E1000030109024300020100C03209040000011D
:106E200002020100052400100105240101010424CF
:106E3000020605240600010705820310004009042C
:106E40000100020A000000070503024000000705D8
:106E500084024000000403090408034B0053005659
:106E600000000020034100740074006F00420041E4
:106E7000005300490043002000560032002E00332A
:106E800000340000001C035300460047002D003270
:106E900000300030002000560032002E0036003155
:106EA00000000000010000006E1200020000126EDF
:106EB0004300030000556E0401030904596E0802E3
:106EC000030904636E2003030904856E1C0001C1DD
:086ED000120180360181360039
:106F00000000000000000000000000000000000081
:106F10000000000000000000000000000000000071
:106F20000000000000000000000000000000000061
:106F30000000000000000000000000000000000051
:106F40000000000000000000000000000000000041
:106F50000000000000000000000000000000000031
:106F60000000000000000000000000000000000021
:106F70000000000000000000000000000000000011
:106F8000FFFFFFFFFFFFFFFFFFFFFFFFFFFFFFFF11
:106F9000FFFFFFFFFFFFFFFFFFFFFFFFFFFFFFFF01
:106FA000FFFFFFFFFFFFFFFFFFFFFFFFFFFFFFFFF1
:106FB000FFFFFFFFFFFFFFFFFFFFFFFFFFFFFFFFE1
:106FC000FFFFFFFFFFFFFFFFFFFFFFFFFFFFFFFFD1
:106FD000FFFFFFFFFFFFFFFFFFFFFFFFFFFFFFFFC1
:106FE000FFFFFFFFFFFFFFFFFFFFFFFFFFFFFFFFB1
:106FF000FFFFFFFFFFFFFFFFFFFFFFFFFFFFFFFFA1
:00000001FF
