:020000020000FC
:1000000019C0E1CFE0CFDFCFDECFDDCFE6C4DBCF5D
:10001000DACFD9CFD8CFD7CFD6CFD5CFD4CFD3CFB4
:10002000D2CFD1CFD0CFCFCFCECFCDCFCCCFC8CBEB
:10003000CACFC9CFA8950FEF0DBF04E00EBF29D7D7
:1000400034D2789410D1CC2402D05CD0FACF48E9D5
:100050004093C1004EE30EDCC8EAD4E0FEDB3D3045
:1000600019F4F198F0980BC0323229F4F09902C0DB
:10007000F09A01C0F098333211F4F09BF19A0F938B
:10008000C93A04E0D0070F9119F447E0F3DBE6CF5B
:100090003531D9F0383051F13F3741F13A30F1F292
:1000A0003930E1F2F19B38833D3009F408950F9324
:1000B000C33404E0D0070F9119F447E0DBDBCECF67
:1000C000F19B2197432FD4D0C9CFEF93FF93E8EA58
:1000D000F4E0EC1BFD0B2E2EECE9FDE1E2D02A94BE
:1000E000D9F7C8EAD4E0FF91EF91B8CF0F93C83A9F
:1000F00004E0D0070F9129F033273993ECE9FDE1B3
:10010000D0D0ACCFC8EAD4E038817ED0023009F438
:1001100074C4A9D0A16002C0AE7FBF7B8DB79EB76B
:100120000F938F3A04E090070F9108F451C63FD027
:100130005D3019F4B2FDBED318C05B33B1F0032DAE
:10014000023019F4B2D228D1E9CF7F756F755F758F
:10015000053039F0413029F4032D033011F407D173
:10016000DDCF05D05D3009F00895A1600895ECEC75
:10017000F8E112D0071661F40FD0061651F40CD036
:10018000051641F431960591F491E02F09950895F3
:10019000319631963096EDCF0590002039F41490C9
:1001A000112021F400E00093AB0436C6089570EFEF
:1001B00060EF41E0388128D0013011F418D0F7CF3A
:1001C000532F15D03D3081F03D2C38813D3061F00A
:1001D0001BD03D1429F4A3D30AD043954330A9F78B
:1001E000388112D03D1409F0089501D0F9CF0F9352
:1001F000C23404E0D0070F9129F404E00093AB046B
:100200000BC60895219708953F9300273D3009F4C8
:100210001FC03F75303009F402C03C3011F401E0DA
:1002200018C0323011F405E014C0303411F405E088
:1002300010C030310AF40DC03B350AF00AC030342A
:1002400012F003E006C03A3112F41AF402E001C0E1
:1002500004E0D02E3F91089562D58F93492F0ADB99
:100260004F9108DB08954DE005DB4AE003DB08957C
:100270004D3011F4F8DF0895FDCA472F05D0462F01
:1002800003D0452F01D008954F93407F4295405DA4
:10029000F1DA4F914F70405DEDDA089502D0E3DF5F
:1002A00008954591442309F40895483F11F435D049
:1002B000F8CF493F21F41590459155D0F2CF4A3FF0
:1002C00011F4D1DFEECF4B3F41F4EF93FF93E2ED1A
:1002D000FDE1E7DFFF91EF91E4CF4C3F41F4EF9375
:1002E000FF93E0EAFDE1DDDFFF91EF91DACF4D3FD3
:1002F00041F4EF93FF93E6EBFDE1D3DFFF91EF9144
:10030000D0CF4E3F41F4EF93FF93ECEBFDE1C9DF1B
:10031000FF91EF91C6CFAEDAC4CF0F93EF93FF9367
:10032000112445914A30A1F04D3091F04A3F81F0BF
:10033000493F71F04C3F11F404E1100E4D3F11F4B0
:1003400005E0100E4E3F11F40CE0100E1394E9CFAF
:100350001A9446E3141A1194169440E204D0FF91C3
:10036000EF910F91089586DA1A94E9F708955154A0
:100370005A3122F005E00093AB044EC5A0FF19F4FA
:100380000BD0A2600895EDECF3E06627E50FF61FB1
:10039000508102D0AD7F08950F9302E20C1509F44D
:1003A0000FC51F921124EAE2F4E0EC19F109508321
:1003B000C39423951F900F910895CC2009F404C590
:1003C0001F921124EBE2F4E0EC19F1095081CA9478
:1003D0002A951F900895EF93FF9304E00B1509F4FD
:1003E000F7C432E00B2D039FE3E3F4E0E019F109D9
:1003F000D293C293B394FF91EF910895EF93FF933B
:10040000BB2009F4E1C432E00B2D039FE3E3F4E0E9
:10041000E019F109C191D081BA94FF91EF9108954B
:10042000EF93FF9304E00A1509F4D2C434E00A2DD7
:10043000039FE3E4F4E0E019F109629272924292C0
:100440005292A394FF91EF910895EF93FF93AA2006
:1004500009F4BAC434E00A2D0A95039FE3E4F4E0FA
:10046000E019F1096290729042905290FF91EF91E1
:100470000895A3DF6DD101E0552319F0000F5A95BF
:10048000E9F7502F13C9703039F0705D472FF2D95A
:10049000603011F440E3EED9603019F0605D462F12
:1004A000E9D9505D452FE6D90895EAEDFBE1F6DE86
:1004B0000895D9DEECECF3E0C091A904D091AA0430
:1004C000EC17FD0721F04081D3DE3197F9CFCBDE69
:1004D000CADE93E08CEC7091A9046091AA04871B9A
:1004E000960BFED3CADEECE7FDE1DBDE8091A904CA
:1004F0009091AA0480509140F3D3BFDEECE8FDE177
:10050000D0DE0895B068CBD805E0301641F055DF55
:100510001CD4B9DF40E2AED92223C9F7A4DEBF77ED
:100520000895B068BCD844E2A5D947DF852F94DE92
:1005300040E2A0D92223B9F796DEBF770895B068CC
:10054000AED83BDF78E040E3551F08F441E392D991
:100550007A95C9F740E28ED9222399F784DEBF77D6
:100560000895488144DE423231F04E3711F082D98D
:10057000F8CF79DEF6CF08958ED8EDECF3E066275C
:10058000E50FF61F00830895B5FFFDC781D8452EFE
:1005900014DF052F12DF552E6627EDECF3E0E50F93
:1005A000F61F0083A062AE7FBF7D089571D85523EA
:1005B00009F4A46008950F910F910895B062089511
:1005C000EDECF3E0552D6627E50FF61F00810415CD
:1005D00021F003950083A0610895AA9409F035DF06
:1005E00008959ADD0895B1600895988100DE8881AC
:1005F000382F0ADE013021F0043011F0F8DD02C09E
:10060000892F992799D3582FC7DE86DD089555275E
:1006100008E0202E8881EBDD382FF6DD302E023009
:1006200019F0CF5FDF4F07C08894317030FD089418
:10063000551F2A9479F7B0DE6FDD08950CE1009321
:10064000AB04EAC3CF93DF9323D8D4E2C9EFCA95B2
:100650000000E9F7DA950000C9F7D0E3C3E1CA95D5
:100660000000E9F7DA950000C9F75A9571F71BC841
:10067000552792DE0DD801E005174AF00AB50F772D
:100680000ABD50FF08950AB500680ABD0895A8C3C1
:1006900004B7077F04BF08E1009360000EE00093F9
:1006A0006000F8948895000008957F706F705F7007
:1006B00059D30895EDD7452FECECF3E08091A904D0
:1006C0009091AA040AC0F91711F48E17C0F40081A2
:1006D0000D3011F03197F7CF3197552766277727DF
:1006E000F91711F48E1758F430818EDD023019F4A9
:1006F00016D13197F5CFD9DF451729F7089509E0CD
:100700000093AB0489C3D6DFEF010895D3DFA06C5B
:100710000895B3FF02C0A8600895B1600895B8D7E6
:10072000452FA8D80895ECECF3E0F093AA04E093E9
:10073000A904CC24AA27BB270FB70F93F8943AD16A
:100740003FD10F910FBF8FDDECE8FBE1A7DD0895EE
:10075000583008F4089540C3543008F4089544C351
:10076000523008F408953CC3CF93DF9398D7C0E08C
:10077000D0E0A3D2222319F0213021F041C3502F21
:100780000BDE06C01ADE00C0052FC0E0D0E09CD210
:100790008AC75AE28BC7CF93DF931BD140E26AD856
:1007A000ECECF8E1D2E3C4E07591772309F437C0AB
:1007B00065915591643521F45F34A1F470E220C055
:1007C000693421F4563471F470E21AC06F3451F474
:1007D000523541F47735A1F0783591F0763481F0D7
:1007E00070E20EC0503439F05E352CF45C3514F4F0
:1007F000503334F4505E70E260330AF06627605E76
:10080000472F38D8462F36D8452F34D840E232D833
:100810003396D45042F627DD40E22CD8C3CF23DDF7
:10082000D8D041C7BB24AA240BB50E7F0BBDB46042
:10083000CCECD3E03FD0CC24A1602BD8A6FF02C0E3
:10084000CADDAF7BA7FF03C0EF01B860AF77A3FF9E
:1008500005C0D4DDBB2009F4B77FA77FA5FF03C087
:100860003E01DEDDAF7DA4FF02C0E301AF7EB0FF3D
:1008700006C043D0C091A904D091AA04BE7F809144
:10088000A9049091AA048C1B9D0B78F43881BCDCE0
:10089000A2FF04C0043011F02197CDCFAB7F02300E
:1008A00011F42197C8CF3ADCC6CF00E00093AC0426
:1008B000BB7F08950091AA04D01729F40091A904E0
:1008C000C01709F40895CF93DF93DF923F93662713
:1008D0005527388199DC023021F044D25093AC0482
:1008E00004C01DD05F702197F4CF0BB503FF02C089
:1008F00055D0B9DC3F91DF90D6C6E4E7FDE1D1DC0D
:10090000089554EBE0E0F1E0019150270F93EF3FA1
:1009100004E0F0070F91C1F75093AF040895762FCC
:10092000652F532F08957727662755270895DF935E
:10093000D1E0DA950000E9F7DF910895DF93D5E083
:10094000F6DFDA95E9F7DF910895DF93DAE0EFDF7C
:10095000DA95E9F7DF910895DF93D4E6E8DFDA95D9
:10096000E9F7DF910895CF93DF93D1E3C3E1CA950F
:100970000000E9F7DA950000C9F7DF91CF910895FB
:100980000F930AE0F0DF0A95E9F70F9108950F93AE
:100990000AE0F6DF0A95E9F70F910895EAECFDE128
:1009A00080DCCF93DF93DD27C091AC04F7D1DF91DA
:1009B000CF910895E0E0F1E092E08DEC002705C0D2
:1009C000EDECF3E090E08AE1002701930197E9F76D
:1009D0000895E0E1FDE165DC089508E10093600021
:1009E00000E000936000F59A189504E00093AB04D2
:1009F00013C20BE00093AB040FC24427E1D0543084
:100A0000C0F78091A9049091AA040F938C3C03E055
:100A100090070F9109F45BC0C8EAD4E084DF0F931C
:100A2000C23404E0D0070F9102F33881EDDB0230CD
:100A300029F4762F652F532F2197F1CF36DE452EDF
:100A4000E091A904F091AA044C7F6DDF5524319602
:100A50000F93ED3C03E0F0070F9191F03081D4DB70
:100A6000043071F0023089F75394562F672F732F9B
:100A7000EECF0F93ED3C03E0F0070F9131F70895AF
:100A8000052D033029F05394562F672F70E0F8CFCF
:100A900041FD02C04260D9CF08DE4516A1F110F435
:100AA00041603F010F93ED3C03E0F0070F9111F41B
:100AB00040FF0DC040FFDDCF541508F452C00F9326
:100AC000ED3C03E0F0070F9109F44BC0D2CF78D092
:100AD000003009F40895C8EAD4E0E091A904F09147
:100AE000AA040F93E03001E0F0070F9109F435C03C
:100AF00008810083319721970D3099F7F093AA046C
:100B0000E093A90408953197EF010F93E03001E0DD
:100B1000F0070F9109F469CF088121970D30A9F7EB
:100B2000BF016C1B7D0B8091A9049091AA04860FD4
:100B3000971F9093AA048093A9040F93E03001E0DB
:100B4000F0070F9129F00881008321973197F5CFA5
:100B500037D0003009F051CF089502E00093AB0484
:100B60005BC12ED0003059F10091AA04013029F464
:100B70000091A9040050081780F3E091A904F091B6
:100B8000AA04DF2FCE2FC81BD040D093AA04C09355
:100B9000A904F71519F4E61509F405C000810883C6
:100BA00021963196F6CFC8EAD4E0F72DE62D31979D
:100BB000088100830D3019F031972197F9CF0895FE
:100BC000C8EAD4E05527882799274B7F3881219799
:100BD00083953D3041F018DB023039F0446001303C
:100BE000A9F39395F3CF092F089542FF5395EECFC4
:100BF000C8EAD4E0E03009F0B0CF08810083319733
:100C000021970D30B9F7F093AA04E093A904089551
:100C1000CCECD3E0E091A904F091AA04CE1BDF0B49
:100C2000EFEDF1E0EC17FD0724F4EAE2FDE136DB3D
:100C30000895E2E5FDE132DBCC24ECECF3E0CFEF0C
:100C4000D1E06091A9047091AA040AB50F7B0ABD96
:100C500000813AD00F93E03001E0F0070F9161F08E
:100C6000E617F70749F021970F93C03000E0D0074F
:100C70000F9111F03197ECCF002726D0089553DD66
:100C8000E2E6FDE10BDBEDECF3E0CFEFD1E015D0D8
:100C90000F3F19F4002718D0AFC00FD002930023E4
:100CA00011F02197D1F73197CC24F093AA04E09367
:100CB000A904B2FF0DDC0895A3C0F999FECFD2BDFF
:100CC000C1BDF89A00B50895F999FECFD2BDC1BD56
:100CD00044E00AB406FC44E100BD4FBBF99A089514
:100CE0000C01889400E11FDE001C111C551F661FBB
:100CF000771F0A9509F40895352F08D0532F362F02
:100D000005D0632F372F02D0732FEECF432F4D5FC7
:100D100043FD342F432F405D47FD342F0895982F16
:100D200092959F70905D9A3308F0995F8F70805D07
:100D30008A3308F0895F089596FD975F9F7086FD5E
:100D4000875F8F709295892B089577276627545671
:100D500010F07395FCCF5C595A5010F06395FCCF9E
:100D6000565F08957330B2F4723032F0663092F408
:100D7000653012F0563072F4662321F00AE0500F0D
:100D80006A9581F7772309F4089504E68894500F53
:100D90007A95C0F701E00093AB043EC04FE2439563
:100DA000C456D040E0F7CC59DF4F64D54FE24395AD
:100DB000CA50E8F7C65F5ED54C2F405D5BD50895FD
:100DC00006E00093AB0428C007E00093AB0424C006
:100DD00008E00093AB0420C00AE00093AB041CC001
:100DE0000CE00093AB0418C00DE00093AB0414C0FA
:100DF00001E10093AB0410C002E10093AB040CC00E
:100E000006E10093AB0408C00BE10093AB0404C0FF
:100E10000DE10093AB0400C026DA11240090AB046E
:100E2000D02C000CE2E5FEE0E00DF11D0591F491FF
:100E3000E02FEE1FFF1F35DA16DAB0DD0FEF0DBF22
:100E400004E00EBFAA27BB2700E00093AC040BDA36
:100E5000F8C8ED0EF50EFB0E070F160F220F2C0F24
:100E6000370F420F5E0F6A0F6F0F7B0F800F850FDA
:100E7000860F8E0F970FA00FA60FAD0FAE0FAF0FFF
:100E8000B60FBF0FC60FC70FCE0FCE0FD70FE10F94
:100E9000E20FF8940024112441D052D00FEF0093B8
:100EA00064000BB50E7F0BBDC0E0D0E006DF302F35
:100EB00000FF03C00BB501600BBD00E004B900E00A
:100EC00005B900E007B900E008B900E000E00AB9A0
:100ED00000E00BB9112414BE1EBA1ABC0BB5017088
:100EE0000BBD1092AC040DDDE2D4789401E003BF99
:100EF00000E000937C0000E000937B0005ED009390
:100F00007A000BB500FF08C0BADE8CDCACD9ABD9D7
:100F1000ECE8FBE1C3D9089506DC08950FB70F9301
:100F2000A89504B7077F04BFF8940091600008619A
:100F3000009360000070009360000F910FBF089550
:100F400050E860E050936100609361000895009163
:100F500064000E7F0093640005ED00937A00009119
:100F60007A0004FFFBCFF1DC08950091640001607A
:100F700000936400EADC089592D3B1F0CF93DF933D
:100F800003E2C01678F411240C2CC092AE04C9E020
:100F9000D4E0C019D10911DA59930A94E1F7DF912D
:100FA000CF9107C003D00CCF01D00ECF00E000934B
:100FB000AE0400E00093AD045091AE0477C3CF932C
:100FC000DF936DD311247091AE046091AD04C8E03D
:100FD000D4E0222359F0A1FF03C00C2D0A9531F073
:100FE000ECD97A95751762F0652F02C0761741F03B
:100FF000C61BD1095881D0D963956093AD0453C302
:10100000E3CECF93DF930AB50F7D0ABD85D801E00B
:1010100044D05881DF91CF9149C3CF93DF930AB574
:1010200000620ABD79D802E038D058833CC3CF9320
:10103000DF930AB50F7D0ABD6FD801E02ED03DDEEB
:10104000502FDF91CF9132C3CF93DF933AB53F7BDF
:101050003ABD3AB530623ABD5FD802E01ED0052FE6
:101060000F93C03002E0D0070F9111F02DDE14C0B5
:10107000E6E4FDE116D955273AB530643ABD21972B
:1010800023DE5A9511F44EE2F5D30F93C03000E001
:10109000D0070F91A1F7E7D806C30C1971F08DD9CD
:1010A0005F938BD90AB505FF05C05F9386D9DF91A1
:1010B000CF910895D52FCF9108957FD90AB505FF17
:1010C00005C0052F7AD9C02FDD270895C52FDD274C
:1010D0000895009164000F770093640055275CD950
:1010E000D7D23EDB0CE050FD0CE00093B8003D98F9
:1010F000459A3C98449A00270093B90000950093C4
:10110000BB0004E00093BC0004E90093BC00A6D03F
:101110000895C4C0B9D0CF93DF932197588152323C
:1011200051F45A91523211F037D9FBCF5F915F9150
:101130005ED82C2D06C0DF91CF91B1D2222309F4C5
:10114000AEC00FB70F93F894EF93FF931124EBE227
:10115000F4E0C21AEC19F1090091C1000F77009375
:10116000C10052912A955093BB0004EC0093BC003F
:1011700079D00091B900087F083121F0003411F0D6
:10118000083211F4222369F7FF91EF910F910FBFFD
:1011900065C07AD084D219F41BB514601BBD0091D0
:1011A000C1000F770093C1000FB70F93F894EF932E
:1011B000FF93112451E01BB512FD05C003E2FDD8D9
:1011C00050170AF06AC0752F1BB512FD06C0E9E082
:1011D000F4E01092AD045093AE0404EC60E57A950F
:1011E00019F404E868E57FEF0093BC003BD0509110
:1011F000B900587F56130AC05091BB001BB512FDB1
:1012000004C0529377FFEBCF05C0C6D81BB512FFC1
:101210001092AE04FF91EF910F910FBF1BB512FF1B
:101220001DC01BB51B7F1BBD08952ED0087F0093EA
:10123000BC0004EA0093BC0015D010D0089524D05F
:1012400004E90093BC000FEF0093BB0007D00895A2
:101250005091BC0052FF1DC001D008955091B900BB
:10126000587F24C2EF93FF93E0EAFFE00090BC00B8
:1012700007FC07C063DB3197C9F708E10093AB04B3
:10128000CBCDFF91EF9108950091BC0002FF01C00A
:10129000089503E10093AB04BFCDB2CDA1CDB8CD8D
:1012A00044D0F6D15EBD0DB407FEFDCF5EB5089506
:1012B0003CD05EBD0DB407FEFDCF5EB5F7C1009119
:1012C00064000B7F0093640052E066D8E1D144DAF9
:1012D000550F550F31D00CB5037F052B0CBD08956C
:1012E000D7D13EDA0CB500620CBD50FD03C00CB581
:1012F0000F7D0CBD0895CCD12BDA052E53700CB5A3
:10130000087F052B0CBD0DB501600DBD02FC03C0AF
:101310000DB50E7F0DBD089508D051E03DD8B8D170
:101320002A9A50FD01C02A9808950CB506FD08952B
:101330000AE10093AB0470CD009164000B7F009331
:10134000640004B10C6204B92A9A01E50CBD0DB524
:101350000E7F0DBD08955EBD0DB507FFFDCF0EB527
:1013600008955EBD0DB507FFFDCF5EB5089574D03D
:10137000EF5DFF4F50819AC16FD0EF93FF9388D1FB
:10138000FF91EF91EF5DFF4F5083089565D0EF938C
:10139000FF93C2D66ED811D8FF91EF91EF5DFF4F4A
:1013A00060C05AD0EF93FF93B7D663D806D8FF91A9
:1013B000EF91EF5DFF4F59C04FD0EF93FF9368D18E
:1013C000FF91EF91EE5DFF4F5083089545D0E05EB1
:1013D000FF4F50816BC140D0EF93FF939DD649D80A
:1013E000ECD7FF91EF91EE5DFF4F3BC035D0EF930F
:1013F000FF9392D63ED8E1D7FF91EF91EE5DFF4F7C
:1014000034C02AD0EF93FF9387D633D8D6D7FF9135
:10141000EF91EE5DFF4F2EC01FD0EF93FF937CD670
:1014200028D8CBD7FF91EF91EE5DFF4F23D0A8DAFC
:1014300021D0089511D0EF93FF936ED61AD8BDD75F
:10144000FF91EF91E05EFF4F0081052350E0002304
:101450000FB601FE51E02AC1515403E0509FF00144
:1014600008950081052B0083089550950081052380
:10147000008308950081052700830895CF93DF93AB
:1014800007D1112410928200009180000168219AF6
:10149000109289006093880008C00091800001626A
:1014A000229A10928B0060938A000093800009E0DA
:1014B00000938100F8C0CF93DF93EAD0752F7DD7DA
:1014C000112410928200009180000368219A709389
:1014D00089006093880008C0009180000362229A0E
:1014E00070938B0060938A000093800009E0009362
:1014F0008100D9C0002700938100009380000093F1
:1015000082000895C8D0509F11200AB507FD11F43C
:10151000502DCCC00FE00093AB047ECC5F93B8D0CD
:1015200055230AB407FCB9F0052F47D7652F772755
:1015300059E0661F5A9541F0771F701B18F4700F21
:101540008894F7CF0894F5CF5F915F3011F4562F50
:1015500001C0572FABC001E10093AB045DCC9BD021
:10156000500F0AB507FD08F0A1C00FE00093AB04CF
:1015700053CC91D0501B0AB507FD08F097C000E18D
:101580000093AB0449CC87D050170FB701FF10C0B0
:1015900011C081D050170FB701FF0CC009C05F9375
:1015A0007AD06F916C3111F4501701C0051710F00B
:1015B000552750FD51E07AC00DD0662319F056959D
:1015C0006A95E9F773C006D0662319F0550F6A953E
:1015D000E9F76CC064D0F1D6222311F461E00895DC
:1015E000B7D8652FEAD6089556D050235FC053D0A0
:1015F000502B5CC050D0502759C04AD0509556C08F
:1016000047D0519553C044D0529550C041D05295C7
:101610005F704CC004EB5091AF04579508F450270D
:101620005093AF04B9D678D5089532D05F703EC0DC
:101630002FD000E8551F0795E8F7502F37C0EF93DC
:10164000FF9311242CD041F40090AE04002009F443
:10165000BBCBE9E0F4E007C002E220170AF0B0CB10
:10166000022EEBE2F4E004D097D6FF91EF910895BB
:1016700050E07CE8029168E0302F352756950695BA
:10168000369508F457276A95B9F70A9499F708959B
:1016900043D593D60895FCDF052F8FD608952227D2
:1016A0003BD522230895DF91CF91089575D60895F3
:1016B000CF9232D555270F910C1909F07ED647DC11
:1016C00000E000937B0000917C00007F5F70052BA1
:1016D00000937C00583042F45770CDD66ED60091FE
:1016E0007E00502B50937E005527662770E1F894BA
:1016F00005ED00937A0000917A0004FFFBCF809102
:10170000780090917900580F691F7A9589F778943D
:1017100076E0669557957A95E1F73ED626DC0895F2
:1017200055273AD6B5DF1CD812DC00917C000F7328
:1017300050FD006050FF006C00937C0014D90895A8
:1017400052E02AD6A5DF553008F05ACB0AB5087FFB
:10175000052B0ABD0895FBDB0BD0552700B605FC11
:1017600051E000B7006800BF00DC16D6D5D408955C
:1017700000E000937A0000E100937A0050917B0032
:101780005F7B50937B0000B70870006500BF5AB5BF
:1017900052FF02C054E010C050917B00506450933F
:1017A0007B005AB5537000917C00007F052B00939D
:1017B0007C0061D6CA942A9550937F00CDD80895B5
:1017C000F39A18955527E8D563DF5523C1F05A30B1
:1017D00008F016CBA89504B7077F04BF052F5770F4
:1017E000000F000F00720064502BF89408E1009382
:1017F0006000509360000EB307700EBB13C0A7DBF0
:1018000060917B006F7B60937B005AB551FD06C0F1
:1018100000E100937A0000E400937B0060B7606110
:1018200060BFA3DB7894889500000091C00007FD9D
:101830000895F59B02C0F5980895F39BF3CFF398B4
:101840000895889500000091C00007FFFACF5091DD
:10185000C600533009F4B16029CF03B7016003BF5C
:101860007894889500000091C00007FFF9CF30916F
:10187000C60008950090C00005FEFCCF0AD0B1FF5D
:1018800005C00090C00007FEFCCFBD7F4093C6009E
:1018900008950090C00007FE09C00091C600033102
:1018A00011F4B2600895033009F4B1600895009115
:1018B00064000D7F0093640000E00093C5000CE01D
:1018C0000093C40008E90093C10008954C495320D7
:1018D000590248454C50CB0352554E2012045341F7
:1018E000564508064C4F41443F065052492082025B
:1018F000505258209102505242209F02454D495467
:101900008F03464F5220DE0250544F20F1024E45C5
:101910005854E0024652452068024E455720930332
:1019200050494620D60254484520DB02454E44200B
:10193000F30252535420480343464720B403501A3D
:101940001D20BC0250501E20CF0A50501C20CF0A30
:10195000501C1E20C90A50011D20C90A50501D20CC
:10196000C40250500B20AF0A50500D20B90A5050FD
:101970000A20820A50500F208E0A4D4F44208E0AB2
:10198000505005208E0A50500420F5025050072078
:10199000070350500220B10244415441BC07524554
:1019A0004144DF0752455354D9074C535220DC0AB7
:1019B0004C534C20E30A50500620F40A414E442078
:1019C000F40A50505C20F70A504F5220F70A50504A
:1019D0005E20FA0A584F5220FA0A434F4D20FD0A62
:1019E00050500120FD0A4E454720000B53574150EF
:1019F000030B4E424820060B4E424C20150B52451D
:101A00005620180B524E44200A0B414F56203803E3
:101A1000435243201F0B44454C412203474F54205F
:101A20008303474F532086035245542089034B4577
:101A30005920210C41434F20AB0B41435320A00BB5
:101A40005045454B0108504F4B450D084545522028
:101A50001708454557202408534C5020E20B4F44AB
:101A60004220BC0949444220B70953444220C609D8
:101A700043444220D1094F504220DC0953424220C6
:101A8000EB0943424220F60958424220010A5042E3
:101A900042200C0A494E4220E609494242201A0AD5
:101AA0004F444320BC0949444320B70953444320D1
:101AB000C60943444320D1094F504320DC09534217
:101AC0004320EB0943424320F60958424320010AD0
:101AD000504243200C0A494E4320E6094942432024
:101AE0001A0A4F444420BC0949444420B7095344CE
:101AF0004420C60943444420D1094F504420DC0906
:101B000053424420EB0943424420F6095842442002
:101B1000010A504244200C0A494E4420E609494239
:101B200044201A0A505745205B0A50574D203E0A60
:101B300050574F207A0A41444320580B41445220C9
:101B4000900B53504D205F0953504F207009535054
:101B500043207B09535057205009535052205809B5
:101B6000535053208C095457492069085457532027
:101B70001509545750201F09545757208A085457A5
:101B80005220C9085457422028090000F9363DFA6E
:101B9000F84174746F424153494320666F7220418B
:101BA000546D6567613838204020344D487A20FAFA
:101BB000F85665723A20322E3334204275696C64CF
:101BC00020636F64653A2032303137303230372E3F
:101BD00032303236FAF9363D0000F8456E68616EF3
:101BE000636564206279204B2053636F74742056C0
:101BF0006974616C6520286B73765F70726A4067E8
:101C00006D782E636F6D29FAF841546D6567613800
:101C1000382F3136382F33323820706F72742028C5
:101C200043293230313120FAF8536C6565702C202D
:101C300052544320616E6420446174612D66696C66
:101C400065FE3230313220FAF85457492F5350494B
:101C50002F444453202620496E70757420436170D0
:101C600074757265FE32303131FAF9362DFAF84268
:101C700061736520436F6465202843293230303218
:101C8000204469636B2043617070656C73FAF86877
:101C90007474703A2F2F70726F6A656374732E6359
:101CA000617070656C732E6F7267202070726F6A3E
:101CB000656374734063617070656C732E6F7267D7
:101CC00020FAF9362DFAF8416C6C20726967687455
:101CD0007320616E642072656D656469657320654B
:101CE0007870726573736C7920726573657276654E
:101CF00064FAF84E6F7420666F7220636F6D6D65C5
:101D0000726369616C20757365FAF9363DFA0000FB
:101D1000F9352DFA000044656275672000006F6E8A
:101D200020FA00006F6666FA0000FB3A2050676DEB
:101D300020746F6F206C6172676520666F7220453A
:101D400045502120FA0045726173696E6720454550
:101D50005000536176696E6720746F204545502EA0
:101D6000FA004C6F6164696E672066726F6D204582
:101D70004550FA00427265616BFA00002062797486
:101D8000657320757365642E2020000020627974CD
:101D9000657320667265652E20FA00000820080031
:101DA00056616C756520657863656564656420724D
:101DB000616E67650000206E6F742000207375707F
:101DC000706F72742028432900004C696E652023CF
:101DD00020004572726F723A0000FB434D442F4F52
:101DE0005020556E6B6E6F776E00FBFC206F662087
:101DF000303A32353500FB50726F6772616D206D7D
:101E0000656D6F72792069732066756C6C00FB4399
:101E10006861726163746572FD61207265636F67EA
:101E20006E697A656420747970652E00FB42756670
:101E3000666572206C696D69742065786365656498
:101E400065642E00FB426164207661726961626C98
:101E500065206E616D652E00FB546F6F206D616EA5
:101E60007920617267756D656E74732E2000FB5664
:101E7000616C756520776173FD617661696C616283
:101E80006C652E00FB537461636B206572726F7218
:101E900020FAF9092046756E632F63616C6C73201C
:101EA000746F6F20636F6D706C65782F6E657374DF
:101EB000656420746F6F206465657000FB474F5444
:101EC000206F7220474F532064657374FD666F75F1
:101ED0006E642E00FBFC206F6620303A3700FB4C0E
:101EE000696E65206E756D626572203E20332064D8
:101EF000696769747300FBFC206F6620303A31001B
:101F0000FBFC206F6620303A33000000FB4D61740B
:101F100068206F766572666C6F772E00FB4D61747A
:101F20006820756E646572666C6F772E2000FB44C6
:101F30006976696465206279207A65726F2E200067
:101F4000FB456D7074792046696C6500FB545749F8
:101F5000FD656E61626C65642E0000000000FB533D
:101F6000706563696669656420FC2E00FB536574C7
:101F700020414320526566203E20302E2000FB4445
:101F80004556206E6F20726573702E000000FB5363
:101F9000504920FD656E61626C656400FBFD612047
:101FA00062696E617279206E756D62657200FB49BF
:101FB0006E76616C69642023206F6620617267739E
:081FC0002E000000000018953E
:00000001FF
