:020000020000FC
:100000000C9424000C94A3060C94A3060C94A30651
:100010000C94A3060C94A3060C94A3060C94A306BC
:100020000C94A3060C94A3060C94A3060C94A306AC
:100030000C94A3060C94A3060C94A3060C94A3069C
:100040000C94A3060C94A30609E102BB00E007BBD5
:1000500000E001BB04E00EBF0FE50DBF539A549AB8
:100060000E947406809902C0EFD404D60E947306E1
:100070004DD26EEFD3D14CD0FBCFE395C8953196DE
:10008000002009F0089550E0DDC1F6E0E0E1F6DF80
:10009000091679F4F3DF081669F4F0DF071659F44E
:1000A0003196C895002D3196C895F02DE02F099511
:1000B0000895319631963396EACF90EF80EF21E0A4
:1000C000088184D1513011F41AD0F7CF702F17D096
:1000D0000D3091F0952E088179D10D3069F095168B
:1000E00039F4982F872F702F0AD02395233099F752
:1000F00008816CD1951609F0089501D0F9CFD81573
:1001000029F4C71519F454E09DC108952197089565
:10011000D0E0CFEF01EC702E00E0802E088156D1A8
:10012000523009F494C0F2D1A16001C0AE7F3DB756
:10013000383010F458E086C1C0DF7D30B9F0092DA9
:10014000023031F49F708F707F7042D220D0EFCF99
:100150009F758F757F75213029F4092D033011F4B7
:1001600007D0E5CF92DF7D3009F00895A1600895B2
:100170007154763212F055E065C17556A0FF11F446
:1001800006D00895F0E0E72F708101D00895F3E0E4
:10019000E62F70836A95623F10F456E053C10895CC
:1001A00063956F3F12F057E04DC1F3E0E62F708189
:1001B000089520E2A1D120E29FD120E29DD120E24A
:1001C0009BD1392F92D120E297D1382F8ED120E2C6
:1001D00093D1372F8AD120E28FD1089520E28CD19C
:1001E00020E28AD13E2F81D120E286D108955BE0C2
:1001F00029C1D0E0CFEFFF24EE247727BF7D08810F
:10020000CA95E3940D3041F0E1D0523039F0B0623C
:100210005130A9F3F394F3CF0F2D0895B5FF7395E3
:10022000EECF54E00FC152E00DC19F708F707F7010
:10023000CFD10895D0E0CFEFE030A9F3088100835B
:10024000319721970D30C1F75E2E6F2E0895D1DFC3
:10025000743068F6062D033021F4052D033F09F4B0
:1002600052C0D0E0CFEF772788279927C715CAF269
:100270000881ACD0523029F4982F872F702F219706
:10028000F5CFD3DFA72EF62DE52DB77FBF7E9927BB
:1002900088277727BB243196F33011F4E43F59F0D7
:1002A000008194D0543039F0523089F7B394782FCC
:1002B000892F902FF0CF0B2D033029F0B394782F96
:1002C000892F90E0F8CFB4FD02C0B061E0CFADDF80
:1002D000A71691F118F4B860DF2ECE2EF33021F47A
:1002E000E43F11F4B3FF0FC0B3FF08C07A1508F460
:1002F00042C0F33019F4E43F09F43DC0F33039F65D
:10030000E43F29F6089575DF003009F40895D0E040
:10031000CFEFF62DE52DF23019F4E03009F409C0E5
:1003200008810083319721970D30A9F75E2E6F2E3B
:10033000089502E0502F86C03197DF2FCE2FD230A4
:1003400019F4C03009F46DCF088121970D30B9F749
:100350000E2F0C1B500E08F46394D23011F4C030F1
:1003600029F00881008321973197F7CF42DF0030D1
:1003700009F06DCF08953DDF003039F1062D0230D0
:1003800021F4052D00500E15A0F2F62DE52DDF2FDE
:10039000CE2FCE19D0400C2F502E0D2F602EFD15D4
:1003A00019F4EC1509F405C00081088321963196F3
:1003B000F6CFD0E0CFEFFD2DEC2D319708810083F3
:1003C0000D3019F031972197F9CF08955527102F47
:1003D0001D3009F416C01F75103009F402C01C301E
:1003E00011F451E0089510310AF408951B350AF014
:1003F0000895103412F053E008951A310AF452E0CF
:10040000089554E00895CF3F19F427E075D00AC04D
:10041000212F81D0C3951DE0188304C02EE36CD03A
:10042000D0E0CFEF7DD0183071F318831D3049F044
:10043000C23C19F427E060D0F5CFCA95212F6BD0CC
:10044000F1CF089563D0503021F4FFE0E2E06CD0AA
:1004500042C0513021F4FFE0EAE266D03CC05230A5
:1004600021F4FFE0E8E660D036C0533021F4FFE02D
:10047000EAE85AD030C0543021F4FFE0ECEC54D01C
:100480002AC0553021F4FFE0EEEF4ED024C05630A4
:1004900021F4F0E1E2E348D01EC0573021F4F0E14E
:1004A000E4E742D018C0583021F4F0E1E4ED3CD04C
:1004B00012C0593021F4F1E1E4E336D00CC05A30D7
:1004C00021F4F1E1ECE630D006C05B3021F4F1E13B
:1004D000E4EA2AD000C00FE504E00EBF0FE50DBF2F
:1004E0006EEFA0E0B0E012D0C3CD57D0242F04D0DF
:1004F000232F02D00895202F5D9BFECF91D4B6FF0D
:1005000003C05F9BFECFBF7B2CB908952DE0F4DFC5
:100510002AE0F2DF08952D3011F4F8DF0895ECCFD2
:100520005F9BFECF1CB10895C895002021F0202DBF
:10053000E3DF3196F9CF0895F7DFE8DF089530DE85
:1005400007E007174AF001E0703019F0000F7A95C4
:10055000FBCF702F1CDE08955AE074DF903039F025
:10056000905D292FC9DF803011F420E3C5DF803092
:1005700019F0805D282FC0DF705D272FBDDF089543
:1005800099278827745610F09395FCCF7C597A50A0
:1005900010F08395FCCF765F0895432F46954695DE
:1005A00046954695405D4A3308F0495F3F70305D9F
:1005B0003A3308F0395F089546FD475F4F7036FDC6
:1005C000375F3F70440F440F440F440F342B08959E
:1005D0009330B2F4923032F0863092F4853012F0DB
:1005E000763072F4882321F00AE0700F8A9581F743
:1005F000992309F4089504E68894700F9A95C0F73A
:1006000051E020CF83DF82DFFEE0E8E395DF08954D
:100610004C495320F00353495A20FC034E455720C0
:10062000730650500B20630450500D206A04505242
:10063000494E100450525820170450524220490588
:1006400050574D38990450574520A30450574F2018
:10065000AF04454D49543C05501A1D201F0450500D
:100660001D202804464F5220C6044E4558543904D4
:10067000501C1E20420450501E20B20450501C201A
:10068000930450494620BC0450544F20C804505095
:100690000420CC0452554E203A06454E4420CA044C
:1006A000414E442071044C53522078044C534C204A
:1006B0007D04504F52208204584F522089044455E3
:1006C0004D508606474F544FFE04474F5355020581
:1006D0005245545505055448454EC2044B455920D2
:1006E000410541434F204E04534156450B054C4FA5
:1006F000414424055045454B5404504F4B455B0441
:100700004F44412009064F4442200D064F444320E8
:1007100011064F44442015064F504120F9054F5013
:100720004220FD054F50432001064F50442005064E
:10073000494E41201906494E42201C06494E43208D
:100740002006494E4420230653424120550543428A
:1007500041205C05534242206405434242206B0520
:10076000534243207305434243207A0553424420B9
:100770008205434244208905534441209105434466
:100780004120980553444220A00543444220A70538
:1007900053444320AF0543444320B605534444200B
:1007A000BE0543444420C50549424120CD05494288
:1007B0004220D80549424320E30549424420EE0542
:1007C00041444320270644454C41A4064453524526
:1007D000C5064453434FBF0644534445B906000081
:1007E00095DEF3E0E3EFF61511F4E51521F0208135
:1007F00092DE3197F8CF8ADE89DEFEE0EAEE94DE03
:10080000752D962D70509240C2DC792FB9DEA6DE90
:10081000FEE0E8EF89DEC4DCB3DEA0DE77DE08951B
:10082000AE7F85DCBDDCACDE99DE70DE08957EDC5B
:1008300024E262DEB5DC372F58DE68DE0895AE7F35
:1008400076DCAEDC072FACDCF0E0E72F0083089508
:10085000A2FF40C0AE7F6BDCA3DCA72EA1DC872FFC
:100860009FDCB72EF0E0E72F8083A062A860AA7F0C
:100870000895F0E0EB2D00810A1519F0039500832F
:10088000A061089553DC8CDC072F8ADC701719F007
:1008900077277DDC08957FEF7ADC089547DC70E0F0
:1008A000459B71E074DC089541DC7ADCE72FF0E0D1
:1008B00070816DDC08953ADC73DC072F71DCF0E0A9
:1008C000E02F7083089532DC6BDC072F69DC700F3A
:1008D0005EDC08952BDC64DC072F62DC701B57DCC8
:1008E000089524DC5DDC072F5BDC702350DC089569
:1008F0001DDC56DC76954BDC089518DC51DC770F57
:1009000046DC089513DC4CDC072F4ADC702B3FDCFF
:1009100008950CDC45DC072F43DC702738DC089594
:1009200071E035DC089502DC3BDC072F39DC701701
:100930001EC0FCDB01E80FBD0EBD8D9A31DC00E06E
:100940000BBD7ABD0895F2DB03E80FBD01E00EBDDB
:10095000BD9A26DC072F24DC7BBD0ABD089500E08C
:100960000FBD0895E3DB1CDC072F1ADC071770E0CE
:10097000BAF6B1F20CDC0895D9DB12DC772309F06A
:10098000A26008950DB70E5F0DBF0895A46008958D
:10099000CDDB0895B26008954881B1DB38810CDE6B
:1009A000732FF5DBACDBC2DB0895C0DBF9DB472F2F
:1009B000F3E0E3EF0AC0F61511F45E16E8F40081E7
:1009C0000D3011F03197F7CF319777278827992786
:1009D000F61511F45E1680F40081F8DC523029F42B
:1009E000982F872F702F3197F3CF9F708F707F7064
:1009F000EFDD471701F7089559E024CDD6DFDF2F4B
:100A0000CE2F0895D2DFA06C0895B2FF02C0B1606E
:100A10000895B26008956EEF752DB9DB762DB7DBC2
:100A2000D3E0CEEFEFEFF1E00881E199FECFFFBB1D
:100A3000EEBB0DBBE29AE19AD23011F4C03019F04E
:100A400031972197F1CF0895D3E0CEEFEFEFF1E0AA
:100A5000E199FECFFFBBEEBBE09A0DB30883D23025
:100A600011F4C03019F031972197F2CF6CEF98DB79
:100A7000672E96DB572E089559DB92DB272F3CDD3E
:100A800008955F9BFECF7CB1733009F4B2607FDBC9
:100A900008954CDB85DB08E020E3771F08F421E3B1
:100AA0002BDD0A95C9F732DD089540DB48DD78DBA0
:100AB0000BB3072B0BBB089539DB41DD71DB709560
:100AC0000BB307230BBB089531DB39DD69DB08B3BA
:100AD000072B08BB08952ADB32DD62DB709508B373
:100AE000072308BB089522DB2ADD5ADB05B3072B59
:100AF00005BB08951BDB23DD53DB709505B307238E
:100B000005BB089513DB1BDD4BDB02B3072B02BBD8
:100B100008950CDB14DD44DB709502B3072302BBA0
:100B2000089504DB0CDD3CDB0AB3072B0ABB0895F8
:100B3000FDDA05DD35DB70950AB307230ABB08959E
:100B4000F5DAFDDC2DDB07B3072B07BB0895EEDAE2
:100B5000F6DC26DB709507B3072307BB0895E6DABA
:100B6000EEDC1EDB04B3072B04BB0895DFDAE7DC01
:100B700017DB709504B3072304BB0895D7DADFDCD5
:100B80000FDB01B3072B01BB0895D0DAD8DC08DBFB
:100B9000709501B307230ABB0895C8DAD0DC00DBE7
:100BA00009B3072370E0002309F471E0F0DA089537
:100BB000BDDAC5DCF5DA06B3072370E0002309F4DB
:100BC00071E0E5DA0895B2DABADCEADA03B30723B2
:100BD00070E0002309F471E0DADA0895A7DAAFDCF7
:100BE000DFDA00B3072370E0002309F471E0CFDA05
:100BF00008959CDAD5DA7BBB089598DAD1DA78BB10
:100C0000089594DACDDA75BB089590DAC9DA72BB2B
:100C100008958CDAC5DA7ABB089588DAC1DA77BB31
:100C2000089584DABDDA74BB089580DAB9DA71BB4D
:100C3000089579B3ACDA089576B37C7FA8DA089585
:100C400073B3A5DA089570B37C7FA1DA089570E0DC
:100C50009EDA6CDAA5DA7F71706E77B906ED06B9A7
:100C60003699FECF75B193DA0895427265616B20B3
:100C70000A0D0000D3E0C3EF6EEFA160D1D0A5FF55
:100C800003C0CC2EDD2EAF7DA4FF03C0DD2DCC2D07
:100C9000AF7EA6FF03C0EC2EFD2EAF7BA7FF04C0E6
:100CA000DF2FCE2FB460AF77B0FF03C0DF2DCE2D86
:100CB000BA7FB1FF04C043D0D62DC52DBD7FD61558
:100CC00011F45C1678F4088181DBA1FF04C0543074
:100CD00011F02197D1CFAD7F523011F42197CCCFB5
:100CE00026DACACF08958EDC03E0602E03EF502E83
:100CF000F62DE52D6EEFA0E0B0E000E0F23011F44B
:100D0000E03019F000833197F9CF0895F3E0E3EF75
:100D1000F23011F4E03041F03081E7DB20E2ECDB2F
:100D200020E2EADB3197F4CFF1DBF0DB362DDDDBBF
:100D300020E2E2DB352DD9DBE9DBE8DB0895FCE0DE
:100D4000EAE6F2DB08951895F1D92ADA992788277F
:100D500055270027772361F09A958A955A954A95E9
:100D6000F1F70A95E1F7D1F7C1F7B1F77A95F2CF2C
:100D70000895DCD915DA172F88940BD00895D6D9A9
:100D80000FDA172F089405D0089527D0712FFFD9B7
:100D9000089501B3077E01BB02B3086102BB99E06D
:100DA000839BA3CB949A8C9810F094988C9A9398E8
:100DB0008B9A2FD08B98939A2CD08399F8CF18F0D8
:100DC000949A8C9802C094988C9A839BFECF8C98AE
:100DD000949A111F9A9521F7089501B3077E01BBDC
:100DE00002B3086102BB99E08399FECF8894849B8B
:100DF00006C0089493988B9A8499FECF04C0939868
:100E00008B9A849BFECF8B98939A111F9A9561F7CA
:100E1000089530E540E54A95F1F73A95D9F70895F8
:100E20005F9B09C00CB1033111F4B06404C00CB174
:100E3000033009F4B26008954174746F424153491C
:100E40004320666F722041546D65676131363320EF
:100E50004031364D487A20563A312E3031200D0A35
:100E600028432932303032204469636B204361705B
:100E700070656C732070726F6A6563747340636130
:100E80007070656C732E6F7267200D0A4D6F6473FE
:100E900020284329323031362053636F7474205632
:100EA0006974616C65206B73765F70726A40676D00
:100EB000782E636F6D200D0A416C6C207269676833
:100EC00074732072657365727665642E204E6F743C
:100ED00020666F7220636F6D6D65726369616C204F
:100EE0007573652E200D0A0000004672656520208E
:100EF00070616765733A0000202063686172733A1D
:100F000000004572726F7220303A20556E6B6E6F22
:100F1000776E20636F6D6D616E64206F72206F70ED
:100F2000657261746F722E2000004572726F7220BC
:100F3000313A20456E636F756E7465726564206129
:100F40002076616C75652074686174206973206E09
:100F50006F74206265747765656E203020616E6401
:100F6000203235352E2000004572726F7220323AE1
:100F70002050726F6772616D206D656D6F727920A0
:100F800069732066756C6C2E00004572726F72205A
:100F9000333A20456E636F756E74657265642061C7
:100FA0002063686172616374657220746861742083
:100FB0006973206E6F742061207265636F676E695C
:100FC0007A656420747970652E2000004572726F16
:100FD0007220343A28696E7465726E616C20657295
:100FE000726F72202D627566666572206C696D691C
:100FF0007420657863656564656429200000457226
:10100000726F7220353A20496E617070726F707223
:1010100069617465207661726961626C65206E61D8
:101020006D6520656E636F756E74657265642E20E4
:1010300000004572726F7220363A2044617461205C
:10104000737461636B2070757368206572726F7260
:10105000202D746F6F206D616E7920617267756DE0
:10106000656E7473206F6E206F6E65206C696E659F
:101070002E2000004572726F7220373A204461744E
:101080006120737461636B20706F70206572726F82
:10109000722E0A0D20202020202020202046756E50
:1010A0006374696F6E20747269656420746F207553
:1010B000736520612076616C7565207468617420A9
:1010C000776173206E6F7420617661696C61626C08
:1010D000652E00004572726F7220383A204D6163B0
:1010E00068696E6520737461636B206572726F72DC
:1010F0000A0D20202020202020202046756E6374B9
:10110000696F6E7320616E642F6F722063616C6C07
:1011100073206E657374656420746F6F20646565F9
:10112000706C79206F7220746F6F20636F6D706CBC
:10113000657800004572726F7220393A20474F542B
:101140004F206F7220474F53554220646573746976
:101150006E6174696F6E206C696E652077617320B3
:101160006E6F7420666F756E642E00004572726F2C
:101170007220413A20537065636966696564206234
:10118000697420706F736974696F6E2072616E6725
:1011900065206F6620302E2E372065786365656484
:1011A000656400004572726F7220423A204C696E8D
:1011B00065206E756D62657220686173206D6F7257
:1011C00065207468616E207468726565206E756D47
:0811D0006572616C73200000E0
:00000001FF
