:020000020000FC
:1000000010C005CF04CF1ECB9EC401CF00CFFFCEC2
:10001000FECE32CB6CCBFBCE04C0F9CEF8CEF7CE01
:10002000F6CEA89504B701FDFECE0FE50DBF02E0A8
:100030000EBFF4D631D278940DD1CC2402D059D051
:10004000FACF4EE3A9DAC2E2D2E099DA3D3019F4F0
:10005000999898980BC0323229F4989902C0989ACE
:1000600001C09898333211F4989B999A0F93C33238
:1000700002E0D0070F9119F447E08EDAE6CF353170
:10008000D9F0383051F13F3741F13A30F1F239309F
:10009000E1F2999B38833D3009F408950F93CD3EEA
:1000A00001E0D0070F9119F447E076DACECF999BA3
:1000B0002197432FD4D0C9CFEF93FF93E2E2F2E030
:1000C000EC1BFD0B2E2EECEEFBE1E2D02A94D9F7CF
:1000D000C2E2D2E0FF91EF91B8CF0F93C23202E0BB
:1000E000D0070F9129F033273993ECEEFBE1D0D004
:1000F000ACCFC2E2D2E038817ED0023009F431C404
:10010000A9D0A16002C0AE7FBF7B8DB79EB70F9311
:100110008F3202E090070F9108F41BC63FD05D308C
:1001200019F4B2FD71D318C05B33B1F0032D023066
:1001300019F4ACD228D1E9CF7F756F755F750530A2
:1001400039F0413029F4032D033011F407D1DDCF0C
:1001500005D05D3009F00895A1600895E4E4F7E169
:1001600012D0071661F40FD0061651F40CD0051604
:1001700041F431960591F491E02F09950895319657
:1001800031963096EDCF0590002039F4149011206F
:1001900021F400E00093250204C6089570EF60EF9B
:1001A00041E0388128D0013011F418D0F7CF532F17
:1001B00015D03D3081F03D2C38813D3061F01BD0B1
:1001C0003D1429F455D30AD043954330A9F738811B
:1001D00012D03D1409F0089501D0F9CF0F93CC3E11
:1001E00001E0D0070F9129F404E000932502D9C55E
:1001F0000895219708953F9300273D3009F41FC0CB
:100200003F75303009F402C03C3011F401E018C0F1
:10021000323011F405E014C0303411F405E010C0A0
:1002200030310AF40DC03B350AF00AC0303412F008
:1002300003E006C03A3112F41AF402E001C004E00F
:10024000D02E3F9108951CD58F93492FA5D94F915A
:10025000A3D908954DE0A0D94AE09ED908954D3024
:1002600011F4F8DF089598C9472F05D0462F03D021
:10027000452F01D008954F93407F4295405D8CD922
:100280004F914F70405D88D9089502D0E3DF089503
:100290004591442309F40895483F11F435D0F8CF2F
:1002A000493F21F41590459155D0F2CF4A3F11F4C2
:1002B000D1DFEECF4B3F41F4EF93FF93E2E2FCE15D
:1002C000E7DFFF91EF91E4CF4C3F41F4EF93FF93D1
:1002D000E0EFFBE1DDDFFF91EF91DACF4D3F41F43D
:1002E000EF93FF93E6E0FCE1D3DFFF91EF91D0CFF6
:1002F0004E3F41F4EF93FF93ECE0FCE1C9DFFF9147
:10030000EF91C6CF49D9C4CF0F93EF93FF93112438
:1003100045914A30A1F04D3091F04A3F81F0493F7C
:1003200071F04C3F11F404E1100E4D3F11F405E063
:10033000100E4E3F11F40CE0100E1394E9CF1A94F6
:1003400046E3141A1194169440E204D0FF91EF9101
:100350000F91089521D91A94E9F7089551545D3009
:1003600022F005E0009325021CC5A0FF19F40BD074
:10037000A2600895E3ECF1E06627E50FF61F5081D7
:1003800002D0AD7F08950F9309E00C1509F4D9C48C
:100390001F921124E0EEF1E0EC19F1095083C394AF
:1003A00023951F900F910895CC2009F4CEC41F927D
:1003B0001124E1EEF1E0EC19F1095081CA942A957B
:1003C0001F900895EF93FF9302E00B1509F4C1C449
:1003D00002E05B2DA6D4E5EEF1E0E019F109D2933D
:1003E000C293B394FF91EF910895EF93FF93BB20D5
:1003F00009F4ABC402E05B2D94D4E5EEF1E0E01922
:10040000F109C191D081BA94FF91EF910895EF93D2
:10041000FF9302E00A1509F49CC404E05A2D81D42C
:10042000EDEEF1E0E019F10962927292429252927D
:10043000A394FF91EF910895EF93FF93AA2009F4FD
:1004400084C404E05A2D5A956CD4EDEEF1E0E01925
:10045000F1096290729042905290FF91EF9108954D
:10046000A3DF67D101E0552319F0000F5A95E9F792
:10047000502F51C7703039F0705D472F8DD86030E4
:1004800011F440E389D8603019F0605D462F84D8BC
:10049000505D452F81D80895ECEDF9E1F6DE089521
:1004A000D9DEE2ECF1E0C0912302D0912402EC17F6
:1004B000FD0721F04081D3DE3197F9CFCBDECADED4
:1004C00091E082EC7091230260912402871B960BCD
:1004D000B8D3CADEECECFBE1DBDE80912302909125
:1004E000240280569040ADD3BFDEECEDFBE1D0DEC0
:1004F0000895B06809D705E0301641F055DFD6D32E
:10050000B9DF40E249D82223C9F7A4DEBF770895B6
:10051000B068FAD644E240D847DF852F94DE40E247
:100520003BD82223B9F796DEBF770895B068ECD6A2
:100530003BDF78E040E3551F08F441E32DD87A957E
:10054000C9F740E229D8222399F784DEBF770895BE
:10055000488144DE423231F04E3711F01DD8F8CFD9
:1005600079DEF6CF0895CCD6E3ECF1E06627E50F0F
:10057000F61F00830895B5FF3BC6BFD6452E14DF96
:10058000052F12DF552E6627E3ECF1E0E50FF61F8D
:100590000083A062AE7FBF7D0895AFD6552309F4D6
:1005A000A46008950F910F910895B0620895E3EC4F
:1005B000F1E0552D6627E50FF61F0081041521F0A7
:1005C00003950083A0610895AA9409F035DF08958A
:1005D0009ADD0895B1600895988100DE8881382FF2
:1005E0000ADE013021F0043011F0F8DD02C0892F5D
:1005F000992753D3582FC7DE86DD0895552708E085
:10060000202E8881EBDD382FF6DD302E023019F0F8
:10061000CF5FDF4F07C08894317030FD0894551FBD
:100620002A9479F7B0DE6FDD08950CE1009325027E
:10063000B8C3CF93DF9361D6D8E4C9EFCA95000061
:10064000E9F7DA950000C9F7D1E6C3E1CA950000E1
:10065000E9F7DA950000C9F75A9571F759C6552799
:1006600092DE4BD601E005172AF0A79850FF0895B7
:10067000A79A089576C304B7077F04BF08E101BDB8
:100680000EE001BDF8948895000008957F706F70AA
:100690005F7019D3089531D6452FE2ECF1E08091D7
:1006A0002302909124020AC0F91711F48E17C0F4A6
:1006B00000810D3011F03197F7CF3197552766271C
:1006C0007727F91711F48E1758F4308194DD023032
:1006D00019F4CED03197F5CFD9DF451729F7089512
:1006E00009E0009325025DC3D6DFEF010895D3DF53
:1006F000A06C0895B3FF02C0A8600895B16008958A
:10070000FCD5452F49D70895E2ECF1E0F09324029F
:10071000E0932302CC24AA27BB270FB70F93F894AA
:10072000F2D0F7D00F910FBF95DDECE8F9E1ADDD28
:100730000895583008F4089510C3543008F408950B
:1007400014C3523008F408950CC3CF93DF93DCD563
:10075000C0E0D0E064D2222319F0213021F011C38F
:10076000502F11DE06C020DE00C0052FC0E0D0E013
:100770005DD2CEC55AE2CFC540E242CCBB24AA240A
:10078000A898B460C2ECD1E03FD0CC24A16016D7C9
:10079000A6FF02C017DEAF7BA7FF03C0EF01B86062
:1007A000AF77A3FF05C021DEBB2009F4B77FA77F89
:1007B000A5FF03C03E012BDEAF7DA4FF02C0E30115
:1007C000AF7EB0FF06C042D0C0912302D091240278
:1007D000BE7F80912302909124028C1B9D0B78F4A4
:1007E000388109DDA2FF04C0043011F02197CDCF7C
:1007F000AB7F023011F42197C8CF87DCC6CF00E071
:1008000000932602BB7F089500912402D01729F49B
:1008100000912302C01709F40895CF93DF93DF926C
:100820003F93662755273881E6DC023021F04BD212
:100830005093260204C01CD05F702197F4CFAB9B6D
:1008400002C055D007DD3F91DF9062C5E4ECFBE1CB
:100850001FDD089554EBE0E6F0E0019150270F937F
:10086000EF3502E0F0070F91C1F750932902089588
:10087000762F652F532F08957727662755270895DC
:10088000DF93D2E0DA950000E9F7DF910895DF9376
:10089000D5E0F6DFDA95E9F7DF910895DF93DAE046
:1008A000EFDFDA95E9F7DF910895DF93D4E6E8DF2B
:1008B000DA95E9F7DF910895CF93DF93D3E6C3E1AB
:1008C000CA950000E9F7DA950000C9F7DF91CF91EA
:1008D00008950F930AE0F0DF0A95E9F70F91089564
:1008E0000F930AE0F6DF0A95E9F70F910895EAE120
:1008F000FCE1CEDCCF93DF93DD27C0912602FFD150
:10090000DF91CF910895E0E6F0E091E083E60027E3
:1009100005C0E3ECF1E090E08DE000270193019742
:10092000E9F70895E0E6FBE1B3DC089580912F023A
:1009300080FFFCCF89B7897F89BF0895F89489B774
:10094000866089BF089508E101BD00E001BD9D9A60
:10095000189504E00093250224C20BE000932502C1
:1009600020C24427E1D05430C0F7809123029091F7
:1009700024020F93823C01E090070F9109F45BC0C1
:10098000C2E2D2E079DF0F93CC3E01E0D0070F91B5
:1009900002F3388130DC023029F4762F652F532F93
:1009A0002197F1CF73DE452EE0912302F0912402CE
:1009B0004C7F62DF552431960F93E33C01E0F00752
:1009C0000F9191F0308117DC043071F0023089F71B
:1009D0005394562F672F732FEECF0F93E33C01E014
:1009E000F0070F9131F70895052D033029F0539446
:1009F000562F672F70E0F8CF41FD02C04260D9CF7B
:100A000045DE4516A1F110F441603F010F93E33C30
:100A100001E0F0070F9111F440FF0DC040FFDDCF62
:100A2000541508F452C00F93E33C01E0F0070F9116
:100A300009F44BC0D2CF78D0003009F40895C2E257
:100A4000D2E0E0912302F09124020F93E03600E01F
:100A5000F0070F9109F435C0088100833197219781
:100A60000D3099F7F0932402E09323020895319713
:100A7000EF010F93E03600E0F0070F9109F469CF22
:100A8000088121970D30A9F7BF016C1B7D0B809168
:100A9000230290912402860F971F90932402809343
:100AA00023020F93E03600E0F0070F9129F0088150
:100AB000008321973197F5CF37D0003009F051CF1F
:100AC000089502E0009325026CC12ED0003059F148
:100AD00000912402003029F40091230200560817E7
:100AE00080F3E0912302F0912402DF2FCE2FC81B68
:100AF000D040D0932402C0932302F71519F4E615D1
:100B000009F405C00081088321963196F6CFC2E230
:100B1000D2E0F72DE62D3197088100830D3019F0D2
:100B200031972197F9CF0895C2E2D2E0552788275F
:100B300099274B7F3881219783953D3041F05BDBCE
:100B4000023039F044600130A9F39395F3CF092FB7
:100B5000089542FF5395EECFC2E2D2E0E03609F0AD
:100B6000B0CF08810083319721970D30B9F7F0930A
:100B70002402E09323020895C2ECD1E0E091230225
:100B8000F0912402CE1BDF0BEFEDF1E0EC17FD0737
:100B900024F4EAE7FBE179DB0895E2EAFBE175DBA7
:100BA000CC24E2ECF1E0CFEFD1E060912302709130
:100BB0002402A69800813AD00F93E03600E0F007B7
:100BC0000F9161F0E617F70749F021970F93C030B6
:100BD00000E0D0070F9111F03197ECCF002726D01D
:100BE000089592DDE2EBFBE150DBE3ECF1E0CFEFC7
:100BF000D1E015D00F3F19F4002718D0BEC00FD098
:100C00000293002311F02197D1F73197CC24F09370
:100C10002402E0932302B2FF52DC0895B2C0E199AE
:100C2000FECFDFBBCEBBE09A0DB30895E199FECFB6
:100C3000DFBBCEBB44E0A69944E10DBB4CBBE19ABF
:100C400008950C01889400E117DE001C111C551F4B
:100C5000661F771F0A9509F40895352F08D0532F82
:100C6000362F05D0632F372F02D0732FEECF432FAF
:100C70004D5F43FD342F432F405D47FD342F0895D2
:100C8000982F92959F70905D9A3308F0995F8F70BE
:100C9000805D8A3308F0895F089596FD975F9F70A5
:100CA00086FD875F8F709295892B08957727662739
:100CB000545610F07395FCCF5C595A5010F0639560
:100CC000FCCF565F08957330B2F4723032F0663064
:100CD00092F4653012F0563072F4662321F00AE087
:100CE000500F6A9581F7772309F4089504E68894F4
:100CF000500F7A95C0F701E00093250252C04FE2F1
:100D00004395C456D040E0F7CC59DF4F45D44FE26D
:100D10004395CA50E8F7C65F3FD44C2F405D3CD4A2
:100D200008957FB77F93F894052E112458E0069418
:100D300008F4100E179407945A95D1F70F910FBF2E
:100D4000089506E0009325022CC007E000932502D9
:100D500028C008E00093250224C00AE00093250281
:100D600020C00CE0009325021CC00DE0009325027A
:100D700018C001E10093250214C002E1009325028E
:100D800010C006E1009325020CC00BE10093250280
:100D900008C00DE10093250204C00EE10093250276
:100DA00000C058DA112400902502D02C000CECED84
:100DB000FDE0E00DF11D0591F491E02FEE1FFF1F06
:100DC00067DA48DA94DD0FE50DBF02E00EBFAA270F
:100DD000BB2700E0009326023DDA2DC9150E1D0E3B
:100DE000230E2F0E3E0E4A0E540E5F0E6A0E860E16
:100DF000920E970EA30EA80EAD0EAE0EB60EBF0E3F
:100E0000C80ECE0ECF0ED00ED10ED80EE10EE80ECB
:100E1000F10EF20EF20EFB0E050F060FF8940024F1
:100E2000112433D041D00FEF00B9A898C0E0D0E032
:100E3000F6DE302F00FF01C0A89A00E00ABB00E0F8
:100E40000BBB00E007BB00E008BB112414BE13BAC3
:100E500014BA05B3017005BB10922602FBDCD4D393
:100E6000789400E205BF00E007B900E003B906EDA1
:100E700006B9A89B08C0B5DE81DCECD9EBD9ECE85B
:100E8000F9E103DA089540DC08950FB70F93A895B0
:100E900004B7077F04BFF89401B5086101BD007075
:100EA00001BD0F910FBF089550E860E056BD66BDCB
:100EB0000895009806ED06B906B104FFFDCFEEDCFB
:100EC0000895009AEBDC08951FD2B1F0CF93DF9321
:100ED00009E0C01678F411240C2CC0922802C8ED49
:100EE000D1E0C019D10960DA59930A94E1F7DF9192
:100EF000CF9107C003D025CF01D027CF00E00093CA
:100F0000280200E0009327025091280204C2CF93E8
:100F1000DF93FAD111247091280260912702C7ED66
:100F2000D1E0222359F0A1FF03C00C2D0A9531F026
:100F30003BDA7A95751762F0652F02C0761741F09B
:100F4000C61BD10958811FDA639560932702E0C15F
:100F5000FCCECF93DF93A598D6D801E03AD0588144
:100F6000DF91CF91D8C1CF93DF93A59ACCD802E07F
:100F700030D05883CDC1CF93DF93A598C4D801E07A
:100F800028D04DDE502FDF91CF91C5C1CF93DF9395
:100F9000A698A59AB8D802E01CD0052F0F93C030B0
:100FA00002E0D0070F9111F041DE12C0E6E9FBE14B
:100FB0006FD95527A69A219739DE5A9511F44EE23A
:100FC000EBD20F93C03000E0D0070F91A1F742D9C8
:100FD0009FC10C1969F0E8D95F93E6D9A59B05C0BC
:100FE0005F93E2D9DF91CF910895D52FCF910895E6
:100FF000DBD9A59B05C0052FD7D9C02FDD270895C4
:10100000C52FDD270895CF93DF9350E0BCD975D16C
:10101000CC2039F058300AF0C0CE60E866BD56BD2D
:1010200002C056B5B0D974C1CF93DF9351B7ABD9D5
:1010300064D151BF51B7DF91CF916DC159B36BC12D
:1010400056B369C1152F59D110FF02C05BBB08957B
:1010500058BB08955AB35FC157B35DC1152F4DD129
:1010600010FF02C05ABB089557BB0895152F4CD0EE
:1010700010FF03C0EAE3F0E04BC0E7E3F0E048C054
:10108000152F42D010FF03C0EAE3F0E045C0E7E3CC
:10109000F0E042C0152F38D010FF03C0EBE3F0E0C2
:1010A00037C0E8E3F0E034C0152F2ED010FF03C0A6
:1010B000EBE3F0E031C0E8E3F0E02EC0152F24D0E0
:1010C00010FF03C0EBE3F0E002C0E8E3F0E00081D2
:1010D000052350E0002309F451E01DC1152F14D061
:1010E00010FF03C0EBE3F0E01CC0E8E3F0E019C040
:1010F000152F0AD010FF03C0EBE3F0E002C0E8E3D5
:10110000F0E00FD0E6DB0DC0FED7AAD94DD9089587
:101110000081052B008308955095008105230083ED
:1011200008950081052700830895CF93DF93E5D0CC
:10113000CC2019F4652F552705C05F9335D9652F4D
:101140005F91FFDA112412BC50FF01C006C00FB539
:101150000168D69A1BBC6ABD05C00FB50162D59A5D
:1011600019BC68BD0FBD09E00EBDD2C000270EBD81
:101170000FBD02BD0895C4D0D4DD1120A79911F48C
:10118000502DC9C00FE0009325020BCE5F93B5D060
:101190005523A799B9F0052F07D9652F772759E06F
:1011A000661F5A9541F0771F701B18F4700F8894D2
:1011B000F7CF0894F5CF5F915F3011F4562F01C03F
:1011C000572FA9C001E100932502EBCD99D0500F14
:1011D000A79908F0A0C00FE000932502E2CD90D0BF
:1011E000501BA79908F097C000E100932502D9CDC4
:1011F00087D050170FB701FF10C011C081D0501712
:101200000FB701FF0CC009C05F937AD06F916C31AA
:1012100011F4501701C0051710F0552750FD51E08B
:101220007AC00DD0662319F056956A95E9F773C018
:1012300006D0662319F0550F6A95E9F76CC064D0A3
:10124000B3D8222311F461E0089573DA652FACD886
:10125000089556D050235FC053D0502B5CC050D05F
:10126000502759C04AD0509556C047D0519553C0C9
:1012700044D0529550C041D052955F704CC004EBA1
:1012800050912902579508F45027509329027BD892
:101290003AD7089532D05F703EC02FD000E8551F76
:1012A0000795E8F7502F37C0EF93FF9311242CD008
:1012B00041F400902802002009F447CDE8EDF1E068
:1012C00007C009E020170AF03CCD022EE1EEF1E064
:1012D00004D059D8FF91EF91089550E07CE8029135
:1012E00068E0302F352756950695369508F4572730
:1012F0006A95B9F70A9499F7089505D755D80895CE
:10130000FCDF052F51D808952227FDD6222308950A
:10131000DF91CF91089537D80895CF92F4D655270D
:101320000F910C1909F040D8C4DD00E003B907B1F2
:10133000007C5F73052B07B9583032F4577092D890
:1013400033D801B1502B51B95527662770E1F89475
:1013500006ED06B906B104FFFDCF84B195B1580F73
:10136000691F7A95A9F7789476E0669557957A95EE
:10137000E1F709D8A6DD0895552705D8BEDFE1D9E4
:1013800098DD07B10F7350FD006450FF006807B986
:1013900093DA089552E0F7D7B0DF553008F0F1CC7A
:1013A00004B3087F052B04BB089583DD08D05527BF
:1013B000459951E0479A85DDE6D7A5D6089500E026
:1013C00006B900E106B91E9808B10870006508B9B1
:1013D000A29B02C054E00AC01E9A54B3537007B1D6
:1013E000007C052B07B93ED8CA942A9551B95DDA1D
:1013F00008959B9A18955527C6D77FDF5523B1F0DE
:101400005A3008F0BECCA89504B7077F04BF052F5B
:101410005770000F000F00720064502BF89408E121
:1014200001BD51BD03B3077003BB0AC042DD1E9866
:10143000A19904C000E106B900E403B9449A41DD72
:101440007894889500009D9B02C09D9808959B9B71
:10145000F7CF9B9808950FB70F93F894DC9AD49A1E
:101460002BDADC9802E31ADA0A95E9F7DC9AD498C9
:1014700006E014DA0A95E9F751E009B304FD5527AF
:1014800082D702E30BDA0A95E9F70F910FBF3BD63B
:1014900008953ADF09F47DCC0FB70F93F894EF93DA
:1014A000FF931124E1EEF1E0C21A58E0252E52918B
:1014B000579510F446D001C04ED0E9D92A94C1F70F
:1014C00054D02A9591F7FF91EF910F910FBF089596
:1014D0000FB70F93F89418DF19F417D054D712C030
:1014E000CF93DF93112460D7752FC8EDD1E0109210
:1014F00027025093280209D05A9337D07A95D9F70A
:10150000DF91CF910F910FBF089508E0202E08D0F2
:10151000889400FD08945795BAD92A94C1F7089584
:10152000DC98D49AB4D9DC9AD498B1D90FEF39B3F6
:1015300034FF00270F930AE0AAD90A95E9F70F9123
:101540000895DC98D49AAAD9DC9AD49806E0A6D952
:101550000A95E9F70895D49ADC9807E09FD90A958F
:10156000E9F7DC9AD49893D9089591D990D98FD975
:10157000089505D0532F533009F4B160CCCE30918B
:101580002F0232FD03C088950000F9CF3B7F3093D6
:101590002F0230912C02089511D04F93B1FF07C054
:1015A0008895000040912F0242FFFACFBD7F13D0F3
:1015B00044E374D94A95E9F74F91089580912F0239
:1015C00082FF0895DCDF333111F4B26008953330C7
:1015D00009F4B160089580912F0280FFFCCF8E7FC7
:1015E00080932F0240932A0200E000932B02F8948C
:1015F000C19882B7865E8CBF88B7846088BF89B780
:10160000846089BF789408958F93029880B5816033
:1016100080BD8AB780628ABF8BB780628BBF89B773
:101620008D7F89BFB89889B78B7F89BFB99AC19AD6
:1016300001E000932F0200E000BF02E003BF8F91A2
:1016400078940895B09918950F930FB70F9302B738
:10165000005E06BF08B7026008BF09B7026009BF95
:101660000BB70F7D0BBF002700932D0200932E02B6
:101670000F910FBF0F9118952F932FB72F933F9373
:101680008F939F9386B7865E86BFB09B0EC02091D6
:101690002D0230912E0281E0992702C0880F991FF8
:1016A0003A95E2F7282B20932D0280912E02839504
:1016B00080932E0280912E02893091F480912D0228
:1016C00080932C0280912F02846080932F0289B72F
:1016D0008D7F89BF8AB780628ABF8BB780628BBFDC
:1016E0009F918F913F912F912FBF2F9118958F939D
:1016F0008FB78F938CB7865E8CBF80912B0288301A
:1017000068F480912A0280FF02C0C19A01C0C1988A
:1017100080912A02869580932A0201C0C19A809105
:101720002B02839580932B0280912B028A3030F01C
:1017300003E000932F0289B78B7F89BF8F912FBF62
:101740008F9118954C495320500252554E20BE039C
:1017500053415645BC054C4F4144F1055052492078
:101760007902505258208802505242209602454D2C
:1017700049548003464F5220D50250544F20E8026E
:101780004E455854D702465245205F024E455720D9
:10179000840350494620CD0254484520D202454E8C
:1017A0004420EA02525354203B0343464720A503FA
:1017B000501A1D20B30250501E20040950501C2006
:1017C0000409501C1E20FE0850011D20FE08505028
:1017D0001D20BB0250500B20E60850500D20EF0892
:1017E00050500A20BB0850500F20C6084D4F4420CF
:1017F000C60850500520C60850500420EC02505036
:101800000720FE0250500220A802444154416407C0
:101810005245414487075245535481074C53522047
:1018200011094C534C201809505006202909414EEB
:101830004420290950505C202C09504F52202C097B
:1018400050505E202F09584F52202F09434F4D20F2
:1018500032095050012032094E454720350953576F
:10186000415038094E4248203B094E424C204A091B
:10187000524556204D09524E44203F09414F5620B3
:101880002F0343524320540944454C411903474F09
:1018900054207403474F53207703524554207A0352
:1018A0004B455920B90A434C4B2003084F53432062
:1018B000140841434F20D50941435320CA095045DC
:1018C000454BA907504F4B45B30745455220BB0731
:1018D00045455720C607534C5020FB094F57492018
:1018E0002B0A4F575720490A4F575220680A4F4436
:1018F00041202E08494441202A08534441203608FB
:101900004344412040084F50412022085342412087
:101910004A08434241205408584241206E08504230
:1019200041207808494E41201E08494241205E0866
:101930004F4442202E08494442202C085344422060
:1019400036084344422040084F5042202208534268
:1019500042204A08434242205408584242206E081E
:10196000504242207808494E4220200849424220F5
:101970005E0850574D20950850574F20B6084144F7
:1019800043208D0941445220BC090000F9363DFA3C
:10199000F84174746F424153494320666F7220418D
:1019A0005474696E793834284129204020384D48D4
:1019B0007AFAF85665723A20322E3334204275692D
:1019C0006C6420636F64653A2032303137303230D6
:1019D000372E32303235FAF9363D0000F8456E6860
:1019E000616E636564206279204B2053636F747469
:1019F00020566974616C6520286B73765F70726A1B
:101A000040676D782E636F6D29FAF8415474696EE2
:101A10007938342F383520706F727420284329327A
:101A2000303136FAF854696E7938342F383520421F
:101A30006F6F746C6F61646572FE3230313620FAFC
:101A4000F8312D57697265285229FE32303133FA48
:101A5000F8536C656570FE32303132FAF9362DFA82
:101A6000F84261736520436F646520284329323052
:101A70003032204469636B2043617070656C73FA87
:101A8000F8687474703A2F2F70726F6A656374739C
:101A90002E63617070656C732E6F72672020707298
:101AA0006F6A656374734063617070656C732E6FE9
:101AB000726720FAF9362DFAF84F707469426F6F29
:101AC00074383520426F6F746C6F61646572206288
:101AD00061736564206F6E206F707469626F6F74DC
:101AE0002E63206279FAF84A2E204B796C652C20FF
:101AF000502E204B6E696768742C20422E2057654B
:101B000073746669656C642026204C616479616435
:101B100061FAF9362DFAF8416C6C207269676874C5
:101B20007320616E642072656D65646965732065FC
:101B30007870726573736C792072657365727665FF
:101B400064FAF84E6F7420666F7220636F6D6D6576
:101B5000726369616C20757365FAF9363DFA0000AD
:101B6000F9352DFA000044656275672000006F6E3C
:101B700020FA00006F6666FA0000FB3A2050676D9D
:101B800020746F6F206C6172676520666F722045EC
:101B900045502120FA0045726173696E6720454502
:101BA0005000536176696E6720746F204545502E52
:101BB000FA004C6F6164696E672066726F6D204534
:101BC0004550FA00427265616BFA00002062797438
:101BD000657320757365642E20200000206279747F
:101BE000657320667265652E20FA000008200800E3
:101BF00056616C75652065786365656465642072FF
:101C0000616E67650000206E6F7420002073757030
:101C1000706F72742028432900004C696E65202380
:101C200020004572726F723A0000FB434D442F4F03
:101C30005020556E6B6E6F776E00FBFC206F662038
:101C4000303A32353500FB50726F6772616D206D2E
:101C5000656D6F72792069732066756C6C00FB434B
:101C60006861726163746572FD61207265636F679C
:101C70006E697A656420747970652E00FB42756622
:101C8000666572206C696D6974206578636565644A
:101C900065642E00FB426164207661726961626C4A
:101CA00065206E616D652E00FB546F6F206D616E57
:101CB0007920617267756D656E74732E2000FB5616
:101CC000616C756520776173FD617661696C616235
:101CD0006C652E00FB537461636B206572726F72CA
:101CE00020FAF9092046756E632F63616C6C7320CE
:101CF000746F6F20636F6D706C65782F6E65737491
:101D0000656420746F6F206465657000FB474F54F5
:101D1000206F7220474F532064657374FD666F75A2
:101D20006E642E00FBFC206F6620303A3700FB4CBF
:101D3000696E65206E756D626572203E2033206489
:101D4000696769747300FBFC206F6620303A3100CC
:101D5000FBFC206F6620303A33000000FB4D6174BD
:101D600068206F766572666C6F772E00FB4D61742C
:101D70006820756E646572666C6F772E2000FB4478
:101D80006976696465206279207A65726F2E200019
:101D9000FB456D7074792046696C65000000000099
:101DA0000000FB53706563696669656420FC2E0062
:101DB000FB53657420414320526566203E20302E3F
:101DC0002000FB444556206E6F20726573702E0014
:101DD000FB44657669636520636865636B73756D45
:101DE0002E000000FBFD612062696E617279206E39
:101DF000756D62657200FB496E76616C69642023C3
:101E0000206F6620617267732E0000000000189535
:0C1E100017BFE89507B700FDFDCF08954F
:101E2600112484B714BE81FFE2C0D19AD99AEE2458
:101E3600FF2453E041E08FE0D6D032E1532E3FEC51
:101E4600432EBBD0813461F4B8D0182FA3D01238FA
:101E560011F0113811F484E001C083E0A0D093C0E2
:101E6600823411F484E103C0853419F485E0B5D0D9
:101E76008AC0853541F4A1D0A82E9FD0B82EAA0CD1
:101E8600BB1C75017FC0863521F484E0A6D080E0B6
:101E9600E5CF843609F044C090D08FD0182F8DD06E
:101EA600C0E6D0E08AD089931A95E1F773D0F7019E
:101EB60057BFE89507B600FCFDCFE114F104C9F45D
:101EC60080916000909161009093E5008093E4001A
:101ED60080907800909079009092E7008092E600DA
:101EE6000C9780937800909379005092600040920E
:101EF6006100C701A0E6B0E06D907D90FC01030192
:101F060047BFE8950296F0E0A03ABF07A9F711246B
:101F160025E0F70127BFE89507B600FCFDCF33C0E3
:101F2600843719F54AD049D0182F47D033D0F70156
:101F3600309719F48091E40011C0E130F10519F4ED
:101F46008091E5000BC0E831F10519F48091E600B7
:101F560005C0E931F10521F48091E700319601C011
:101F660085911DD01A9521F70EC0853739F412D008
:101F76008EE115D083E913D08CE070CF813511F452
:101F860088E031D007D080E10AD05BCF93E19A9503
:101F9600F1F7089512D0803209F0FFCF84E12AE0EC
:101FA6008095089410F4D99802C0D99A0000EEDF03
:101FB600EDDF86952A95B1F7089529E08827C89917
:101FC600FECFE4DFE3DFE2DF8894C89908942A9520
:101FD60011F08795F7CFA8950895082FEEDF0150E9
:101FE600E9F7D8DF089598E191BD81BD0895882766
:0A1FF600FADFECE0FF270994050470
:00000001FF
