:101E2000112484B714BE81FFE2C0B99AC19AEE248E
:101E3000FF2453E041E08FE0D6D03FE0532E3FEC4B
:101E4000432EBBD0813461F4B8D0182FA3D0123800
:101E500011F0113811F484E001C083E0A0D093C0E8
:101E6000823411F484E103C0853419F485E0B5D0DF
:101E70008AC0853541F4A1D0A82E9FD0B82EAA0CD7
:101E8000BB1C75017FC0863521F484E0A6D080E0BC
:101E9000E5CF843609F044C090D08FD0182F8DD074
:101EA000C0E6D0E08AD089931A95E1F773D0F701A4
:101EB00057BFE89507B600FCFDCFE114F104C9F463
:101EC00080916000909161009093E5008093E40020
:101ED00080906E0090906F009092E7008092E600F4
:101EE000079780936E0090936F005092600040922D
:101EF0006100C701A0E6B0E06D907D90FC01030198
:101F000047BFE8950296F0E0A03ABF07A9F7112471
:101F100025E0F70127BFE89507B600FCFDCF33C0E9
:101F2000843719F54AD049D0182F47D033D0F7015C
:101F3000309719F48091E40011C0E130F10519F4F3
:101F40008091E5000BC0EE30F10519F48091E600B8
:101F500005C0EF30F10521F48091E700319601C012
:101F600085911DD01A9521F70EC0853739F412D00E
:101F70008EE115D083E913D08BE070CF813511F459
:101F800088E031D007D080E10AD05BCF92E49A9507
:101F9000F1F7089512D0803209F0FFCF84E12AE0F2
:101FA0008095089410F4C19802C0C19A0000EEDF39
:101FB000EDDF86952A95B1F7089529E08827B09935
:101FC000FECFE4DFE3DFE2DF8894B09908942A953E
:101FD00011F08795F7CFA8950895082FEEDF0150EF
:101FE000E9F7D8DF089598E191BD81BD089588276C
:081FF000FADFE7E0FF27099486
:061FF800FFFFFFFFFFFFE9
:021FFE000504D8
:0400000300001E20BB
:00000001FF
