:020000020000FC
:100000000C9438000C94041F0C94041F0C94041FCF
:100010000C94041F0C94041F0C94041F0C94041FD4
:100020000C94BC050C9464120C94041F0C94041FD3
:100030000C94041F0C94041F0C94041F0C94041FB4
:100040000C9411130C94041F0C94041F0C94041FA3
:100050000C94041F0C94041F0C94041F0C94401067
:100060000C94041F0C94041F0C94041F0C94041F84
:10007000A8950FEF0DBF00E10EBF0E940A0A0E9473
:10008000B80278940E947901CC240E944A000E9410
:10009000AD00F7CF48E94093C1004EE30E94E51858
:1000A000CEE6D0E10E94D8183D3021F4F198F098C6
:1000B0000C946500323229F4F09902C0F09A01C024
:1000C000F098333211F4F09BF19A0F93CF3600E1A0
:1000D000D0070F9121F447E00E94E518E3CF3531B6
:1000E000E9F0383069F13F3759F13A30D9F2393017
:1000F000C9F2F19B38833D3009F408950F93C9305C
:1001000000E1D0070F9121F447E00E94E518CACF23
:10011000F19B2197432F0E948001C4CFEF93FF935F
:10012000EEE6F0E1EC1BFD0B2E2EE0E1FBE30E947E
:10013000A0012A94D1F7CEE6D0E1FF91EF91B2CFA2
:100140000F93CE3600E1D0070F9131F0332739936A
:10015000E0E1FBE30E94A001A5CFCEE6D0E138812B
:100160000E944501023011F40C94CE050E947901E1
:10017000A16002C0AE7FBF7B8DB79EB70F938F3A51
:1001800000E190070F9110F40C9496090E940F0162
:100190005D3021F4B2FD0E9425051BC05B33C9F020
:1001A000032D023021F4F8D20E942302E5CF7F759F
:1001B0006F755F75053041F0413031F4032D033028
:1001C00019F40E940B02D8CF0E94EB005D3009F0B9
:1001D0000895A1600895E0E1F3E30E94030107168A
:1001E00071F40E940301061659F40E9403010516DA
:1001F00041F431960591F491E02F099508953196D7
:1002000031963096EACF0590002041F414901120E9
:1002100029F400E0009371100C94C809089570EF60
:1002200060EF41E038810E944501013019F40E94DD
:100230003701F5CF532F0E9437013D30A1F03D2CFF
:1002400038813D3081F00E9445013D1439F40E940F
:100250005D050E9437014395433091F738810E9434
:1002600045013D1409F008950E943701F7CF0F931F
:10027000C83000E1D0070F9131F404E00093711011
:100280000C94C8090895219708953F9300273D30A5
:1002900011F40C946B013F75303011F40C94520141
:1002A0003C3011F401E018C0323011F405E014C004
:1002B000303411F405E010C030310AF40DC03B3584
:1002C0000AF00AC0303412F003E006C03A3112F4EA
:1002D0001AF402E001C004E0D02E3F9108950E947C
:1002E000B4088F93492F0E94E5184F910E94E5189A
:1002F00008954DE00E94E5184AE00E94E51808952F
:100300004D3011F4F6DF08950C94E518472F0E9444
:100310009001462F0E949001452F0E949001089560
:100320004F93407F4295405D0E94E5184F914F707A
:10033000405D0E94E51808950E94A001DADF08954B
:100340004591442309F40895483F19F40E94DF01C0
:10035000F7CF493F29F4159045910E940602F0CF4E
:100360004A3F11F4C6DFECCF4B3F41F4EF93FF93CC
:10037000ECE8FBE3E5DFFF91EF91E2CF4C3F41F486
:10038000EF93FF93EAE5FBE3DBDFFF91EF91D8CF3B
:100390004D3F41F4EF93FF93E0E7FBE3D1DFFF91A3
:1003A000EF91CECF4E3F41F4EF93FF93E6E7FBE3AF
:1003B000C7DFFF91EF91C4CF0E94E518C1CF0F9323
:1003C000EF93FF93112445914A30A1F04D3091F005
:1003D0004A3F81F0493F71F04C3F11F404E1100EA7
:1003E0004D3F11F405E0100E4E3F11F40CE0100EDD
:1003F0001394E9CF1A9446E3141A1194169440E228
:100400000E940602FF91EF910F9108950E94E51856
:100410001A94E1F7089551545A312AF005E00093F7
:1004200071100C94C809A0FF21F40E942302A2605D
:100430000895E7E9FFE06627E50FF61F50810E9467
:100440002302AD7F08950F9300E20C1511F40C9474
:100450008C091F921124E0EFFFE0EC19F1095083A1
:10046000C39423951F900F910895CC2011F40C9400
:1004700091091F921124E1EFFFE0EC19F10950817D
:10048000CA942A951F900895EF93FF9304E00B15EB
:1004900011F40C94960932E00B2D039FE9EFFFE075
:1004A000E019F109D293C293B394FF91EF910895AB
:1004B000EF93FF93BB2011F40C94910932E00B2DC4
:1004C000039FE9EFFFE0E019F109C191D081BA94EF
:1004D000FF91EF910895EF93FF9304E00A1511F453
:1004E0000C94960934E00A2D039FE9E0F0E1E0194D
:1004F000F1096292729242925292A394FF91EF910B
:100500000895EF93FF93AA2011F40C94910934E01D
:100510000A2D0A95039FE9E0F0E1E019F1096290E4
:10052000729042905290FF91EF9108959EDF0E9449
:100530002E0401E0552319F0000F5A95E9F7502FCA
:100540000C94A80F703049F0705D472F0E94E51899
:10055000603019F440E30E94E518603021F0605DDE
:10056000462F0E94E518505D452F0E94E51808951A
:10057000EAECF7E3E1DE0895BCDEE6E9FFE0C091D6
:100580006F10D0917010EC17FD0721F04081B8DE9C
:100590003197F9CFAEDEADDE9FE086E970916F1046
:1005A00060917010871B960B0E949508AFDEE0EFFC
:1005B000FAE3C6DE80916F109091701080509140E8
:1005C0000E949508A3DEE0E0FBE3BADE0895B06880
:1005D0000E94A00F05E0301651F047DF0E94CA08C4
:1005E000B1DF40E20E94E5182223B9F782DEBF772F
:1005F0000895B0680E94A00F44E20E94E51835DF1C
:10060000852F6DDE40E20E94E5182223A9F771DEF6
:10061000BF770895B0680E94A00F27DF78E040E31D
:10062000551F08F441E30E94E5187A95C1F740E2AE
:100630000E94E518222389F75CDEBF770895488180
:1006400016DE423239F04E3719F00E94E518F7CF26
:1006500050DEF5CF08950E949B0FE7E9FFE0662783
:10066000E50FF61F00830895B5FF0C94EA0E0E9473
:10067000960F452EFADE052FF8DE552E6627E7E9A0
:10068000FFE0E50FF61F0083A062AE7FBF7D0895F7
:100690000E94960F552309F4A46008950F910F91BD
:1006A0000895B0620895E7E9FFE0552D6627E50F4C
:1006B000F61F0081041521F003950083A0610895C1
:1006C000AA9409F01EDF089555DD0895B1600895DC
:1006D0009881CDDD8881382FD8DD013029F00430B4
:1006E00019F0C5DD0C947603892F99270E94C10863
:1006F000582FA9DE3FDD08950981073211F00C94CF
:10070000810B552708E0202E8881B1DD382FBDDD13
:10071000302E023019F0CF5FDF4F07C08894317060
:1007200030FD0894551F2A9479F78DDE23DD089556
:100730000CE1009371100C94C809CF93DF930E94D1
:10074000960F0AE0F79888950000F79BFBCF0A9573
:10075000C9F75A95B1F70C94A50F552774DE0E947E
:10076000960F01E005174AF00AB50F770ABD50FF52
:1007700008950AB500680ABD08950C94A00904B74D
:10078000077F04BF08E1009360000EE00093600063
:10079000F8948895000008957F706F705F700E94D4
:1007A000D70808950E94960F452FE6E9FFE0809153
:1007B0006F10909170100C94E703F91711F48E17D5
:1007C000C8F400810D3011F03197F7CF31975527DC
:1007D00066277727F91711F48E1760F4308155DDFD
:1007E000023021F40E945D053197F4CFD5DF451723
:1007F00021F7089509E0009371100C94C809D2DF25
:10080000EF010895CFDFA06C0895B3FF0C940A04A4
:10081000A8600895B1600895488129DD4D30E1F761
:1008200008950E94960F452F0E94E5180895E6E965
:10083000FFE0F0937010E0936F10CC24AA27BB2741
:100840000FB70F93F8940E94A9050E94AF050F916E
:100850000FBF4FDDEAE7F7E36FDD0895583008F486
:1008600008950C949B09543008F408950C94A5093C
:10087000523008F408950C94A009CF93DF930E949E
:10088000A00FC0E0D0E00E948208222331F0213086
:1008900039F0223081F00C94B409502FD4DD24C0FB
:1008A000E4DDDCDF552319F006955A95E9F751E0B0
:1008B00000FF5527F3CF702FD8DDC0EFDFE00881B0
:1008C000083069F0D5DF652FD0DDC8DFBCDD2EDE56
:1008D000CC2460FD03C05095572301C0572B052F32
:1008E000C0E0D0E00E9489080C94A50F5AE20C9455
:1008F000A80FCF93DF930E94B80540E20E94E5184D
:10090000E0E1F3E3D2E3C4E07591772309F43CC05E
:1009100065915591643521F45F34A1F470E220C0F3
:10092000693421F4563471F470E21AC06F3451F412
:10093000523541F47735A1F0783591F0763481F075
:1009400070E20EC0503439F05E352CF45C3514F48E
:10095000503334F4505E70E260330AF06627605E14
:10096000472F0E94E518462F0E94E518452F0E9448
:10097000E51840E20E94E5183396D45022F6B9DC1F
:1009800040E20E94E518BECFB4DC0E94B8050C948A
:10099000A50F0BB500FD0EC0EDDBCC2059F065DDD9
:1009A00007E0051714F40C94B409B4600E94A9057B
:1009B0000E942D07BB24AA240BB50E7F0BBDB4608B
:1009C000C6E9DFE00E942505CC24A1600E94F6184C
:1009D000A6FF02C059DDAF7BA7FF03C0EF01B860DF
:1009E000AF77A3FF05C064DDBB2009F4B77FA77F05
:1009F000A5FF03C03E016FDDAF7DA4FF02C0E30190
:100A0000AF7EB0FF07C00E944B05C0916F10D09120
:100A10007010BE7F80916F10909170108C1B9D0B99
:100A200078F4388132DCA2FF04C0043011F0219741
:100A3000CBCFAB7F023011F42197C6CF9DDBC4CF63
:100A400000E000937210BB7F089500917010D017E2
:100A500029F400916F10C01709F40895CF93DF9324
:100A6000DF923F936627552738810FDC023029F04B
:100A70000E94D7085093721005C00E945D055F70F8
:100A80002197F2CF0BB503FF02C056D032DC3F9165
:100A9000DF900C94A50FE8EEFAE352DC089554EBD6
:100AA000E0E0F1E0019150270F93EF3F00E1F00704
:100AB0000F91C1F7509375100895762F652F532F1E
:100AC00008957727662755270895DF93D2E0DA95B2
:100AD0000000E9F7DF910895DF93D5E0F6DFDA95BE
:100AE000E9F7DF910895DF93DAE0EFDFDA95E9F7D0
:100AF000DF910895DF93D4E6E8DFDA95E9F7DF9137
:100B00000895CF93DF93D3E6C3E1CA950000E9F7D8
:100B1000DA950000C9F7DF91CF9108950F930AE0AD
:100B2000F0DF0A95E9F70F9108950F930AE0F6DFD9
:100B30000A95E9F70F910895E4E8FBE301DCCF9310
:100B4000DF93DD27C09172100E944B09DF91CF9196
:100B50000895E0E0F1E09EE087E9002705C0E7E9BD
:100B6000FFE090E08AE1002701930197E9F70895FB
:100B7000E6EEF9E3E5DB089508E10093600000E0AC
:100B800000936000F59A189504E0009371100C949E
:100B9000C8090BE0009371100C94C80944270E9407
:100BA000B6065430B0F780916F10909170100F938B
:100BB00086390FE090070F9109F45BC0CEE6D0E1D3
:100BC00080DF0F93C83000E1D0070F91EAF238813F
:100BD0005CDB023029F4762F652F532F2197F1CF5C
:100BE000DBDD452EE0916F10F09170104C7F69DFD6
:100BF000552431960F93E7390FE0F0070F9191F0EC
:100C0000308143DB043071F0023089F75394562F62
:100C1000672F732FEECF0F93E7390FE0F0070F9197
:100C200031F70895052D033029F05394562F672F7F
:100C300070E0F8CF41FD02C04260D9CFADDD45166E
:100C4000A9F110F441603F010F93E7390FE0F0077D
:100C50000F9111F440FF0DC040FFDDCF541508F493
:100C600055C00F93E7390FE0F0070F9109F44EC01C
:100C7000D2CF0E94B606003009F40895CEE6D0E146
:100C8000E0916F10F09170100F93E03001E0F007E9
:100C90000F9109F436C008810083319721970D30F8
:100CA00099F7F0937010E0936F1008953197EF016A
:100CB0000F93E03001E0F0070F9109F465CF088150
:100CC00021970D30A9F7BF016C1B7D0B80916F1030
:100CD00090917010860F971F9093701080936F10F3
:100CE0000F93E03001E0F0070F9129F008810083B5
:100CF00021973197F5CF0E94B606003009F04ECF0C
:100D0000089502E0009371100C94C8090E94B60681
:100D1000003059F100917010013029F400916F10EA
:100D20000050081770F3E0916F10F0917010DF2FF2
:100D3000CE2FC81BD040D0937010C0936F10F71502
:100D400019F4E61509F405C000810883219631964F
:100D5000F6CFCEE6D0E1F72DE62D3197088100835E
:100D60000D3019F031972197F9CF0895CEE6D0E1F3
:100D70005527882799274B7F3881219783953D30C8
:100D800041F083DA023039F044600130A9F39395E1
:100D9000F3CF092F089542FF5395EECFCEE6D0E171
:100DA000E03009F0AECF08810083319721970D30F4
:100DB000B9F7F0937010E0936F100895AF93BF935D
:100DC000552741DB0E94960F583014F00C94B4095B
:100DD00085D0A6E9BFE0E0916F10F0917010AE1BD6
:100DE000BF0BAF5FBF4F57D1EA1BFB0BBF91AF915A
:100DF00028F4ECE8FAE3A0DA0C942C07E8EBFAE329
:100E00009FDA852F6CDA75DA00E00093881034D110
:100E10001124C8E1D0E0C50FD11D022D7AD1E7E938
:100E2000FFE001E03EE1C9E8D0E1099302910993B6
:100E3000002371F03A95D1F71FD128822F920091AB
:100E4000871000938810B4D00F9100938810E9CFD9
:100E500009933A95E9F7ACD00895B2FD06C055273D
:100E6000F2DA88D902DB583024F5E1DCE8ECFAE369
:100E700067DA852F34DA3DDAEFD016F40C94AF0937
:100E8000E7E9FFE03EE1CAE8D0E10991002341F043
:100E900002933A95D1F708810093881085D0F2CF5C
:100EA0003197CC24F0937010E0936F10B2FF73DB96
:100EB00008950C94B409CF93DF933FE330938810E7
:100EC00095D03A95D9F7A1D00C94A50F5527BBDA48
:100ED00051D9CBDA583014F00C94B409DD27C52F62
:100EE000C85EDF4F0FD1002309F4089500938810E6
:100EF000B3D07CD0C9E8D0E10F8D009388100023D7
:100F000021F0009511F050D0F4CF8DD00895CF93FB
:100F1000DF935527852FE3D94AE30E94E51840E285
:100F20000E946008CF015F930E949508F2D9EEED10
:100F3000FAE306DA0F93503000E060070F9129F4CE
:100F4000E8EDFAE3FDD95F9112C05F9185D0CAE860
:100F5000D0E16EE149910E94E5184D3041F06A956B
:100F600009F0F8CF4881409388101ED0F0CFC1D946
:100F70005395583009F0CECFBCD90E944B08EF935F
:100F8000FF939D2F8C2F0E949508C3D9E0EFFAE3C1
:100F9000D7D99F918F910E949508BBD9E0E0FBE3E0
:100FA000CFD9A7D90C94A50F0AB50F7D0ABD03C0F0
:100FB0000AB500620ABDCF93DF93EF93FF9300E27F
:100FC000202EE9E8F0E10091881019D00AB505FF5C
:100FD00003C001919ED002C095D00193CF5FDF4F37
:100FE0002A94A1F7FF91EF910C94A50FCF93DF9373
:100FF00006D00AB500640ABD8CD00C94A50F00E29F
:1010000040918810049FE001089588E0C8E1D0E095
:101010000AB50F7B0ABD00270E948908CF5FDF4F0A
:101020008A95C9F708950AB50F7B0ABD0027DD2709
:10103000C52FC85EDF4F0E9489080895C9E8D0E136
:1010400000E000938810B0DF0895C9E8D0E100E027
:1010500000938810ADDF0895F1DF052EC00DD11D7E
:10106000C85EDF4F0881002311F46894089500934F
:1010700088109ADFE8940895CF93DF93209088102A
:1010800020928710239420928810B9DF3BD00F3F25
:10109000C9F70C94A50FAF93BF935F93BB27AA2703
:1010A00057E00E946008AE0FBF1F5A95D2F7E2E6E4
:1010B000F7E0EA1BFB0BED015F91BF91AF91089543
:1010C0005F93E9E8F0E190E080E070E06EE1B6DF88
:1010D000052EE00DF11DE85EFF4F0081002379F041
:1010E000E9E8F0E1009388105FDF008101300FB77D
:1010F00001FF05C0860F971F078D002399F7FC019C
:101100005F910895F999FECFD2BDC1BDF89A00B59F
:101110000895F999FECFD2BDC1BD44E00AB406FCE2
:1011200044E100BD4FBBF99A08950C01889400E199
:10113000C8DC001C111C551F661F771F0A9509F497
:101140000895352F08D0532F362F05D0632F372F12
:1011500002D0732FEECF432F4D5F43FD342F432F2B
:10116000405D47FD342F0895982F92959F70905DB4
:101170009A3308F0995F8F70805D8A3308F0895F39
:10118000089596FD975F9F7086FD875F8F7092959B
:10119000892B089577276627545610F07395FCCF56
:1011A0005C595A5010F06395FCCF565F0895733028
:1011B000B2F4723032F0663092F4653012F056308C
:1011C00072F4662321F00AE0500F6A9581F77723C5
:1011D00009F4089504E68894500F7A95C0F701E069
:1011E000009371100C94C8094FE24395C050DA4C3B
:1011F000EA49FB43D0F7C050D643E546F44C0E9481
:10120000E5184FE24395C050D14EE54FF540D0F779
:10121000C050DF41EA40FA4F0E94E5184FE2439583
:10122000C058D649E849F040D0F7C058D946E746FB
:10123000FF4F0E94E5184FE24395C054D244EF405F
:10124000F040D0F7C05CDD4BE04FFF4F0E94E51847
:101250004FE24395C05AD648E140F040D0F7C0561F
:10126000D947EE4FFF4F0E94E5184FE24395C0511A
:10127000D742E040F040D0F7C05FD84DEF4FFF4F6E
:101280000E94E5184FE24395C85ED340E0F7C8518D
:10129000DC4F0E94E5184FE24395C456D040E0F77A
:1012A000CC59DF4F0E94E5184FE24395CA50E8F74A
:1012B000C65F0E94E5184C2F405D0E94E518089516
:1012C0000FB70F93F89400E19927882776956795D3
:1012D00010F48C0F9D1F97958795779567950A95C4
:1012E000B9F70F910FBF08950FB70F93F8948827A0
:1012F000991B01E1661F771F0A9519F40F910FBF23
:101300000895881F991F841B930B20F4840F931F4B
:101310008894F0CF0894EECF06E0009371100C94FF
:10132000C80907E0009371100C94C80908E0009305
:1013300071100C94C8090AE0009371100C94C8094C
:101340000CE0009371100C94C8090DE0009371102B
:101350000C94C80901E1009371100C94C80902E1D2
:10136000009371100C94C80906E1009371100C945D
:10137000C8090BE1009371100C94C8090DE10093AA
:1013800071100C94C8090EE1009371100C94C809F7
:101390000E947901112400907110D02C000CE4ED12
:1013A000F3E1E00DF11D0591F491E02FEE1FFF1F19
:1013B0000E94A0010E947901BFDB0FEF0DBF00E189
:1013C0000EBFAA27BB2700E0009372100E9479018C
:1013D0000C944100CA1DD91DDF1DEB1DFA1D061E10
:1013E000101E1B1E261E4B1E5C1E611E6D1E721ED5
:1013F000771E831E8E1E9A1EA31EA91EB01EB31E2C
:10140000BF1EC61ECF1EDA1EE31EEA1EEA1EF31E14
:10141000021F031FF894002411247FD090D00FEFF7
:10142000009364000BB50E7F0BBDC0E0D0E06ADE18
:10143000302F00FF03C00BB501600BBD00E001B908
:1014400000E002B900E004B900E005B900E007B926
:1014500000E008B900E000E00AB900E00BB907B10C
:101460000F7307B906B1006C08B923982B9A0BB516
:101470000F750BBD03E000938610E0EDF7E0F093ED
:101480008510E0938410112414BE1EBA1ABC0BB54B
:1014900001700BBD1092721002DB112410927E10AD
:1014A00010927F1001E000937C1000E000937D100B
:1014B00001E00093761058E0C8E1D0E023DE0F3F52
:1014C00011F4002726DECF5FDF4F5A95B9F70E944F
:1014D0000519789401E003BF00E000937C0000E070
:1014E00000937B0006ED00937A000E94961300E0C3
:1014F000009377100BB500FF0EC0CC245527B460C5
:10150000B4DC47DA0E9479010E947901EAE7F7E347
:101510000E949C0108958BD908950FB70F93A89549
:1015200004B7077F04BFF89400916000086100933E
:1015300060000070009360000F910FBF089550E8A5
:1015400060E0509361006093610008950091640031
:101550000E7F0093640006ED00937A0000917A00FC
:1015600004FFFBCFC0DA089500916400016000938E
:101570006400B9DA08950E94A00FC1F0CF93DF9301
:1015800001E2C01680F411240C2CC0927410C1ED3D
:10159000DFE0C019D1090E94350259930A94D9F7A6
:1015A000DF91CF9109C00E94D90AB6CE0E94D90A14
:1015B000B8CE00E00093741000E0009373105091D7
:1015C00074100C94A80FCF93DF930E94A00F1124E6
:1015D0007091741060917310C0EDDFE0222361F010
:1015E000A1FF03C00C2D0A9539F00E9435027A95AF
:1015F000751772F0652F02C0761751F0C61BD1091E
:1016000058810E9423026395609373100C94A50F78
:1016100088CECF93DF930AB50F7D0ABD0E94BA0032
:1016200001E04ED05881DF91CF910C94A80FCF9359
:10163000DF930AB500620ABD0E94BA0002E040D002
:1016400058830C94A50FCF93DF930AB50F7D0ABD85
:101650000E94BA0001E034D055DD502FDF91CF91C8
:101660000C94A80FCF93DF933AB53F7B3ABD3AB5C0
:1016700030623ABD0E94BA0002E022D0052F0F93DB
:10168000C03008E0D0070F9111F043DD17C0ECEA3D
:10169000FAE30E94A00155273AB530643ABD21977C
:1016A00038DD5A9519F44EE20E94E5180F93C030C8
:1016B00000E0D0070F9199F70E9479010C94A50FD3
:1016C0000C1989F00E9435025F930E9435020AB519
:1016D00005FF06C05F930E943502DF91CF91089508
:1016E000D52FCF9108950E9435020AB505FF06C097
:1016F000052F0E943502C02FDD270895C52FDD2755
:101700000895EF93FF9350E10E942302CF920E942D
:10171000BA00EAE3F7E165917591772311F40F9030
:1017200009C06517C1F711240F90E1EFFFE0E01940
:10173000F1097083FF91EF910895781079107A1074
:101740007B107E1080108110821083100000112405
:10175000E50FF11D54910C94A80FCF93DF9350E047
:101760000E9423020E94960FCC2049F058300AF0C4
:101770000ACE60E8609361005093610004C050910C
:1017800061000E9423020C94A50FCF93DF93509128
:1017900066000E9423020E94960F509366005091AB
:1017A0006600DF91CF910C94A80F009164000F7731
:1017B0000093640055270E9423020E94960F58D878
:1017C00000E250FD00E20093B8003898409A399842
:1017D000419A00270093B90000950093BB0004E0F4
:1017E0000093BC0004E90093BC00ACD00895CBC0CA
:1017F000C0D0CF93DF9321975881523261F45A9130
:10180000523219F00E942302FACF5F915F910E9439
:1018100037012C2D07C0DF91CF910E94A00F22230A
:1018200009F4B2C00FB70F93F894EF93FF9311240C
:10183000E1EFFFE0C21AEC19F1090091C1000F7746
:101840000093C10052912A955093BB0004EC009381
:10185000BC007DD00091B900087F083121F0003430
:1018600011F0083211F4222369F7FF91EF910F91E3
:101870000FBF68C07ED00E94A00F19F41BB5146082
:101880001BBD0091C1000F770093C1000FB70F93EC
:10189000F894EF93FF93112451E01BB512FD06C09D
:1018A00001E20E94350250170AF06CC0752F1BB57B
:1018B00012FD06C0E1EDFFE010927310509374101A
:1018C00004EC60E57A9519F404E868E57FEF00938D
:1018D000BC003DD05091B900587F56130BC05091B9
:1018E000BB001BB512FD04C0529377FFEBCF06C0BF
:1018F0000E9423021BB512FF10927410FF91EF910A
:101900000F910FBF1BB512FF1DC01BB51B7F1BBD69
:1019100008952FD0087F0093BC0004EA0093BC0018
:1019200016D010D0089525D004E90093BC000FEF25
:101930000093BB0007D008955091BC0052FF1EC019
:1019400001D008955091B900587F0C94A80FEF93DF
:10195000FF93E0EAFFE00090BC0007FC07C0BCD8A2
:101960003197C9F708E10093711012CDFF91EF9103
:1019700008950091BC0002FF01C0089503E10093A7
:10198000711006CDF1CCDCCCF9CCA6D0CF93DF938F
:1019900021975881523261F45A91523219F00E94C3
:1019A0002302FACF5F915F910E9437012C2D06C070
:1019B000DF91CF910E94A00F09F4E0CC0FB70F93F5
:1019C000F894EF93FF931124E1EFFFE0C21AEC19B2
:1019D000F1090091C1000F770093C10052915EBDE3
:1019E0000DB507FFFDCF5EB52A95C1F7FF91EF91C9
:1019F0000F910FBF089570D00091C1000F77009331
:101A0000C1000FB70F93F894EF93FF9311240E9436
:101A1000A00F11F4552706C001E20E9435025017AD
:101A20000AF0A2CC752F0EB4552341F41EBC0DB59F
:101A300007FFFDCF5EB50E9423020EC0E1EDFFE07F
:101A400010927310509374101EBC0DB507FFFDCF9C
:101A50005EB552937A95C1F7FF91EF910F910FBF49
:101A60000895009164000B7F0093640052E00E948F
:101A700023025CD20E943304550F550F34D00CB5AD
:101A8000037F052B0CBD089551D20E9438040CB57C
:101A900000620CBD50FD03C00CB50F7D0CBD089558
:101AA00045D20E942E04052E53700CB5087F052BDD
:101AB0000CBD0DB501600DBD02FC03C00DB50E7F60
:101AC0000DBD089509D051E00E9423022FD22C9A17
:101AD00050FD01C02C9808950CB506FD08950AE14B
:101AE0000093711055CC009164000B7F009364004B
:101AF00004B1006B04B92C9A01E50CBD0DB50E7F45
:101B00000DBD08955EBD0DB507FFFDCF0EB508955F
:101B10005EBD0DB507FFFDCF5EB50895A8D0EF5DA2
:101B2000FF4F50810C94A80FA2D0EF93FF93FED1EA
:101B3000FF91EF91EF5DFF4F0F93E73200E0F00769
:101B40000F9101F0EF93FF93E3E0F0E009E007BFAE
:101B50000491FF91EF9107FF0C94B60D05B7006853
:101B600005BF05B7006805BF0C94B70D537C5083C3
:101B700008957DD0EF93FF930E94BA000E949602D1
:101B80000E943502FF91EF91EF5DFF4F75C06FD05E
:101B9000EF93FF930E94BA000E9496020E943502C2
:101BA000FF91EF91EF5DFF4F6BC061D0EF93FF931B
:101BB000BDD1FF91EF91EE5DFF4F5083089557D057
:101BC000E05EFF4F50810C94A80F51D0EF93FF932C
:101BD0000E94BA000E9496020E943502FF91EF9186
:101BE000EE5DFF4F49C043D0EF93FF930E94BA00D0
:101BF0000E9496020E943502FF91EF91EE5DFF4F29
:101C00003FC035D0EF93FF930E94BA000E94960226
:101C10000E943502FF91EF91EE5DFF4F36C027D055
:101C2000EF93FF930E94BA000E9496020E94350231
:101C3000FF91EF91EE5DFF4F28D00E948E0525D0D9
:101C4000089515D0EF93FF930E94BA000E94960268
:101C50000E943502FF91EF91E05EFF4F0081052366
:101C600050E000230FB601FE51E00C94A80F515430
:101C700003E0509FF00108950081052B0083089533
:101C80005095008105230083089500810527008376
:101C90000895CF93DF934AD1CC2019F4652F5527AF
:101CA00003C05F93652F5F9111241092820050FF53
:101CB00001C009C0009180000168549A1092890007
:101CC0006093880008C0009180000162559A1092CC
:101CD0008B0060938A000093800009E000938100EC
:101CE0000C94A50FCF93DF9321D1752F0E9435025D
:101CF000CC2021F4672F752F552704C07F93652FC3
:101D0000752F5F9111241092820050FF01C009C00D
:101D1000009180000368549A709389006093880052
:101D200008C0009180000362559A70938B00609305
:101D30008A000093800009E0009381000C94A50FB5
:101D40000027009381000093800000938200089593
:101D5000F2D0509F11200AB507FD11F4502DF8C0A4
:101D60000FE00093711014CB5F93E0D055230AB4B9
:101D700007FCC1F0052F0E943502652F772759E037
:101D8000661F5A9541F0771F701B18F4700F8894E6
:101D9000F7CF0894F5CF5F915F3011F4562F01C053
:101DA000572FD6C001E100937110F2CAC4D0500F72
:101DB0000AB507FD08F0CCC00FE000937110E8CA27
:101DC000BAD0501B0AB507FD08F0C2C000E100936D
:101DD0007110DECAB0D050170FB701FF10C011C08C
:101DE000AAD050170FB701FF0CC009C05F93A3D052
:101DF0006F916C3111F4501701C0051710F0552781
:101E000050FD51E0A5C00E94130F662319F05695AE
:101E10006A95E9F79DC00E94130F662319F0550FCC
:101E20006A95E9F795C08CD00E943502222311F4FF
:101E300061E008950E942E04652F0E9435020895E6
:101E40007AD0502385C077D0502B82C074D05027D1
:101E50007FC06CD050957CC069D0519579C066D058
:101E6000529576C063D052955F7072C004EB50916A
:101E70007510579508F45027509375100E9423024F
:101E80000E94BA00089552D05F7062C04FD000E83F
:101E9000551F0795E8F7502F5BC0E89401C0689480
:101EA000EF93FF9311240E94A00F41F4009074104F
:101EB000002009F436CAE1EDFFE007C000E2201778
:101EC0000AF02ACA022EE1EFFFE026F00DD0C21A76
:101ED0002C2D05C019D0572F0E942302562F0E9487
:101EE0002302FF91EF91089550E07CE8029168E0B1
:101EF000302F352756950695369508F457276A955D
:101F0000B9F70A9499F708957FEF6FEF08E0202E54
:101F100052917527660F771F20F400E1702701E2C8
:101F200060272A94B9F70A9489F708950E94BA00A5
:101F30000E9435020895FADF052F0E9435020895A8
:101F400022270E94BA0022230895DF91CF9108959D
:101F50000E9423020895CF920E94BA0055270F9144
:101F60000C1911F00E943502F1DA00E000937B00B9
:101F700000917C00007E5F71052B00937C0058303F
:101F800052F457700E9499020E94350200917E001F
:101F9000502B50937E005527662770E1F89406ED8C
:101FA00000937A0000917A0004FFFBCF80917800C3
:101FB00090917900580F691F7A9589F7789476E0A7
:101FC000669557957A95E1F70E942302CDDA089538
:101FD00055270E942302AADF0E943804B7DA009135
:101FE0007C000F7350FD006050FF006C00937C007C
:101FF0000E948105089552E00E94230297DF553028
:1020000008F0B2C90AB5087F052B0ABD08959EDA0B
:102010000DD0552700B605FC51E000B7006800BFA1
:10202000A3DA0E9423020E94BA00089500E0009300
:102030007A0000E100937A0050917B005F7B50931F
:102040007B0000B70870006500BF5AB552FF02C0A0
:1020500054E011C050917B00506450937B005AB5FE
:10206000537000917C00007E052B00937C000E9441
:102070009902CA942A9550937F000E947A05089588
:10208000F39A189555270E94230250DF0E942E04D0
:1020900000917610087F502B5093761000916400C9
:1020A000077F0093640000916F000D7F00936F0025
:1020B00006BB0093800000938100089551E00E94C8
:1020C000230234DF0E943804009176100F7750FF0E
:1020D00001C00068009376100895CF93DF936FEFEF
:1020E000552766BB50938000509381005093850024
:1020F000509384002198009170000F9300E00093AA
:10210000700000917610702F70788894771F771F79
:1021100076600770EFE8F0E1E00FF51F09941FC04B
:1021200006C005C004C008C007C006C00CC003300C
:1021300008F005E0002E09C06AE00350033008F003
:1021400005E0069F02C004E6002E509385005093E0
:102150008400709381000E948E050A94E1F70F912C
:1021600000937000509184006091850000270093D7
:102170008100B09906C0C0EBDFE06883DF91CF91AA
:10218000E7CEDF91CF910EE00093711001D9CEDE42
:10219000352F88940AD00895C9DE352F089405D0CC
:1021A00008950E940811532FD3CE63D0F59807B13C
:1021B0000F7307B95AD079E0F59923C0379BFCCF4C
:1021C0003E98469A10F03E9A4698F5991AC03F9A62
:1021D00047980E9481053F98479A0E948105379948
:1021E000F4CF18F03E98469A02C046983E9AF59968
:1021F00008C0379BFCCF3E98469A331F7A95E1F68C
:1022000004C0EEE9FDE30E949C0187D92AD008951D
:1022100030D007B10F7307B928D079E0F59919C00C
:102220003799FCCF8894369B08C0089447983F9A0A
:10223000F5990FC03699FCCF06C047983F9AF5999B
:1022400008C0369BFCCF3F98479A331F7A9531F7E9
:1022500005C0EEE9FDE30E949C015FEF5ED901D06D
:1022600008953F983E98479A089506B1006C06B9C4
:102270000895F59808E10093600005E4009360007C
:10228000A895089553DE952F0E943502852F2BDCEB
:102290002C9853E037DC0E9401123ADC2C9A58CE7D
:1022A00045DE952F0E943502852F1DDC2C9856E0C7
:1022B00029DC2C9A52E026DC0E9401120E94350291
:1022C00021DC2C9A0E94810555E01CDC21DC2C9A33
:1022D0005523C1F7089555270E9423020E94BA0092
:1022E00080917E1090917F10E0DF8F5F9F4F9093E1
:1022F0007F1080937E100895002400927F1000923A
:102300007E10089551E00E94230210DE552319F03B
:1023100050937C10089528C809DE552359F1952F54
:1023200088270E9435020C01952FDDDB0E94810574
:102330002C9853E0E7DB0E940112C00120907C1032
:10234000E7DB0E94CA080E94A202019779F02A9452
:1023500029F40E94790120907C1003C04CE20E9475
:10236000E518B0FFEDCF0E944B05BE7F2C9A0E946E
:10237000790108950C94AA0955270E942302D6DDFD
:1023800050937D10089555270E94230251E00E942A
:102390002302CCDD552311F40C94AA0904E0059F17
:1023A0000E943502952F88279EDB2C9856E0AADBE9
:1023B0002C9A52E0A7DB0E94011250917D1070E42C
:1023C000A1DB7A95E9F72C9A0E94730555E09ADB18
:1023D0009FDB2C9A5523C1F7805C9F4FCF93DF93EF
:1023E000E00121970E01DF91CF9101F708957E7FE3
:1023F0009DDD0E943304EEEEF3E2A9D908950C941A
:10240000A009592F7FDB582F7DDB089555270E94A7
:1024100023028CDD5523C9F05A3010F00C94B40916
:10242000A89504B7077F04BF052F5770000F000F52
:1024300000720064502BF89408E100936000509300
:1024400060000EB307700EBB13C080D860917B0094
:102450006F7B60937B005AB551FD06C000E100938D
:102460007A0000E400937B0060B7606160BF7CD8B5
:102470007894889500005EB3507C21F0F799F79826
:10248000F699F6980091C00007FD0895F59B02C0EB
:10249000F5980895F39BECCFF3980895CF93DF93CD
:1024A00055270E94230242DD0E94380450FD04C0DB
:1024B00051D02898209807C064D000270093AF100F
:1024C000209A289827D041CD7F937FB77F936F9331
:1024D0005F93EF93FF93FBEFE091AF105091AC103F
:1024E0006091AD107091AE10E50EF61EE71F54918D
:1024F000E093AF1050FF03C00000289A03C0289853
:1025000000000000FF91EF915F916F917F917FBF7D
:102510007F9118951124009164000F7B0093640053
:1025200017BA1092B2001092B0001092B10010923F
:10253000B3001092B40004E80093B30002E00093EB
:10254000B00001E00093B1000091700002600093C0
:1025500070000895112417BA1092B0001092B100C3
:102560001092B2001092B4001092B300009170006B
:102570000D7F00937000009164000064009364007C
:102580000895CEEADFE00E94610500EF102E08807A
:1025900001200294002029F089E999E909EA3CD058
:1025A000F9CF099012940120002029F08CE59FE8D2
:1025B0000AE232D0F9CF0880129401200294002060
:1025C00029F089E891E404E027D0F9CF099012942A
:1025D0000120002029F084EF9CE600E01DD0F9CF17
:1025E0000880129401200294002029F085EE9AE0E0
:1025F00000E012D0F9CF088012940120002029F0C9
:1026000086E191E000E008D0C9F75093AC106093E8
:10261000AD107093AE100895581F691F701F0A9473
:1026200008950F93CF93DF93EF93FF93FFB7FF933B
:10263000992011F09A9416C0F0917810E0917910D9
:10264000D0917A10C0917B10CF5FDF4FEF4FFF4FDB
:10265000E0937910F0937810C0937B10D0937A10A8
:1026600090907710E0918410F09185100F93E030F6
:1026700000E0F0070F9149F03197F0938510E09357
:1026800084100BB500640BBD03C00BB50F7B0BBDF5
:10269000F79AFF91FFBFFF91EF91DF91CF910F91DB
:1026A00018950E94BA000E9435020E9433045523F7
:1026B00011F450E005C0513011F45AE001C054E665
:1026C00050937710952E0895CF93DF93C8E7D0E10C
:1026D0000027099309930993088337CC4F93CF932D
:1026E000DF93EF93FF93C8E7D0E1A0FD04C05B81C7
:1026F0000E9423020CC0F0917810E0917910D091E3
:102700007A10C0917B100E94F4080E947901FF9119
:10271000EF91DF91CF914F9108957B7A797806DC24
:102720000E943304EAE1F7E212D80895CF93DF93D1
:10273000C8E7D0E100270993099309930883009122
:1027400064000F7D00936400002705BB06BD04BD37
:1027500007BD05BD009508BD0CE707BD02E004BD3F
:1027600003E005BD00916E00026000936E00EDCBAA
:10277000CF93DF930E94401470918010609182107B
:1027800050918310772311F4662707C00BB505FF1E
:102790000C94D613563008F063950BB507FF6F778E
:1027A000562F0E942302DF91CF91089567FB6F7728
:1027B0000AE0609F0027050E101EE001772769E000
:1027C0000E9460096E5F7F4F332742E30E947409C5
:1027D00026F0605E7F4F0C94F0136052704061955C
:1027E000562F0E942302DF91CF9108950C94A009E7
:1027F000CF93DF930E944014509180100E942302D7
:10280000DF91CF91089555270BB506FD51E0A0CB80
:1028100055276AB565FD51E00E94230287DB0E94BF
:1028200023020E94380450FF0C941A140BB5006266
:102830000BBD08950BB50F7D0BBD089555276AB5E7
:1028400067FD51E00E94230271DB0E9423020E9477
:10285000380450FF0C9430140BB500680BBD08957C
:102860000BB50F770BBD089550E805C051E803C0C4
:1028700052E801C053E80E9423020E94BA00089562
:102880000BB506FD089570918610772319F403E0C7
:1028900000938610E89400918100077069F0009120
:1028A00081000F9300916F000F93009182000F93AE
:1028B000009180000F93689400E0009381007CD029
:1028C00003E0239A2B980E9481050A95E1F7C0E85E
:1028D000D0E1002400928500009284008AE095E017
:1028E000552766272B9A239802E00093810088954C
:1028F0000000F59B13C080D000240092811000924C
:102900008010009186100A95009386100FB701FF82
:102910000895EEE9FDE30E949C0108951B9B05C00C
:102920000092850000928400E2CF7091840076349A
:1029300018F400C0889401C008943A95551F8A95F0
:10294000B1F69A9521F05993650F88E0D0CF54D015
:10295000561751F000240092811000928010E4EB91
:10296000FDE30E949C010895C1E8D0E190918010A0
:10297000809181100E94CD14C3E8D0E19091821023
:10298000809183100E94CD14089500916E00026022
:1029900000936E00F5980C94C80997FB9F770E94EE
:1029A0009508052F0F7008832197507F52950E943C
:1029B000D70857F95883089508E10093600000E4B0
:1029C00000936000A895F59802E00BBB02E000932D
:1029D000680008E000936C0000916E000D7F00938A
:1029E0006E0000916400077F009364000091C100B5
:1029F0000F770093C10008950E948D0A2EF000E029
:102A0000009381000C9410150F91009380000F919A
:102A1000009382000F9100936F000F91009381004B
:102A2000C0EDD7E0D0938510C093841000916E0064
:102A3000026000936E0000E00093680000E00093E5
:102A40006C0002E00BBB08954ED8229A2A9851E000
:102A50000E9423020E9423020E94230271DA01F1E4
:102A6000213019F02330E1F012C20E9435025523C3
:102A700091F0533009F009C2E2EDFAE25591259048
:102A8000222019F150623ED855913CD82A94E1F7A2
:102A90002C9A3196F3CF50E235D858E0DCD1D7C12B
:102AA00056E230D80E943502529556955660D3D1E1
:102AB00055E228D80E9435025F77CDD150E222D866
:102AC0000E9435025A955A60C6D155270E942302AA
:102AD000AEC10001080001013F0002010300030133
:102AE0000300040103000501020006010E000701B6
:102AF00070000A05E7E7E7E7E7000B05C2C2C2C2BC
:102B0000C2000C01C3000D01C4000E01C5000F017D
:102B1000C6001005E7E7E7E7E70011010000120132
:102B2000000013010000140100001501000016014F
:102B300000001C0100001D01000000000E946C0D3F
:102B40000E94880D2C9A56FD02C05FEF01CA5E708C
:102B50005695752F5395506182D1252E1124CF9310
:102B6000DF93C1EDDFE010927310509374102A9838
:102B700051E60E94820D0E94880D5A932A94D9F73B
:102B80002C9A0E94880D2C9A652F5E705E3031F46D
:102B9000607457E20E94820D562F5DD1DF91CF9174
:102BA000572FD6C90E946C0DCF92CF92C9D90E94DF
:102BB000880D2C9A54FF05C057E20E94820D50E107
:102BC0004AD12A982223A1F0222E11240F90EF93AC
:102BD000FF93E1EFFFE0E019F10950EA0E94820D56
:102BE00052910E94820D2A94D9F72C9AFF91EF916D
:102BF0002A9A0E9473050E9473052A985FE00E943A
:102C000081055A95E1F70E94880D2C9A54FF02C065
:102C100053E004C057E123D150735295CF9098C927
:102C20000E946C0DEF93FF93CF93DF9389D909F442
:102C30002EC1622F6A95C1EFDFE03A911124E8E9D5
:102C4000FCE2032E000CE00DF11D05901490002015
:102C500009F41BC153E003D15E5F752F011409F421
:102C6000702D1616C2F06015B2F06717A1F450E38C
:102C7000373019F0532F565F50620E94820D0E9428
:102C800035020E94820D6A95D1F72C9ADF91CF917F
:102C9000FF91EF91DCC0FBC00305030501010101B9
:102CA00001010101000003050E946C0D49D909F4DE
:102CB000CEC0223029F0D9D053955061D0D048C928
:102CC000DAD0752FD2D0352F252E2394662708947D
:102CD000661F2A94E9F752E0C2D0772311F0652BE2
:102CE00003C060956F73652352E20E94820D562FD8
:102CF000B2D0532F539550630E94820D572FABD003
:102D0000A6C0C3C00E946C0D55270E9423020ED995
:102D100002E005176AF051FD02C050FF07C02A9A71
:102D200051FF95C00E9473050E9473052A988FC0B9
:102D3000ACC00E946C0D04D921F455E00E94820DB4
:102D400086C00E94350257FDA0C05F9355E20E94E5
:102D5000820D5F9180D07BC00E946C0DF1D829F468
:102D600056E07DD056705695F3C80E9435020E94F9
:102D70003304550F652F56E072D0597F652B56E20C
:102D80000E94820D562F67D062C00E946C0DD8D869
:102D900039F456E064D05870569556955695D8C873
:102DA0000E9435020E943804550F550F550F652FAC
:102DB00056E055D0577F652B56E20E94820D562F64
:102DC0004AD045C00E946C0DBBD811F40C94BE09CA
:102DD0000E943502652F0E9435020DE1051732F081
:102DE00050620E94820D562F36D0089501E0009364
:102DF00071100C94C8090E946C0D57E10E942302C7
:102E000095D80DE150170AF03CC00E94820D1FC0FA
:102E10000E946C0D55270E94230288D8752F5523D8
:102E200031F451EE18D052EE16D073E003C050EEDC
:102E3000572B11D057E013D0652F57E20E94820D17
:102E400070FD606371FD6064562F05D000C00E9464
:102E5000880D2C9A7DC80E94820D2C9A08950E949C
:102E6000820D0E94880D2C9A08950E94350205E07B
:102E700005175AF008950E94350200E205172AF05E
:102E800008950C94A0090C94A5090C94B4090C9411
:102E9000BE090FB70F93F8945E9A569A0E94810567
:102EA0005E9802E30E9473050A95E1F75E9A5698D0
:102EB00006E00E9473050A95E1F751E009B106FDAD
:102EC00055270E94230202E30E9473050A95E1F749
:102ED0000F910FBF0E94BA00089532D811F40C94DC
:102EE000BE090FB70F93F894EF93FF931124E1EF0E
:102EF000FFE0C21A58E0252E5291579510F44FD09A
:102F000001C059D00E946C052A94B9F70E94E717B6
:102F10002A9581F7FF91EF910F910FBF08950FB799
:102F20000F93F8940DD821F41AD00E94230214C0F4
:102F3000CF93DF9311240E943502752FC1EDDFE09E
:102F400010927310509374100AD05A930E94E7178E
:102F50007A95D1F7DF91CF910F910FBF089508E0D7
:102F6000202E09D0889400FD089457950E946C0586
:102F70002A94B9F708955E98569A0E946C055E9A55
:102F800056980E946C050FEF39B136FF00270F935A
:102F90000AE00E946C050A95E1F70F9108955E988A
:102FA000569A0E9473055E9A569806E00E94730531
:102FB0000A95E1F70895569A5E9807E00E94730516
:102FC0000A95E1F75E9A56980E946C0508950E9452
:102FD0006C050E946C050E946C05089555270E949F
:102FE00023020E94960F0E943804ECEEF9E30E943F
:102FF000A00150FF06C0E4EFF9E30BB508600BBD7C
:1030000005C0EAEFF9E30BB5077F0BBD0E94A001F5
:103010000895E8E5FAE30E94A0019DD000E1202E8A
:10302000E0E0F0E08BD07FD00F93E03001E0F007DC
:103030000F9149F00E94F618B0FD21C00E948E0544
:1030400000E1202EEFCFBE7F8DC0E8E5FAE30E94BD
:10305000A00181D000E1202EE0E0F1E06FD063D04C
:103060000F93E03001E1F0070F9149F00E94F6184C
:10307000B0FD05C00E948E0500E1202EEFCFBE7F7F
:103080000E94B805E2E7FAE30E94A0018091701067
:103090000E946F0180916F100E946F010E94790160
:1030A00061C0E8E4FAE30E94A00155D000E1202EBF
:1030B000E0E0F0E043D0F2BDE1BDF89A80B50E94B7
:1030C0006F0140E20E94E518EF5FFF4F2A9499F7E5
:1030D0000E9479010F93E03008E0F0070F9151F062
:1030E0000E94F618B0FD06C029D00E948E0500E1AE
:1030F000202EE1CFBE7F36C00E94B805E4E3FAE39C
:103100000E94A00100E1202EE7E9FFE00F93E13BE0
:103110000FE0F0070F9128F411D005D000E1202E28
:10312000F5CF20D0089581910E946F0140E20E9466
:10313000E5182A94C1F70E94790108958F2F0E9403
:103140006F018E2F0E946F014AE30E94E51840E252
:103150000E94E5180895E0E0FAE30E94A0010E94B1
:10316000B80508950E94B8050E94790108950E944B
:10317000960F852F0E943502952F0E9435025F938E
:103180000E9435025F930E943502052FFF91EF9157
:103190000E94B4050895889500000091C00007FFC3
:1031A000FACF5091C600533009F4B1600C94A80FC7
:1031B00003B7016003BF7894889500000091C000B8
:1031C00007FFF9CF3091C60008950090C00005FEBA
:1031D000FCCF0E94F618B1FF0C94F3180090C000C9
:1031E00007FEFCCFBD7F4093C60008950090C0004D
:1031F00007FE0C9404190091C600033111F4B2606B
:103200000895033009F4B1600895009164000D7FC2
:103210000093640000E00093C5000CE00093C4003C
:1032200008E90093C10008953ED0EF93FF93E4E1D5
:10323000FBE30E94A001E2E3FBE30E94A001FF91F7
:10324000EF918F2F0E946F018E2F0E946F010E94BD
:1032500079010E9479011124F8941DBA10BE1FBA99
:1032600010926E0010926F00109270001092C100C8
:103270001092C9001092BC0010927A0011B814B8D4
:1032800017B81AB812B815B818B81BB801E004BFBF
:10329000F89408E10093600009E3009360007894DB
:1032A00088950000FFCFE3E0F0E009E007BF04915C
:1032B00006950370003019F4E0E0F0E714C0013027
:1032C00019F4E0E0F8E70FC0023019F4E0E0FCE7A1
:1032D0000AC0033019F4E0E0FEE705C00BE00093FC
:1032E00071100C94C809EF93FF9308E0102EEE1FA5
:1032F000FF1F05910F3F29F0003019F0FF91EF916A
:1033000008951A94B1F705E1009371100C94C8095F
:103310004C495320BC0248454C50790452554E202C
:10332000C90453415645DE064C4F41442D075052C7
:103330004920E70250525820F902505242200A0315
:10334000454D49541104464F5220510350544F20CB
:1033500064034E455854530346524520CB024E4514
:1033600057201704504946204803544845204E032F
:10337000454E4420660352535420BF034346472022
:103380003D04501A1D202B0350501E20F60E5050A5
:103390001C20F60E501C1E20F00E50011D20F00EB9
:1033A00050501D20340350500B20D60E50500D208D
:1033B000E00E50500A20A80E50500F20B40E4D4F72
:1033C0004420B40E50500520B40E50500420680321
:1033D000505007207C03505002201F0344415441A9
:1033E000BB0A52454144E30A52455354DC0A50504B
:1033F000402064034C535220030F4C534C200B0FBE
:1034000050500620200F414E4420200F50505C2089
:10341000230F504F5220230F50505E20260F584F3D
:103420005220260F434F4D20290F50500120290FC5
:103430004E4547202C0F535741502F0F4E424820E6
:10344000320F4E424C20430F52455620460F524EEB
:103450004420360F414F5620AD03435243204D0FB9
:10346000435257204F0F44454C419D03474F542032
:10347000FF03474F532002045245542005044B4597
:103480005920CB18434C4B20AD0B4F534320C50B59
:1034900041434F20071041435320FB0F4552412029
:1034A0006607494E49545B074341542087075245FC
:1034B0004D200C045045454B090B504F4B45170B05
:1034C00045455220230B45455720320B5650472087
:1034D000810B534C5020061244465720501144464D
:1034E0005220421144464C206B11444658207C1116
:1034F000444646208211444644208C1144465620BE
:10350000BC1144464920C31144464120F81152469B
:103510004920241552464120101652464320991640
:1035200052465020AC165246422054165246452070
:10353000821652465420D215524658209E155246A5
:103540004620081752464420C51652465720E21618
:1035500052465220FB1644485420B8134448482091
:10356000F813444852200314444855200814444892
:1035700053201E144448492034144448442036142F
:10358000445449203814445444203A145254492095
:103590005113525452206413525450206E135254FB
:1035A00043208F134F57492049174F5757206D1706
:1035B0004F5752208F174F444120940D49444120CA
:1035C0008E0D53444120B90D43444120C70D4F5047
:1035D0004120D50D53424120E50D43424120F30DDA
:1035E00058424120010E504241200F0E494E4120C9
:1035F000DF0D49424120210E4F444220940D4944A1
:1036000042208E0D53444220B90D43444220C70D41
:103610004F504220D50D53424220E50D43424220F7
:10362000F30D58424220010E504242200F0E494EE7
:103630004220DF0D49424220210E4F444320940D89
:10364000494443208E0D53444320B90D4344432045
:10365000C70D4F504320D50D53424320E50D434243
:103660004320F30D58424320010E504243200F0ED9
:10367000494E4320DF0D49424320210E4F44442050
:10368000940D494444208E0D53444420B90D4344C5
:103690004420C70D4F504420D50D53424420E50D22
:1036A00043424420F30D58424420010E504244202E
:1036B0000F0E494E4420DF0D49424420210E445351
:1036C0005245D1104453434FCC1044534445C71086
:1036D000494347204210494345205E10494350204A
:1036E0006D1050574520720E50574D20490E5057BF
:1036F0004F20A00E444453204E1241444320AB0FB0
:1037000041445220E80F53504D20310D53504F206B
:10371000440D53504320500D53505720C50C535067
:103720005220FB0C53505320620D54574920D50BA7
:1037300054575320890C54575020930C54575720FA
:10374000F80B545752203A0C545742209C0C4445D5
:103750004220EE1744554D5025185644554D7C18BF
:103760004944554D09184544554D511846494C4C4E
:10377000B718424C445214190000F9363DFAF8418A
:1037800074746F424153494320666F722041546DF7
:1037900065676136343450204020384D487A20FA2D
:1037A000F85665723A20322E3334204275696C64C3
:1037B00020636F64653A2032303137303230372E33
:1037C00032303239FAF9363D0000F8456E68616EE4
:1037D00063656D656E7473206279204B2053636F4F
:1037E000747420566974616C6520286B73765F7001
:1037F000726A40676D782E636F6D29FAF841546DD7
:10380000656761363434502F313238345020706F50
:103810007274202843293230313620FAF8312D577E
:10382000697265285229FE32303133FAF86E5246F9
:1038300032344C3031282B29205246205472616E8C
:1038400073636569766572FE3230313320FAF8446D
:1038500048542048756D696469747920616E6420EC
:1038600054656D7065726174757265FE3230313306
:1038700020FAF84545502046696C652053797374E9
:10388000656DFE32303133FAF8536C6565702C206B
:1038900052544320616E6420446174612D66696CEA
:1038A00065FE3230313220FAF85457492F535049CF
:1038B0002F444453202620496E7075742043617054
:1038C00074757265FE32303131FAF9362DFAF84FDF
:1038D000726967696E616C20636F64652028432993
:1038E000323030322062792052696368617264201C
:1038F00043617070656C73FAF8687474703A2F2FB6
:1039000070726F6A656374732E63617070656C7337
:103910002E6F7267202070726F6A656374734063E4
:10392000617070656C732E6F726720FAF9362DFA2C
:10393000F853544B353030763220426F6F746C6FD1
:103940006164657220506574657220466C6575729D
:1039500079203C70666C6575727940676D782E636E
:10396000683E20FAF820616E6420576F7261706FB4
:103970006874204B6F726E6B6165777761747461E8
:103980006E616B756C203C6465764061767269642B
:10399000652E636F6D3E20FAF9362DFAF8416C6C96
:1039A0002072696768747320616E642072656D654A
:1039B0006469657320657870726573736C792072C1
:1039C00065736572766564FAF84E6F7420666F727F
:1039D00020636F6D6D65726369616C20757365FA44
:1039E000F9363DFA0000F9352DFA0000446562759C
:1039F000672000006F6E20FA00006F6666FA000014
:103A0000F906203030203031203032203033203061
:103A100034203035203036203037203038203039CF
:103A20002030412030422030432030442030452097
:103A30003046FA005661726961626C657320696E86
:103A40002052414D3AFA000045455020436F6E74B4
:103A5000656E74733AFA000050524F4752414D2040
:103A60004D656D6F727920436F6E74656E74733A35
:103A7000FA004E65787420617661696C61626C65EC
:103A8000206C6F636174696F6E3A2000FB3A2050BE
:103A9000726F6772616D20746F6F206C6172676501
:103AA00020666F72204545502120FA0045726173EF
:103AB000696E672045455000536176696E67204600
:103AC000696C6520232000004C6F6164696E67207B
:103AD00046696C6520232000456D70747900206272
:103AE00079746573203E2000427265616BFA0000B4
:103AF00020627974657320757365642E2020000040
:103B000020627974657320667265652E20FA000064
:103B100008200800FA4578697420796F757220745E
:103B200065726D696E616C2070726F6772616D2E67
:103B30000000FA496E766F6B696E6720626F6F7472
:103B40006C6F616465722028696E2038207365632C
:103B50007329206174203078000056616C756520EF
:103B600065786365656465642072616E67650000F1
:103B7000206E6F74200020737570706F727420282F
:103B8000432900004C696E65202320004572726F46
:103B9000723A0000FB556E6B6E6F776E20636F6D2F
:103BA0006D616E64206F72206F70657261746F72E8
:103BB0002E00FBFC206F6620303A32353500FB507A
:103BC000726F6772616D206D656D6F7279206973B8
:103BD0002066756C6C00FB4368617261637465728A
:103BE000FD61207265636F676E697A656420747920
:103BF00070652E00FB427566666572206C696D69A2
:103C0000742065786365656465642E00FB426164B9
:103C1000207661726961626C65206E616D652E004F
:103C2000FB546F6F206D616E7920617267756D65F1
:103C30006E74732E2000FB56616C7565207761737E
:103C4000FD617661696C61626C652E00FB4D61639C
:103C500068696E6520737461636B206572726F7240
:103C600020FAF9092046756E6374696F6E732074CB
:103C70006F6F20636F6D706C6578206F7220636169
:103C80006C6C73206E657374656420746F6F206450
:103C90006565706C7900FB474F544F206F72204769
:103CA0004F5355422064657374696E6174696F6E19
:103CB000FD666F756E642E00FBFC206F6620303A47
:103CC0003700FB4C696E65206E756D626572203E33
:103CD00020332064696769747300FBFC206F6620E1
:103CE000303A3100FBFC206F6620303A3300FB494C
:103CF0004350207265676973746572206F766572D0
:103D0000666C6F772E00FB41726974686D6574692B
:103D100063206F766572666C6F772E00FB41726967
:103D200074686D6574696320756E646572666C6F26
:103D3000772E2000FB446976696465206279207AD9
:103D400065726F2E2000FB456D7074792046696C9A
:103D50006500FB545749FD656E61626C65642E0019
:103D6000FB31343A2000FB3A204E6F20426F6F74D3
:103D70002D6C6F6164657220666F756E642EFB53E7
:103D8000706563696669656420FC2E00FB53657489
:103D900020414320526566203E20302E2000FB4407
:103DA0006576696365206E6F6E2D726573706F6ED8
:103DB00073652E00FB4465766963652063686563FF
:103DC0006B73756D2E00FB53504920FD656E61626B
:103DD0006C656400FBFD612062696E617279206E22
:103DE000756D62657200FB496E76616C6964206E68
:103DF000756D626572206F6620617267756D656EA4
:0A3E000074732E00000000001895F6
:10FB000000000000000000000000000000000000F5
:10FB100000000000000000000000000000000000E5
:10FB200000000000000000000000000000000000D5
:10FB300000000000000000000000000000000000C5
:10FB400000000000000000000000000000000000B5
:10FB500000000000000000000000000000000000A5
:10FB60000000000000000000000000000000000095
:10FB70000000000000000000000000000000000085
:10FB8000FFFFFFFFFFFFFFFFFFFFFFFFFFFFFFFF85
:10FB9000FFFFFFFFFFFFFFFFFFFFFFFFFFFFFFFF75
:10FBA000FFFFFFFFFFFFFFFFFFFFFFFFFFFFFFFF65
:10FBB000FFFFFFFFFFFFFFFFFFFFFFFFFFFFFFFF55
:10FBC000FFFFFFFFFFFFFFFFFFFFFFFFFFFFFFFF45
:10FBD000FFFFFFFFFFFFFFFFFFFFFFFFFFFFFFFF35
:10FBE000FFFFFFFFFFFFFFFFFFFFFFFFFFFFFFFF25
:10FBF000FFFFFFFFFFFFFFFFFFFFFFFFFFFFFFFF15
:10FC00000F92CDB7DEB7112484B714BE81FFE3D0C5
:10FC100085E08093810082E08093C00088E180933A
:10FC2000C10086E08093C20080E18093C4008EE032
:10FC3000BCD0209A26E088E19EEF31E090938500C9
:10FC40008093840036BBB09BFECF189AA8952150B4
:10FC5000A9F788249924CC24C394F5E0DF2EE1E1B0
:10FC6000EE2E73E0F72E95D0813469F492D089831B
:10FC7000A2D08981823811F1813811F485E001C068
:10FC800083E080D07CC0823411F484E103C08534E9
:10FC900019F485E098D073C0853561F47AD0082FC7
:10FCA00010E077D090E0982E8824802A912A880C42
:10FCB000991C64C0863521F484E085D080E0E1CFD2
:10FCC000843609F040C065D064D0B82E62D080E0A0
:10FCD000881680EE980618F4F401F7BEE89500E067
:10FCE00011E057D0F80181938F01BE16D1F7F0E0F3
:10FCF0008F16F0EE9F0618F0F401F7BEE8955BD082
:10FD000007B600FCFDCFF401A0E0B1E02C9130E09B
:10FD100011968C91119790E0982F8827822B932B26
:10FD200012960C01C7BEE8951124329682E0A030ED
:10FD3000B80761F7F401D7BEE89507B600FCFDCF20
:10FD4000E7BEE8951CC0843761F423D022D0082F89
:10FD500020D031D0F40185914F0114D00150D1F75A
:10FD60000EC0853739F427D08EE10CD086E90AD051
:10FD70008AE087CF813511F488E017D01CD080E16C
:10FD800001D071CF9091C00095FFFCCF8093C60049
:10FD900008958091C00087FFFCCF8091C00084FD52
:10FDA00001C0A8958091C6000895E0E6F0E098E1D2
:10FDB000908380830895EDDF803219F088E0F5DFCD
:10FDC000FFCF84E1DFCF1F93182FE3DF1150E9F756
:10FDD000F2DF1F910895282E84BF80E0E6DFEE2732
:06FDE000FF270994000555
:00000001FF
