:020000020000FC
:100000000C9434000C947B1A0C947B1A0C947B1A7D
:100010000C947B1A0C947B1A0C94BB050C949810CE
:100020000C947B1A0C947B1A0C947B1A0C947B1AFC
:100030000C947B1A0C947B1A0C9445110C947B1A2B
:100040000C947B1A0C947B1A0C947B1A0C947B1ADC
:100050000C947B1A0C947B1A0C947B1A0C94790FD9
:100060000C947B1A0C947B1AA8950FEF0DBF08E037
:100070000EBF0E94100A0E94B40278940E9475017B
:10008000CC240E9446000E94A900F7CF48E9409383
:10009000C1004EE30E944C14CAEDD5E00E943F140B
:1000A0003D3021F4F198F0980C946100323229F43B
:1000B000F09902C0F09A01C0F098333211F4F09B2D
:1000C000F19A0F93CB3D05E0D0070F9121F447E063
:1000D0000E944C14E3CF3531E9F0383069F13F37F5
:1000E00059F13A30D9F23930C9F2F19B38833D30B9
:1000F00009F408950F93C53705E0D0070F9121F457
:1001000047E00E944C14CACFF19B2197432F0E94D5
:100110007C01C4CFEF93FF93EAEDF5E0EC1BFD0B00
:100120002E2EECEDFFE20E949C012A94D1F7CAED3D
:10013000D5E0FF91EF91B2CF0F93CA3D05E0D00714
:100140000F9131F033273993ECEDFFE20E949C01CF
:10015000A5CFCAEDD5E038810E944101023011F4EB
:100160000C94CD050E947501A16002C0AE7FBF7BDB
:100170008DB79EB70F938F3A08E090070F9110F458
:100180000C949C090E940B015D3021F4B2FD0E9489
:1001900024051BC05B33C9F0032D023021F4F8D2D3
:1001A0000E941F02E5CF7F756F755F75053041F0C6
:1001B000413031F4032D033019F40E940702D8CFE7
:1001C0000E94E7005D3009F00895A1600895E6ED12
:1001D000F9E20E94FF00071671F40E94FF00061664
:1001E00059F40E94FF00051641F431960591F491EF
:1001F000E02F09950895319631963096EACF059013
:10020000002041F41490112029F400E00093DD0552
:100210000C94CE09089570EF60EF41E038810E94A0
:100220004101013019F40E943301F5CF532F0E9490
:1002300033013D30A1F03D2C38813D3081F00E94EA
:1002400041013D1439F40E945C050E94330143953D
:10025000433091F738810E9441013D1409F008951F
:100260000E943301F7CF0F93C43705E0D0070F91F9
:1002700031F404E00093DD050C94CE090895219734
:1002800008953F9300273D3011F40C9467013F75AA
:10029000303011F40C944E013C3011F401E018C0E0
:1002A000323011F405E014C0303411F405E010C010
:1002B00030310AF40DC03B350AF00AC0303412F078
:1002C00003E006C03A3112F41AF402E001C004E07F
:1002D000D02E3F9108950E94BA088F93492F0E9413
:1002E0004C144F910E944C1408954DE00E944C1400
:1002F0004AE00E944C1408954D3011F4F6DF089541
:100300000C944C14472F0E948C01462F0E948C01A4
:10031000452F0E948C0108954F93407F4295405D88
:100320000E944C144F914F70405D0E944C140895F0
:100330000E949C01DADF08954591442309F4089551
:10034000483F19F40E94DB01F7CF493F29F415908B
:1003500045910E940202F0CF4A3F11F4C6DFECCF74
:100360004B3F41F4EF93FF93E0E0F1E3E5DFFF91D2
:10037000EF91E2CF4C3F41F4EF93FF93EEECF0E3CB
:10038000DBDFFF91EF91D8CF4D3F41F4EF93FF9327
:10039000E4EEF0E3D1DFFF91EF91CECF4E3F41F499
:1003A000EF93FF93EAEEF0E3C7DFFF91EF91C4CF45
:1003B0000E944C14C1CF0F93EF93FF9311244591EA
:1003C0004A30A1F04D3091F04A3F81F0493F71F041
:1003D0004C3F11F404E1100E4D3F11F405E0100EF6
:1003E0004E3F11F40CE0100E1394E9CF1A9446E33B
:1003F000141A1194169440E20E940202FF91EF91A8
:100400000F9108950E944C141A94E1F708955154E5
:100410005A312AF005E00093DD050C94CE09A0FFC7
:1004200021F40E941F02A2600895EFEFF4E0662716
:10043000E50FF61F50810E941F02AD7F08950F93B4
:1004400002E20C1511F40C9492091F921124ECE5B0
:10045000F5E0EC19F1095083C39423951F900F9197
:100460000895CC2011F40C9497091F921124EDE506
:10047000F5E0EC19F1095081CA942A951F9008956E
:10048000EF93FF9304E00B1511F40C949C0932E0F8
:100490000B2D039FE5E6F5E0E019F109D293C29335
:1004A000B394FF91EF910895EF93FF93BB2011F464
:1004B0000C94970932E00B2D039FE5E6F5E0E01977
:1004C000F109C191D081BA94FF91EF910895EF9312
:1004D000FF9304E00A1511F40C949C0934E00A2DF2
:1004E000039FE5E7F5E0E019F1096292729242920A
:1004F0005292A394FF91EF910895EF93FF93AA2056
:1005000011F40C94970934E00A2D0A95039FE5E74E
:10051000F5E0E019F1096290729042905290FF91DB
:10052000EF9108959EDF0E942A0401E0552319F0FF
:10053000000F5A95E9F7502F0C94980E703049F03F
:10054000705D472F0E944C14603019F440E30E9404
:100550004C14603021F0605D462F0E944C14505DB9
:10056000452F0E944C140895E0EFFDE2E1DE08956E
:10057000BCDEEEEFF4E0C091DB05D091DC05EC17BA
:10058000FD0721F04081B8DE3197F9CFAEDEADDE58
:1005900094E08EEF7091DB056091DC05871B960B74
:1005A0000E949B08AFDEECEBFFE2C6DE8091DB052C
:1005B0009091DC05805091400E949B08A3DEECECFA
:1005C000FFE2BADE0895B0680E94900E05E0301692
:1005D00051F047DF0E94D008B1DF40E20E944C1486
:1005E0002223B9F782DEBF770895B0680E94900E8B
:1005F00044E20E944C1435DF852F6DDE40E20E94FC
:100600004C142223A9F771DEBF770895B0680E94C9
:10061000900E27DF78E040E3551F08F441E30E9485
:100620004C147A95C1F740E20E944C14222389F7BA
:100630005CDEBF770895488116DE423239F04E37CE
:1006400019F00E944C14F7CF50DEF5CF08950E94A8
:100650008B0EEFEFF4E06627E50FF61F0083089599
:10066000B5FF0C94F80D0E94860E452EFADE052F7C
:10067000F8DE552E6627EFEFF4E0E50FF61F008356
:10068000A062AE7FBF7D08950E94860E552309F4B7
:10069000A46008950F910F910895B0620895EFEF4F
:1006A000F4E0552D6627E50FF61F0081041521F0B3
:1006B00003950083A0610895AA9409F01EDF0895B0
:1006C00055DD0895B16008959881CDDD8881382F7A
:1006D000D8DD013029F0043019F0C5DD0C94720327
:1006E000892F99270E94C708582FA9DE3FDD08955A
:1006F0000981073211F00C948D0B552708E0202E4C
:100700008881B1DD382FBDDD302E023019F0CF5F8A
:10071000DF4F07C08894317030FD0894551F2A942C
:1007200079F78DDE23DD08950CE10093DD050C944F
:10073000CE09CF93DF930E94860E0AE0F798889542
:100740000000F79BFBCF0A95C9F75A95B1F70C94B7
:10075000950E552774DE0E94860E01E005174AF0BB
:100760000AB50F770ABD50FF08950AB500680ABDA3
:1007700008950C94A60904B7077F04BF08E100930D
:1007800060000EE000936000F894889500000895E2
:100790007F706F705F700E94DD0808950E94860E62
:1007A000452FEEEFF4E08091DB059091DC050C9491
:1007B000E303F91711F48E17C8F400810D3011F01E
:1007C0003197F7CF3197552766277727F91711F417
:1007D0008E1760F4308155DD023021F40E945C05F3
:1007E0003197F4CFD5DF451721F7089509E000933D
:1007F000DD050C94CE09D2DFEF010895CFDFA06CA8
:100800000895B3FF0C940604A8600895B16008959C
:10081000488129DD4D30E1F708950E94860E452F6D
:100820000E944C140895EEEFF4E0F093DC05E093A1
:10083000DB05CC24AA27BB270FB70F93F8940E949F
:10084000A8050E94AE050F910FBF4FDDE6E8FDE25F
:100850006FDD0895583008F408950C94A1095430C0
:1008600008F408950C94AB09523008F408950C94E0
:10087000A609223059F0502F1AC0552319F00695B9
:100880005A95E9F751E000FF5527F6CF702FCCE5D8
:10089000D5E00881083041F0652FCC2460FD03C00D
:1008A0005095572301C0572B052FC0E0D0E0BBDF88
:1008B000CFEFD4E0EAE5F3E30591002311F00A93CA
:1008C000FBCFD093DC05C093DB050895B7FD0DC0C9
:1008D000A1FD0BC00E94440EC4DD55231AF0E6EAC8
:1008E000F0E302C0E6E2F0E327DD5AE20C94980E52
:1008F000CF93DF930E94B70540E20E944C14E6EDCF
:10090000F9E2D2E3C4E07591772309F43CC0659124
:100910005591643521F45F34A1F470E220C069344C
:1009200021F4563471F470E21AC06F3451F4523528
:1009300041F47735A1F0783591F0763481F070E2AA
:100940000EC0503439F05E352CF45C3514F450335D
:1009500034F4505E70E260330AF06627605E472F21
:100960000E944C14462F0E944C14452F0E944C1498
:1009700040E20E944C143396D45022F6B6DC40E29A
:100980000E944C14BECFB1DC0E94B7050C94950EAA
:100990000BB500FD0EC0EADBCC2059F062DD03E0B0
:1009A000051714F40C94BA09B4600E94A8050E94BB
:1009B0002C07BB24AA240BB50E7F0BBDB460CEEF71
:1009C000D4E00E942405CC24A1600E945D14A6FFFF
:1009D00002C056DDAF7BA7FF03C0EF01B860AF7761
:1009E000A3FF05C061DDBB2009F4B77FA77FA5FF8A
:1009F00003C03E016CDDAF7DA4FF02C0E301AF7E0A
:100A0000B0FF07C00E944A05C091DB05D091DC050C
:100A1000BE7F8091DB059091DC058C1B9D0B78F4EB
:100A200038812FDCA2FF04C0043011F02197CBCF16
:100A3000AB7F023011F42197C6CF9ADBC4CF00E020
:100A40000093DE05BB7F08950091DC05D01729F4E3
:100A50000091DB05C01709F40895CF93DF93DF926F
:100A60003F936627552738810CDC023029F00E941D
:100A7000DD085093DE0505C00E945C055F7021977C
:100A8000F2CF0BB503FF02C056D02FDC3F91DF90B1
:100A90000C94950EE4EBFFE24FDC089554EBE0E09C
:100AA000F1E0019150270F93EF3F08E0F0070F911D
:100AB000C1F75093E1050895762F652F532F0895C0
:100AC0007727662755270895DF93D2E0DA9500004F
:100AD000E9F7DF910895DF93D5E0F6DFDA95E9F7DE
:100AE000DF910895DF93DAE0EFDFDA95E9F7DF9140
:100AF0000895DF93D4E6E8DFDA95E9F7DF9108950A
:100B0000CF93DF93D3E6C3E1CA950000E9F7DA9506
:100B10000000C9F7DF91CF9108950F930AE0F0DF4D
:100B20000A95E9F70F9108950F930AE0F6DF0A9509
:100B3000E9F70F910895E8EFF0E3FEDBCF93DF9341
:100B4000DD27C091DE050E945109DF91CF91089504
:100B5000E0E0F1E093E08FEF002705C0EFEFF4E075
:100B600090E08AE1002701930197E9F70895E2EB0D
:100B7000FEE2E2DB089508E10093600000E00093EC
:100B80006000F59A189504E00093DD050C94CE09F9
:100B90000BE00093DD050C94CE0944270E94B506B6
:100BA0005430B0F78091DB059091DC050F938E3FB8
:100BB00004E090070F9109F45BC0CAEDD5E080DF37
:100BC0000F93C43705E0D0070F91EAF2388159DB63
:100BD000023029F4762F652F532F2197F1CFD8DDDE
:100BE000452EE091DB05F091DC054C7F69DF552453
:100BF00031960F93EF3F04E0F0070F9191F03081B1
:100C000040DB043071F0023089F75394562F672F80
:100C1000732FEECF0F93EF3F04E0F0070F9131F702
:100C20000895052D033029F05394562F672F70E057
:100C3000F8CF41FD02C04260D9CFAADD4516A9F127
:100C400010F441603F010F93EF3F04E0F0070F9174
:100C500011F440FF0DC040FFDDCF541508F455C01E
:100C60000F93EF3F04E0F0070F9109F44EC0D2CF8D
:100C70000E94B506003009F40895CAEDD5E0E09170
:100C8000DB05F091DC050F93E03001E0F0070F91F8
:100C900009F436C008810083319721970D3099F708
:100CA000F093DC05E093DB0508953197EF010F9396
:100CB000E03001E0F0070F9109F465CF088121973A
:100CC0000D30A9F7BF016C1B7D0B8091DB05909166
:100CD000DC05860F971F9093DC058093DB050F934F
:100CE000E03001E0F0070F9129F00881008321979F
:100CF0003197F5CF0E94B506003009F04ECF089528
:100D000002E00093DD050C94CE090E94B506003088
:100D100059F10091DC05013029F40091DB05005008
:100D2000081770F3E091DB05F091DC05DF2FCE2F83
:100D3000C81BD040D093DC05C093DB05F71519F430
:100D4000E61509F405C00081088321963196F6CF97
:100D5000CAEDD5E0F72DE62D3197088100830D30DF
:100D600019F031972197F9CF0895CAEDD5E05527AD
:100D7000882799274B7F3881219783953D3041F013
:100D800080DA023039F044600130A9F39395F3CF53
:100D9000092F089542FF5395EECFCAEDD5E0E0301C
:100DA00009F0AECF08810083319721970D30B9F754
:100DB000F093DC05E093DB050895AF93BF935527CF
:100DC0003EDB0E94860E543014F00C94BA098CD08D
:100DD000AEEFB4E0E091DB05F091DC05AE1BBF0B9C
:100DE000AF5FBF4F5ED1EA1BFB0BBF91AF9128F401
:100DF000E8E5FFE29DDA0C942B07E4E8FFE29CDAD9
:100E0000852F69DA72DA00E00093F3053BD11124F3
:100E1000C8E1D0E0C50FD11D022D81D1EFEFF4E084
:100E200001E03EE1C4EFD5E009930291099300236C
:100E300071F03A95D1F726D128822F920091F205D0
:100E40000093F305BBD00F910093F305E9CF09930D
:100E50003A95E9F7B3D00895B2FD06C05527EFDA09
:100E600085D9FFDA54305CF5DEDCE4E9FFE264DAD0
:100E7000852F31DA3ADAF6D016F40C94B5093091B0
:100E8000F505FFD9025011F00C94B509EFEFF4E02D
:100E90003EE1C5EFD5E00991002341F002933A9578
:100EA000D1F708810093F30585D0F2CF3197CC2498
:100EB000F093DC05E093DB05B2FF69DB08950C9449
:100EC000BA09CF93DF933FE13093F30595D03A957C
:100ED000D9F7A1D00C94950E5527B1DA47D9C1DACC
:100EE000543014F00C94BA09DD27C52FC85EDF4FCB
:100EF0000FD1002309F408950093F305B3D07CD0FB
:100F0000C4EFD5E00F8D0093F305002321F0009589
:100F100011F050D0F4CF8DD00895CF93DF935527A3
:100F2000852FD9D94AE30E944C1440E20E946608FA
:100F3000CF015F930E949B08E8D9EAEAFFE2FCD95F
:100F40000F93503000E060070F9129F4E4EAFFE2CC
:100F5000F3D95F9112C05F9185D0C5EFD5E06EE106
:100F600049910E944C144D3041F06A9509F0F8CF38
:100F700048814093F3051ED0F0CFB7D95395543034
:100F800009F0CECFB2D90E945108EF93FF939D2F65
:100F90008C2F0E949B08B9D9ECEBFFE2CDD99F9131
:100FA0008F910E949B08B1D9ECECFFE2C5D99DD985
:100FB0000C94950E0AB50F7D0ABD03C00AB50062F8
:100FC0000ABDCF93DF93EF93FF9300E2202EE4EF6F
:100FD000F5E00091F30519D00AB505FF03C00191B2
:100FE0009ED002C095D00193CF5FDF4F2A94A1F726
:100FF000FF91EF910C94950ECF93DF9306D00AB535
:1010000000640ABD8CD00C94950E00E24091F3056B
:10101000049FE001089584E0C8E1D0E00AB50F7BA9
:101020000ABD00270E948F08CF5FDF4F8A95C9F75E
:1010300008950AB50F7B0ABD0027DD27C52FC85EBE
:10104000DF4F0E948F080895C4EFD5E000E00093C1
:10105000F305B0DF0895C4EFD5E000E00093F30599
:10106000ADDF0895F1DF052EC00DD11DC85EDF4F45
:101070000881002311F4689408950093F3059ADF22
:10108000E8940895CF93DF932090F3052092F20522
:1010900023942092F305B9DF3BD00F3FC9F70C949E
:1010A000950EAF93BF935F93BB27AA2753E00E948F
:1010B0006608AE0FBF1F5A95D2F7E2EAF3E0EA1BCB
:1010C000FB0BED015F91BF91AF9108955F93E4EF4A
:1010D000F5E090E080E070E06EE1B6DF052EE00D17
:1010E000F11DE85EFF4F0081002379F0E4EFF5E0A9
:1010F0000093F3055FDF008101300FB701FF05C0EA
:10110000860F971F078D002399F7FC015F910895C3
:10111000F999FECFD2BDC1BDF89A00B50895F999ED
:10112000FECFD2BDC1BD44E00AB406FC44E100BD1F
:101130004FBBF99A08950C01889400E1C1DC001CB2
:10114000111C551F661F771F0A9509F40895352F46
:1011500008D0532F362F05D0632F372F02D0732F8F
:10116000EECF432F4D5F43FD342F432F405D47FDAE
:10117000342F0895982F92959F70905D9A3308F0C0
:10118000995F8F70805D8A3308F0895F089596FDBE
:10119000975F9F7086FD875F8F709295892B08956A
:1011A00077276627545610F07395FCCF5C595A5038
:1011B00010F06395FCCF565F08957330B2F472302F
:1011C00032F0663092F4653012F0563072F46623D5
:1011D00021F00AE0500F6A9581F7772309F408950A
:1011E00004E68894500F7A95C0F701E00093DD057E
:1011F0000C94CE094FE24395C050DA4CEA49FB43C8
:10120000D0F7C050D643E546F44C0E944C144FE250
:101210004395C050D14EE54FF540D0F7C050DF4167
:10122000EA40FA4F0E944C144FE24395C058D64909
:10123000E849F040D0F7C058D946E746FF4F0E9432
:101240004C144FE24395C054D244EF40F040D0F7E5
:10125000C05CDD4BE04FFF4F0E944C144FE24395C2
:10126000C05AD648E140F040D0F7C056D947EE4FBB
:10127000FF4F0E944C144FE24395C051D742E040CB
:10128000F040D0F7C05FD84DEF4FFF4F0E944C1495
:101290004FE24395C85ED340E0F7C851DC4F0E944F
:1012A0004C144FE24395C456D040E0F7CC59DF4F81
:1012B0000E944C144FE24395CA50E8F7C65F0E9463
:1012C0004C144C2F405D0E944C1408950FB70F939F
:1012D000F89400E1992788277695679510F48C0F8C
:1012E0009D1F97958795779567950A95B9F70F9103
:1012F0000FBF08950FB70F93F8948827991B01E14A
:10130000661F771F0A9519F40F910FBF0895881F64
:10131000991F841B930B20F4840F931F8894F0CFA4
:101320000894EECF06E00093DD050C94CE0907E0AB
:101330000093DD050C94CE0908E00093DD050C94C4
:10134000CE090AE00093DD050C94CE090CE0009371
:10135000DD050C94CE090DE00093DD050C94CE095B
:1013600001E10093DD050C94CE0902E10093DD0557
:101370000C94CE0906E10093DD050C94CE090BE137
:101380000093DD050C94CE090DE10093DD050C946E
:10139000CE090EE10093DD050C94CE090E94750183
:1013A00011240090DD05D02C000CE0EEF3E1E00DFF
:1013B000F11D0591F491E02FEE1FFF1F0E949C018B
:1013C0000E947501B8DB0FEF0DBF08E00EBFAA2722
:1013D000BB2700E00093DE050E9475010C943D00E0
:1013E000841893189918A518B418C018CA18D518D5
:1013F000E018051916191B1927192C19311932195A
:101400003D1949195219581959195C1968196F1958
:10141000781983198C19931993199C19AB19AC1964
:10142000F894002411247BD08CD00FEF009364003B
:101430000BB50E7F0BBD2F9A5CDB03B15ADB2F98E7
:1014400007FD03C00BB501600BBD00E0016004B9EE
:1014500000E0006005B900E0006307B900E008B9EA
:1014600000E00C6300E00AB900E00BB926982E9A60
:101470000BB50F750BBD03E00093F105E0EDF7E050
:10148000F093F005E093EF05112414BE1EBA02E0BC
:101490000ABD0BB501700BBD1092DE05FFDA1124F9
:1014A0001092E9051092EA0501E00093E70500E0DB
:1014B0000093E80554E0C8E1D0E02ADE0F3F11F4C4
:1014C00000272DDECF5FDF4F5A95B9F70E946C14CD
:1014D000789401E003BF00E000937C0000E00093FB
:1014E0007B0005ED00937A000FE000937E000E94E0
:1014F000CA1100E00093E2050BB500FF0EC0CC243A
:101500005527B460B1DC44DA0E9475010E94750170
:10151000E6E8FDE20E949801089585D908950FB785
:101520000F93A89504B7077F04BFF894009160005B
:101530000861009360000070009360000F910FBF7E
:10154000089550E860E05093610060936100089551
:10155000009164000E7F0093640005ED00937A0013
:1015600000917A0006FDFBCFBDDA089500917A0064
:101570000F7700937A00009164000160009364008B
:10158000B1DA0895CF93DF93DF91CF910E94900E4F
:101590002223C1F0CF93DF9303E2C01680F411241D
:1015A0000C2CC092E005CBE3D5E0C019D1090E9414
:1015B000310259930A94D9F7DF91CF9109C00E9463
:1015C000E50AB0CE0E94E50AB2CE00E00093E00545
:1015D00000E00093DF055091E0050C94980ECF9346
:1015E000DF930E94900E11247091E0056091DF0559
:1015F000CAE3D5E0222361F0A1FF03C00C2D0A95B8
:1016000039F00E9431027A95751772F0652F02C089
:10161000761751F0C61BD10958810E941F026395AD
:101620006093DF050C94950E82CECF93DF930AB5BD
:101630000F7D0ABD0E94B60001E04ED05881DF91B7
:10164000CF910C94980ECF93DF930AB500620ABD38
:101650000E94B60002E040D058830C94950ECF93C0
:10166000DF930AB50F7D0ABD0E94B60001E034D0B9
:101670004FDD502FDF91CF910C94980ECF93DF93D5
:101680003AB53F7B3ABD3AB530623ABD0E94B600EA
:1016900002E022D0052F0F93C03004E0D0070F9155
:1016A00011F03DDD17C0E8E7FFE20E949C015527DD
:1016B0003AB530643ABD219732DD5A9519F44EE2BD
:1016C0000E944C140F93C03000E0D0070F9199F79F
:1016D0000E9475010C94950E0C1989F00E9431023C
:1016E0005F930E9431020AB505FF06C05F930E9416
:1016F0003102DF91CF910895D52FCF9108950E94A7
:1017000031020AB505FF06C0052F0E943102C02F25
:10171000DD270895C52FDD270895EF93FF9355E04A
:101720000E941F02CF920E94B600E2E5F7E16591A8
:101730007591772311F40F9009C06517C1F7112433
:101740000F90EDE5F5E0E019F1097083FF91EF915D
:101750000895E305E405E505E605E905EB05EC0577
:10176000ED05EE0500001124E50FF11D54910C94D8
:10177000980ECF93DF9350E00E941F020E94860EC6
:10178000CC2049F058300AF004CE60E86093610044
:101790005093610004C0509161000E941F020C949C
:1017A000950ECF93DF93509166000E941F020E9416
:1017B000860E5093660050916600DF91CF910C9495
:1017C000980EACD0CF93DF9321975881523261F4B9
:1017D0005A91523219F00E941F02FACF5F915F9125
:1017E0000E9433012C2D06C0DF91CF910E94900EF4
:1017F00009F4CACD0FB70F93F894EF93FF93112418
:10180000EDE5F5E0C21AEC19F1090091C1000F777E
:101810000093C1002A980000000052915EBD0DB5F2
:1018200007FFFDCF5EB52A95C1F7FF91EF910F91AC
:101830000FBF089573D00091C1000F770093C100CE
:101840000FB70F93F894EF93FF9311240E94900E1B
:1018500011F4552706C003E20E94310250170AF026
:1018600089CD752F0EB42A9800000000552341F44D
:101870001EBC0DB507FFFDCF5EB50E941F020EC056
:10188000EBE3F5E01092DF055093E0051EBC0DB5CB
:1018900007FFFDCF5EB552937A95C1F7FF91EF91A7
:1018A0000F910FBF0895009164000B7F00936400B7
:1018B00052E00E941F022AD20E942F04550F550F9A
:1018C00034D00CB5037F052B0CBD08951FD20E94A8
:1018D00034040CB500620CBD50FD03C00CB50F7D87
:1018E0000CBD089513D20E942A04052E53700CB526
:1018F000087F052B0CBD0DB501600DBD02FC03C0BA
:101900000DB50E7F0DBD089509D051E00E941F0254
:10191000FDD12A9A50FD01C02A9808950CB506FD04
:1019200008950AE10093DD0539CD009164000B7F35
:101930000093640004B10C6204B92A9A01E50CBD5D
:101940000DB50E7F0DBD08952A98000000005EBD04
:101950000DB507FFFDCF0EB508952A9800000000D1
:101960005EBD0DB507FFFDCF5EB50895CFD10E94D6
:101970003404E5E2F0E0652F51E060FD93C096C0CD
:101980008CD0EF5DFF4F50810C94980E86D0EF9372
:10199000FF93BCD1FF91EF91EF5DFF4F508308950E
:1019A0007CD0EF93FF930E94B6000E9492020E94A7
:1019B0003102FF91EF91EF5DFF4F74C06ED0EF9356
:1019C000FF930E94B6000E9492020E943102FF9192
:1019D000EF91EF5DFF4F6AC060D0EF93FF9396D118
:1019E000FF91EF91EE5DFF4F5083089556D0E05E7A
:1019F000FF4F50810C94980E50D0EF93FF930E94AC
:101A0000B6000E9492020E943102FF91EF91EE5DBA
:101A1000FF4F48C042D0EF93FF930E94B6000E9450
:101A200092020E943102FF91EF91EE5DFF4F3EC0A6
:101A300034D0EF93FF930E94B6000E9492020E945E
:101A40003102FF91EF91EE5DFF4F35C026D0EF934D
:101A5000FF930E94B6000E9492020E943102FF9101
:101A6000EF91EE5DFF4F27D058D825D0089515D0BF
:101A7000EF93FF930E94B6000E9492020E943102EF
:101A8000FF91EF91E05EFF4F0081052350E00023BE
:101A90000FB601FE51E00C94980E515403E0509F94
:101AA000F00108950081052B008308955095008171
:101AB0000523008308950081052700830895CF93AF
:101AC000DF9324D100916400077F00936400112408
:101AD00010928200009180000168219A1092890082
:101AE0005093880008C0009180000162229A1092F1
:101AF0008B0050938A000093800009E000938100DE
:101B00000C94950ECF93DF9301D15F930E94310225
:101B10005F9300916400077F00936400112410928A
:101B20008200009180000368219A5093890070938D
:101B3000880008C0009180000362229A50938B00B5
:101B400070938A000093800009E0009381000C9458
:101B5000950E00270093810000938000009382007F
:101B6000009164000860009364000895D4D0509FF1
:101B700011200AB507FD11F4502DDAC00FE00093D3
:101B8000DD050CCC5F93C2D055230AB407FCC1F02D
:101B9000052F0E943102652F772759E0661F5A955D
:101BA00041F0771F701B18F4700F8894F7CF0894DA
:101BB000F5CF5F915F3011F4562F01C0572FB8C099
:101BC00001E10093DD05EACBA6D0500F0AB507FD71
:101BD00008F0AEC00FE00093DD05E0CB9CD0501BB9
:101BE0000AB507FD08F0A4C000E10093DD05D6CBDF
:101BF00092D050170FB701FF10C011C08CD05017F2
:101C00000FB701FF0CC009C05F9385D06F916C3195
:101C100011F4501701C0051710F0552750FD51E081
:101C200087C00E94210E662319F056956A95E9F740
:101C30007FC00E94210E662319F0550F6A95E9F7BF
:101C400077C06ED00E943102222311F461E0089522
:101C50000E942A04652F0E94310208955CD050230F
:101C600067C059D0502B64C056D0502761C04ED0A9
:101C700050955EC04BD051955BC048D0529558C02E
:101C800045D052955F7054C004EB5091E1055795D3
:101C900008F450275093E1050E941F020E94B600ED
:101CA000089534D05F7044C031D000E8551F0795C7
:101CB000E8F7502F3DC0EF93FF9311240E94900E40
:101CC00041F40090E005002009F431CBEBE3F5E0AE
:101CD00007C002E220170AF025CB022EEDE5F5E061
:101CE00005D00E941F02FF91EF91089550E07CE81B
:101CF000029168E0302F352756950695369508F401
:101D000057276A95B9F70A9499F708950E94B60083
:101D10000E9431020895FADF052F0E9431020895D2
:101D200022270E94B60022230895DF91CF910895C3
:101D30000E941F020895CF920E94B60055270F916E
:101D40000C1911F00E94310203DC00E000937B00CB
:101D500000917C00007F5F70052B00937C00583061
:101D600062F457700E9495020E94310200917E0039
:101D7000502B50937E000E9464055527662770E122
:101D8000F89405ED00937A0000917A0006FDFBCFF0
:101D90008091780090917900580F691F7A9589F7A2
:101DA000789476E0669557957A95E1F70E941F0240
:101DB00000E000937E00DADB089555270E941F02A1
:101DC000A5DF0E943404C4DB00917C000F7350FD3A
:101DD000006050FF006C00937C000E948005089515
:101DE00095DF0E942F04652F0E9431020E94340467
:101DF0000BB150FD04C0660F660F037F02C06295F1
:101E00000F7C062B0BB9089555270E941F027EDF19
:101E10000E943404449850FD449A089555270E9426
:101E20001F0274DF0E943404459850FD459A0895BE
:101E300052E00E941F026ADF553008F09BCA0AB5C3
:101E4000087F052B0ABD089583DB0DD051E000B655
:101E500005FC552700B7006800BF88DB0E941F0201
:101E60000E94B600089500E000937A0000E100931C
:101E70007A0050917B005F7B50937B0000B7087025
:101E8000006100BF5AB552FF02C054E011C050912A
:101E90007B00506450937B005AB5537000917C00D6
:101EA000007F052B00937C000E949502CA942A951E
:101EB00050937F000E9479050895D5DF55270E9431
:101EC0001F0224DF523008F055CA00B7007800BF67
:101ED000552309F4089560918800662329F407E1E9
:101EE0000093DD055BCA0895006100BF086100BF73
:101EF0000895F39A18950ADF952F0E943102852FD5
:101F000014DD2A9853E020DD0E94361026DD2A9A3F
:101F10000FCFFCDE952F0E943102852F06DD2A9817
:101F200056E012DD2A9A52E00FDD0E9436100E9420
:101F300031020ADD2A9A0E94800555E005DD0DDD9B
:101F40002A9A5523C1F7089555270E941F020E941F
:101F5000B6008091E9059091EA05E0DF8F5F9F4F21
:101F60009093EA058093E905089500240092EA051C
:101F70000092E905089551E00E941F02C7DE552333
:101F800019F05093E7050895F5C9C0DE552351F1C6
:101F9000952F88270E9431020C01952FC6DC0E94E4
:101FA00080052A9853E0D0DC0E943610C0012090B2
:101FB000E705D3DCF5D80E949E02019779F02A94B8
:101FC00029F40E9475012090E70503C04CE20E94AD
:101FD0004C14B0FFEECF0E944A05BE7F2A9A0E94A1
:101FE00075010895BDC955270E941F028FDE5093C9
:101FF000E805089555270E941F0251E00E941F0224
:1020000085DE552309F4ACC904E0059F0E94310226
:10201000952F88278ADC2A9856E096DC2A9A52E087
:1020200093DC0E9436105091E80570E48DDC7A95BF
:10203000E9F72A9A0E94720555E086DC8EDC2A9A1E
:102040005523C1F7805C9F4FCF93DF93E001219729
:102050000E01DF91CF9101F70895E9EA57DE0E9462
:102060002F04EAE5F0E27FDB089570C9592F6CDC9C
:10207000582F6ADC089555270E941F0247DE55231A
:10208000C1F05A3008F076C9A89504B7077F04BF9D
:10209000052F5770000F000F00720064502BF8944A
:1020A00008E100936000509360000EB307700EBB10
:1020B00013C04EDA60917B006F7B60937B005AB552
:1020C00051FD06C000E100937A0000E400937B001C
:1020D00060B7606160BF4ADA7894889500005EB3AB
:1020E000507C21F0F799F798F699F6980091C00086
:1020F00007FD0895F59B02C0F5980895F39BECCF7A
:10210000F3980895CF93DF9355270E941F02FEDDB9
:102110000E94340450FD04C051D02898209807C074
:1021200064D0002700931A06209A289827D0FDCD66
:102130007F937FB77F936F935F93EF93FF93FDE759
:10214000E0911A06509117066091180670911906D1
:10215000E50EF61EE71F5491E0931A0650FF03C0E8
:102160000000289A03C0289800000000FF91EF911A
:102170005F916F917F917FBF7F911895112400919E
:1021800064000F7B0093640017BA1092B2001092A3
:10219000B0001092B1001092B3001092B40004E8A5
:1021A0000093B30002E00093B00001E00093B1009F
:1021B000009170000260009370000895112417BA16
:1021C0001092B0001092B1001092B2001092B400C0
:1021D0001092B300009170000D7F00937000009189
:1021E00064000064009364000895C6E1D5E00E9495
:1021F000600500EF102E088001200294002029F0D5
:1022000089E999E909EA3CD0F9CF099012940120B3
:10221000002029F08CE59FE80AE232D0F9CF08804F
:10222000129401200294002029F089E891E404E04E
:1022300027D0F9CF099012940120002029F084EFD3
:102240009CE600E01DD0F9CF088012940120029492
:10225000002029F085EE9AE000E012D0F9CF088046
:1022600012940120002029F086E191E000E008D0DE
:10227000C9F75093170660931806709319060895CE
:10228000581F691F701F0A9408950F93CF93DF930F
:10229000EF93FF93FFB7FF93992011F09A9416C024
:1022A000F091E305E091E405D091E505C091E605E4
:1022B000CF5FDF4FEF4FFF4FE093E405F093E3056F
:1022C000C093E605D093E5059090E205E091EF0517
:1022D000F091F0050F93E03000E0F0070F9149F026
:1022E0003197F093F005E093EF050BB500640BBD5B
:1022F00003C00BB50F7B0BBDF79AFF91FFBFFF919A
:10230000EF91DF91CF910F9118950E94B6000E9436
:1023100031020E942F04552311F450E005C05130C2
:1023200011F45AE001C054E65093E205952E089549
:10233000CF93DF93C3EED5E0002709930993099368
:102340000883F3CC4F93CF93DF93EF93FF93C3EEC8
:10235000D5E0A0FD04C05B810E941F020CC0F0917B
:10236000E305E091E405D091E505C091E6050E9402
:10237000FA080E947501FF91EF91DF91CF914F9183
:102380000895E6E5E4E3C2DC0E942F04E2E8F3E20C
:10239000EAD90895CF93DF93C3EED5E000270993E0
:1023A000099309930883009164000F7D00936400F2
:1023B000002705BB06BD04BD07BD05BD009508BDD2
:1023C0000CE707BD02E004BD03E005BD00916E000F
:1023D000026000936E00A9CCCF93DF930E94741229
:1023E0007091EB056091ED055091EE05772311F4A6
:1023F000662707C00BB505FF0C940A12563008F08B
:1024000063950BB507FF6F77562F0E941F02DF9170
:10241000CF91089567FB6F770AE0609F0027050E54
:10242000101EE001772769E00E9466096E5F7F4F0A
:10243000332742E30E947A0926F0605E7F4F0C94B6
:102440002412605270406195562F0E941F02DF9146
:10245000CF9108950C94A609CF93DF930E94741234
:102460005091EB050E941F02DF91CF9108955527EF
:102470000BB506FD51E05CCC55276AB565FD51E012
:102480000E941F0243DC0E941F020E94340450FF7E
:102490000C944E120BB500620BBD08950BB50F7D69
:1024A0000BBD089555276AB567FD51E00E941F02D4
:1024B0002DDC0E941F020E94340450FF0C94641211
:1024C0000BB500680BBD08950BB50F770BBD0895D4
:1024D0005BEE05C05CEE03C05DEE01C05EEE0E94E7
:1024E0001F020E94B60008950BB506FD0895709175
:1024F000F105772319F403E00093F105E8940091C6
:102500008100077069F0009181000F9300916F00C6
:102510000F93009182000F93009180000F936894B5
:1025200000E0009381007CD003E0269A2E980E9460
:1025300080050A95E1F7CBEED5E0002400928500F6
:10254000009284008AE095E0552766272E9A269807
:1025500002E00093810088950000F59B13C080D0B5
:1025600000240092EC050092EB050091F1050A951C
:102570000093F1050FB701FF0895E0EFF2E30E9429
:10258000980108951E9B05C000928500009284006A
:10259000E2CF70918400763418F400C0889401C0B2
:1025A00008943A95551F8A95B1F69A9521F059935A
:1025B000650F88E0D0CF54D0561751F00024009218
:1025C000EC050092EB05E6E0F3E30E949801089524
:1025D000CCEED5E09091EB058091EC050E940113C3
:1025E000CEEED5E09091ED058091EE050E940113AD
:1025F000089500916E00026000936E00F5980C94AF
:10260000CE0997FB9F770E949B08052F0F700883C8
:102610002197507F52950E94DD0857F958830895FD
:1026200008E10093600000E400936000A895F5982D
:1026300001E00BBB01E00093680000E400936B0035
:1026400000916E000D7F00936E0000916400077F83
:10265000009364000091C1000F770093C1000895BA
:102660000E948F0A2EF000E0009381000C94441326
:102670000F91009380000F91009382000F910093BF
:102680006F000F9100938100C0EDD7E0D093F0056B
:10269000C093EF0500916E00026000936E0000E0B1
:1026A0000093680000E000936B0001E00BBB08950D
:1026B00055270E941F022ADB0E943404E8EBFEE249
:1026C0000E949C0150FF06C0E0ECFEE20BB50860E2
:1026D0000BBD05C0E6ECFEE20BB5077F0BBD0E940B
:1026E0009C010895E4E2FFE20E949C019DD000E17C
:1026F000202EE0E0F0E08BD07FD00F93E03001E0BF
:10270000F0070F9149F00E945D14B0FD21C00E94B6
:102710008D0500E1202EEFCFBE7F8DC0E4E2FFE209
:102720000E949C0181D000E1202EE0E0F1E06FD01A
:1027300063D00F93E03009E0F0070F9149F00E9459
:102740005D14B0FD05C00E948D0500E1202EEFCF85
:10275000BE7F0E94B705EEE3FFE20E949C018091DC
:10276000DC050E946B018091DB050E946B010E94D9
:10277000750161C0E4E1FFE20E949C0155D000E1D7
:10278000202EE0E0F0E043D0F2BDE1BDF89A80B544
:102790000E946B0140E20E944C14EF5FFF4F2A94AD
:1027A00099F70E9475010F93E03004E0F0070F9154
:1027B00051F00E945D14B0FD06C029D00E948D0525
:1027C00000E1202EE1CFBE7F36C00E94B705E0E0D9
:1027D000FFE20E949C0100E1202EEFEFF4E00F9356
:1027E000E93105E0F0070F9128F411D005D000E1A0
:1027F000202EF5CF20D0089581910E946B0140E2F8
:102800000E944C142A94C1F70E94750108958F2FDD
:102810000E946B018E2F0E946B014AE30E944C14B0
:1028200040E20E944C140895ECECFEE20E949C01F0
:102830000E94B70508950E94B7050E94750108958A
:1028400065DA852F0E943102952F0E9431025F9335
:102850000E9431025F930E943102052FFF91EF9198
:102860000E94B3050895889500000091C00007FFFD
:10287000FACF5091C600533009F4B16059CA03B77A
:10288000016003BF7894889500000091C00007FFA5
:10289000F9CF3091C60008950090C00005FEFCCF2E
:1028A0000E945D14B1FF0C945A140090C00007FE02
:1028B000FCCFBD7F4093C60008950090C00007FE86
:1028C0000C946B140091C600033111F4B2600895AA
:1028D000033009F4B1600895009164000D7F009306
:1028E000640000E00093C5000CE00093C40008E918
:1028F0000093C10008953AD0EF93FF93E0EEFFE21A
:102900000E949C01EEEFFFE20E949C01FF91EF917B
:102910008F2F0E946B018E2F0E946B010E94750108
:102920000E9475011124F8941DBA10BE1FBA1092AE
:102930006E0010926F00109270001092C100109201
:10294000BC0010927A0014B817B81AB815B818B8A5
:102950001BB801E004BFF89408E10093600009E3AC
:1029600000936000789488950000FFCFE3E0F0E0EA
:1029700009E007BF049106950370003019F4E0E008
:10298000F8E314C0013019F4E0E0FCE30FC00230BA
:1029900019F4E0E0FEE30AC0033019F4E0E0FFE3DD
:1029A00005C00BE00093DD050C94CE09EF93FF9377
:1029B00008E0102EEE1FFF1F05910F3F29F0003099
:1029C00019F0FF91EF9108951A94B1F705E1009382
:1029D000DD050C94CE094C495320B80248454C50B3
:1029E000780452554E20C80453415645DD064C4FDD
:1029F00041442C0750524920E30250525820F5021E
:102A0000505242200603454D49540D04464F522072
:102A10004D0350544F2060034E4558544F034652C7
:102A20004520C7024E455720130450494620440311
:102A3000544845204A03454E4420620352535420D3
:102A4000BB03501A1D20270350501E20040E505067
:102A50001C20040E501C1E20FE0D50011D20FE0DDA
:102A600050501D20300350500B20E40D50500D20CD
:102A7000EE0D50500A20B60D50500F20C20D4D4F94
:102A80004420C20D50500520C20D50500420640354
:102A9000505007207803505002201B0344415441FA
:102AA000C20A52454144EF0A52455354E80A505075
:102AB000402060034C535220110E4C534C20190EF1
:102AC000505006202E0E414E44202E0E50505C20B9
:102AD000310E504F5220310E50505E20340E584F60
:102AE0005220340E434F4D20370E50500120370EE8
:102AF0004E4547203A0E535741503D0E52454D200A
:102B000008044E424820400E4E424C20510E524581
:102B10005620540E524E4420440E414F5620A903D5
:102B2000435243205B0E44454C419903474F542088
:102B3000FB03474F5320FE035245542001044B45ED
:102B400059203314434C4B20B90B4F534320D10B26
:102B500041434F20240F41435320180F4143492044
:102B60005D0F414352205F0D44494720B60C4C4451
:102B700044205704455241206C07494E495461078F
:102B8000434154208D075045454B150B504F4B4545
:102B9000230B454552202F0B454557203E0B5650E1
:102BA00047208D0B534C50203B1044465720890F33
:102BB000444652207B0F44464C20A40F44465820E4
:102BC000B50F44464620BB0F44464420C50F44463B
:102BD0005620F30F44464920FA0F444641202E1058
:102BE00044485420EC11444848202C1244485220B8
:102BF0003712444855203C1244485320521244484E
:102C000049206812444844206A12445449206C12F6
:102C1000445444206E12525449208511525452207B
:102C2000981152545020A21152544320C3114F44C2
:102C30004220C60C49444220C00C53444220D00CD0
:102C400043444220DE0C4F504220EC0C53424220C1
:102C5000FC0C434242200A0D58424220180D5042BB
:102C60004220260D494E4220F60C49424220370DA3
:102C70004F444320C60C49444320C00C53444320D6
:102C8000D00C43444320DE0C4F504320EC0C534205
:102C90004320FC0C434243200A0D58424320180DA8
:102CA00050424320260D494E4320F60C4942432012
:102CB000370D4F444420C60C49444420C00C5344B3
:102CC0004420D00C43444420DE0C4F504420EC0CF4
:102CD00053424420FC0C434244200A0D58424420F5
:102CE000180D50424420260D494E4420F60C49420E
:102CF0004420370D50574520820D50574D205F0D11
:102D000050574F20A90D4444532082104144532072
:102D1000040F414455200E0F414352205F0D4144A2
:102D20004720F00E414443209B0E41445220DD0ECB
:102D300053504D20530C53504F20660C535043209A
:102D4000720C53505720E10B535052201A0C535021
:102D50005320840C44454220581344554D508E1343
:102D60005644554DE5134944554D72134544554D50
:102D7000BA1346494C4C2014575446206604424C22
:102D800044527B140000F9363DFAF8415652204473
:102D9000617461205265636F7264657220FAF85540
:102DA00073696E67204174746F42415349432066D2
:102DB0006F722041546D6567613332385020402076
:102DC000384D487A20FAF85665723A20322E33365A
:102DD000204275696C6420636F64653A203230323A
:102DE00031303331302E32333535FAF9363D00008B
:102DF000F84F726967696E616C204174746F42416B
:102E000053494320284329323030322062792052FE
:102E10006963686172642043617070656C7320FA45
:102E2000F8687474703A2F2F70726F6A65637473E8
:102E30002E63617070656C732E6F726720207072E4
:102E40006F6A656374734063617070656C732E6F35
:102E5000726720FAF9362DFAF844617461205265E0
:102E6000636F72646572202620456E68616E6365CB
:102E70006D656E747320284329323031312C203235
:102E8000303132FAF8206279204B2E2053636F7470
:102E90007420566974616C6520286B73765F70725C
:102EA0006A40676D782E636F6D2920FAF9363DFA16
:102EB0000000F9352DFA00004465627567200000B6
:102EC0006F6E20FA00006F6666FA0000F906203087
:102ED0003020303120303220303320303420303533
:102EE0002030362030372030382030392030412013
:102EF0003042203043203044203045203046FA0014
:102F00005661726961626C657320696E2052414D31
:102F10003AFA000045455020436F6E74656E747335
:102F20003AFA000050524F4752414D204D656D6FA7
:102F3000727920436F6E74656E74733AFA004E6551
:102F4000787420617661696C61626C65206C6F6376
:102F50006174696F6E3A2000FB3A2050726F67729D
:102F6000616D20746F6F206C6172676520666F728F
:102F7000204545502120FA0045726173696E672033
:102F800045455000536176696E672046696C65203F
:102F9000232000004C6F6164696E672046696C6590
:102FA00020232000456D7074790020627974657368
:102FB000203E2000427265616BFA00002062797445
:102FC000657320757365642E20200000206279747B
:102FD000657320667265652E20FA000008200800DF
:102FE000FA4578697420796F7572207465726D691D
:102FF0006E616C2070726F6772616D2E0000FA490D
:103000006E766F6B696E6720626F6F746C6F616450
:1030100065722028696E20382073656373292061EA
:10302000742030780000F8343220697320746865A9
:1030300020416E7377657220746F20746865205527
:103040006C74696D617465205175657374696F6E18
:1030500020FAF86F66204C6966652C20746865203C
:10306000556E6976657273652C20616E64204576B5
:103070006572797468696E6720FAF82868747470EC
:103080003A2F2F7777772E626574656D756E61685C
:103090002E6F72672F666F72747974776F2E6874F3
:1030A0006D6C29FA0000F8536F204C6F6E672C206E
:1030B000616E64205468616E6B7320666F7220418C
:1030C0006C6C207468652046697368FA000056616C
:1030D0006C75652065786365656465642072616EF2
:1030E00067650000206E6F74200020737570706F2C
:1030F00072742028432900004C696E65202320004B
:103100004572726F723A0000FB556E6B6E6F776E90
:1031100020636F6D6D616E64206F72206F706572D9
:1031200061746F722E00FBFC206F6620303A3235DE
:103130003500FB50726F6772616D206D656D6F7247
:10314000792069732066756C6C00FB43686172615D
:1031500063746572FD61207265636F676E697A657D
:103160006420747970652E00FB4275666665722076
:103170006C696D69742065786365656465642E00AB
:10318000FB426164207661726961626C65206E61E8
:103190006D652E00FB546F6F206D616E792061723A
:1031A00067756D656E74732E2000FB56616C7565D6
:1031B00020776173FD617661696C61626C652E00D8
:1031C000FB4D616368696E6520737461636B206594
:1031D00072726F7220FAF9092046756E6374696F16
:1031E0006E7320746F6F20636F6D706C6578206FE5
:1031F000722063616C6C73206E65737465642074F7
:103200006F6F20646565706C7900FB474F544F20E9
:103210006F7220474F5355422064657374696E6125
:1032200074696F6EFD666F756E642E00FBFC206F17
:103230006620303A3700FB4C696E65206E756D6212
:103240006572203E20332064696769747300FBFC5B
:10325000206F6620303A3100FBFC206F6620303A48
:1032600033000000FB41726974686D657469632006
:103270006F766572666C6F772E00FB4172697468B9
:103280006D6574696320756E646572666C6F772E08
:103290002000FB446976696465206279207A657252
:1032A0006F2E2000FB456D7074792046696C6500B7
:1032B0000000FB31343A2000FB3A204E6F20426F71
:1032C0006F742D6C6F6164657220666F756E642E0D
:1032D000FB53706563696669656420FC2E00FB53CF
:1032E000657420414320526566203E20302E200028
:1032F000FB446576696365206E6F6E2D7265737031
:103300006F6E73652E00FB446576696365206368A4
:1033100065636B73756D2E00FB53504920FD656E20
:1033200061626C656400FBFD612062696E617279A7
:10333000206E756D62657200FB496E76616C696422
:10334000206E756D626572206F6620617267756DA3
:10335000656E74732E000000000035204446562030
:10336000303B204446492030203235353B2044460E
:10337000580D3130205254492031200D3135204133
:103380004447203020313B20414447203120310D3B
:103390003230205254492032203B20525452200DCA
:1033A000323520413A3D5045454B20565047404428
:1033B0004641310D333020423A3D5045454B205671
:1033C000504740444641300D3335204D3A3D204171
:1033D0003D202446463B204E3A3D20423E20244696
:1033E000450D3430204946204D2026204E2054489B
:1033F000454E20474F544F203131300D3435204455
:10340000464C205045454B2056504740525443327D
:10341000200D35302044464C205045454B20565019
:10342000474052544331200D35352044464C2050FE
:1034300045454B205650474052544330200D3630BE
:103440002044464C204144432030200D3635204452
:10345000464C204144432031200D37302050524902
:1034600020225254503A20223B205254500D3735DE
:10347000205052492022414443303A20223B2050E0
:103480005249204144432030200D383020505249C9
:103490002022414443313A20223B205052492041CE
:1034A00044432031200D38352050524920227E22BD
:1034B000200D393020464F5220493D2031203630F2
:1034C000200D393520534C502036200D313030201E
:1034D0004E455854200D31303520474F544F20323F
:1034E000350D3131302044464620350D31313520FF
:0834F000454E440D0000189543
:107D00000000000000000000000000000000000073
:107D10000000000000000000000000000000000063
:107D20000000000000000000000000000000000053
:107D30000000000000000000000000000000000043
:107D40000000000000000000000000000000000033
:107D50000000000000000000000000000000000023
:107D60000000000000000000000000000000000013
:107D70000000000000000000000000000000000003
:107D8000FFFFFFFFFFFFFFFFFFFFFFFFFFFFFFFF03
:107D9000FFFFFFFFFFFFFFFFFFFFFFFFFFFFFFFFF3
:107DA000FFFFFFFFFFFFFFFFFFFFFFFFFFFFFFFFE3
:107DB000FFFFFFFFFFFFFFFFFFFFFFFFFFFFFFFFD3
:107DC000FFFFFFFFFFFFFFFFFFFFFFFFFFFFFFFFC3
:107DD000FFFFFFFFFFFFFFFFFFFFFFFFFFFFFFFFB3
:107DE000FFFFFFFFFFFFFFFFFFFFFFFFFFFFFFFFA3
:107DF000FFFFFFFFFFFFFFFFFFFFFFFFFFFFFFFF93
:107E00001F92CDB7DEB7112484B714BE81FFEAD02C
:107E100085E08093810082E08093C00088E18093B8
:107E2000C10096E09093C20090E19093C4008093CB
:107E300060008EE080936000259A86E028E13EEFA6
:107E400091E0309385002093840096BBB09BFECFD9
:107E50001D9AA8958150A9F7612C712C08E128E0A2
:107E6000F22EEE24E39435E0D32E41E1C42E13E04C
:107E700094D0813469F491D089839BD089818238F0
:107E8000F9F0813811F485E001C083E07FD07BC038
:107E9000823411F484E103C0853419F485E095D06F
:107EA00072C0853549F479D0B82E77D06B2C712CFF
:107EB000782A660C771C66C0863521F484E085D06C
:107EC00080E0E4CF843609F03FC067D066D0982EBA
:107ED00064D0611480E7780618F4F30117BFE895C1
:107EE000A12CBB24B39459D0F50181935F019E125C
:107EF000FACF6114F0E77F0618F0F30117BFE89599
:107F000058D007B600FCFDCFA301A0E0B1E08C91F2
:107F100012969D0121503109F901208190E0922BA8
:107F2000FA010C01E7BEE89511244E5F5F4FA038BF
:107F3000F1E0BF0761F7F301D7BEE89507B600FC93
:107F4000FDCFC7BEE8951FC0843769F426D025D081
:107F5000B82E23D02ED0F30185913F0117D0BA94CB
:107F6000B110F9CF10C0853739F423D08EE10ED08F
:107F700085E90CD08FE08ACF813521F40093600031
:107F8000F092600016D080E101D072CF9091C000D5
:107F900095FFFCCF8093C60008958091C00087FFB5
:107FA000FCCF8091C00084FD01C0A8958091C600DF
:107FB0000895F3DF803239F088E18093600088E033
:107FC00080936000FFCF84E1E1CFCF93C82FE5DF3E
:107FD000C150E9F7CF91EDCFE0E6F0E098E1908372
:107FE00080830895282E84BFE0E6F0E088E1808356
:0A7FF0001082EE27FF270994000518
:00000001FF
