:020000020000FC
:1000000010C07BCF7ACFE3CBA0C477CF53CA75CFD4
:1000100074CFF7CB31CC71CF70CF6FCF6ECF6DCFA8
:100020006CCFA8950FE50DBF02E00EBFFAD631D216
:1000300078940DD1CC2402D059D0FACF4EE371DBA5
:10004000CBE1D2E061DB3D3019F4999898980BC070
:10005000323229F4989902C0989A01C098983332A4
:1000600011F4989B999A0F93CC3102E0D0070F912D
:1000700019F447E056DBE6CF3531D9F0383051F18D
:100080003F3741F13A30F1F23930E1F2999B388350
:100090003D3009F408950F93C63E01E0D0070F915B
:1000A00019F447E03EDBCECF999B2197432FD4D064
:1000B000C9CFEF93FF93EBE1F2E0EC1BFD0B2E2E8B
:1000C000E8EDFCE1E2D02A94D9F7CBE1D2E0FF9150
:1000D000EF91B8CF0F93CB3102E0D0070F9129F009
:1000E00033273993E8EDFCE1D0D0ACCFCBE1D2E0BF
:1000F00038817ED0023009F436C4A9D0A16002C094
:10010000AE7FBF7B8DB79EB70F938F3202E0900713
:100110000F9108F425C63FD05D3019F4B2FD76D3B7
:1001200018C05B33B1F0032D023019F4ACD228D1E2
:10013000E9CF7F756F755F75053039F0413029F46F
:10014000032D033011F407D1DDCF05D05D3009F068
:100150000895A1600895EEECF8E112D0071661F45D
:100160000FD0061651F40CD0051641F431960591C6
:10017000F491E02F09950895319631963096EDCFA0
:100180000590002039F41490112021F400E0009330
:100190001E020AC6089570EF60EF41E0388128D052
:1001A000013011F418D0F7CF532F15D03D3081F026
:1001B0003D2C38813D3061F01BD03D1429F45AD3D9
:1001C0000AD043954330A9F7388112D03D1409F085
:1001D000089501D0F9CF0F93C53E01E0D0070F91EC
:1001E00029F404E000931E02DFC5089521970895C5
:1001F0003F9300273D3009F41FC03F75303009F4AC
:1002000002C03C3011F401E018C0323011F405E0B6
:1002100014C0303411F405E010C030310AF40DC0C0
:100220003B350AF00AC0303412F003E006C03A3120
:1002300012F41AF402E001C004E0D02E3F910895B8
:1002400026D58F93492F6DDA4F916BDA08954DE0E3
:1002500068DA4AE066DA08954D3011F4F8DF08955F
:1002600060CA472F05D0462F03D0452F01D00895EF
:100270004F93407F4295405D54DA4F914F70405DFF
:1002800050DA089502D0E3DF08954591442309F43C
:100290000895483F11F435D0F8CF493F21F4159027
:1002A000459155D0F2CF4A3F11F4D1DFEECF4B3F0D
:1002B00041F4EF93FF93EEE0FDE1E7DFFF91EF9173
:1002C000E4CF4C3F41F4EF93FF93ECEDFCE1DDDF35
:1002D000FF91EF91DACF4D3F41F4EF93FF93E2EFBF
:1002E000FCE1D3DFFF91EF91D0CF4E3F41F4EF938C
:1002F000FF93E8EFFCE1C9DFFF91EF91C6CF11DA80
:10030000C4CF0F93EF93FF93112445914A30A1F08E
:100310004D3091F04A3F81F0493F71F04C3F11F46C
:1003200004E1100E4D3F11F405E0100E4E3F11F4A4
:100330000CE0100E1394E9CF1A9446E3141A1194AA
:10034000169440E204D0FF91EF910F910895E9D9FE
:100350001A94E9F7089551545D3022F005E00093B6
:100360001E0222C5A0FF19F40BD0A2600895ECEB89
:10037000F1E06627E50FF61F508102D0AD7F0895AA
:100380000F9309E00C1509F4E3C41F921124E9ED61
:10039000F1E0EC19F1095083C39423951F900F915C
:1003A0000895CC2009F4D8C41F921124EAEDF1E09D
:1003B000EC19F1095081CA942A951F900895EF9382
:1003C000FF9302E00B1509F4CBC402E05B2DB0D41F
:1003D000EEEDF1E0E019F109D293C293B394FF91ED
:1003E000EF910895EF93FF93BB2009F4B5C402E0A9
:1003F0005B2D9ED4EEEDF1E0E019F109C191D081C1
:10040000BA94FF91EF910895EF93FF9302E00A15DC
:1004100009F4A6C404E05A2D8BD4E6EEF1E0E0190D
:10042000F1096292729242925292A394FF91EF91DB
:100430000895EF93FF93AA2009F48EC404E05A2D87
:100440005A9576D4E6EEF1E0E019F10962907290E7
:1004500042905290FF91EF910895A3DF6CD101E09B
:10046000552319F0000F5A95E9F7502F67C77030E0
:1004700039F0705D472F55D9603011F440E351D900
:10048000603019F0605D462F4CD9505D452F49D939
:100490000895ECE6FBE1F6DE0895D9DEEBEBF1E042
:1004A000C0911C02D0911D02EC17FD0721F0408184
:1004B000D3DE3197F9CFCBDECADE91E08BEB7091C2
:1004C0001C0260911D02871B960BC2D3CADEE8EBAB
:1004D000FCE1DBDE80911C0290911D028056904071
:1004E000B7D3BFDEE8ECFCE1D0DE0895B0681FD7DB
:1004F00005E0301641F055DFE0D3B9DF40E211D915
:100500002223C9F7A4DEBF770895B06810D744E26C
:1005100008D947DF852F94DE40E203D92223B9F7BB
:1005200096DEBF770895B06802D73BDF78E040E3FE
:10053000551F08F441E3F5D87A95C9F740E2F1D8A0
:10054000222399F784DEBF770895488144DE423242
:1005500031F04E3711F0E5D8F8CF79DEF6CF0895B7
:10056000E2D6ECEBF1E06627E50FF61F0083089575
:10057000B5FF51C6D5D6452E14DF052F12DF552EF7
:100580006627ECEBF1E0E50FF61F0083A062AE7F7B
:10059000BF7D0895C5D6552309F4A46008950F9131
:1005A0000F910895B0620895ECEBF1E0552D6627A8
:1005B000E50FF61F0081041521F003950083A0616B
:1005C0000895AA9409F035DF08959ADD0895B16081
:1005D0000895988100DE8881382F0ADE013021F0ED
:1005E000043011F0F8DD02C0892F99275DD3582F10
:1005F000C7DE86DD0895552708E0202E8881EBDDD3
:10060000382FF6DD302E023019F0CF5FDF4F07C0F4
:100610008894317030FD0894551F2A9479F7B0DE24
:100620006FDD08950CE100931E02BEC3CF93DF93EC
:1006300077D6D4EBC9EFCA950000E9F7DA95000048
:10064000C9F7D2EFC3E1CA950000E9F7DA950000D7
:10065000C9F75A9571F76FC6552792DE61D601E04A
:1006600005172AF0A79850FF0895A79A089580C308
:1006700004B7077F04BF08E101BD0EE001BDF89497
:100680008895000008957F706F705F7023D3089580
:1006900047D6452FEBEBF1E080911C0290911D02B3
:1006A0000AC0F91711F48E17C0F400810D3011F053
:1006B0003197F7CF3197552766277727F91711F428
:1006C0008E1758F4308194DD023019F4D3D031976D
:1006D000F5CFD9DF451729F7089509E000931E02E9
:1006E00063C3D6DFEF010895D3DFA06C0895B3FF95
:1006F00002C0A8600895B160089548816CDD4D3056
:10070000E1F708950DD6452F0CD80895EBEBF1E0F5
:10071000F0931D02E0931C02CC24AA27BB270FB73D
:100720000F93F894F2D0F7D00F910FBF90DDECE16A
:10073000FBE1A8DD0895583008F4089515C354303E
:1007400008F4089519C3523008F4089511C3CF93E3
:10075000DF93EDD5C0E0D0E069D2222319F021303B
:1007600021F016C3502F0CDE06C01BDE00C0052F83
:10077000C0E0D0E062D2DFC55AE2E0C540E240CC42
:10078000BB24AA24A898B460CBEBD1E03FD0CC2402
:10079000A160D9D7A6FF02C012DEAF7BA7FF03C0BE
:1007A000EF01B860AF77A3FF05C01CDEBB2009F4E2
:1007B000B77FA77FA5FF03C03E0126DEAF7DA4FF64
:1007C00002C0E301AF7EB0FF06C042D0C0911C0260
:1007D000D0911D02BE7F80911C0290911D028C1B46
:1007E0009D0B78F4388104DDA2FF04C0043011F0C1
:1007F0002197CDCFAB7F023011F42197C8CF82DC97
:10080000C6CF00E000931F02BB7F089500911D0238
:10081000D01729F400911C02C01709F40895CF9352
:10082000DF93DF923F93662755273881E1DC023062
:1008300021F050D250931F0204C01CD05F7021974A
:10084000F4CFAB9B02C055D002DD3F91DF9073C562
:10085000E0EBFCE11ADD089554EBE0E6F0E00191F5
:1008600050270F93EF3502E0F0070F91C1F7509337
:1008700022020895762F652F532F08957727662734
:1008800055270895DF93D5E0DA950000E9F7DF9169
:100890000895DF93D5E0F6DFDA95E9F7DF91089563
:1008A000DF93DAE0EFDFDA95E9F7DF910895DF9380
:1008B000D4E6E8DFDA95E9F7DF910895CF93DF9387
:1008C000D7EFC3E1CA950000E9F7DA950000C9F750
:1008D000DF91CF9108950F930AE0F0DF0A95E9F7D1
:1008E0000F9108950F930AE0F6DF0A95E9F70F914B
:1008F0000895E6E0FDE1C9DCCF93DF93DD27C091E9
:100900001F0204D2DF91CF910895E0E6F0E091E07C
:100910008CE5002705C0ECEBF1E090E08DE00027CE
:1009200001930197E9F70895ECE4FCE1AEDC08954A
:1009300080912F0280FFFCCF89B7897F89BF0895FE
:10094000F89489B7866089BF089508E101BD00E089
:1009500001BD9D9A189504E000931E0225C20BE08C
:1009600000931E0221C24427E1D05430C0F7809189
:100970001C0290911D020F938B3B01E090070F9199
:1009800009F45BC0CBE1D2E079DF0F93C53E01E013
:10099000D0070F9102F338812BDC023029F4762F37
:1009A000652F532F2197F1CF6EDE452EE0911C026B
:1009B000F0911D024C7F62DF552431960F93EC3B82
:1009C00001E0F0070F9191F0308112DC043071F0FA
:1009D000023089F75394562F672F732FEECF0F9362
:1009E000EC3B01E0F0070F9131F70895052D03303E
:1009F00029F05394562F672F70E0F8CF41FD02C0C5
:100A00004260D9CF40DE4516A1F110F441603F01AC
:100A10000F93EC3B01E0F0070F9111F440FF0DC084
:100A200040FFDDCF541508F452C00F93EC3B01E0BA
:100A3000F0070F9109F44BC0D2CF78D0003009F401
:100A40000895CBE1D2E0E0911C02F0911D020F93DA
:100A5000E03600E0F0070F9109F435C0088100830B
:100A6000319721970D3099F7F0931D02E0931C0206
:100A700008953197EF010F93E03600E0F0070F91F2
:100A800009F469CF088121970D30A9F7BF016C1BCC
:100A90007D0B80911C0290911D02860F971F9093F1
:100AA0001D0280931C020F93E03600E0F0070F91C7
:100AB00029F00881008321973197F5CF37D0003096
:100AC00009F051CF089502E000931E026DC12ED0AF
:100AD000003059F100911D02003029F400911C02F0
:100AE0000056081780F3E0911C02F0911D02DF2FE1
:100AF000CE2FC81BD040D0931D02C0931C02F71507
:100B000019F4E61509F405C0008108832196319691
:100B1000F6CFCBE1D2E0F72DE62D319708810083A7
:100B20000D3019F031972197F9CF0895CBE1D2E03C
:100B30005527882799274B7F3881219783953D300A
:100B400041F056DB023039F044600130A9F393954F
:100B5000F3CF092F089542FF5395EECFCBE1D2E0BA
:100B6000E03609F0B0CF08810083319721970D302E
:100B7000B9F7F0931D02E0931C020895CBEBD1E08E
:100B8000E0911C02F0911D02CE1BDF0BEFEDF1E0B6
:100B9000EC17FD0724F4E6E6FCE174DB0895EEE8CB
:100BA000FCE170DBCC24EBEBF1E0CFEFD1E0609126
:100BB0001C0270911D02A69800813FD00F93E03671
:100BC00000E0F0070F9161F0E617F70749F0219771
:100BD0000F93C03000E0D0070F9111F03197ECCFA8
:100BE00000272BD0089592DDEEE9FCE14BDBECEB26
:100BF000F1E0CFEFD1E01AD00F3F19F400271DD05C
:100C0000C3C014D0302FF4DA025009F0BDC00ED0AA
:100C10000293002311F02197D1F7CC24F0931D0209
:100C2000E0931C02B2FF48DC0895B2C0E199FECF08
:100C3000DFBBCEBBE09A0DB30895E199FECFDFBBD9
:100C4000CEBB44E0A69944E10DBB4CBBE19A0895AC
:100C50000C01889400E112DE001C111C551F661F58
:100C6000771F0A9509F40895352F08D0532F362F92
:100C700005D0632F372F02D0732FEECF432F4D5F58
:100C800043FD342F432F405D47FD342F0895982FA7
:100C900092959F70905D9A3308F0995F8F70805D98
:100CA0008A3308F0895F089596FD975F9F7086FDEF
:100CB000875F8F709295892B089577276627545602
:100CC00010F07395FCCF5C595A5010F06395FCCF2F
:100CD000565F08957330B2F4723032F0663092F499
:100CE000653012F0563072F4662321F00AE0500F9E
:100CF0006A9581F7772309F4089504E68894500FE4
:100D00007A95C0F701E000931E024EC04FE2439572
:100D1000C456D040E0F7CC59DF4F03D54FE243959E
:100D2000CA50E8F7C65FFDD44C2F405DFAD4089551
:100D30007FB77F93F894052E112458E0069408F4A9
:100D4000100E179407945A95D1F70F910FBF08957D
:100D500006E000931E0228C007E000931E0224C094
:100D600008E000931E0220C00AE000931E021CC08F
:100D70000CE000931E0218C00DE000931E0214C088
:100D800001E100931E0210C002E100931E020CC09C
:100D900006E100931E0208C00BE100931E0204C08E
:100DA0000DE100931E0200C052DA112400901E02D1
:100DB000D02C000CE2EEFDE0E00DF11D0591F49168
:100DC000E02FEE1FFF1F61DA42DA93DD0FE50DBF62
:100DD00002E00EBFAA27BB2700E000931F0237DA0C
:100DE00027C98B0E930E990EA50EB40EC00ECA0E17
:100DF000D50EE00EFC0E080F0D0F190F1E0F230F5E
:100E0000240F2C0F350F3E0F440F450F460F470F91
:100E10004E0F570F5E0F670F680F680F710F7B0F34
:100E20007C0FF8940024112433D041D00FEF00B987
:100E3000A898C0E0D0E0FADE302F00FF01C0A89AE9
:100E400000E00ABB00E00BBB00E007BB00E008BB12
:100E5000112414BE13BA14BA05B3017005BB109265
:100E60001F02FADC96D4789400E205BF00E007B9CF
:100E700000E003B907ED06B9A89B08C0B4DE80DC2A
:100E8000E6D9E5D9ECE1FBE1FDD908953FDC089511
:100E90000FB70F93A89504B7077F04BFF89401B567
:100EA000086101BD007001BD0F910FBF089550E8AA
:100EB00060E056BD66BD0895009807ED06B906B11D
:100EC00006FDFDCFEDDC08953798009AE9DC089522
:100ED000CF93DF93DF91CF912AD22223B1F0CF932A
:100EE000DF9309E0C01678F411240C2CC092210283
:100EF000C1EDD1E0C019D10954DA59930A94E1F750
:100F0000DF91CF9107C003D023CF01D025CF00E0E0
:100F10000093210200E000932002509121020EC2B2
:100F2000CF93DF9304D211247091210260912002AB
:100F3000C0EDD1E0222359F0A1FF03C00C2D0A958A
:100F400031F02FDA7A95751762F0652F02C07617A7
:100F500041F0C61BD109588113DA639560932002D2
:100F6000EAC1FACECF93DF93A598CAD801E03AD070
:100F70005881DF91CF91E2C1CF93DF93A59AC0D87A
:100F800002E030D05883D7C1CF93DF93A598B8D86B
:100F900001E028D04BDE502FDF91CF91CFC1CF930E
:100FA000DF93A698A59AACD802E01CD0052F0F932A
:100FB000C03002E0D0070F9111F03FDE12C0E2E82E
:100FC000FCE163D95527A69A219737DE5A9511F48B
:100FD0004EE2A7D30F93C03000E0D0070F91A1F7E6
:100FE00036D9A9C10C1969F0DCD95F93DAD9A59B70
:100FF00005C05F93D6D9DF91CF910895D52FCF91BA
:101000000895CFD9A59B05C0052FCBD9C02FDD27CB
:101010000895C52FDD27089559B390C156B38EC1E9
:10102000152F7ED110FF02C05BBB089558BB0895F9
:101030005AB384C157B382C1152F72D110FF02C0B9
:101040005ABB089557BB0895152F4CD010FF03C00D
:10105000EAE3F0E04BC0E7E3F0E048C0152F42D0F0
:1010600010FF03C0EAE3F0E045C0E7E3F0E042C070
:10107000152F38D010FF03C0EBE3F0E037C0E8E3F2
:10108000F0E034C0152F2ED010FF03C0EBE3F0E0EA
:1010900031C0E8E3F0E02EC0152F24D010FF03C0CC
:1010A000EBE3F0E002C0E8E3F0E00081052350E06C
:1010B000002309F451E042C1152F14D010FF03C0E2
:1010C000EBE3F0E01CC0E8E3F0E019C0152F0AD014
:1010D00010FF03C0EBE3F0E002C0E8E3F0E00FD064
:1010E000FADB0DC00DD8B9D95CD908950081052B64
:1010F00000830895509500810523008308950081A1
:10110000052700830895CF93DF930AD1CC2011F4F3
:10111000662703C018DB652F44D90398112412BC3D
:1011200060FF01C006C00FB50168D69A1BBC5ABD4E
:1011300005C00FB50162D59A19BC58BD0FBD09E0B5
:101140000EBDF9C0CF93DF93EBD05F932AD95F93A5
:10115000CC2021F466275F917F9105C07F915F913C
:10116000F2DA652F1ED90398112412BC60FF01C06A
:1011700006C00FB50368D69A5BBD7ABD05C00FB532
:101180000362D59A59BD78BD0FBD09E00EBDD3C02D
:1011900000270EBD0FBD02BD039A0895C4D0C8DD5F
:1011A0001120A79911F4502DC9C00FE000931E0221
:1011B000FBCD5F93B5D05523A799B9F0052FF1D892
:1011C000652F772759E0661F5A9541F0771F701BEE
:1011D00018F4700F8894F7CF0894F5CF5F915F30C3
:1011E00011F4562F01C0572FA9C001E100931E0230
:1011F000DBCD99D0500FA79908F0A0C00FE0009365
:101200001E02D2CD90D0501BA79908F097C000E1E4
:1012100000931E02C9CD87D050170FB701FF10C031
:1012200011C081D050170FB701FF0CC009C05F93E8
:101230007AD06F916C3111F4501701C0051710F07E
:10124000552750FD51E07AC00DD0662319F0569510
:101250006A95E9F773C006D0662319F0550F6A95B1
:10126000E9F76CC064D09DD8222311F461E00895A1
:1012700062DA652F96D8089556D050235FC053D0B8
:10128000502B5CC050D0502759C04AD0509556C002
:1012900047D0519553C044D0529550C041D052953B
:1012A0005F704CC004EB50912202579508F4502710
:1012B0005093220265D824D7089532D05F703EC083
:1012C0002FD000E8551F0795E8F7502F37C0EF9350
:1012D000FF9311242CD041F400902102002009F446
:1012E0003BCDE1EDF1E007C009E020170AF030CD79
:1012F000022EEAEDF1E004D043D8FF91EF9108957A
:1013000050E07CE8029168E0302F3527569506952D
:10131000369508F457276A95B9F70A9499F708950E
:10132000EFD63FD80895FCDF052F3BD8089522273C
:10133000E7D622230895DF91CF91089521D808950B
:10134000CF92DED655270F910C1909F02AD8B4DDBB
:1013500000E003B907B1007C5F73052B07B9583073
:101360003AF457707CD81DD801B1502B51B98ADAA4
:101370005527662770E1F89407ED06B906B106FD1A
:10138000FDCF84B195B1580F691F7A95A9F778946C
:1013900076E0669557957A95E1F7F2D700E001B9C6
:1013A00093DD08955527ECD7BBDFCDD985DD07B197
:1013B0000F7350FD006450FF006807B97FDA08958D
:1013C00052E0DED7ADDF553008F0E2CC04B3087F41
:1013D000052B04BB089570DD08D05527459951E0D1
:1013E000479A72DDCDD78CD6089500E006B900E1AA
:1013F00006B91E9808B10870006508B9A29B02C022
:1014000054E00AC01E9A54B3537007B1007C052BF8
:1014100007B925D8CA942A9551B949DA08959B9AF3
:1014200018955527ADD77CDF5523B1F05A3008F019
:10143000AFCCA89504B7077F04BF052F5770000FE6
:10144000000F00720064502BF89408E101BD51BDFB
:1014500003B3077003BB0AC02FDD1E98A19904C017
:1014600000E106B900E403B9449A2EDD789488952A
:10147000000053B3507C11F09E999E989D9B02C032
:101480009D9808959B9BF2CF9B980895CF93DF93EF
:10149000552776D745DF57D950FD04C045D0DF9892
:1014A000D79807C04ED0002700932902D79ADF981B
:1014B00027D041CF7F937FB77F936F935F93EF9355
:1014C000FF93FFE1E09129025091260260912702EB
:1014D00070912802E50EF61EE71F5491E093290251
:1014E00050FF03C00000DF9A03C0DF980000000037
:1014F000FF91EF915F916F917F917FBF7F911895E1
:10150000112403981BB81DBC1CBC1FBC1EBC1BBCFB
:101510001ABC19BC18BC04E81BBC0ABD00E00FBD16
:1015200009E00EBD619A089511241BB81FBC1EBCB2
:101530001DBC1CBC19BC18BC1BBC1ABC6198039A0E
:101540000895C6ECD1E09AD900EF102E0880012052
:101550000294002029F080E79DE30AEA3CD0F9CF0D
:10156000099012940120002029F084E296E001E124
:1015700032D0F9CF0880129401200294002029F083
:1015800080ED93EB01E027D0F9CF09901294012070
:10159000002029F084E99BE200E01DD0F9CF08800B
:1015A000129401200294002029F08BE594E000E0E1
:1015B00012D0F9CF088012940120002029F08FE684
:1015C00090E000E008D0C9F750932602609327020C
:1015D000709328020895581F691F701F0A94089578
:1015E0000FB70F93F894C29ABA9A68D9C29802E3D7
:1015F00057D90A95E9F7C29ABA9806E051D90A95DF
:10160000E9F751E006B302FD5527BAD602E348D9FF
:101610000A95E9F70F910FBF73D5089588DE09F495
:10162000BFCB0FB70F93F894EF93FF931124EAED1C
:10163000F1E0C21A58E0252E5291579510F446D089
:1016400001C04ED026D92A94C1F754D02A9591F7DB
:10165000FF91EF910F910FBF08950FB70F93F8947B
:1016600066DE19F417D08CD612C0CF93DF93112405
:1016700098D6752FC1EDD1E010922002509321022F
:1016800009D05A9337D07A95D9F7DF91CF910F913E
:101690000FBF089508E0202E08D0889400FD08941C
:1016A0005795F7D82A94C1F70895C298BA9AF1D8F5
:1016B000C29ABA98EED80FEF36B332FF00270F93D5
:1016C0000AE0E7D80A95E9F70F910895C298BA9A07
:1016D000E7D8C29ABA9806E0E3D80A95E9F70895E0
:1016E000BA9AC29807E0DCD80A95E9F7C29ABA9884
:1016F000D0D80895CED8CDD8CCD8089505D0532FC2
:10170000533009F4B1601ACE30912F0232FD03C07C
:1017100088950000F9CF3B7F30932F0230912C0247
:10172000089511D04F93B1FF07C0889500004091F4
:101730002F0242FFFACFBD7F13D044E3B1D84A95C0
:10174000E9F74F91089580912F0282FF0895DCDF21
:10175000333111F4B2600895333009F4B160089563
:1017600080912F0280FFFCCF8E7F80932F024093C9
:101770002A0200E000932B02F894C19882B78F5B95
:101780008CBF88B7846088BF89B7846089BF78942C
:1017900008958F93029880B5816080BD8AB780627A
:1017A0008ABF8BB780628BBF89B78D7F89BFB8989E
:1017B00089B78B7F89BFB99AC19A01E000932F0244
:1017C00000E000BF02E003BF8F9178940895B099C4
:1017D00018950F930FB70F9302B70F5A06BF08B7AC
:1017E000026008BF09B7026009BF0BB70F7D0BBFCE
:1017F000002700932D0200932E020F910FBF0F912F
:1018000018952F932FB72F933F938F939F9386B75E
:101810008F5B86BFB09B0EC020912D0230912E02AF
:1018200081E0992702C0880F991F3A95E2F7282B8B
:1018300020932D0280912E02839580932E02809119
:101840002E02893091F480912D0280932C02809198
:101850002F02846080932F0289B78D7F89BF8AB75A
:1018600080628ABF8BB780628BBF9F918F913F91BF
:101870002F912FBF2F9118958F938FB78F938CB780
:101880008F5B8CBF80912B02883068F480912A0294
:1018900080FF02C0C19A01C0C19880912A0286953A
:1018A00080932A0201C0C19A80912B028395809374
:1018B0002B0280912B028A3030F003E000932F023C
:1018C00089B78B7F89BF8F912FBF8F9118954C4916
:1018D00053204D0252554E20C00353415645BE057C
:1018E0004C4F4144F3055052492076025052582043
:1018F0008502505242209302454D49548203464F7F
:101900005220D20250544F20E5024E455854D40282
:10191000465245205C024E455720860350494620DA
:10192000CA0254484520CF02454E4420E702525394
:101930005420380343464720A703501A1D20B00205
:1019400050501E20170950501C201709501C1E20F3
:10195000110950011D20110950501D20B80250508E
:101960000B20F90850500D20020950500A20CE08D3
:1019700050500F20D9084D4F4420D9085050052011
:10198000D90850500420E90250500720FB02505063
:101990000220A50244415441680752454144900742
:1019A000524553548A074C53522024094C534C201F
:1019B0002B09505006203C09414E44203C09505010
:1019C0005C203F09504F52203F0950505E20420991
:1019D000584F52204209434F4D2045095050012095
:1019E00045094E4547204809535741504B09524538
:1019F0004D207D034E4248204E094E424C205D0949
:101A0000524556206009524E44205209414F5620FB
:101A10002C0343524320670944454C411603474F6A
:101A200054207103474F53207403524554207703C9
:101A30004B4559207E0B41434F20EB094143532036
:101A4000E0095045454BB207504F4B45BC07454553
:101A50005220C40745455720CF07534C5020110A48
:101A60004F574920F00A4F5757200E0B4F5752201F
:101A70002D0B4F4441201C08494441201808534471
:101A800041202408434441202E084F504120100893
:101A900053424120380843424120420858424120E5
:101AA0005C08504241206608494E41200C084942DA
:101AB00041204C084F4442201C08494442201A0847
:101AC000534442202408434442202E084F504220D1
:101AD00010085342422038084342422042085842EC
:101AE00042205C08504242206608494E42200E08BF
:101AF000494242204C0850574520A20850574D20DB
:101B0000830850574F20C80844445320460A414494
:101B10004320A00941445220D2090000F9363DFA81
:101B2000F84174746F424153494320666F722041FB
:101B30005474696E793834284129204032304D4838
:101B40007AFAF85665723A20322E33362042756999
:101B50006C6420636F64653A203230323130333147
:101B6000302E32333533FAF9363D0000F8456E68D1
:101B7000616E636564206279204B2053636F7474D7
:101B800020566974616C6520286B73765F70726A89
:101B900040676D782E636F6D29FAF8415474696E51
:101BA0007938342F383520706F72742028432932E9
:101BB000303136FAF8312D57697265285229FE32D4
:101BC000303133FAF8536C656570FE32303132FAD9
:101BD000F8444453FE32303131FAF9362DFAF842E6
:101BE00061736520436F64652028432932303032A9
:101BF000204469636B2043617070656C73FAF93639
:101C00002DFAF8416C6C2072696768747320616EFC
:101C1000642072656D6564696573206578707265AE
:101C200073736C79207265736572766564FAF84E29
:101C30006F7420666F7220636F6D6D65726369618A
:101C40006C20757365FAF9363DFA0000F9352DFA06
:101C5000000044656275672000006F6E20FA000086
:101C60006F6666FA0000FB3A2050676D20746F6F54
:101C7000206C6172676520666F7220454550212097
:101C8000FA0045726173696E6720454550005361E3
:101C900076696E6720746F204545502EFA004C6FB0
:101CA0006164696E672066726F6D20454550FA0069
:101CB000427265616BFA0000206279746573207569
:101CC0007365642E2020000020627974657320669D
:101CD0007265652E20FA00000820080056616C75B8
:101CE000652065786365656465642072616E67650B
:101CF0000000206E6F74200020737570706F727416
:101D00002028432900004C696E652023200045727D
:101D1000726F723A0000FB434D442F4F5020556EB6
:101D20006B6E6F776E00FBFC206F6620303A3235A9
:101D30003500FB50726F6772616D206D656D6F725B
:101D4000792069732066756C6C00FB436861726171
:101D500063746572FD61207265636F676E697A6591
:101D60006420747970652E00FB427566666572208A
:101D70006C696D69742065786365656465642E00BF
:101D8000FB426164207661726961626C65206E61FC
:101D90006D652E00FB546F6F206D616E792061724E
:101DA00067756D656E74732E2000FB56616C7565EA
:101DB00020776173FD617661696C61626C652E00EC
:101DC000FB537461636B206572726F7220FAF909BC
:101DD0002046756E632F63616C6C7320746F6F2087
:101DE000636F6D706C65782F6E65737465642074B5
:101DF0006F6F206465657000FB474F54206F722041
:101E0000474F532064657374FD666F756E642E00D2
:101E1000FBFC206F6620303A3700FB4C696E652072
:101E20006E756D626572203E203320646967697447
:101E30007300FBFC206F6620303A3100FBFC206F02
:101E40006620303A33000000FB4D617468206F76E5
:101E50006572666C6F772E00FB4D61746820756E3D
:101E6000646572666C6F772E2000FB446976696446
:101E700065206279207A65726F2E2000FB456D70B7
:101E800074792046696C6500000000000000FB5377
:101E9000706563696669656420FC2E00FB53657498
:101EA00020414320526566203E20302E2000FB4416
:101EB0004556206E6F20726573702E00FB44657668
:101EC00069636520636865636B73756D2E00000040
:101ED000FBFD612062696E617279206E756D6265CD
:101EE0007200FB496E76616C69642023206F662066
:0C1EF000617267732E000000000018955E
:101F000000000000000000000000000000000000D1
:101F100000000000000000000000000000000000C1
:101F200000000000000000000000000000000000B1
:101F300000000000000000000000000000000000A1
:101F40000000000000000000000000000000000091
:101F50000000000000000000000000000000000081
:101F60000000000000000000000000000000000071
:101F70000000000000000000000000000000000061
:101F8000FFFFFFFFFFFFFFFFFFFFFFFFFFFFFFFF61
:101F9000FFFFFFFFFFFFFFFFFFFFFFFFFFFFFFFF51
:101FA000FFFFFFFFFFFFFFFFFFFFFFFFFFFFFFFF41
:101FB000FFFFFFFFFFFFFFFFFFFFFFFFFFFFFFFF31
:101FC000FFFFFFFFFFFFFFFFFFFFFFFFFFFFFFFF21
:101FD000FFFFFFFFFFFFFFFFFFFFFFFFFFFFFFFF11
:101FE000FFFFFFFFFFFFFFFFFFFFFFFFFFFFFFFF01
:101FF000FFFFFFFFFFFFFFFFFFFFFFFFFFFFFFFFF1
:00000001FF
