:020000020000FC
:1000000010C0FFCEFECE37CBA3C4FBCEFACEF9CEC6
:10001000F8CE4BCB85CBF5CE04C0F3CEF2CEF1CEED
:10002000F0CEA89504B701FDFECE0FE50DBF02E0AE
:100030000EBFFAD631D278940DD1CC2402D059D04B
:10004000FACF4EE3C2DAC2E2D2E0B2DA3D3019F4BE
:10005000999898980BC0323229F4989902C0989ACE
:1000600001C09898333211F4989B999A0F93C33238
:1000700002E0D0070F9119F447E0A7DAE6CF353157
:10008000D9F0383051F13F3741F13A30F1F239309F
:10009000E1F2999B38833D3009F408950F93CD3EEA
:1000A00001E0D0070F9119F447E08FDACECF999B8A
:1000B0002197432FD4D0C9CFEF93FF93E2E2F2E030
:1000C000EC1BFD0B2E2EE0EEFBE1E2D02A94D9F7DB
:1000D000C2E2D2E0FF91EF91B8CF0F93C23202E0BB
:1000E000D0070F9129F033273993E0EEFBE1D0D010
:1000F000ACCFC2E2D2E038817ED0023009F436C4FF
:10010000A9D0A16002C0AE7FBF7B8DB79EB70F9311
:100110008F3202E090070F9108F425C63FD05D3082
:1001200019F4B2FD76D318C05B33B1F0032D023061
:1001300019F4ACD228D1E9CF7F756F755F750530A2
:1001400039F0413029F4032D033011F407D1DDCF0C
:1001500005D05D3009F00895A1600895E6E7F7E164
:1001600012D0071661F40FD0061651F40CD0051604
:1001700041F431960591F491E02F09950895319657
:1001800031963096EDCF0590002039F4149011206F
:1001900021F400E0009325020AC6089570EF60EF95
:1001A00041E0388128D0013011F418D0F7CF532F17
:1001B00015D03D3081F03D2C38813D3061F01BD0B1
:1001C0003D1429F45AD30AD043954330A9F7388116
:1001D00012D03D1409F0089501D0F9CF0F93CC3E11
:1001E00001E0D0070F9129F404E000932502DFC558
:1001F0000895219708953F9300273D3009F41FC0CB
:100200003F75303009F402C03C3011F401E018C0F1
:10021000323011F405E014C0303411F405E010C0A0
:1002200030310AF40DC03B350AF00AC0303412F008
:1002300003E006C03A3112F41AF402E001C004E00F
:10024000D02E3F91089526D58F93492FBED94F9137
:10025000BCD908954DE0B9D94AE0B7D908954D30D9
:1002600011F4F8DF0895B1C9472F05D0462F03D008
:10027000452F01D008954F93407F4295405DA5D909
:100280004F914F70405DA1D9089502D0E3DF0895EA
:100290004591442309F40895483F11F435D0F8CF2F
:1002A000493F21F41590459155D0F2CF4A3F11F4C2
:1002B000D1DFEECF4B3F41F4EF93FF93E6E1FCE15A
:1002C000E7DFFF91EF91E4CF4C3F41F4EF93FF93D1
:1002D000E4EEFBE1DDDFFF91EF91DACF4D3F41F43A
:1002E000EF93FF93EAEFFBE1D3DFFF91EF91D0CFE4
:1002F0004E3F41F4EF93FF93E0E0FCE1C9DFFF9153
:10030000EF91C6CF62D9C4CF0F93EF93FF9311241F
:1003100045914A30A1F04D3091F04A3F81F0493F7C
:1003200071F04C3F11F404E1100E4D3F11F405E063
:10033000100E4E3F11F40CE0100E1394E9CF1A94F6
:1003400046E3141A1194169440E204D0FF91EF9101
:100350000F9108953AD91A94E9F7089551545D30F0
:1003600022F005E00093250222C5A0FF19F40BD06E
:10037000A2600895E3ECF1E06627E50FF61F5081D7
:1003800002D0AD7F08950F9309E00C1509F4E3C482
:100390001F921124E0EEF1E0EC19F1095083C394AF
:1003A00023951F900F910895CC2009F4D8C41F9273
:1003B0001124E1EEF1E0EC19F1095081CA942A957B
:1003C0001F900895EF93FF9302E00B1509F4CBC43F
:1003D00002E05B2DB0D4E5EEF1E0E019F109D29333
:1003E000C293B394FF91EF910895EF93FF93BB20D5
:1003F00009F4B5C402E05B2D9ED4E5EEF1E0E0190E
:10040000F109C191D081BA94FF91EF910895EF93D2
:10041000FF9302E00A1509F4A6C404E05A2D8BD418
:10042000EDEEF1E0E019F10962927292429252927D
:10043000A394FF91EF910895EF93FF93AA2009F4FD
:100440008EC404E05A2D5A9576D4EDEEF1E0E01911
:10045000F1096290729042905290FF91EF9108954D
:10046000A3DF6CD101E0552319F0000F5A95E9F78D
:10047000502F67C7703039F0705D472FA6D86030B5
:1004800011F440E3A2D8603019F0605D462F9DD88A
:10049000505D452F9AD80895EEE0FAE1F6DE089512
:1004A000D9DEE2ECF1E0C0912302D0912402EC17F6
:1004B000FD0721F04081D3DE3197F9CFCBDECADED4
:1004C00091E082EC7091230260912402871B960BCD
:1004D000C2D3CADEE0ECFBE1DBDE80912302909127
:1004E000240280569040B7D3BFDEE0EDFBE1D0DEC2
:1004F0000895B0681FD705E0301641F055DFE0D30E
:10050000B9DF40E262D82223C9F7A4DEBF7708959D
:10051000B06810D744E259D847DF852F94DE40E217
:1005200054D82223B9F796DEBF770895B06802D772
:100530003BDF78E040E3551F08F441E346D87A9565
:10054000C9F740E242D8222399F784DEBF770895A5
:10055000488144DE423231F04E3711F036D8F8CFC0
:1005600079DEF6CF0895E2D6E3ECF1E06627E50FF9
:10057000F61F00830895B5FF51C6D5D6452E14DF6A
:10058000052F12DF552E6627E3ECF1E0E50FF61F8D
:100590000083A062AE7FBF7D0895C5D6552309F4C0
:1005A000A46008950F910F910895B0620895E3EC4F
:1005B000F1E0552D6627E50FF61F0081041521F0A7
:1005C00003950083A0610895AA9409F035DF08958A
:1005D0009ADD0895B1600895988100DE8881382FF2
:1005E0000ADE013021F0043011F0F8DD02C0892F5D
:1005F00099275DD3582FC7DE86DD0895552708E07B
:10060000202E8881EBDD382FF6DD302E023019F0F8
:10061000CF5FDF4F07C08894317030FD0894551FBD
:100620002A9479F7B0DE6FDD08950CE1009325027E
:10063000BEC3CF93DF9377D6D4E2C9EFCA9500004B
:10064000E9F7DA950000C9F7D0E3C3E1CA950000E5
:10065000E9F7DA950000C9F75A9571F76FC6552783
:1006600092DE61D601E005172AF0A79850FF0895A1
:10067000A79A089580C304B7077F04BF08E101BDAE
:100680000EE001BDF8948895000008957F706F70AA
:100690005F7023D3089547D6452FE2ECF1E08091B7
:1006A0002302909124020AC0F91711F48E17C0F4A6
:1006B00000810D3011F03197F7CF3197552766271C
:1006C0007727F91711F48E1758F4308194DD023032
:1006D00019F4D3D03197F5CFD9DF451729F708950D
:1006E00009E00093250263C3D6DFEF010895D3DF4D
:1006F000A06C0895B3FF02C0A8600895B16008958A
:1007000048816CDD4D30E1F708950DD6452F5DD75A
:100710000895E2ECF1E0F0932402E0932302CC246C
:10072000AA27BB270FB70F93F894F2D0F7D00F91F9
:100730000FBF90DDEEEBF9E1A8DD0895583008F425
:10074000089515C3543008F4089519C3523008F4BD
:10075000089511C3CF93DF93EDD5C0E0D0E069D207
:10076000222319F0213021F016C3502F0CDE06C0D1
:100770001BDE00C0052FC0E0D0E062D2DFC55AE228
:10078000E0C540E23DCCBB24AA24A898B460C2ECEA
:10079000D1E03FD0CC24A1602AD7A6FF02C012DE50
:1007A000AF7BA7FF03C0EF01B860AF77A3FF05C021
:1007B0001CDEBB2009F4B77FA77FA5FF03C03E0165
:1007C00026DEAF7DA4FF02C0E301AF7EB0FF06C00E
:1007D00042D0C0912302D0912402BE7F8091230297
:1007E000909124028C1B9D0B78F4388104DDA2FFCC
:1007F00004C0043011F02197CDCFAB7F023011F44B
:100800002197C8CF82DCC6CF00E000932602BB7FD1
:10081000089500912402D01729F400912302C017F3
:1008200009F40895CF93DF93DF923F93662755270E
:100830003881E1DC023021F050D25093260204C00E
:100840001CD05F702197F4CFAB9B02C055D002DD66
:100850003F91DF9073C5E8EBFBE11ADD089554EB9F
:10086000E0E6F0E0019150270F93EF3502E0F0074A
:100870000F91C1F7509329020895762F652F532FBA
:1008800008957727662755270895DF93D1E0DA95F5
:100890000000E9F7DF910895DF93D5E0F6DFDA9500
:1008A000E9F7DF910895DF93DAE0EFDFDA95E9F712
:1008B000DF910895DF93D4E6E8DFDA95E9F7DF9179
:1008C0000895CF93DF93D1E3C3E1CA950000E9F720
:1008D000DA950000C9F7DF91CF9108950F930AE0F0
:1008E000F0DF0A95E9F70F9108950F930AE0F6DF1C
:1008F0000A95E9F70F910895EEE0FCE1C9DCCF938A
:10090000DF93DD27C091260204D2DF91CF910895B5
:10091000E0E6F0E091E083E6002705C0E3ECF1E0DB
:1009200090E08DE0002701930197E9F70895E4E551
:10093000FBE1AEDC089580912F0280FFFCCF89B7E8
:10094000897F89BF0895F89489B7866089BF089523
:1009500008E101BD00E001BD9D9A189504E00093F7
:10096000250225C20BE00093250221C24427E1D0D5
:100970005430C0F780912302909124020F93823C5F
:1009800001E090070F9109F45BC0C2E2D2E079DF89
:100990000F93CC3E01E0D0070F9102F338812BDC9E
:1009A000023029F4762F652F532F2197F1CF6EDE79
:1009B000452EE0912302F09124024C7F62DF552402
:1009C00031960F93E33C01E0F0070F9191F03081F5
:1009D00012DC043071F0023089F75394562F672FE0
:1009E000732FEECF0F93E33C01E0F0070F9131F747
:1009F0000895052D033029F05394562F672F70E08A
:100A0000F8CF41FD02C04260D9CF40DE4516A1F1CA
:100A100010F441603F010F93E33C01E0F0070F91B8
:100A200011F440FF0DC040FFDDCF541508F452C053
:100A30000F93E33C01E0F0070F9109F44BC0D2CFD4
:100A400078D0003009F40895C2E2D2E0E0912302A8
:100A5000F09124020F93E03600E0F0070F9109F4C3
:100A600035C008810083319721970D3099F7F093B5
:100A70002402E093230208953197EF010F93E036AB
:100A800000E0F0070F9109F469CF088121970D303C
:100A9000A9F7BF016C1B7D0B80912302909124026A
:100AA000860F971F90932402809323020F93E036C2
:100AB00000E0F0070F9129F008810083219731971A
:100AC000F5CF37D0003009F051CF089502E0009300
:100AD00025026DC12ED0003059F100912402003062
:100AE00029F4009123020056081780F3E0912302B5
:100AF000F0912402DF2FCE2FC81BD040D0932402C8
:100B0000C0932302F71519F4E61509F405C0008116
:100B1000088321963196F6CFC2E2D2E0F72DE62D7A
:100B20003197088100830D3019F031972197F9CF63
:100B30000895C2E2D2E05527882799274B7F388154
:100B4000219783953D3041F056DB023039F0446007
:100B50000130A9F39395F3CF092F089542FF5395E0
:100B6000EECFC2E2D2E0E03609F0B0CF08810083D8
:100B7000319721970D30B9F7F0932402E0932302C7
:100B80000895C2ECD1E0E0912302F0912402CE1B43
:100B9000DF0BEFEDF1E0EC17FD0724F4EEE6FBE1EF
:100BA00074DB0895E6E9FBE170DBCC24E2ECF1E0D4
:100BB000CFEFD1E06091230270912402A6980081CA
:100BC0003FD00F93E03600E0F0070F9161F0E61799
:100BD000F70749F021970F93C03000E0D0070F913D
:100BE00011F03197ECCF00272BD0089592DDE6EA83
:100BF000FBE14BDBE3ECF1E0CFEFD1E01AD00F3FAC
:100C000019F400271DD0C3C014D0302FF4DA0250DD
:100C100009F0BDC00ED00293002311F02197D1F747
:100C2000CC24F0932402E0932302B2FF48DC089521
:100C3000B2C0E199FECFDFBBCEBBE09A0DB3089501
:100C4000E199FECFDFBBCEBB44E0A69944E10DBBEA
:100C50004CBBE19A08950C01889400E112DE001C5F
:100C6000111C551F661F771F0A9509F40895352F2B
:100C700008D0532F362F05D0632F372F02D0732F74
:100C8000EECF432F4D5F43FD342F432F405D47FD93
:100C9000342F0895982F92959F70905D9A3308F0A5
:100CA000995F8F70805D8A3308F0895F089596FDA3
:100CB000975F9F7086FD875F8F709295892B08954F
:100CC00077276627545610F07395FCCF5C595A501D
:100CD00010F06395FCCF565F08957330B2F4723014
:100CE00032F0663092F4653012F0563072F46623BA
:100CF00021F00AE0500F6A9581F7772309F40895EF
:100D000004E68894500F7A95C0F701E0009325021D
:100D10004EC04FE24395C456D040E0F7CC59DF4F68
:100D200054D44FE24395CA50E8F7C65F4ED44C2FD7
:100D3000405D4BD408957FB77F93F894052E11241E
:100D400058E0069408F4100E179407945A95D1F7BA
:100D50000F910FBF089506E00093250228C007E019
:100D60000093250224C008E00093250220C00AE079
:100D7000009325021CC00CE00093250218C00DE072
:100D80000093250214C001E10093250210C002E186
:100D9000009325020CC006E10093250208C00BE178
:100DA0000093250204C00DE10093250200C052DA31
:100DB000112400902502D02C000CE8EEFDE0E00D9F
:100DC000F11D0591F491E02FEE1FFF1F61DA42DA69
:100DD00093DD0FE50DBF02E00EBFAA27BB2700E0A1
:100DE0000093260237DA27C90F0E170E1D0E290EA3
:100DF000380E440E4E0E590E640E800E8C0E910E5F
:100E00009D0EA20EA70EA80EB00EB90EC20EC80EF1
:100E1000C90ECA0ECB0ED20EDB0EE20EEB0EEC0E9E
:100E2000EC0EF50EFF0E000FF8940024112433D0C1
:100E300041D00FEF00B9A898C0E0D0E0FADE302F23
:100E400000FF01C0A89A00E00ABB00E00BBB00E075
:100E500007BB00E008BB112414BE13BA14BA05B3D3
:100E6000017005BB10922602FADCE7D3789400E209
:100E700005BF00E007B900E003B905ED06B9A89B7E
:100E800008C0B4DE80DCE6D9E5D9EEEBF9E1FDD9A6
:100E900008953FDC08950FB70F93A89504B7077F17
:100EA00004BFF89401B5086101BD007001BD0F9148
:100EB0000FBF089550E860E056BD66BD08950098E4
:100EC00005ED06B906B106FDFDCFEDDC08953798B6
:100ED000009AE9DC0895CF93DF93DF91CF912AD276
:100EE0002223B1F0CF93DF9309E0C01678F41124E8
:100EF0000C2CC0922802C8EDD1E0C019D10954DAF7
:100F000059930A94E1F7DF91CF9107C003D023CF23
:100F100001D025CF00E00093280200E000932702D3
:100F2000509128020EC2CF93DF9304D21124709106
:100F3000280260912702C7EDD1E0222359F0A1FFDA
:100F400003C00C2D0A9531F02FDA7A95751762F0EF
:100F5000652F02C0761741F0C61BD109588113DAFC
:100F6000639560932702EAC1FACECF93DF93A598E9
:100F7000CAD801E03AD05881DF91CF91E2C1CF9336
:100F8000DF93A59AC0D802E030D05883D7C1CF9361
:100F9000DF93A598B8D801E028D04BDE502FDF9121
:100FA000CF91CFC1CF93DF93A698A59AACD802E09A
:100FB0001CD0052F0F93C03002E0D0070F9111F025
:100FC0003FDE12C0EAE8FBE163D95527A69A2197D4
:100FD00037DE5A9511F44EE2F8D20F93C03000E09C
:100FE000D0070F91A1F736D9A9C10C1969F0DCD946
:100FF0005F93DAD9A59B05C05F93D6D9DF91CF91D6
:101000000895D52FCF910895CFD9A59B05C0052F61
:10101000CBD9C02FDD270895C52FDD27089559B3FB
:1010200090C156B38EC1152F7ED110FF02C05BBB9D
:10103000089558BB08955AB384C157B382C1152F80
:1010400072D110FF02C05ABB089557BB0895152FE7
:101050004CD010FF03C0EAE3F0E04BC0E7E3F0E060
:1010600048C0152F42D010FF03C0EAE3F0E045C0AE
:10107000E7E3F0E042C0152F38D010FF03C0EBE3E8
:10108000F0E037C0E8E3F0E034C0152F2ED010FFB9
:1010900003C0EBE3F0E031C0E8E3F0E02EC0152F31
:1010A00024D010FF03C0EBE3F0E002C0E8E3F0E07F
:1010B0000081052350E0002309F451E042C1152FBF
:1010C00014D010FF03C0EBE3F0E01CC0E8E3F0E055
:1010D00019C0152F0AD010FF03C0EBE3F0E002C0E7
:1010E000E8E3F0E00FD0FADB0DC00DD8B9D95CD938
:1010F00008950081052B00830895509500810523F4
:10110000008308950081052700830895CF93DF931E
:101110000AD1CC2011F4662703C018DB652F44D90F
:101120000398112412BC60FF01C006C00FB501680E
:10113000D69A1BBC5ABD05C00FB50162D59A19BC21
:1011400058BD0FBD09E00EBDF9C0CF93DF93EBD0C2
:101150005F932AD95F93CC2021F466275F917F911A
:1011600005C07F915F91F2DA652F1ED90398112493
:1011700012BC60FF01C006C00FB50368D69A5BBD04
:101180007ABD05C00FB50362D59A59BD78BD0FBDB4
:1011900009E00EBDD3C000270EBD0FBD02BD039AEE
:1011A0000895C4D0C8DD1120A79911F4502DC9C0ED
:1011B0000FE000932502FBCD5F93B5D05523A7998F
:1011C000B9F0052FF1D8652F772759E0661F5A959A
:1011D00041F0771F701B18F4700F8894F7CF0894B4
:1011E000F5CF5F915F3011F4562F01C0572FA9C082
:1011F00001E100932502DBCD99D0500FA79908F0AB
:10120000A0C00FE000932502D2CD90D0501BA7992B
:1012100008F097C000E100932502C9CD87D0501790
:101220000FB701FF10C011C081D050170FB701FFD9
:101230000CC009C05F937AD06F916C3111F45017D4
:1012400001C0051710F0552750FD51E07AC00DD0B0
:10125000662319F056956A95E9F773C006D06623A0
:1012600019F0550F6A95E9F76CC064D09DD8222318
:1012700011F461E0089562DA652F96D8089556D08A
:1012800050235FC053D0502B5CC050D0502759C062
:101290004AD0509556C047D0519553C044D052952E
:1012A00050C041D052955F704CC004EB5091290260
:1012B000579508F450275093290265D824D70895EC
:1012C00032D05F703EC02FD000E8551F0795E8F779
:1012D000502F37C0EF93FF9311242CD041F400908E
:1012E0002802002009F43BCDE8EDF1E007C009E059
:1012F00020170AF030CD022EE1EEF1E004D043D801
:10130000FF91EF91089550E07CE8029168E0302F62
:10131000352756950695369508F457276A95B9F7F7
:101320000A9499F70895EFD63FD80895FCDF052F6A
:101330003BD808952227E7D622230895DF91CF9145
:10134000089521D80895CF92DED655270F910C1914
:1013500009F02AD8B4DD00E003B907B1007C5F735F
:10136000052B07B958303AF457707CD81DD801B115
:10137000502B51B98ADA5527662770E1F89405EDAC
:1013800006B906B106FDFDCF84B195B1580F691FAE
:101390007A95A9F7789476E0669557957A95E1F76E
:1013A000F2D700E001B993DD08955527ECD7BBDFF4
:1013B000CDD985DD07B10F7350FD006450FF006883
:1013C00007B97FDA089552E0DED7ADDF553008F077
:1013D000E2CC04B3087F052B04BB089570DD08D070
:1013E0005527459951E0479A72DDCDD78CD608959F
:1013F00000E006B900E106B91E9808B10870006562
:1014000008B9A29B02C054E00AC01E9A54B353709C
:1014100007B1007C052B07B925D8CA942A9551B984
:1014200049DA08959B9A18955527ADD77CDF552347
:10143000B1F05A3008F0AFCCA89504B7077F04BFCD
:10144000052F5770000F000F00720064502BF894A6
:1014500008E101BD51BD03B3077003BB0AC02FDD16
:101460001E98A19904C000E106B900E403B9449AAA
:101470002EDD7894889500009D9B02C09D9808956C
:101480009B9BF7CF9B9808950FB70F93F894C29A40
:10149000BA9A17DAC29802E306DA0A95E9F7C29A0D
:1014A000BA9806E000DA0A95E9F751E006B302FDC2
:1014B000552769D702E3F7D90A95E9F70F910FBFCE
:1014C00022D6089537DF09F46ECC0FB70F93F89446
:1014D000EF93FF931124E1EEF1E0C21A58E0252EBC
:1014E0005291579510F446D001C04ED0D5D92A94C8
:1014F000C1F754D02A9591F7FF91EF910F910FBF4B
:1015000008950FB70F93F89415DF19F417D03BD750
:1015100012C0CF93DF93112447D7752FC8EDD1E0C8
:10152000109227025093280209D05A9337D07A9507
:10153000D9F7DF91CF910F910FBF089508E0202ECA
:1015400008D0889400FD08945795A6D92A94C1F72D
:101550000895C298BA9AA0D9C29ABA989DD90FEFA5
:1015600036B332FF00270F930AE096D90A95E9F7C0
:101570000F910895C298BA9A96D9C29ABA9806E07D
:1015800092D90A95E9F70895BA9AC29807E08BD9DB
:101590000A95E9F7C29ABA987FD908957DD97CD97E
:1015A0007BD9089505D0532F533009F4B160C9CECB
:1015B00030912F0232FD03C088950000F9CF3B7FA8
:1015C00030932F0230912C02089511D04F93B1FF28
:1015D00007C08895000040912F0242FFFACFBD7FDF
:1015E00013D048E660D94A95E9F74F910895809164
:1015F0002F0282FF0895DCDF333111F4B2600895C9
:10160000333009F4B160089580912F0280FFFCCF40
:101610008E7F80932F0240932A0200E000932B02DA
:10162000F894C19882B7865E8CBF88B7846088BF03
:1016300089B7846089BF789408958F93029880B5A4
:10164000816080BD8AB780628ABF8BB780628BBFA2
:1016500089B78D7F89BFB89889B78B7F89BFB99AC1
:10166000C19A01E000932F0200E000BF02E003BF37
:101670008F9178940895B09918950F930FB70F93A1
:1016800002B7005E06BF08B7026008BF09B7026074
:1016900009BF0BB70F7D0BBF002700932D020093EE
:1016A0002E020F910FBF0F9118952F932FB72F93E5
:1016B0003F938F939F9386B7865E86BFB09B0EC085
:1016C00020912D0230912E0281E0992702C0880FCF
:1016D000991F3A95E2F7282B20932D0280912E0234
:1016E000839580932E0280912E02893091F480910F
:1016F0002D0280932C0280912F02846080932F0210
:1017000089B78D7F89BF8AB780628ABF8BB78062B5
:101710008BBF9F918F913F912F912FBF2F91189544
:101720008F938FB78F938CB7865E8CBF80912B027F
:10173000883068F480912A0280FF02C0C19A01C0FB
:10174000C19880912A02869580932A0201C0C19A8D
:1017500080912B02839580932B0280912B028A30FB
:1017600030F003E000932F0289B78B7F89BF8F9100
:101770002FBF8F9118954C495320500252554E203F
:10178000C30353415645C1054C4F4144F6055052E1
:101790004920790250525820880250524220960225
:1017A000454D49548503464F5220D50250544F2091
:1017B000E8024E455854D702465245205F024E4536
:1017C0005720890350494620CD0254484520D20273
:1017D000454E4420EA02525354203B0343464720DF
:1017E000AA03501A1D20B30250501E201A0950504F
:1017F0001C201A09501C1E20140950011D20140918
:1018000050501D20BB0250500B20FC0850500D20A2
:10181000050950500A20D10850500F20DC084D4FC8
:101820004420DC0850500520DC0850500420EC0215
:1018300050500720FE0250500220A802444154415B
:101840006B07524541449307524553548D074C53FF
:10185000522027094C534C202E09505006203F0996
:10186000414E44203F0950505C204209504F5220C5
:10187000420950505E204509584F52204509434FB8
:101880004D2048095050012048094E4547204B093A
:10189000535741504E0952454D2080034E42482037
:1018A00051094E424C206009524556206309524E60
:1018B00044205509414F56202F03435243206A09C3
:1018C00044454C411903474F54207403474F53205C
:1018D0007703524554207A034B455920D20A41439D
:1018E0004F20EE0941435320E3095045454BB507CE
:1018F000504F4B45BF0745455220C7074545572028
:10190000D207534C5020140A4F574920440A4F57CE
:101910005720620A4F575220810A4F4441201F0826
:10192000494441201B085344412027084344412097
:1019300031084F5041201308534241203B08434295
:1019400041204508584241205F0850424120690823
:10195000494E41200F08494241204F084F44422040
:101960001F08494442201D0853444220270843448D
:10197000422031084F5042201308534242203B0876
:10198000434242204508584242205F0850424220CC
:101990006908494E42201108494242204F085057D9
:1019A0004520A50850574D20860850574F20CB089A
:1019B00041444320A30941445220D5090000F9368F
:1019C0003DFAF84174746F424153494320666F7287
:1019D00020415474696E79383428412920402034DC
:1019E0004D487AFAF85665723A20322E3336204244
:1019F00075696C6420636F64653A2032303231302F
:101A00003331302E32333532FAF9363D0000F845A5
:101A10006E68616E636564206279204B2053636F4A
:101A2000747420566974616C6520286B73765F70DE
:101A3000726A40676D782E636F6D29FAF8415474AD
:101A4000696E7938342F383520706F7274202843CE
:101A50002932303136FAF854696E7938342F3835F6
:101A600020426F6F746C6F61646572FE3230313684
:101A700020FAF8312D57697265285229FE3230312B
:101A800033FAF8536C656570FE32303132FAF9364C
:101A90002DFAF84261736520436F6465202843295D
:101AA00032303032204469636B2043617070656C62
:101AB00073FAF9362DFAF84F707469426F6F743803
:101AC00035206261736564206F6E206F7074696287
:101AD0006F6F742E63206279FA00F84A2E204B79DA
:101AE0006C652C20502E204B6E696768742C204248
:101AF0002E20576573746669656C642026204C61DE
:101B00006479616461FAF9362DFAF8416C6C2072DF
:101B1000696768747320616E642072656D656469BD
:101B2000657320657870726573736C792072657364
:101B30006572766564FAF84E6F7420666F72206382
:101B40006F6D6D65726369616C20757365FAF93646
:101B50003DFA0000F9352DFA0000446562756720F2
:101B600000006F6E20FA00006F6666FA0000FB3A14
:101B70002050676D20746F6F206C617267652066FE
:101B80006F72204545502120FA0045726173696EDD
:101B9000672045455000536176696E6720746F2059
:101BA0004545502EFA004C6F6164696E672066727D
:101BB0006F6D20454550FA00427265616BFA000076
:101BC00020627974657320757365642E202000008F
:101BD00020627974657320667265652E20FA0000B4
:101BE0000820080056616C7565206578636565643A
:101BF00065642072616E67650000206E6F7420005E
:101C000020737570706F72742028432900004C692E
:101C10006E65202320004572726F723A0000FB430C
:101C20004D442F4F5020556E6B6E6F776E00FBFC4E
:101C3000206F6620303A32353500FB50726F677284
:101C4000616D206D656D6F72792069732066756CAA
:101C50006C00FB436861726163746572FD612072A0
:101C600065636F676E697A656420747970652E00AC
:101C7000FB427566666572206C696D6974206578D3
:101C80006365656465642E00FB4261642076617261
:101C90006961626C65206E616D652E00FB546F6F2B
:101CA000206D616E7920617267756D656E74732E3B
:101CB0002000FB56616C756520776173FD6176616C
:101CC000696C61626C652E00FB537461636B206507
:101CD00072726F7220FAF9092046756E632F636184
:101CE0006C6C7320746F6F20636F6D706C65782FF0
:101CF0006E657374656420746F6F20646565700031
:101D0000FB474F54206F7220474F53206465737414
:101D1000FD666F756E642E00FBFC206F6620303A06
:101D20003700FB4C696E65206E756D626572203EF2
:101D300020332064696769747300FBFC206F6620A0
:101D4000303A3100FBFC206F6620303A330000004F
:101D5000FB4D617468206F766572666C6F772E003C
:101D6000FB4D61746820756E646572666C6F772ECA
:101D70002000FB446976696465206279207A657287
:101D80006F2E2000FB456D7074792046696C6500EC
:101D9000000000000000FB537065636966696564BC
:101DA00020FC2E00FB5365742041432052656620C1
:101DB0003E20302E2000FB444556206E6F20726579
:101DC00073702E00FB446576696365206368656304
:101DD0006B73756D2E000000FBFD612062696E6102
:101DE0007279206E756D62657200FB496E76616C6A
:101DF00069642023206F6620617267732E000000E3
:041E00000000189531
:101E2600112484B714BE81FFE2C0D19AD99AEE2458
:101E3600FF2453E041E08FE0D6D032E1532E3FEC51
:101E4600432EBBD0813461F4B8D0182FA3D01238FA
:101E560011F0113811F484E001C083E0A0D093C0E2
:101E6600823411F484E103C0853419F485E0B5D0D9
:101E76008AC0853541F4A1D0A82E9FD0B82EAA0CD1
:101E8600BB1C75017FC0863521F484E0A6D080E0B6
:101E9600E5CF843609F044C090D08FD0182F8DD06E
:101EA600C0E6D0E08AD089931A95E1F773D0F7019E
:101EB60057BFE89507B600FCFDCFE114F104C9F45D
:101EC60080916000909161009093E5008093E4001A
:101ED60080907800909079009092E7008092E600DA
:101EE6000C9780937800909379005092600040920E
:101EF6006100C701A0E6B0E06D907D90FC01030192
:101F060047BFE8950296F0E0A03ABF07A9F711246B
:101F160025E0F70127BFE89507B600FCFDCF33C0E3
:101F2600843719F54AD049D0182F47D033D0F70156
:101F3600309719F48091E40011C0E130F10519F4ED
:101F46008091E5000BC0E831F10519F48091E600B7
:101F560005C0E931F10521F48091E700319601C011
:101F660085911DD01A9521F70EC0853739F412D008
:101F76008EE115D083E913D08CE070CF813511F452
:101F860088E031D007D080E10AD05BCF9FE19A95F7
:101F9600F1F7089512D0803209F0FFCF84E12AE0EC
:101FA6008095089410F4D99802C0D99A0000EEDF03
:101FB600EDDF86952A95B1F7089529E08827C89917
:101FC600FECFE4DFE3DFE2DF8894C89908942A9520
:101FD60011F08795F7CFA8950895082FEEDF0150E9
:101FE600E9F7D8DF089598E191BD81BD0895882766
:0A1FF600FADFECE0FF27099406046F
:00000001FF
