:103E00000F92CDB7DEB711248FE594E09EBF8DBF32
:103E100084B714BE81FFD5D085E08EBD82E08BB91A
:103E200088E18AB986E880BD85E189B98EE0B4D0A1
:103E3000BD9A26E08CE39BEF54E040E29DBD8CBD33
:103E400058BF08B602FEFDCF38B3342738BBA8955B
:103E50002150A1F7AA24BB24DD24D394E5E0EE2E63
:103E600071E1F72E92D0813469F48FD0898399D093
:103E70008981823811F1813811F485E001C083E035
:103E800080D07CC0823411F484E103C0853419F4FD
:103E900085E08FD073C0853561F477D0082F10E0AE
:103EA00074D090E0B82EAA24A02AB12AAA0CBB1C78
:103EB00064C0863521F484E07CD080E0E1CF843694
:103EC00009F041C062D061D0C82E5FD080E0A81652
:103ED00088E3B80620F483E0F50187BFE89500E6A3
:103EE00010E053D0F80181938F01CA94D1F7F0E02C
:103EF000AF16F8E3BF0620F083E0F50187BFE89531
:103F000050D007B600FCFDCFF501A0E6B0E02C9143
:103F100030E011968C91119790E0982F8827822B92
:103F2000932B12960C01D7BEE89511243296A03E31
:103F3000B10569F7F501E7BEE89507B600FCFDCFCE
:103F4000F7BEE8951BC0843761F41FD01ED0082F40
:103F50001CD027D0F50185915F0113D00150D1F716
:103F60000DC0853731F41DD08EE10BD084E909D026
:103F700086CF813511F488E00FD013D080E101D0D5
:103F800071CF5D9BFECF8CB908955F9BFECF5C998E
:103F900001C0A8958CB1089591B5986191BD81BD7E
:103FA0000895F3DF803219F088E0F6DFFFCF84E177
:103FB000E8CF1F93182FE9DF1150E9F7F2DF1F91C7
:103FC0000895282E84BF80E0E7DFEE27FF270994BD
:023FFE000005BC
:0400000300003E00BB
:00000001FF
