:020000020000FC
:100000000C9456000C94E61F0C94E61F0C94E61F0B
:100010000C94E61F0C94E61F0C94E61F0C94E61F4C
:100020000C94E61F0C94E61F0C94E61F0C94E61F3C
:100030000C94EF050C94E61F0C94E61F0C94E61F3D
:100040000C94E61F0C94E61F0C94E61F0C94E61F1C
:100050000C94E61F0C946C130C94E61F0C94E61F92
:100060000C94E61F0C94E61F0C94E61F0C94E61FFC
:100070000C948B100C94E61F0C94E61F0C94E61F56
:100080000C94E61F0C94E61F0C94E61F0C94E61FDC
:100090000C94E61F0C94E61F0C94B3120C94E61F0C
:1000A0000C94E61F0C94E61F0C94E61FA8950FEF26
:1000B0000DBF0AE00EBF0E943D0A0E94D60278944E
:1000C0000E949701CC240E9468000E94CB00F7CFC9
:1000D00048E94093C9004EE30E944319CEE6DAE0B6
:1000E0000E9436193D3021F4F198F0980C94830069
:1000F000323229F4F09902C0F09A01C0F0983332FC
:1001000011F4F09BF19A0F93CF360AE0D0070F91CC
:1001100021F447E00E944319E3CF3531E9F038304C
:1001200069F13F3759F13A30D9F23930C9F2F19BD0
:1001300038833D3009F408950F93C9300AE0D007A1
:100140000F9121F447E00E944319CACFF19B2197F8
:10015000432F0E949E01C4CFEF93FF93EEE6FAE097
:10016000EC1BFD0B2E2EECE2FCE30E94BE012A9458
:10017000D1F7CEE6DAE0FF91EF91B2CF0F93CE3612
:100180000AE0D0070F9131F033273993ECE2FCE31A
:100190000E94BE01A5CFCEE6DAE038810E9463015D
:1001A000023011F40C9401060E949701A16002C074
:1001B000AE7FBF7B8DB79EB70F938F3A0AE0900753
:1001C0000F9110F40C94C9090E942D015D3021F4A7
:1001D000B2FD0E9458051BC05B33C9F0032D0230ED
:1001E00021F4F8D20E944102E5CF7F756F755F75EB
:1001F000053041F0413031F4032D033019F40E94F1
:100200002902D8CF0E9409015D3009F00895A1604C
:100210000895E0EDF3E30E942101071671F40E94B6
:100220002101061659F40E942101051641F4319668
:100230000591F491E02F0995089531963196309605
:10024000EACF0590002041F41490112029F400E039
:100250000093710A0C94FB09089570EF60EF41E080
:1002600038810E946301013019F40E945501F5CFD5
:10027000532F0E9455013D30A1F03D2C38813D3077
:1002800081F00E9463013D1439F40E9490050E94A0
:1002900055014395433091F738810E9463013D1425
:1002A00009F008950E945501F7CF0F93C8300AE076
:1002B000D0070F9131F404E00093710A0C94FB090C
:1002C0000895219708953F9300273D3011F40C9431
:1002D00089013F75303011F40C9470013C3011F4F9
:1002E00001E018C0323011F405E014C0303411F4CC
:1002F00005E010C030310AF40DC03B350AF00AC0E9
:10030000303412F003E006C03A3112F41AF402E07D
:1003100001C004E0D02E3F9108950E94E7088F931A
:10032000492F0E9443194F910E94431908954DE0AF
:100330000E9443194AE00E94431908954D3011F478
:10034000F6DF08950C944319472F0E94AE01462F03
:100350000E94AE01452F0E94AE0108954F93407F49
:100360004295405D0E9443194F914F70405D0E943D
:10037000431908950E94BE01DADF08954591442390
:1003800009F40895483F19F40E94FD01F7CF493F51
:1003900029F4159045910E942402F0CF4A3F11F4B0
:1003A000C6DFECCF4B3F41F4EF93FF93E0E5FDE375
:1003B000E5DFFF91EF91E2CF4C3F41F4EF93FF93E4
:1003C000EEE1FDE3DBDFFF91EF91D8CF4D3F41F44C
:1003D000EF93FF93E4E3FDE3D1DFFF91EF91CECF05
:1003E0004E3F41F4EF93FF93EAE3FDE3C7DFFF9154
:1003F000EF91C4CF0E944319C1CF0F93EF93FF93A6
:10040000112445914A30A1F04D3091F04A3F81F0DE
:10041000493F71F04C3F11F404E1100E4D3F11F4CF
:1004200005E0100E4E3F11F40CE0100E1394E9CFCE
:100430001A9446E3141A1194169440E20E9424027E
:10044000FF91EF910F9108950E9443191A94E1F7DB
:10045000089551545A312AF005E00093710A0C9422
:10046000FB09A0FF21F40E944102A2600895E7E980
:10047000F9E06627E50FF61F50810E944102AD7F2B
:1004800008950F9300E20C1511F40C94BF091F920C
:100490001124E0EFF9E0EC19F1095083C39423959E
:1004A0001F900F910895CC2011F40C94C4091F9251
:1004B0001124E1EFF9E0EC19F1095081CA942A9571
:1004C0001F900895EF93FF9304E00B1511F40C9423
:1004D000C90932E00B2D039FE9EFF9E0E019F109BA
:1004E000D293C293B394FF91EF910895EF93FF934A
:1004F000BB2011F40C94C40932E00B2D039FE9EFEB
:10050000F9E0E019F109C191D081BA94FF91EF911E
:100510000895EF93FF9304E00A1511F40C94C909B0
:1005200034E00A2D039FE9E0FAE0E019F109629254
:10053000729242925292A394FF91EF910895EF9399
:10054000FF93AA2011F40C94C40934E00A2D0A95F3
:10055000039FE9E0FAE0E019F1096290729042909D
:100560005290FF91EF9108959EDF0E944C0401E0AC
:10057000552319F0000F5A95E9F7502F0C94E70F07
:10058000703049F0705D472F0E944319603019F4B4
:1005900040E30E944319603021F0605D462F0E94C5
:1005A0004319505D452F0E9443190895E2EDF8E389
:1005B000E1DE0895BCDEE6E9F9E0C0916F0AD09172
:1005C000700AEC17FD0721F04081B8DE3197F9CFB2
:1005D000AEDEADDE99E086E970916F0A6091700A37
:1005E000871B960B0E94C808AFDEECE0FCE3C6DE7A
:1005F00080916F0A9091700A805091400E94C808C3
:10060000A3DEECE1FCE3BADE0895B0680E94DF0FE0
:1006100005E0301651F047DF0E94FD08B1DF40E2EF
:100620000E9443192223B9F782DEBF770895B0688C
:100630000E94DF0F44E20E94431935DF852F6DDEF3
:1006400040E20E9443192223A9F771DEBF77089583
:10065000B0680E94DF0F27DF78E040E3551F08F401
:1006600041E30E9443197A95C1F740E20E94431981
:10067000222389F75CDEBF770895488116DE423277
:1006800039F04E3719F00E944319F7CF50DEF5CFFD
:1006900008950E94DA0FE7E9F9E06627E50FF61FF3
:1006A00000830895B5FF0C94290F0E94D50F452EA5
:1006B000FADE052FF8DE552E6627E7E9F9E0E50FAB
:1006C000F61F0083A062AE7FBF7D08950E94D50F04
:1006D000552309F4A46008950F910F910895B06215
:1006E0000895E7E9F9E0552D6627E50FF61F00812B
:1006F000041521F003950083A0610895AA9409F0E0
:100700001EDF089555DD0895B16008959881CDDD0F
:100710008881382FD8DD013029F0043019F0C5DD8B
:100720000C949403892F99270E94F408582FA9DE6E
:100730003FDD08950981073211F00C94BA0B55275B
:1007400008E0202E8881B1DD382FBDDD302E02304B
:1007500019F0CF5FDF4F07C08894317030FD0894E7
:10076000551F2A9479F78DDE23DD08950CE100935F
:10077000710A0C94FB09CF93DF930E94D50F0AE016
:10078000F79888950000F79BFBCF0A95C9F75A9513
:10079000B1F70C94E40F552774DE0E94D50F01E0E9
:1007A00005174AF00AB50F770ABD50FF08950AB53C
:1007B00000680ABD08950C94D30904B7077F04BFED
:1007C00008E1009360000EE000936000F8948895C3
:1007D000000008957F706F705F700E940A0908958D
:1007E0000E94D50F452FE6E9F9E080916F0A9091BC
:1007F000700A0C940504F91711F48E17C8F40081DF
:100800000D3011F03197F7CF3197552766277727AD
:10081000F91711F48E1760F4308155DD023021F4A0
:100820000E9490053197F4CFD5DF451721F7089541
:1008300009E00093710A0C94FB09D2DFEF010895DF
:10084000CFDFA06C0895B3FF0C942804A86008952E
:10085000B1600895488129DD4D30E1F708950E9487
:10086000D50F452F0E9443190895E6E9F9E0F0936A
:10087000700AE0936F0ACC24AA27BB270FB70F9307
:10088000F8940E94DC050E94E2050F910FBF4FDD36
:10089000E2E8F8E36FDD0895583008F408950C9409
:1008A000CE09543008F408950C94D809523008F455
:1008B00008950C94D309CF93DF930E94DF0FC0E01B
:1008C000D0E00E94B508222331F0213039F02230E7
:1008D00081F00C94E709502FD4DD24C0E4DDDCDF87
:1008E000552319F006955A95E9F751E000FF552771
:1008F000F3CF702FD8DDC0EFD9E00881083069F060
:10090000D5DF652FD0DDC8DFBCDD2EDECC2460FD59
:1009100003C05095572301C0572B052FC0E0D0E0EE
:100920000E94BC080C94E40FB7FD0DC0A1FD0BC0E4
:100930000E94750FB8DD55231AF0E6EFFCE302C004
:10094000E6E7FCE31BDD5AE20C94E70FCF93DF935D
:100950000E94EB0540E20E944319E0EDF3E3D2E38D
:10096000C4E07591772309F43CC0659155916435D5
:1009700021F45F34A1F470E220C0693421F45634CC
:1009800071F470E21AC06F3451F4523541F4773586
:10099000A1F0783591F0763481F070E20EC05034D9
:1009A00039F05E352CF45C3514F4503334F4505E79
:1009B00070E260330AF06627605E472F0E94431999
:1009C000462F0E944319452F0E94431940E20E947E
:1009D00043193396D45022F6AADC40E20E94431910
:1009E000BECFA5DC0E94EB050C94E40F0BB500FD17
:1009F0000EC0DEDBCC2059F056DD03E0051714F401
:100A00000C94E709B4600E94DC050E946007BB24D7
:100A1000AA240BB50E7F0BBDB460C6E9D9E00E94D5
:100A20005805CC24A1600E945419A6FF02C04ADDDB
:100A3000AF7BA7FF03C0EF01B860AF77A3FF05C08E
:100A400055DDBB2009F4B77FA77FA5FF03C03E019A
:100A500060DDAF7DA4FF02C0E301AF7EB0FF07C041
:100A60000E947E05C0916F0AD091700ABE7F80916E
:100A70006F0A9091700A8C1B9D0B78F4388123DCEF
:100A8000A2FF04C0043011F02197CBCFAB7F02301E
:100A900011F42197C6CF8EDBC4CF00E00093720A19
:100AA000BB7FC0E0D0E000FF0895882301F40895E3
:100AB0000091700AD01729F400916F0AC01709F449
:100AC0000895CF93DF93DF923F93662755273881B0
:100AD000FADB023029F00E940A095093720A05C01D
:100AE0000E9490055F702197F2CF0BB503FF02C003
:100AF00056D01DDC3F91DF900C94E40FE4E0FCE362
:100B00003DDC089554EBE0E0F1E0019150270F93B4
:100B1000EF3F0AE0F0070F91C1F75093750A08956F
:100B2000762F652F532F0895772766275527089529
:100B3000DF93D2E0DA950000E9F7DF910895DF93C3
:100B4000D5E0F6DFDA95E9F7DF910895DF93DAE093
:100B5000EFDFDA95E9F7DF910895DF93D4E6E8DF78
:100B6000DA95E9F7DF910895CF93DF93D3E6C3E1F8
:100B7000CA950000E9F7DA950000C9F7DF91CF9137
:100B800008950F930AE0F0DF0A95E9F70F910895B1
:100B90000F930AE0F6DF0A95E9F70F910895E8E46C
:100BA000FDE3ECDBCF93DF93DD27C091720A0E9457
:100BB0007E09DF91CF910895E0E0F1E098E087E9C8
:100BC000002705C0E7E9F9E090E08AE100270193FA
:100BD0000197E9F70895E2E0FBE3D0DB089508E12F
:100BE0000093600000E000936000F59A189504E01F
:100BF0000093710A0C94FB090BE00093710A0C94AA
:100C0000FB0944270E94E9065430B0F780916F0A2F
:100C10009091700A0F93863909E090070F9109F4BB
:100C20005BC0CEE6DAE080DF0F93C8300AE0D00781
:100C30000F91EAF2388147DB023029F4762F652FD5
:100C4000532F2197F1CFC6DD452EE0916F0AF09129
:100C5000700A4C7F69DF552431960F93E73909E01C
:100C6000F0070F9191F030812EDB043071F00230EB
:100C700089F75394562F672F732FEECF0F93E739D1
:100C800009E0F0070F9131F70895052D033029F0A1
:100C90005394562F672F70E0F8CF41FD02C0426099
:100CA000D9CF98DD4516A9F110F441603F010F93AB
:100CB000E73909E0F0070F9111F440FF0DC040FF44
:100CC000DDCF541508F455C00F93E73909E0F0075C
:100CD0000F9109F44EC0D2CF0E94E906003009F40A
:100CE0000895CEE6DAE0E0916F0AF091700A0F9372
:100CF000E03001E0F0070F9109F436C0088100836D
:100D0000319721970D3099F7F093700AE0936F0AAD
:100D100008953197EF010F93E03001E0F0070F9154
:100D200009F465CF088121970D30A9F7BF016C1B2D
:100D30007D0B80916F0A9091700A860F971F909398
:100D4000700A80936F0A0F93E03001E0F0070F9173
:100D500029F00881008321973197F5CF0E94E90699
:100D6000003009F04ECF089502E00093710A0C9410
:100D7000FB090E94E906003059F10091700A013028
:100D800029F400916F0A0050081770F3E0916F0A80
:100D9000F091700ADF2FCE2FC81BD040D093700A7D
:100DA000C0936F0AF71519F4E61509F405C0008120
:100DB000088321963196F6CFCEE6DAE0F72DE62DC0
:100DC0003197088100830D3019F031972197F9CFC1
:100DD0000895CEE6DAE05527882799274B7F38819A
:100DE000219783953D3041F06EDA023039F044604E
:100DF0000130A9F39395F3CF092F089542FF53953E
:100E0000EECFCEE6DAE0E03009F0AECF0881008325
:100E1000319721970D30B9F7F093700AE0936F0A7C
:100E20000895AF93BF9355272CDB0E94D50F543004
:100E300014F00C94E70985D0A6E9B9E0E0916F0AB7
:100E4000F091700AAE1BBF0BAF5FBF4F57D1EA1BCB
:100E5000FB0BBF91AF9128F4E8EAFBE38BDA0C942B
:100E60005F07E4EDFBE38ADA852F57DA60DA00E00A
:100E70000093880A34D11124C8E1D0E0C50FD11DF8
:100E8000022D7AD1E7E9F9E001E03EE1C9E8DAE0D4
:100E9000099302910993002371F03A95D1F71FD17C
:100EA00028822F920091870A0093880AB4D00F916C
:100EB0000093880AE9CF09933A95E9F7ACD00895F1
:100EC000B2FD06C05527DDDA73D9EDDA543024F5CA
:100ED000CCDCE4EEFBE352DA852F1FDA28DAEFD020
:100EE00016F40C94E209E7E9F9E03EE1CAE8DAE039
:100EF0000991002341F002933A95D1F708810093BC
:100F0000880A85D0F2CF3197CC24F093700AE09311
:100F10006F0AB2FF5EDB08950C94E709CF93DF936D
:100F20003FE13093880A95D03A95D9F7A1D00C9437
:100F3000E40F5527A6DA3CD9B6DA543014F00C94F5
:100F4000E709DD27C52FC85EDF4F0FD1002309F465
:100F500008950093880AB3D07CD0C9E8DAE00F8DF9
:100F60000093880A002321F0009511F050D0F4CFAF
:100F70008DD00895CF93DF935527852FCED94AE39F
:100F80000E94431940E20E949308CF015F930E94A0
:100F9000C808DDD9EAEFFBE3F1D90F93503000E048
:100FA00060070F9129F4E4EFFBE3E8D95F9112C0E9
:100FB0005F9185D0CAE8DAE06EE149910E94431959
:100FC0004D3041F06A9509F0F8CF48814093880A86
:100FD0001ED0F0CFACD95395543009F0CECFA7D95D
:100FE0000E947E08EF93FF939D2F8C2F0E94C808CC
:100FF000AED9ECE0FCE3C2D99F918F910E94C80862
:10100000A6D9ECE1FCE3BAD992D90C94E40F0AB565
:101010000F7D0ABD03C00AB500620ABDCF93DF93FE
:10102000EF93FF9300E2202EE9E8FAE00091880AAE
:1010300019D00AB505FF03C001919ED002C095D01A
:101040000193CF5FDF4F2A94A1F7FF91EF910C94AA
:10105000E40FCF93DF9306D00AB500640ABD8CD0AD
:101060000C94E40F00E24091880A049FE001089587
:1010700084E0C8E1D0E00AB50F7B0ABD00270E94DA
:10108000BC08CF5FDF4F8A95C9F708950AB50F7B7B
:101090000ABD0027DD27C52FC85EDF4F0E94BC08B0
:1010A0000895C9E8DAE000E00093880AB0DF089507
:1010B000C9E8DAE000E00093880AADDF0895F1DFC7
:1010C000052EC00DD11DC85EDF4F0881002311F42D
:1010D000689408950093880A9ADFE8940895CF935E
:1010E000DF932090880A2092870A23942092880A0E
:1010F000B9DF3BD00F3FC9F70C94E40FAF93BF9318
:101100005F93BB27AA2753E00E949308AE0FBF1F2F
:101110005A95D2F7E2EAF3E0EA1BFB0BED015F918F
:10112000BF91AF9108955F93E9E8FAE090E080E025
:1011300070E06EE1B6DF052EE00DF11DE85EFF4FB9
:101140000081002379F0E9E8FAE00093880A5FDF84
:10115000008101300FB701FF05C0860F971F078D73
:10116000002399F7FC015F910895F999FECFD2BD54
:10117000C1BDF89A00B50895F999FECFD2BDC1BDA1
:1011800044E00AB406FC44E100BD4FBBF99A08955F
:101190000C01889400E1C8DC001C111C551F661F5F
:1011A000771F0A9509F40895352F08D0532F362F4D
:1011B00005D0632F372F02D0732FEECF432F4D5F13
:1011C00043FD342F432F405D47FD342F0895982F62
:1011D00092959F70905D9A3308F0995F8F70805D53
:1011E0008A3308F0895F089596FD975F9F7086FDAA
:1011F000875F8F709295892B0895772766275456BD
:1012000010F07395FCCF5C595A5010F06395FCCFE9
:10121000565F08957330B2F4723032F0663092F453
:10122000653012F0563072F4662321F00AE0500F58
:101230006A9581F7772309F4089504E68894500F9E
:101240007A95C0F701E00093710A0C94FB094FE214
:101250004395C050DA4CEA49FB43D0F7C050D6431F
:10126000E546F44C0E9443194FE24395C050D14EDD
:10127000E54FF540D0F7C050DF41EA40FA4F0E94F9
:1012800043194FE24395C058D649E849F040D0F79A
:10129000C058D946E746FF4F0E9443194FE2439595
:1012A000C054D244EF40F040D0F7C05CDD4BE04F7B
:1012B000FF4F0E9443194FE24395C05AD648E14080
:1012C000F040D0F7C056D947EE4FFF4F0E94431968
:1012D0004FE24395C051D742E040F040D0F7C05FA5
:1012E000D84DEF4FFF4F0E9443194FE24395C85E20
:1012F000D340E0F7C851DC4F0E9443194FE24395B9
:10130000C456D040E0F7CC59DF4F0E9443194FE25A
:101310004395CA50E8F7C65F0E9443194C2F405DC1
:101320000E94431908950FB70F93F89400E199278D
:1013300088277695679510F48C0F9D1F9795879554
:10134000779567950A95B9F70F910FBF08950FB775
:101350000F93F8948827991B01E1661F771F0A9560
:1013600019F40F910FBF0895881F991F841B930BC9
:1013700020F4840F931F8894F0CF0894EECF06E0FA
:101380000093710A0C94FB0907E00093710A0C9416
:10139000FB0908E00093710A0C94FB090AE0009332
:1013A000710A0C94FB090CE00093710A0C94FB0980
:1013B0000DE00093710A0C94FB0901E10093710A9E
:1013C0000C94FB0902E10093710A0C94FB0906E1FD
:1013D0000093710A0C94FB090BE10093710A0C94C1
:1013E000FB090DE10093710A0C94FB090EE10093D7
:1013F000710A0C94FB090E94970111240090710A54
:10140000D02C000CEAE3F4E1E00DF11D0591F4911C
:10141000E02FEE1FFF1F0E94BE010E949701BFDB5D
:101420000FEF0DBF0AE00EBFAA27BB2700E0009315
:10143000720A0E9497010C945F00AC1EBB1EC11E75
:10144000CD1EDC1EE81EF21EFD1E081F2D1F3E1FB6
:10145000431F4F1F541F591F651F701F7C1F851F7F
:101460008B1F921F951FA11FA81FB11FBC1FC51F57
:10147000CC1FCC1FD51FE41FE51FF89400241124B6
:1014800085D096D00FEF00936400009365000BB5F4
:101490000E7F0BBDC0E0D0E068DE302F00FF03C040
:1014A0000BB501600BBD06E204B900E005B900E030
:1014B00007B900E008B908E008E00AB900E00BB994
:1014C00000E00DB900E00EB900E000BB00E001BB98
:1014D00007B10F7307B906B1006C08B922982A9AB0
:1014E0000BB50F750BBD03E00093860AE0EDF7E046
:1014F000F093850AE093840A112414BE1EBA1ABC24
:101500000BB501700BBD1092720AFCDA1124109217
:101510007E0A10927F0A01E000937C0A00E00093AB
:101520007D0A01E00093760A54E0C8E1D0E01DDEB8
:101530000F3F11F4002720DECF5FDF4F5A95B9F738
:101540000E946319789401E003BF00E000937C00DF
:1015500000E000937B0006ED00937A000E94F213F6
:1015600000E00093770A0BB500FF0EC0CC2455278E
:10157000B460AEDC3BDA0E9497010E949701E2E87A
:10158000F8E30E94BA01089570D908950FB70F9338
:10159000A89504B7077F04BFF89400916000086124
:1015A000009360000070009360000F910FBF0895DA
:1015B00050E860E0509361006093610008950091ED
:1015C00064000E7F0093640006ED00937A000091A2
:1015D0007A0004FFFBCFBADA08950091640001603D
:1015E00000936400B3DA08950E94DF0FC1F0CF9337
:1015F000DF9301E2C01680F411240C2CC092740A0F
:10160000C1EDD9E0C019D1090E94530259930A943F
:10161000D9F7DF91CF9109C00E94120BB0CE0E9482
:10162000120BB2CE00E00093740A00E00093730A3C
:101630005091740A0C94E70FCF93DF930E94DF0F51
:1016400011247091740A6091730AC0EDD9E02223CD
:1016500061F0A1FF03C00C2D0A9539F00E945302DE
:101660007A95751772F0652F02C0761751F0C61B78
:10167000D10958810E94410263956093730A0C94CA
:10168000E40F82CECF93DF930AB50F7D0ABD0E948F
:10169000D80001E04ED05881DF91CF910C94E70F34
:1016A000CF93DF930AB500620ABD0E94D80002E022
:1016B00040D058830C94E40FCF93DF930AB50F7D8D
:1016C0000ABD0E94D80001E034D04FDD502FDF91D9
:1016D000CF910C94E70FCF93DF933AB53F7B3ABDA0
:1016E0003AB530623ABD0E94D80002E022D0052F00
:1016F0000F93C03004E0D0070F9111F03DDD17C00B
:10170000E8ECFBE30E94BE0155273AB530643ABDD0
:10171000219732DD5A9519F44EE20E9443190F9336
:10172000C03000E0D0070F9199F70E9497010C9408
:10173000E40F0C1989F00E9453025F930E94530238
:101740000AB505FF06C05F930E945302DF91CF9157
:101750000895D52FCF9108950E9453020AB505FF31
:1017600006C0052F0E945302C02FDD270895C52F04
:10177000DD270895EF93FF935AE00E944102CF9234
:101780000E94D800ECEAF7E165917591772311F496
:101790000F9009C06517C1F711240F90E1EFF9E030
:1017A000E019F1097083FF91EF910895780A790AA1
:1017B0007A0A7B0A7E0A800A810A820A830A00006A
:1017C0001124E50FF11D54910C94E70FCF93DF9393
:1017D00050E00E9441020E94D50FCC2049F05830C1
:1017E0000AF004CE60E8609361005093610004C089
:1017F000509161000E9441020C94E40FCF93DF935B
:10180000509166000E9441020E94D50F50936600DD
:1018100050916600DF91CF910C94E70F0091640026
:101820000F770093640055270E9441020E94D50F54
:101830003DD800E250FD00E20093B8005098589A5D
:101840005198599A00270093B90000950093BB0066
:1018500004E00093BC0004E90093BC00ACD0089500
:10186000CBC0C0D0CF93DF9321975881523261F41F
:101870005A91523219F00E944102FACF5F915F9162
:101880000E9455012C2D07C0DF91CF910E94DF0FE0
:10189000222309F4B2C00FB70F93F894EF93FF938C
:1018A0001124E1EFF9E0C21AEC19F1090091C90025
:1018B0000F770093C90052912A955093BB0004EC16
:1018C0000093BC007DD00091B900087F083121F061
:1018D000003411F0083211F4222369F7FF91EF91DF
:1018E0000F910FBF68C07ED00E94DF0F19F41BB5A7
:1018F00014601BBD0091C9000F770093C9000FB79A
:101900000F93F894EF93FF93112451E01BB512FD50
:1019100006C001E20E94530250170AF06CC0752FF6
:101920001BB512FD06C0E1EDF9E01092730A509369
:10193000740A04EC60E57A9519F404E868E57FEF31
:101940000093BC003DD05091B900587F56130BC096
:101950005091BB001BB512FD04C0529377FFEBCF33
:1019600006C00E9441021BB512FF1092740AFF913B
:10197000EF910F910FBF1BB512FF1DC01BB51B7F51
:101980001BBD08952FD0087F0093BC0004EA00938C
:10199000BC0016D010D0089525D004E90093BC00F7
:1019A0000FEF0093BB0007D008955091BC0052FF89
:1019B0001EC001D008955091B900587F0C94E70FD4
:1019C000EF93FF93E0EAFFE00090BC0007FC07C044
:1019D000B6D83197C9F708E10093710A0CCDFF9191
:1019E000EF9108950091BC0002FF01C0089503E14A
:1019F0000093710A00CDEBCCD6CCF3CCA6D0CF931C
:101A0000DF9321975881523261F45A91523219F082
:101A10000E944102FACF5F915F910E9455012C2DE7
:101A200006C0DF91CF910E94DF0F09F4DACC0FB727
:101A30000F93F894EF93FF931124E1EFF9E0C21AAA
:101A4000EC19F1090091C9000F770093C900529178
:101A50005EBD0DB507FFFDCF5EB52A95C1F7FF91BD
:101A6000EF910F910FBF089570D00091C9000F77CB
:101A70000093C9000FB70F93F894EF93FF931124CD
:101A80000E94DF0F11F4552706C001E20E945302A5
:101A900050170AF09CCC752F0EB4552341F41EBC90
:101AA0000DB507FFFDCF5EB50E9441020EC0E1ED0E
:101AB000F9E01092730A5093740A1EBC0DB507FF2B
:101AC000FDCF5EB552937A95C1F7FF91EF910F91DB
:101AD0000FBF0895009164000B7F0093640052E0F3
:101AE0000E94410262D20E945104550F550F34D01A
:101AF0000CB5037F052B0CBD089557D20E945604E8
:101B00000CB500620CBD50FD03C00CB50F7D0CBDC3
:101B100008954BD20E944C04052E53700CB5087FDB
:101B2000052B0CBD0DB501600DBD02FC03C00DB54C
:101B30000E7F0DBD089509D051E00E94410235D2BB
:101B4000289A50FD01C0289808950CB506FD089507
:101B50000AE10093710A4FCC009164000B7F00935F
:101B6000640004B1076004B9289A01E50CBD0DB505
:101B70000E7F0DBD08955EBD0DB507FFFDCF0EB5FF
:101B800008955EBD0DB507FFFDCF5EB50895AED0DB
:101B9000EF5DFF4F50810C94E70FA8D0EF93FF93B8
:101BA00004D2FF91EF91EF5DFF4F0F93E73200E01A
:101BB000F0070F9131F00F93E03300E0F0070F9141
:101BC000A9F4EF93FF93E3E0F0E009E007BF04918D
:101BD000FF91EF9107FF0C94F50D05B7006805BF65
:101BE00005B7006805BF0C94F60D5F70508308952B
:101BF0007DD0EF93FF930E94D8000E94B4020E9410
:101C00005302FF91EF91EF5DFF4F75C06FD0EF93DF
:101C1000FF930E94D8000E94B4020E945302FF91D9
:101C2000EF91EF5DFF4F6BC061D0EF93FF93BDD19C
:101C3000FF91EF91EE5DFF4F5083089557D0E05E26
:101C4000FF4F50810C94E70F51D0EF93FF930E9408
:101C5000D8000E94B4020E945302FF91EF91EE5D02
:101C6000FF4F49C043D0EF93FF930E94D8000E94DA
:101C7000B4020E945302FF91EF91EE5DFF4F3FC00F
:101C800035D0EF93FF930E94D8000E94B4020E94C7
:101C90005302FF91EF91EE5DFF4F36C027D0EF93D7
:101CA000FF930E94D8000E94B4020E945302FF9149
:101CB000EF91EE5DFF4F28D00E94C10525D0089519
:101CC00015D0EF93FF930E94D8000E94B4020E94A7
:101CD0005302FF91EF91E05EFF4F0081052350E03A
:101CE00000230FB601FE51E00C94E70F515403E0BE
:101CF000509FF00108950081052B008308955095B1
:101D0000008105230083089500810527008308953D
:101D1000CF93DF934AD1CC2019F4652F552703C008
:101D20005F93652F5F9111241092820050FF01C0D4
:101D300009C0009180000168259A10928900609383
:101D4000880008C0009180000162269A10928B00E2
:101D500060938A000093800009E0009381000C9456
:101D6000E40FCF93DF9321D1752F0E945302CC2033
:101D700021F4672F752F552704C07F93652F752F8A
:101D80005F9111241092820050FF01C009C00091A0
:101D900080000368259A709389006093880008C0CA
:101DA000009180000362269A70938B0060938A00F2
:101DB0000093800009E0009381000C94E40F002759
:101DC0000093810000938000009382000895F2D078
:101DD000509F11200AB507FD11F4502DF8C00FE0F7
:101DE0000093710A08CB5F93E0D055230AB407FC37
:101DF000C1F0052F0E945302652F772759E0661F17
:101E00005A9541F0771F701B18F4700F8894F7CF24
:101E10000894F5CF5F915F3011F4562F01C0572F12
:101E2000D6C001E10093710AE6CAC4D0500F0AB5CA
:101E300007FD08F0CCC00FE00093710ADCCABAD0ED
:101E4000501B0AB507FD08F0C2C000E10093710AFB
:101E5000D2CAB0D050170FB701FF10C011C0AAD01E
:101E600050170FB701FF0CC009C05F93A3D06F914B
:101E70006C3111F4501701C0051710F0552750FDB3
:101E800051E0A5C00E94520F662319F056956A953D
:101E9000E9F79DC00E94520F662319F0550F6A950D
:101EA000E9F795C08CD00E945302222311F461E01F
:101EB00008950E944C04652F0E94530208957AD021
:101EC000502385C077D0502B82C074D050277FC05C
:101ED0006CD050957CC069D0519579C066D0529530
:101EE00076C063D052955F7072C004EB5091750A52
:101EF000579508F450275093750A0E9441020E949A
:101F0000D800089552D05F7062C04FD000E8551FCE
:101F10000795E8F7502F5BC0E89401C06894EF93F1
:101F2000FF9311240E94DF0F41F40090740A0020F7
:101F300009F42ACAE1EDF9E007C000E220170AF02F
:101F40001ECA022EE1EFF9E026F00DD0C21A2C2DA8
:101F500005C019D0572F0E944102562F0E944102FE
:101F6000FF91EF91089550E07CE8029168E0302FF6
:101F7000352756950695369508F457276A95B9F78B
:101F80000A9499F708957FEF6FEF08E0202E5291A1
:101F90007527660F771F20F400E1702701E26027A4
:101FA0002A94B9F70A9489F708950E94D8000E94EC
:101FB00053020895FADF052F0E9453020895222745
:101FC0000E94D80022230895DF91CF9108950E94A6
:101FD00041020895CF920E94D80055270F910C1905
:101FE00011F00E945302EBDA00E000937B000091B5
:101FF0007C00007C60917B006F7D60937B0055FFCF
:1020000004C060917B00606260937B005F73052B6E
:1020100000937C00583052F457700E94B7020E941F
:10202000530200917E00502B50937E005527662767
:1020300070E1F89406ED00937A0000917A0004FFB5
:10204000FBCF8091780090917900580F691F7A95A5
:1020500089F7789476E0669557957A95E1F70E942E
:102060004102BBDA089555270E9441029EDF0E947B
:102070005604A5DA00917C000F7350FD006050FFFC
:10208000006C00937C000E94B405089552E00E9409
:1020900041028BDF553008F09AC90AB5087F052B3D
:1020A0000ABD08958CDA0DD0552700B605FC51E025
:1020B00000B7006800BF91DA0E9441020E94D80078
:1020C000089500E000937A0000E100937A005091B7
:1020D0007B005F7B50937B0000B70870006500BFFA
:1020E0005AB552FF02C054E011C050917B005064B9
:1020F00050937B005AB5537000917C00007C052BF7
:1021000000937C000E94B702CA942A9550937F00E6
:102110000E94AD050895F39A189555270E94410233
:1021200044DF0E944C040091760A087F502B5093A4
:10213000760A00916400077F0093640000916F00AD
:102140000D7F00936F0006BB009382000093800018
:1021500000938100089551E00E94410226DF0E9411
:1021600056040091760A0F7750FF01C00068009373
:10217000760A0895CF93DF936FEF552766BB509390
:1021800080005093810050938200509385005093BB
:1021900084005698009172000F9300E00093720043
:1021A0000091760A702F70788894771F771F766079
:1021B0000770EEEDF0E1E00FF51F09941FC006C0B7
:1021C00005C004C008C007C006C00CC0033008F03A
:1021D00005E0002E09C06AE00350033008F005E076
:1021E000069F02C004E6002E5093850050938400A1
:1021F000709381000E94C1050A94E1F70F9100934A
:102200007200509184006091850000270093810046
:10221000B09906C0C0EBD9E06883DF91CF91D7CEEB
:10222000DF91CF910EE00093710AE5D8BEDE352F25
:1022300088940AD00895B9DE352F089405D0089502
:102240000E945711532FC3CE63D0F59807B10F7377
:1022500007B95AD079E0F59923C0379BFCCF3E9857
:10226000469A10F03E9A4698F5991AC03F9A4798B8
:102270000E94B4053F98479A0E94B4053799F4CF5D
:1022800018F03E98469A02C046983E9AF59908C0C2
:10229000379BFCCF3E98469A331F7A95E1F604C0EF
:1022A000E2E6FFE30E94BA0171D92AD0089530D046
:1022B00007B10F7307B928D079E0F59919C037999C
:1022C000FCCF8894369B08C0089447983F9AF599AC
:1022D0000FC03699FCCF06C047983F9AF59908C0C1
:1022E000369BFCCF3F98479A331F7A9531F705C04C
:1022F000E2E6FFE30E94BA015FEF48D901D00895FA
:102300003F983E98479A089506B1006C06B9089523
:10231000F59808E10093600005E400936000A8953B
:10232000089543DE952F0E945302852F15DC2898CF
:1023300053E021DC0E94501224DC289A48CE35DE7E
:10234000952F0E945302852F07DC289856E013DC56
:10235000289A52E010DC0E9450120E9453020BDCBB
:10236000289A0E94B40555E006DC0BDC289A552318
:10237000C1F7089555270E9441020E94D80080911C
:102380007E0A90917F0AE0DF8F5F9F4F90937F0AD4
:1023900080937E0A0895002400927F0A00927E0AAC
:1023A000089551E00E94410200DE552319F0509338
:1023B0007C0A08950CC8F9DD552359F1952F88271B
:1023C0000E9453020C01952FC7DB0E94B405289888
:1023D00053E0D1DB0E945012C00120907C0AD1DB77
:1023E0000E94FD080E94C002019779F02A9429F406
:1023F0000E94970120907C0A03C04CE20E9443197E
:10240000B0FFEDCF0E947E05BE7F289A0E94970103
:1024100008950C94DD0955270E944102C6DD5093B2
:102420007D0A089555270E94410251E00E94410211
:10243000BCDD552311F40C94DD0904E0059F0E94D6
:102440005302952F882788DB289856E094DB289A3A
:1024500052E091DB0E94501250917D0A70E48BDBB8
:102460007A95E9F7289A0E94A60555E084DB89DB76
:10247000289A5523C1F7805C9F4FCF93DF93E001EB
:1024800021970E01DF91CF9101F708957E7F8DDDB9
:102490000E945104ECE8F4E293D908950C94D30916
:1024A000592F69DB582F67DB089555270E94410299
:1024B0007CDD5523C9F05A3010F00C94E709A8953B
:1024C00004B7077F04BF052F5770000F000F00727D
:1024D0000064502BF89408E1009360005093600072
:1024E0000EB307700EBB13C06AD860917B006F7B80
:1024F00060937B005AB551FD06C000E100937A005D
:1025000000E400937B0060B7606160BF66D8789498
:10251000889500005EB3507C21F0F799F798F69902
:10252000F6980091C80007FD0895F59B02C0F59844
:102530000895F39BECCFF3980895CF93DF9355273D
:102540000E94410232DD0E94560450FD04C057D063
:102550005D98559807C070D000270093AF0A559A30
:102560005D9827D031CD7F937FB77F936F935F9333
:10257000EF93FF93FFE6E091AF0A5091AC0A6091B0
:10258000AD0A7091AE0AE50EF61EE71F5491E09376
:10259000AF0A50FF03C000005D9A03C05D980000C1
:1025A0000000FF91EF915F916F917F917FBF7F91CD
:1025B00018951124009165000F7E0093650019BAEB
:1025C0001092BE001092C0001092C1001092CF0075
:1025D0001092D0001092C2001092C3001092C4005A
:1025E00004E80093D10000E00093C00001E00093F4
:1025F000C1000091720000640093720008951124DC
:1026000019BA1092C0001092C1001092BE00109230
:10261000D0001092CF001092C2001092C30010920E
:10262000C400009172000F7B00937200009165005E
:102630000061009365000895CEEAD9E00E949405F8
:1026400000EF102E088001200294002029F089E973
:1026500099E909EA3CD0F9CF0990129401200020B1
:1026600029F08CE59FE80AE232D0F9CF0880129475
:1026700001200294002029F089E891E404E027D0A9
:10268000F9CF099012940120002029F084EF9CE6F4
:1026900000E01DD0F9CF08801294012002940020A0
:1026A00029F085EE9AE000E012D0F9CF088012946C
:1026B0000120002029F086E191E000E008D0C9F770
:1026C0005093AC0A6093AD0A7093AE0A0895581FF8
:1026D000691F701F0A9408950F93CF93DF93EF93B0
:1026E000FF93FFB7FF93992011F09A9416C0F091D1
:1026F000780AE091790AD0917A0AC0917B0ACF5F7B
:10270000DF4FEF4FFF4FE093790AF093780AC093C1
:102710007B0AD0937A0A9090770AE091840AF0912C
:10272000850A0F93E03000E0F0070F9149F03197F0
:10273000F093850AE093840A0BB500640BBD03C0D7
:102740000BB50F7B0BBDF79AFF91FFBFFF91EF9188
:10275000DF91CF910F9118950E94D8000E945302EB
:102760000E945104552311F450E005C0513011F47A
:102770005AE001C054E65093770A952E0895CF93FE
:10278000DF93C8E7DAE000270993099309930883E8
:102790001BCC4F93CF93DF93EF93FF93C8E7DAE01F
:1027A000A0FD04C05B810E9441020CC0F091780A38
:1027B000E091790AD0917A0AC0917B0A0E94270998
:1027C0000E949701FF91EF91DF91CF914F91089572
:1027D0007B7A7978EADB0E945104E0EDF7E20E940F
:1027E000E00B0895CF93DF93C8E7DAE00027099361
:1027F000099309930883009164000F7D009364009E
:10280000002705BB06BD04BD07BD05BD009508BD7D
:102810000CE707BD02E004BD03E005BD00916E00BA
:10282000026000936E00D0CBCF93DF930E949C1484
:102830007091800A6091820A5091830A772311F483
:10284000662707C00BB505FF0C943214563008F00C
:1028500063950BB507FF6F77562F0E944102DF91FA
:10286000CF91089567FB6F770AE0609F0027050E00
:10287000101EE001772769E00E9493096E5F7F4F89
:10288000332742E30E94A70926F0605E7F4F0C9435
:102890004C14605270406195562F0E944102DF91A6
:1028A000CF9108950C94D309CF93DF930E949C1489
:1028B0005091800A0E944102DF91CF9108955527DF
:1028C0000BB506FD51E083CB55276AB565FD51E098
:1028D0000E9441026ADB0E9441020E94560450FF9E
:1028E0000C9476140BB500620BBD08950BB50F7DEB
:1028F0000BBD089555276AB567FD51E00E9441025E
:1029000054DB0E9441020E94560450FF0C948C1428
:102910000BB500680BBD08950BB50F770BBD08957F
:1029200050E805C051E803C052E801C053E80E94D6
:1029300041020E94D80008950BB506FD08957091DC
:10294000860A772319F403E00093860AE89400913D
:102950009100077069F0009191000F930091710050
:102960000F93009192000F93009190000F93689441
:1029700000E0009391007CD003E0229A2A980E9404
:10298000B4050A95E1F7C0E8DAE00024009295006A
:10299000009294008AE095E0552766272A9A2298AB
:1029A00002E00093910088950000F59B13C080D051
:1029B00000240092810A0092800A0091860A0A95FA
:1029C0000093860A0FB701FF0895E2E6FFE30E9435
:1029D000BA0108951A9B05C00092950000929400D8
:1029E000E2CF70919400763418F400C0889401C04E
:1029F00008943A95551F8A95B1F69A9521F0599306
:102A0000650F88E0D0CF54D0561751F000240092C3
:102A1000810A0092800AE8E7FFE30E94BA01089564
:102A2000C1E8DAE09091800A8091810A0E9429151C
:102A3000C3E8DAE09091820A8091830A0E94291506
:102A4000089500916E00026000936E00F5980C945A
:102A5000FB0997FB9F770E94C808052F0F7008831A
:102A60002197507F52950E940A0957F9588308957B
:102A700008E10093600000E400936000A895F598D9
:102A800001E00BBB01E00093680004E000936B00E1
:102A900000916E000D7F00936E0000916500077F2E
:102AA000009365000091C9000F770093C900089555
:102AB0000E94C60A2EF000E0009391000C946C1561
:102AC0000F91009390000F91009392000F9100934B
:102AD00071000F9100939100C0EDD7E0D093850A6B
:102AE000C093840A00916E00026000936E0000E0C3
:102AF0000093680000E000936B0001E00BBB0895B9
:102B00002BD8249A2C9851E00E9441020E94410245
:102B10000E94410254DA01F1213019F02330E1F032
:102B200013C20E945302552391F0533009F00AC298
:102B3000ECE8FBE255912590222021F150621BD850
:102B4000559119D82A94E1F7289A3196F3CF50E29B
:102B500012D858E0DDD1D8C156E20DD80E945302F8
:102B6000529556955660D4D155E205D80E9453022D
:102B70005F77CED150E20E94BB0D0E9453025A955E
:102B80005A60C6D155270E944102AEC1000108001B
:102B900001013F00020103000301030004010300DF
:102BA0000501020006010E00070170000A05E7E7B3
:102BB000E7E7E7000B05C2C2C2C2C2000C01C300B6
:102BC0000D01C4000E01C5000F01C6001005E7E7A6
:102BD000E7E7E70011010000120100001301000007
:102BE0001401000015010000160100001C01000086
:102BF0001D01000000000E94A50D0E94C10D289A31
:102C000056FD02C05FEFE3C95E705695752F539570
:102C1000506182D1252E1124CF93DF93C1EDD9E0ED
:102C20001092730A5093740A2C9851E60E94BB0DBF
:102C30000E94C10D5A932A94D9F7289A0E94C10D77
:102C4000289A652F5E705E3031F4607457E20E94FE
:102C5000BB0D562F5DD1DF91CF91572FB8C90E9480
:102C6000A50DCF92CF92ABD90E94C10D289A54FFE7
:102C700005C057E20E94BB0D50E14AD12C98222397
:102C8000A1F0222E11240F90EF93FF93E1EFF9E0D2
:102C9000E019F10950EA0E94BB0D52910E94BB0D50
:102CA0002A94D9F7289AFF91EF912C9A0E94A605B1
:102CB0000E94A6052C985FE00E94B4055A95E1F7A2
:102CC0000E94C10D289A54FF02C053E004C057E18E
:102CD00023D150735295CF907AC90E94A50DEF93DE
:102CE000FF93CF93DF936BD909F42EC1622F6A95BE
:102CF000C1EFD9E03A911124E2E5FDE2032E000C88
:102D0000E00DF11D05901490002009F41BC153E063
:102D100003D15E5F752F011409F4702D1616C2F0F1
:102D20006015B2F06717A1F450E3373019F0532F54
:102D3000565F50620E94BB0D0E9453020E94BB0D61
:102D40006A95D1F7289ADF91CF91FF91EF91DCC07E
:102D5000FBC00305030501010101010101010000A0
:102D600003050E94A50D2BD909F4CEC0223029F00D
:102D7000D9D053955061D0D02AC9DAD0752FD2D08E
:102D8000352F252E239466270894661F2A94E9F789
:102D900052E0C2D0772311F0652B03C060956F73AA
:102DA000652352E20E94BB0D562FB2D0532F53958C
:102DB00050630E94BB0D572FABD0A6C0C3C00E946A
:102DC000A50D55270E944102F0D802E005176AF0D0
:102DD00051FD02C050FF07C02C9A51FF95C00E94C0
:102DE000A6050E94A6052C988FC0ACC00E94A50D18
:102DF000E6D821F455E00E94BB0D86C00E94530224
:102E000057FDA0C05F9355E20E94BB0D5F9180D03B
:102E10007BC00E94A50DD3D829F456E07DD0567012
:102E20005695D5C80E9453020E945104550F652F34
:102E300056E072D0597F652B56E20E94BB0D562F8B
:102E400067D062C00E94A50DBAD839F456E064D0AC
:102E50005870569556955695BAC80E9453020E94CE
:102E60005604550F550F550F652F56E055D0577F17
:102E7000652B56E20E94BB0D562F4AD045C00E94DA
:102E8000A50D9DD811F40C94F1090E945302652FF1
:102E90000E9453020DE1051732F050620E94BB0DF3
:102EA000562F36D0089501E00093710A0C94FB0967
:102EB0000E94A50D57E10E94410277D80DE15017FD
:102EC0000AF03CC00E94BB0D1FC00E94A50D5527F3
:102ED0000E9441026AD8752F552331F451EE18D063
:102EE00052EE16D073E003C050EE572B11D057E0CE
:102EF00013D0652F57E20E94BB0D70FD606371FD1A
:102F00006064562F05D000C00E94C10D289A5FC88A
:102F10000E94BB0D289A08950E94BB0D0E94C10D0E
:102F2000289A08950E94530205E005175AF0089563
:102F30000E94530200E205172AF008950C94D30969
:102F40000C94D8090C94E7090C94F1090FB70F936E
:102F5000F8942D9A259A0E94B4052D9802E30E94B8
:102F6000A6050A95E1F72D9A259806E00E94A60588
:102F70000A95E1F751E003B105FD55270E94410292
:102F800002E30E94A6050A95E1F70F910FBF0E9488
:102F9000D800089514D811F40C94F1090FB70F93C9
:102FA000F894EF93FF931124E1EFF9E0C21A58E08F
:102FB000252E5291579510F450D001C05AD00E943E
:102FC0009F052A94B9F70E9445182A9581F7FF9129
:102FD000EF910F910FBF08950FB70F93F8940E94D0
:102FE000DF0F21F41AD00E94410214C0CF93DF9367
:102FF00011240E945302752FC1EDD9E01092730A7B
:103000005093740A0AD05A930E9445187A95D1F7C2
:10301000DF91CF910F910FBF089508E0202E09D0C6
:10302000889400FD089457950E949F052A94B9F74B
:1030300008952D98259A0E949F052D9A25980E9403
:103040009F050FEF33B135FF00270F930AE00E9471
:103050009F050A95E1F70F9108952D98259A0E94F2
:10306000A6052D9A259806E00E94A6050A95E1F787
:103070000895259A2D9807E00E94A6050A95E1F784
:103080002D9A25980E949F0508950E949F050E94F1
:103090009F050E949F05089555270E9441020E94A6
:1030A000D50F0E945604E8E0FBE30E94BE0150FFEA
:1030B00006C0E0E1FBE30BB508600BBD05C0E6E12F
:1030C000FBE30BB5077F0BBD0E94BE010895E4E74B
:1030D000FBE30E94BE019DD000E1202EE0E0F0E085
:1030E0008BD07FD00F93E03001E0F0070F9149F0D3
:1030F0000E945419B0FD21C00E94C10500E1202E9C
:10310000EFCFBE7F8DC0E4E7FBE30E94BE0181D01C
:1031100000E1202EE0E0F1E06FD063D00F93E030CB
:103120000BE0F0070F9149F00E945419B0FD05C063
:103130000E94C10500E1202EEFCFBE7F0E94EB056B
:10314000EEE8FBE30E94BE018091700A0E948D01AF
:1031500080916F0A0E948D010E94970161C0E4E690
:10316000FBE30E94BE0155D000E1202EE0E0F0E03C
:1031700043D0F2BDE1BDF89A80B50E948D0140E2D6
:103180000E944319EF5FFF4F2A9499F70E9497011D
:103190000F93E03004E0F0070F9151F00E945419B2
:1031A000B0FD06C029D00E94C10500E1202EE1CF6C
:1031B000BE7F36C00E94EB05E0E5FBE30E94BE0146
:1031C00000E1202EE7E9F9E00F93E13B09E0F00789
:1031D0000F9128F411D005D000E1202EF5CF20D09A
:1031E000089581910E948D0140E20E9443192A9422
:1031F000C1F70E94970108958F2F0E948D018E2F95
:103200000E948D014AE30E94431940E20E94431943
:103210000895ECE1FBE30E94BE010E94EB050895D6
:103220000E94EB050E94970108950E94D50F852FFB
:103230000E945302952F0E9453025F930E945302F3
:103240005F930E945302052FFF91EF910E94E705C3
:103250000895889500000091C80007FFFACF5091AB
:10326000CE00533009F4B1600C94E70F03B701604E
:1032700003BF7894889500000091C80007FFF9CF3C
:103280003091CE0008950090C80005FEFCCF0E944A
:103290005419B1FF0C9451190090C80007FEFCCFDF
:1032A000BD7F4093CE0008950090C80007FE0C94A7
:1032B00062190091CE00033111F4B2600895033019
:1032C00009F4B1600895009165000E7F00936500D8
:1032D00000E00093CD000CE00093CC0008E90093DF
:1032E000C900089540D0EF93FF93E0E3FCE30E9410
:1032F000BE01EEE4FCE30E94BE01FF91EF918F2F2F
:103300000E948D018E2F0E948D010E9497010E94C4
:1033100097011124F8941DBA10BE1FBA10926E00C6
:1033200010926F0010927100109272001092C900FA
:103330001092BC0010927A0014B817B81AB81DB8D1
:1033400010BA15B818B81BB81EB811BA01E004BFFE
:10335000F89408E10093600009E30093600078941A
:1033600088950000FFCFE3E0F0E009E007BF04919B
:1033700006950370003019F4E0E0F8E314C0013062
:1033800019F4E0E0FCE30FC0023019F4E0E0FEE3E2
:103390000AC0033019F4E0E0FFE305C00BE000933E
:1033A000710A0C94FB09EF93FF9308E0102EEE1FB7
:1033B000FF1F05910F3F29F0003019F0FF91EF91A9
:1033C00008951A94B1F705E10093710A0C94FB0972
:1033D0004C495320DA0248454C50A60452554E2021
:1033E000F6045341564511074C4F41446007505273
:1033F00049200503505258201703505242202803F9
:10340000454D49542F04464F52206F0350544F20CE
:1034100082034E455854710346524520E9024E45F9
:1034200057203504504946206603544845206C0314
:10343000454E4420840352535420DD034346472025
:103440005B04501A1D20490350501E20350F505068
:103450001C20350F501C1E202F0F50011D202F0F38
:1034600050501D20520350500B20150F50500D206E
:103470001F0F50500A20E70E50500F20F30E4D4FF3
:103480004420F30E50500520F30E505004208603C4
:10349000505007209A03505002203D0344415441AC
:1034A000F40A524541441C0B52455354150B5050DD
:1034B000402082034C535220420F4C534C204A0F61
:1034C000505006205F0F414E44205F0F50505C204B
:1034D000620F504F5220620F50505E20650F584FC0
:1034E0005220650F434F4D20680F50500120680F48
:1034F0004E4547206B0F535741506E0F4E424820A8
:10350000710F4E424C20820F52455620850F524E6D
:103510004420750F414F5620CB03435243208C0F5C
:10352000435257208E0F44454C41BB03474F542014
:103530001D04474F532020045245542023044B457B
:1035400059202919434C4B20E60B4F534320FE0BC7
:1035500041434F20521041435320461045524120D1
:103560009907494E49548E0743415420BA075245A2
:103570004D202A045045454B420B504F4B45500BB4
:10358000454552205C0B454557206B0B5650472054
:10359000BA0B534C50205512444657209F114446B5
:1035A0005220911144464C20BA1144465820CB1168
:1035B00044464620D11144464420DB11444656205F
:1035C0000B124446492012124446412047125246EB
:1035D00049208015524641206D1652464320F6166A
:1035E00052465020091752464220B11652464520F5
:1035F000DF16524654202F1652465820FB155246CD
:1036000046206517524644202217524657203F173E
:103610005246522058174448542014144448482015
:103620005414444852205F144448552064144448BC
:1036300053207A144448492090144448442092145A
:10364000445449209414445444209614525449201C
:10365000AC1352545220BF1352545020C913525429
:103660004320EA134F574920A6174F575720CA1730
:103670004F575220EC174F444220CD0D4944422071
:10368000C70D53444220F80D43444220060E4F50CC
:103690004220140E53424220240E43424220320E56
:1036A00058424220400E504242204E0E494E422087
:1036B0001E0E49424220600E4F444320CD0D494426
:1036C0004320C70D53444320F80D43444320060EC6
:1036D0004F504320140E53424320240E43424320B4
:1036E000320E58424320400E504243204E0E494E67
:1036F00043201E0E49424320600E4F444420CD0D0E
:1037000049444420C70D53444420F80D4344442009
:10371000060E4F504420140E53424420240E4342C0
:103720004420320E58424420400E504244204E0E57
:10373000494E44201E0E49424420600E4F4445200D
:10374000CD0D49444520C70D53444520F80D434451
:103750004520060E4F504520140E53424520240E9E
:1037600043424520320E58424520400E50424520EB
:103770004E0E494E45201E0E49424520600E4F44D4
:103780004620CD0D49444620C70D53444620F80D30
:1037900043444620060E4F504620140E5342462006
:1037A000240E43424620320E58424620400E5042DC
:1037B00046204E0E494E46201E0E49424620600EBF
:1037C0004453524520114453434F1B114453444525
:1037D0001611494347208D1049434520AB104943FA
:1037E0005020BA1050574520B10E50574D20880E2A
:1037F00050574F20DF0E444453209D124144432034
:10380000EA0F41445220331053504D206A0D53505B
:103810004F207D0D53504320890D53505720FE0CEF
:1038200053505220340D535053209B0D5457492070
:103830000E0C54575320C20C54575020CC0C5457E4
:103840005720310C54575220730C54574220D50C3A
:10385000444542204C1844554D5083185644554D0C
:10386000DA184944554D67184544554DAF18464937
:103870004C4C1519575446209404424C445272192A
:103880000000F9363DFAF84174746F4241534943E0
:1038900020666F722041546D656761333255342064
:1038A0004020384D487A20FAF85665723A20322E78
:1038B0003334204275696C6420636F64653A20324A
:1038C000303137303230372E32303238FAF9363D37
:1038D0000000F8456E68616E63656D656E747320F7
:1038E0006279204B2053636F747420566974616C45
:1038F0006520286B73765F70726A40676D782E63FF
:103900006F6D29FAF841546D656761333255342083
:10391000706F7274202843293230313220FAF84D0A
:103920006567613332553420555342202620444682
:103930005520426F6F746C6F61646572FE32303176
:1039400032FAF8312D57697265285229FE3230312A
:1039500033FAF86E524632344C3031282B2920523B
:1039600046205472616E73636569766572FE32300B
:10397000313320FAF84448542048756D69646974FD
:103980007920616E642054656D7065726174757222
:1039900065FE3230313320FAF84545502046696CD7
:1039A000652053797374656DFE32303133FAF85304
:1039B0006C6565702C2052544320616E6420446114
:1039C00074612D66696C65FE3230313220FAF8542C
:1039D00057492F5350492F444453202620496E7095
:1039E00075742043617074757265FE32303131FA3E
:1039F000F9362DFAF84F726967696E616C20636F52
:103A0000646520284329323030322062792052699F
:103A100063686172642043617070656C73FAF86862
:103A20007474703A2F2F70726F6A656374732E63AB
:103A3000617070656C732E6F7267202070726F6A90
:103A4000656374734063617070656C732E6F726729
:103A500020FAF9362DFAF84C55464120426F6F7422
:103A60006C6F61646572205772697474656E206250
:103A700079204465616E2043616D657261FAF86476
:103A800065616E40666F757277616C6C65646375B5
:103A90006269636C652E636F6D202D20687474708D
:103AA0003A2F2F7777772E6C7566612D6C69622EB1
:103AB0006F7267FAF9362DFAF8416C6C20726967FB
:103AC00068747320616E642072656D6564696573E6
:103AD00020657870726573736C7920726573657296
:103AE000766564FAF84E6F7420666F7220636F6DAE
:103AF0006D65726369616C20757365FAF9363DFA1C
:103B00000000F9352DFA0000446562756720000059
:103B10006F6E20FA00006F6666FA0000F90620302A
:103B200030203031203032203033203034203035D6
:103B300020303620303720303820303920304120B6
:103B40003042203043203044203045203046FA00B7
:103B50005661726961626C657320696E2052414DD5
:103B60003AFA000045455020436F6E74656E7473D9
:103B70003AFA000050524F4752414D204D656D6F4B
:103B8000727920436F6E74656E74733AFA004E65F5
:103B9000787420617661696C61626C65206C6F631A
:103BA0006174696F6E3A2000FB3A2050726F677241
:103BB000616D20746F6F206C6172676520666F7233
:103BC000204545502120FA0045726173696E6720D7
:103BD00045455000536176696E672046696C6520E3
:103BE000232000004C6F6164696E672046696C6534
:103BF00020232000456D707479002062797465730C
:103C0000203E2000427265616BFA000020627974E8
:103C1000657320757365642E20200000206279741E
:103C2000657320667265652E20FA00000820080082
:103C3000FA4578697420796F7572207465726D69C0
:103C40006E616C2070726F6772616D2E0000FA49B0
:103C50006E766F6B696E6720626F6F746C6F6164F4
:103C600065722028696E203820736563732920618E
:103C7000742030780000F83432206973207468654D
:103C800020416E7377657220746F207468652055CB
:103C90006C74696D617465205175657374696F6EBC
:103CA00020FAF86F66204C6966652C2074686520E0
:103CB000556E6976657273652C20616E6420457659
:103CC0006572797468696E6720FAF8286874747090
:103CD0003A2F2F7777772E626574656D756E616800
:103CE0002E6F72672F666F72747974776F2E687497
:103CF0006D6C29FA0000F8536F204C6F6E672C2012
:103D0000616E64205468616E6B7320666F7220412F
:103D10006C6C207468652046697368FA000056610F
:103D20006C75652065786365656465642072616E95
:103D300067650000206E6F74200020737570706FCF
:103D400072742028432900004C696E6520232000EE
:103D50004572726F723A0000FB556E6B6E6F776E34
:103D600020636F6D6D616E64206F72206F7065727D
:103D700061746F722E00FBFC206F6620303A323582
:103D80003500FB50726F6772616D206D656D6F72EB
:103D9000792069732066756C6C00FB436861726101
:103DA00063746572FD61207265636F676E697A6521
:103DB0006420747970652E00FB427566666572201A
:103DC0006C696D69742065786365656465642E004F
:103DD000FB426164207661726961626C65206E618C
:103DE0006D652E00FB546F6F206D616E79206172DE
:103DF00067756D656E74732E2000FB56616C75657A
:103E000020776173FD617661696C61626C652E007B
:103E1000FB4D616368696E6520737461636B206537
:103E200072726F7220FAF9092046756E6374696FB9
:103E30006E7320746F6F20636F6D706C6578206F88
:103E4000722063616C6C73206E657374656420749A
:103E50006F6F20646565706C7900FB474F544F208D
:103E60006F7220474F5355422064657374696E61C9
:103E700074696F6EFD666F756E642E00FBFC206FBB
:103E80006620303A3700FB4C696E65206E756D62B6
:103E90006572203E20332064696769747300FBFCFF
:103EA000206F6620303A3100FBFC206F6620303AEC
:103EB0003300FB4943502072656769737465722053
:103EC0006F766572666C6F772E00FB41726974685D
:103ED0006D65746963206F766572666C6F772E000E
:103EE000FB41726974686D6574696320756E646501
:103EF00072666C6F772E2000FB44697669646520DA
:103F00006279207A65726F2E2000FB456D7074799E
:103F10002046696C6500FB545749FD656E61626C13
:103F200065642E00FB31343A2000FB3A204E6F20AE
:103F3000426F6F742D6C6F6164657220666F756E71
:103F4000642EFB53706563696669656420FC2E000E
:103F5000FB53657420414320526566203E20302E7D
:103F60002000FB446576696365206E6F6E2D726577
:103F700073706F6E73652E00FB4465766963652010
:103F8000636865636B73756D2E00FB53504920FDAC
:103F9000656E61626C656400FBFD612062696E6143
:103FA0007279206E756D62657200FB496E76616C88
:103FB0006964206E756D626572206F66206172673C
:0E3FC000756D656E74732E000000000018957C
:106F00000000000000000000000000000000000081
:106F10000000000000000000000000000000000071
:106F20000000000000000000000000000000000061
:106F30000000000000000000000000000000000051
:106F40000000000000000000000000000000000041
:106F50000000000000000000000000000000000031
:106F60000000000000000000000000000000000021
:106F70000000000000000000000000000000000011
:106F8000FFFFFFFFFFFFFFFFFFFFFFFFFFFFFFFF11
:106F9000FFFFFFFFFFFFFFFFFFFFFFFFFFFFFFFF01
:106FA000FFFFFFFFFFFFFFFFFFFFFFFFFFFFFFFFF1
:106FB000FFFFFFFFFFFFFFFFFFFFFFFFFFFFFFFFE1
:106FC000FFFFFFFFFFFFFFFFFFFFFFFFFFFFFFFFD1
:106FD000FFFFFFFFFFFFFFFFFFFFFFFFFFFFFFFFC1
:106FE000FFFFFFFFFFFFFFFFFFFFFFFFFFFFFFFFB1
:106FF000FFFFFFFFFFFFFFFFFFFFFFFFFFFFFFFFA1
:00000001FF
