:020000020000FC
:100000000EC072CFDDCB50CA6FCF6ECF6DCF6CCF2D
:100010006BCF6ACFEFCB29CCD6C466CF65CFA8957E
:100020000FE50DBF02E00EBF39D731D278940DD164
:10003000CC2402D059D0FACF4EE36CDBCBE1D2E036
:100040005CDB3D3019F4899888980BC0323229F472
:10005000889902C0889A01C08898333211F4889B2D
:10006000899A0F93CC3102E0D0070F9119F447E041
:1000700051DBE6CF3531D9F0383051F13F3741F11E
:100080003A30F1F23930E1F2899B38833D3009F49E
:1000900008950F93C63E01E0D0070F9119F447E091
:1000A00039DBCECF899B2197432FD4D0C9CFEF9393
:1000B000FF93EBE1F2E0EC1BFD0B2E2EE6ECFCE1F6
:1000C000E2D02A94D9F7CBE1D2E0FF91EF91B8CFFB
:1000D0000F93CB3102E0D0070F9129F033273993EA
:1000E000E6ECFCE1D0D0ACCFCBE1D2E038817ED0E1
:1000F000023009F476C4A9D0A16002C0AE7FBF7BF4
:100100008DB79EB70F938F3202E090070F9108F4DE
:1001100060C63FD05D3019F4B2FDB6D318C05B3372
:10012000B1F0032D023019F4ACD228D1E9CF7F759C
:100130006F755F75053039F0413029F4032D0330B8
:1001400011F407D1DDCF05D05D3009F00895A1602D
:100150000895E0ECF8E112D0071661F40FD006160E
:1001600051F40CD0051641F431960591F491E02F2D
:1001700009950895319631963096EDCF059000207F
:1001800039F41490112021F400E000931E0249C6B6
:10019000089570EF60EF41E0388128D0013011F40C
:1001A00018D0F7CF532F15D03D3081F03D2C38813A
:1001B0003D3061F01BD03D1429F49AD30AD0439509
:1001C0004330A9F7388112D03D1409F0089501D0C9
:1001D000F9CF0F93C53E01E0D0070F9129F404E059
:1001E00000931E021EC60895219708953F9300278D
:1001F0003D3009F41FC03F75303009F402C03C3077
:1002000011F401E018C0323011F405E014C03034AC
:1002100011F405E010C030310AF40DC03B350AF08E
:100220000AC0303412F003E006C03A3112F41AF476
:1002300002E001C004E0D02E3F91089561D58F9374
:10024000492F68DA4F9166DA08954DE063DA4AE0A3
:1002500061DA08954D3011F4F8DF08955BCA472F35
:1002600005D0462F03D0452F01D008954F93407FEE
:100270004295405D4FDA4F914F70405D4BDA0895E3
:1002800002D0E3DF08954591442309F40895483FDF
:1002900011F435D0F8CF493F21F41590459155D050
:1002A000F2CF4A3F11F4D1DFEECF4B3F41F4EF9351
:1002B000FF93ECEFFCE1E7DFFF91EF91E4CF4C3FE0
:1002C00041F4EF93FF93EAECFCE1DDDFFF91EF9166
:1002D000DACF4D3F41F4EF93FF93E0EEFCE1D3DF43
:1002E000FF91EF91D0CF4E3F41F4EF93FF93E6EEB5
:1002F000FCE1C9DFFF91EF91C6CF0CDAC4CF0F93B9
:10030000EF93FF93112445914A30A1F04D3091F0C5
:100310004A3F81F0493F71F04C3F11F404E1100E67
:100320004D3F11F405E0100E4E3F11F40CE0100E9D
:100330001394E9CF1A9446E3141A1194169440E2E8
:1003400004D0FF91EF910F910895E4D91A94E9F741
:10035000089551545D3022F005E000931E0261C5FE
:10036000A0FF19F40BD0A2600895ECEBF1E0662732
:10037000E50FF61F508102D0AD7F08950F9309E07D
:100380000C1509F41EC51F921124E9EDF1E0EC19DA
:10039000F1095083C39423951F900F910895CC20A9
:1003A00009F413C51F921124EAEDF1E0EC19F109EB
:1003B0005081CA942A951F900895EF93FF9302E00D
:1003C0000B1509F406C502E05B2DEBD4EEEDF1E070
:1003D000E019F109D293C293B394FF91EF9108957C
:1003E000EF93FF93BB2009F4F0C402E05B2DD9D456
:1003F000EEEDF1E0E019F109C191D081BA94FF91DD
:10040000EF910895EF93FF9302E00A1509F4E1C418
:1004100004E05A2DC6D4E6EEF1E0E019F10962924B
:10042000729242925292A394FF91EF910895EF93AA
:10043000FF93AA2009F4C9C404E05A2D5A95B1D4F7
:10044000E6EEF1E0E019F10962907290429052906C
:10045000FF91EF910895A3DF67D101E0552319F0D3
:10046000000F5A95E9F7502F66C7703039F0705D6C
:10047000472F50D9603011F440E34CD9603019F067
:10048000605D462F47D9505D452F44D90895E6E277
:10049000FBE1F6DE0895D9DEEBEBF1E0C0911C0242
:1004A000D0911D02EC17FD0721F04081D3DE31977A
:1004B000F9CFCBDECADE91E08BEB70911C0260912C
:1004C0001D02871B960BFDD3CADEE6EAFCE1DBDEEC
:1004D00080911C0290911D0280569040F2D3BFDEA5
:1004E000E6EBFCE1D0DE0895B0681ED705E03016DB
:1004F00041F055DF1BD4B9DF40E20CD92223C9F704
:10050000A4DEBF770895B0680FD744E203D947DF70
:10051000852F94DE40E2FED82223B9F796DEBF771E
:100520000895B06801D73BDF78E040E3551F08F439
:1005300041E3F0D87A95C9F740E2ECD8222399F745
:1005400084DEBF770895488144DE423231F04E3771
:1005500011F0E0D8F8CF79DEF6CF0895E1D6ECEBD4
:10056000F1E06627E50FF61F00830895B5FF33C657
:10057000D4D6452E14DF052F12DF552E6627ECEB5F
:10058000F1E0E50FF61F0083A062AE7FBF7D089506
:10059000C4D6552309F4A46008950F910F910895CE
:1005A000B0620895ECEBF1E0552D6627E50FF61FDC
:1005B0000081041521F003950083A0610895AA9499
:1005C00009F035DF08959ADD0895B16008959881A6
:1005D00000DE8881382F0ADE013021F0043011F06E
:1005E000F8DD02C0892F992798D3582FC7DE86DD02
:1005F0000895552708E0202E8881EBDD382FF6DDA1
:10060000302E023019F0CF5FDF4F07C08894317071
:1006100030FD0894551F2A9479F7B0DE6FDD0895F8
:100620000CE100931E02FDC3CF93DF9376D6D0E991
:10063000C9EFCA950000E9F7DA950000C9F7D2ECD6
:10064000C3E1CA950000E9F7DA950000C9F75A95A9
:1006500071F76EC6552792DE60D601E005172AF0C5
:10066000979850FF0895979A0895BBC304B7077FE2
:1006700004BF08E101BD0EE001BDF89488950000BB
:1006800008957F706F705F705ED3089546D6452FD2
:10069000EBEBF1E080911C0290911D020AC0F9176A
:1006A00011F48E17C0F400810D3011F03197F7CF9F
:1006B0003197552766277727F91711F48E1758F4C5
:1006C000308194DD023019F413D13197F5CFD9DFA1
:1006D000451729F7089509E000931E02A2C3D6DF4B
:1006E000EF010895D3DFA06C0895B3FF02C0A860A6
:1006F0000895B160089511D6452F0CD80895EBEBFD
:10070000F1E0F0931D02E0931C02CC24AA27BB2742
:100710000FB70F93F89437D13CD10F910FBF95DDF0
:10072000E8EDFAE1ADDD0895583008F4089555C3B9
:10073000543008F4089559C3523008F4089551C351
:10074000CF93DF93F1D5C0E0D0E0A9D2222319F0F6
:10075000213021F056C3502F11DE06C020DE00C02C
:10076000052FC0E0D0E0A2D2E3C55AE2E4C5CF93A2
:10077000DF9318D140E2CED7E0ECF8E1D2E3C4E059
:100780007591772309F437C065915591643521F44B
:100790005F34A1F470E220C0693421F4563471F45E
:1007A00070E21AC06F3451F4523541F47735A1F03C
:1007B000783591F0763481F070E20EC0503439F023
:1007C0005E352CF45C3514F4503334F4505E70E232
:1007D00060330AF06627605E472F9CD7462F9AD772
:1007E000452F98D740E296D73396D45042F62DDD68
:1007F00040E290D7C3CF29DDD5D09AC5BB24AA2427
:100800009898B460CBEBD1E03FD0CC24A16094D7D2
:10081000A6FF02C0D2DDAF7BA7FF03C0EF01B86027
:10082000AF77A3FF05C0DCDDBB2009F4B77FA77F4E
:10083000A5FF03C03E01E6DDAF7DA4FF02C0E301DA
:10084000AF7EB0FF06C042D0C0911C02D0911D0205
:10085000BE7F80911C0290911D028C1B9D0B78F431
:100860003881C4DCA2FF04C0043011F02197CDCF41
:10087000AB7F023011F42197C8CF42DCC6CF00E035
:1008800000931F02BB7F089500911D02D01729F429
:1008900000911C02C01709F40895CF93DF93DF92F3
:1008A0003F93662755273881A1DC023021F04BD2D7
:1008B00050931F0204C01CD05F702197F4CF9B9B04
:1008C00002C055D0C2DC3F91DF9032C5EEE9FCE1B9
:1008D000DADC089554EBE0E6F0E0019150270F9345
:1008E000EF3502E0F0070F91C1F75093220208950F
:1008F000762F652F532F089577276627552708955C
:10090000DF93D4E0DA950000E9F7DF910895DF93F3
:10091000D5E0F6DFDA95E9F7DF910895DF93DAE0C5
:10092000EFDFDA95E9F7DF910895DF93D4E6E8DFAA
:10093000DA95E9F7DF910895CF93DF93D6ECC3E121
:10094000CA950000E9F7DA950000C9F7DF91CF9169
:1009500008950F930AE0F0DF0A95E9F70F910895E3
:100960000F930AE0F6DF0A95E9F70F910895E4EF97
:10097000FCE189DCCF93DF93DD27C0911F02FFD11B
:10098000DF91CF910895E0E6F0E091E08CE500275B
:1009900005C0ECEBF1E090E08DE0002701930197BA
:1009A000E9F70895EAE3FCE16EDC089580912F02F7
:1009B00080FFFCCF89B7877E89BF0895F89489B7F7
:1009C000886189BF089508E101BD00E001BD8D9AED
:1009D000189504E000931E0224C20BE000931E024F
:1009E00020C24427E1D05430C0F780911C0290917E
:1009F0001D020F938B3B01E090070F9109F45BC040
:100A0000CBE1D2E079DF0F93C53E01E0D0070F9133
:100A100002F33881EBDB023029F4762F652F532F58
:100A20002197F1CF2EDE452EE0911C02F0911D02A0
:100A30004C7F62DF552431960F93EC3B01E0F007C9
:100A40000F9191F03081D2DB043071F0023089F7E0
:100A50005394562F672F732FEECF0F93EC3B01E08B
:100A6000F0070F9131F70895052D033029F05394C5
:100A7000562F672F70E0F8CF41FD02C04260D9CFFA
:100A800000DE4516A1F110F441603F010F93EC3BED
:100A900001E0F0070F9111F440FF0DC040FFDDCFE2
:100AA000541508F452C00F93EC3B01E0F0070F918E
:100AB00009F44BC0D2CF78D0003009F40895CBE1CF
:100AC000D2E0E0911C02F0911D020F93E03600E0AD
:100AD000F0070F9109F435C0088100833197219701
:100AE0000D3099F7F0931D02E0931C0208953197A1
:100AF000EF010F93E03600E0F0070F9109F469CFA2
:100B0000088121970D30A9F7BF016C1B7D0B8091E7
:100B10001C0290911D02860F971F90931D028093D7
:100B20001C020F93E03600E0F0070F9129F00881D6
:100B3000008321973197F5CF37D0003009F051CF9E
:100B4000089502E000931E026CC12ED0003059F1CE
:100B500000911D02003029F400911C020056081774
:100B600080F3E0911C02F0911D02DF2FCE2FC81BF5
:100B7000D040D0931D02C0931C02F71519F4E6155E
:100B800009F405C00081088321963196F6CFCBE1A8
:100B9000D2E0F72DE62D3197088100830D3019F052
:100BA00031972197F9CF0895CBE1D2E055278827D7
:100BB00099274B7F3881219783953D3041F016DB93
:100BC000023039F044600130A9F39395F3CF092F37
:100BD000089542FF5395EECFCBE1D2E0E03609F025
:100BE000B0CF08810083319721970D30B9F7F0938A
:100BF0001D02E0931C020895CBEBD1E0E0911C02B2
:100C0000F0911D02CE1BDF0BEFEDF1E0EC17FD07BD
:100C100024F4E4E5FCE134DB0895ECE7FCE130DBAF
:100C2000CC24EBEBF1E0CFEFD1E060911C027091AE
:100C30001D02969800813AD00F93E03600E0F0074D
:100C40000F9161F0E617F70749F021970F93C03035
:100C500000E0D0070F9111F03197ECCF002726D09C
:100C600008954DDDECE8FCE10BDBECEBF1E0CFEFC0
:100C7000D1E015D00F3F19F4002718D0BEC00FD017
:100C80000293002311F02197D1F73197CC24F093F0
:100C90001D02E0931C02B2FF0DDC0895B2C0E19981
:100CA000FECFDFBBCEBBE09A0DB30895E199FECF36
:100CB000DFBBCEBB44E0969944E10DBB4CBBE19A4F
:100CC00008950C01889400E117DE001C111C551FCB
:100CD000661F771F0A9509F40895352F08D0532F02
:100CE000362F05D0632F372F02D0732FEECF432F2F
:100CF0004D5F43FD342F432F405D47FD342F089552
:100D0000982F92959F70905D9A3308F0995F8F703D
:100D1000805D8A3308F0895F089596FD975F9F7024
:100D200086FD875F8F709295892B089577276627B8
:100D3000545610F07395FCCF5C595A5010F06395DF
:100D4000FCCF565F08957330B2F4723032F06630E3
:100D500092F4653012F0563072F4662321F00AE006
:100D6000500F6A9581F7772309F4089504E6889473
:100D7000500F7A95C0F701E000931E0252C04FE277
:100D80004395C456D040E0F7CC59DF4FC3D44FE26F
:100D90004395CA50E8F7C65FBDD44C2F405DBAD426
:100DA00008957FB77F93F894052E112458E0069498
:100DB00008F4100E179407945A95D1F70F910FBFAE
:100DC000089506E000931E022CC007E000931E0267
:100DD00028C008E000931E0224C00AE000931E020F
:100DE00020C00CE000931E021CC00DE000931E0208
:100DF00018C001E100931E0214C002E100931E021C
:100E000010C006E100931E020CC00BE100931E020D
:100E100008C00DE100931E0204C00EE100931E0203
:100E200000C013DA112400901E02D02C000CECE557
:100E3000FEE0E00DF11D0591F491E02FEE1FFF1F84
:100E400022DA03DA94DD0FE50DBF02E00EBFAA2718
:100E5000BB2700E000931F02F8D9E8C8820E8A0E73
:100E6000900E9C0EAB0EB70EC10ECC0ED70EF30E2D
:100E7000FF0E040F100F150F1A0F1B0F230F2C0F4F
:100E8000350F3B0F3C0F3D0F3E0F450F4E0F550FDB
:100E90005E0F5F0F5F0F680F720F730FF8940024DF
:100EA00011242FD03DD00FEF00BD9898C0E0D0E0C6
:100EB000F6DE302F00FF01C0989A02E007BB00E089
:100EC00008BB112414BE11BA12BA03B3017003BBDC
:100ED00010921F02FFDC56D4789400E205BF00E9AF
:100EE00007B900E003B907ED06B9989B08C0B9DE61
:100EF00085DCABD9AAD9E8EDFAE1C2D90895FFDBC8
:100F000008950FB70F93A89504B7077F04BFF8940F
:100F100001B5086101BD007001BD0F910FBF0895BB
:100F200050E860E056BD66BD089500B50E7F00BD77
:100F300007ED06B906B104FFFDCFF0DC089500B55A
:100F4000016000BDEBDC0895EFD1B1F0CF93DF93EA
:100F500009E0C01678F411240C2CC0922102C1EDD6
:100F6000D1E0C019D1091BDA59930A94E1F7DF9156
:100F7000CF9107C003D025CF01D027CF00E0009349
:100F8000210200E00093200250912102D4C1CF93AE
:100F9000DF93CAD111247091210260912002C0ED2B
:100FA000D1E0222359F0A1FF03C00C2D0A9531F0A6
:100FB000F6D97A95751762F0652F02C0761741F061
:100FC000C61BD1095881DAD9639560932002B0C15C
:100FD000FCCECF93DF93959891D801E03AD0588119
:100FE000DF91CF91A8C1CF93DF93959A87D802E084
:100FF00030D058839DC1CF93DF9395987FD801E07F
:1010000028D04DDE502FDF91CF9195C1CF93DF9344
:101010009698959A73D802E01CD0052F0F93C03094
:1010200002E0D0070F9111F041DE12C0E0E7FCE1D1
:101030002AD95527969A219739DE5A9511F44EE20E
:1010400069D30F93C03000E0D0070F91A1F7FDD80E
:101050006FC10C1969F0A3D95F93A1D9959B05C005
:101060005F939DD9DF91CF910895D52FCF910895AA
:1010700096D9959B05C0052F92D9C02FDD270895DD
:10108000C52FDD270895CF93DF9350E077D945D161
:10109000CC2039F058300AF0C0CE60E866BD56BDAD
:1010A00002C056B56BD944C1CF93DF9351B766D90F
:1010B00034D151BF51B7DF91CF913DC156B33BC140
:1010C0002CD158BB089557B336C127D157BB0895CB
:1010D00023D0E7E3F0E024C01FD0E7E3F0E024C032
:1010E0001BD0E8E3F0E01CC017D0E8E3F0E01CC040
:1010F00013D0E8E3F0E00081052350E0002309F479
:1011000051E019C109D0E8E3F0E013C005D0E8E3ED
:10111000F0E00FD01EDC0DC0F1D79DD940D9089565
:101120000081052B008308955095008105230083DD
:1011300008950081052700830895CF93DF93EDD0B4
:10114000BC9A00E00EBD0FEF0DBD5BBD00E60CBD0F
:1011500001E000BFEDC0002700BF0895E1D021DE0F
:101160001120979911F4502DE6C00FE000931E0254
:1011700058CE5F93D2D055239799B9F0052F0FD948
:10118000652F772759E0661F5A9541F0771F701B2E
:1011900018F4700F8894F7CF0894F5CF5F915F3003
:1011A00011F4562F01C0572FC6C001E100931E0253
:1011B00038CEB6D0500F979908F0BDC00FE000931D
:1011C0001E022FCEADD0501B979908F0B4C000E19D
:1011D00000931E0226CEA4D050170FB701FF10C0F7
:1011E00011C09ED050170FB701FF0CC009C05F930C
:1011F00097D06F916C3111F4501701C0051710F0A2
:10120000552750FD51E097C00DD0662319F0569533
:101210006A95E9F790C006D0662319F0550F6A95D4
:10122000E9F789C081D0BBD8222311F461E0089589
:101230007BDA652FB4D8089573D050237CC070D06A
:10124000502B79C06DD0502776C067D0509573C0B1
:1012500064D0519570C061D052956DC05ED05295EA
:101260005F7069C004EB50912202579508F4502733
:101270005093220283D842D708954FD05F705BC04D
:101280004CD000E8551F0795E8F7502F54C0E8945C
:1012900001C06894EF93FF93112446D041F400906D
:1012A0002102002009F491CDE1EDF1E007C009E051
:1012B00020170AF086CD022EEAEDF1E026F00BD0E1
:1012C000C21A2C2D04C017D0572F58D8562F56D8D5
:1012D000FF91EF91089550E07CE8029168E0302F93
:1012E000352756950695369508F457276A95B9F728
:1012F0000A9499F708957FEF6FEF08E0202E52913E
:101300007527660F771F20F400E1702701E2602740
:101310002A94B9F70A9489F70895F0D640D8089529
:10132000FCDF052F3CD808952227E8D62223089514
:10133000DF91CF91089522D80895CF92DFD6552717
:101340000F910C1909F02BD8F0DD00E003B907B1BB
:10135000007F5F70052B07B9583032F457707DD885
:101360001ED804B3502B54BB5527662770E1F89460
:1013700007ED06B906B104FFFDCF84B195B1580F52
:10138000691F7A95A9F7789476E0669557957A95CE
:10139000E1F7F4D7D4DD08955527F0D7BEDFCCD9D7
:1013A000C4DD07B10F7250FD006450FF006907B93A
:1013B000C3DA089552E0E2D7B0DF553008F021CD0E
:1013C00002B3087F052B02BB0895AFDD08D0552777
:1013D000459951E0479AB3DDD1D790D6089500E002
:1013E00006B900E106B91E9808B10870006508B991
:1013F000929B02C050E10AC01E9A52B3537007B1CB
:10140000007F052B07B929D8CA942A9554BB8DDAD9
:1014100008958B9A18955527B1D77FDF5523B1F0E2
:101420005A3008F0EECCA89504B7077F04BF052F0B
:101430005770000F000F00720064502BF89408E101
:1014400001BD51BD01B3077001BB0AC06EDD1E981E
:10145000919904C000E106B900E403B9449A6FDD34
:1014600078948895000051B3507C11F08E998E9835
:101470008D9B02C08D9808958B9BF2CF8B98089519
:10148000CF93DF9355277AD748DF56D950FD04C054
:1014900044D0C298BA9807C04DD0002700932902C3
:1014A000BA9AC29827D044CF7F937FB77F936F9328
:1014B0005F93EF93FF93FFE1E091290250912602A1
:1014C0006091270270912802E50EF61EE71F5491E5
:1014D000E093290250FF03C00000C29A03C0C298E3
:1014E00000000000FF91EF915F916F917F917FBFAE
:1014F0007F911895112400B5077F00BD18BE1FBC51
:1015000010BE1DBC1EBC1BBC04E80EBD0DBD09B742
:10151000006409BF01E800BF0895112418BE10BE81
:101520001FBC1BBC1EBC09B70F7B09BF00B5086000
:1015300000BD0895C6ECD1E0DFD900EF102E088081
:1015400001200294002029F08CEC9CEC04ED3CD0AE
:10155000F9CF099012940120002029F08EEA97E437
:1015600005E132D0F9CF08801294012002940020C6
:1015700029F084EC90E202E027D0F9CF0990129490
:101580000120002029F08AE796E300E01DD0F9CF82
:101590000880129401200294002029F082E795E04F
:1015A00000E012D0F9CF088012940120002029F029
:1015B0008BE890E000E008D0C9F7509326026093D2
:1015C0002702709328020895581F691F701F0A94FC
:1015D00008950FB70F93F894C39ABB9AADD9C398E7
:1015E00002E39CD90A95E9F7C39ABB9806E096D91D
:1015F0000A95E9F751E006B303FD5527BFD602E38C
:101600008DD90A95E9F70F910FBF78D508958CDE33
:1016100009F4FFCB0FB70F93F894EF93FF931124C6
:10162000EAEDF1E0C21A58E0252E5291579510F4D8
:1016300046D001C04ED06BD92A94C1F754D02A9518
:1016400091F7FF91EF910F910FBF08950FB70F938F
:10165000F8946ADE19F417D091D612C0CF93DF93B5
:1016600011249DD6752FC1EDD1E010922002509328
:10167000210209D05A9337D07A95D9F7DF91CF91CB
:101680000F910FBF089508E0202E08D0889400FD28
:10169000089457953CD92A94C1F70895C398BB9AEA
:1016A00036D9C39ABB9833D90FEF36B333FF00272F
:1016B0000F930AE02CD90A95E9F70F910895C39882
:1016C000BB9A2CD9C39ABB9806E028D90A95E9F7AA
:1016D0000895BB9AC39807E021D90A95E9F7C39A00
:1016E000BB9815D9089513D912D911D9089505D0E9
:1016F000532F533009F4B1601ECE30912F0232FDCA
:1017000003C088950000F9CF3B7F30932F023091C2
:101710002C02089511D04F93B1FF07C088950000A7
:1017200040912F0242FFFACFBD7F13D044E3F6D899
:101730004A95E9F74F91089580912F0282FF08950D
:10174000DCDF333111F4B2600895333009F4B16055
:10175000089580912F0280FFFCCF8E7F80932F020F
:1017600040932A0200E000932B02F894C19882B7BC
:101770008C5C88BD88B7886088BF89B7886089BF5E
:10178000789408958F9380B58B7F80BDA89A8AB78F
:1017900080628ABF8BB780628BBF89B78F7E89BF1B
:1017A000B89889B7877F89BFB99AC19A01E0009339
:1017B0002F0200E00ABD02E003BF8F9178940895E4
:1017C000B09918950F930FB70F9302B70F5B09BD30
:1017D00008B7006108BF09B7006109BF0BB70F7DEB
:1017E0000BBF002700932D0200932E020F910FBF15
:1017F0000F9118952F932FB72F933F938F939F930C
:1018000089B58C5C89BDB09B0EC020912D023091B2
:101810002E0281E0992702C0880F991F3A95E2F7BE
:10182000282B20932D0280912E02839580932E02E7
:1018300080912E02893091F480912D0280932C02A8
:1018400080912F02846080932F0289B78F7E89BF99
:101850008AB780628ABF8BB780628BBF9F918F915E
:101860003F912F912FBF2F9118958F938FB78F9303
:1018700088B58C5C88BD80912B02883068F480919B
:101880002A0280FF02C0C19A01C0C19880912A0239
:10189000869580932A0201C0C19A80912B0283957C
:1018A00080932B0280912B028A3030F003E000936A
:1018B0002F0289B7877F89BF8F912FBF8F9118958E
:1018C0004C4953204B0248454C50B70352554E20CB
:1018D000FE0353415645FC054C4F414431065052DE
:1018E00049207402505258208302505242209102E3
:1018F000454D49547B03464F5220D00250544F204F
:10190000E3024E455854D202465245205A024E45F3
:1019100057207F0350494620C80254484520CD0235
:10192000454E4420E5025253542036034346472097
:10193000A003501A1D20AE0250501E20F708505030
:101940001C20F708501C1E20F10850011D20F10832
:1019500050501D20B60250500B20D90850500D2079
:10196000E20850500A20AE0850500F20B9084D4FE1
:101970004420B90850500520B90850500420E7020F
:1019800050500720F90250500220A3024441544114
:10199000A40752454144C70752455354C1074C530D
:1019A000522004094C534C200B09505006201C09AE
:1019B000414E44201C0950505C201F09504F5220BA
:1019C0001F0950505E202209584F52202209434FD0
:1019D0004D2025095050012025094E454720280952
:1019E000535741502B094E4248202E094E424C205D
:1019F0003D09524556204009524E44203209414F7C
:101A000056202A034352432047094352572049098D
:101A100044454C411403474F54206F03474F532014
:101A200072035245542075034B455920770B434CA4
:101A30004B2043084F534320540841434F20E509AE
:101A400041435320DA095045454BE907504F4B4578
:101A5000F30745455220FB07454557200608534CE0
:101A600050200B0A4F574920E90A4F575720070BC0
:101A70004F575220260B4F444220650849444220CC
:101A80006308534442206808434442206C084F5086
:101A900042206008534242207008434242207408AA
:101AA000584242208208504242208608494E422035
:101AB0005E0849424220780850574D209D085057F3
:101AC0004F20AB0844445320400A414443209D0921
:101AD00041445220CC090000F9363DFAF8417474B3
:101AE0006F424153494320666F7220415474696EBE
:101AF000793835204031364D487A20FAF8566572EB
:101B00003A20322E3334204275696C6420636F644E
:101B1000653A2032303137303230372E323032367B
:101B2000FAF9363D0000F8456E68616E6365642021
:101B30006279204B2053636F747420566974616C12
:101B40006520286B73765F70726A40676D782E63CC
:101B50006F6D29FAF8415474696E7938342F38352D
:101B600020706F72742028432932303136FAF831F0
:101B70002D57697265285229FE32303133FAF853F5
:101B80006C656570FE32303132FAF8444453FE32EF
:101B9000303131FAF9362DFAF84261736520436F1E
:101BA00064652028432932303032204469636B2039
:101BB00043617070656C73FAF8687474703A2F2F13
:101BC00070726F6A656374732E63617070656C7395
:101BD0002E6F7267202070726F6A65637473406342
:101BE000617070656C732E6F726720FAF9362DFA8A
:101BF000F8416C6C2072696768747320616E6420B0
:101C000072656D656469657320657870726573735C
:101C10006C79207265736572766564FAF84E6F743C
:101C200020666F7220636F6D6D65726369616C20F1
:101C3000757365FAF9363DFA0000F9352DFA0000A2
:101C400044656275672000006F6E20FA00006F66C1
:101C500066FA0000FB3A2050676D20746F6F206CAD
:101C60006172676520666F72204545502120FA0039
:101C700045726173696E672045455000536176690E
:101C80006E6720746F204545502EFA004C6F6164DA
:101C9000696E672066726F6D20454550FA0042728A
:101CA00065616BFA00002062797465732075736555
:101CB000642E2020000020627974657320667265AE
:101CC000652E20FA00000820080056616C7565201A
:101CD00065786365656465642072616E67650000A0
:101CE000206E6F74200020737570706F72742028DE
:101CF000432900004C696E65202320004572726FF5
:101D0000723A0000FB434D442F4F5020556E6B6ECE
:101D10006F776E00FBFC206F6620303A323535005D
:101D2000FB50726F6772616D206D656D6F72792007
:101D300069732066756C6C00FB4368617261637443
:101D40006572FD61207265636F676E697A656420F4
:101D5000747970652E00FB427566666572206C6949
:101D60006D69742065786365656465642E00FB4267
:101D70006164207661726961626C65206E616D6577
:101D80002E00FB546F6F206D616E79206172677554
:101D90006D656E74732E2000FB56616C756520773F
:101DA0006173FD617661696C61626C652E00FB5345
:101DB0007461636B206572726F7220FAF9092046B4
:101DC000756E632F63616C6C7320746F6F20636F2B
:101DD0006D706C65782F6E657374656420746F6FB9
:101DE000206465657000FB474F54206F7220474F99
:101DF000532064657374FD666F756E642E00FBFC82
:101E0000206F6620303A3700FB4C696E65206E7596
:101E10006D626572203E20332064696769747300C7
:101E2000FBFC206F6620303A3100FBFC206F6620FF
:101E3000303A33000000FB4D617468206F766572A4
:101E4000666C6F772E00FB4D61746820756E64655B
:101E500072666C6F772E2000FB446976696465209A
:101E60006279207A65726F2E2000FB456D7074795F
:101E70002046696C6500000000000000FB5370659F
:101E800063696669656420FC2E00FB53657420411C
:101E90004320526566203E20302E2000FB444556EC
:101EA000206E6F20726573702E00FB446576696347
:101EB0006520636865636B73756D2E000000FBFD24
:101EC000612062696E617279206E756D6265720063
:101ED000FB496E76616C69642023206F6620617215
:101EE00067732E0000000000189517BFE89507B72C
:061EF00000FDFDCF089586
:101F000000000000000000000000000000000000D1
:101F100000000000000000000000000000000000C1
:101F200000000000000000000000000000000000B1
:101F300000000000000000000000000000000000A1
:101F40000000000000000000000000000000000091
:101F50000000000000000000000000000000000081
:101F60000000000000000000000000000000000071
:101F70000000000000000000000000000000000061
:101F8000FFFFFFFFFFFFFFFFFFFFFFFFFFFFFFFF61
:101F9000FFFFFFFFFFFFFFFFFFFFFFFFFFFFFFFF51
:101FA000FFFFFFFFFFFFFFFFFFFFFFFFFFFFFFFF41
:101FB000FFFFFFFFFFFFFFFFFFFFFFFFFFFFFFFF31
:101FC000FFFFFFFFFFFFFFFFFFFFFFFFFFFFFFFF21
:101FD000FFFFFFFFFFFFFFFFFFFFFFFFFFFFFFFF11
:101FE000FFFFFFFFFFFFFFFFFFFFFFFFFFFFFFFF01
:101FF000FFFFFFFFFFFFFFFFFFFFFFFFFFFFFFFFF1
:00000001FF
