:020000020000FC
:100000000C94C0000C94381A0C94381A0C94381ABA
:100010000C94381A0C94381A0C94381A0C94381A18
:100020000C94381A0C94381A0C94381A0C94381A08
:100030000C94381A0C94381A0C94381A0C94381AF8
:100040000C94381A0C94381A0C94C50F0C94381A66
:040050000C94381ABA
:100080000000000000000000000000000000000070
:100090000000000000000000000000000000000060
:1000A0000000000000000000000000000000000050
:1000B0000000000000000000000000000000000040
:1000C0000000000000000000000000000000000030
:1000D0000000000000000000000000000000000020
:1000E0000000000000000000000000000000000010
:1000F0000000000000000000000000000000000000
:1001000000000000000000000000000000000000EF
:1001100000000000000000000000000000000000DF
:1001200000000000000000000000000000000000CF
:1001300000000000000000000000000000000000BF
:1001400000000000000000000000000000000000AF
:10015000000000000000000000000000000000009F
:10016000000000000000000000000000000000008F
:10017000000000000000000000000000000000007F
:10018000A8950FE50DBF08E00EBF0E943B0A0E9434
:100190005B0378940E941C02CC240E94D2000E942F
:1001A0005001F7CF48E94AB94EE30E944215CEED1F
:1001B000D7E00E9438153D3061F410910D081D7F85
:1001C00010930D0810910D081E7F10930D080C94CC
:1001D0000401323279F410910D0810FD06C010911F
:1001E0000D08116010930D0805C010910D081E7FB9
:1001F00010930D08333241F410910D0810FF109147
:100200000D08126010930D080F93CF3D07E0D00743
:100210000F9121F447E00E944215CBCF353109F10F
:10022000383089F13F3779F13A3019F2393009F233
:1002300010910D0811FF38833D3009F408950F9394
:10024000C93707E0D0070F9121F447E00E9442151B
:10025000B0CF10910D0811FF2197432F0E94230268
:10026000A8CFEF93FF93EEEDF7E0EC1BFD0B2E2EE6
:10027000E2E9F1E30E9443022A94D1F7CEEDD7E000
:10028000FF91EF9196CF0F93CE3D07E0D0070F91EE
:1002900031F033273993E2E9F1E30E94430289CF39
:1002A000CEEDD7E038810E94E801023011F40C94C1
:1002B00075060E941C02A16002C0AE7FBF7B8DB795
:1002C0009EB70F938F3008E090070F9110F40C94B5
:1002D000C6090E94B2015D3021F4B2FD0E94D3052F
:1002E0001BC05B33C9F0032D023021F400D30E9400
:1002F000C602E5CF7F756F755F75053041F04130FF
:1003000031F4032D033019F40E94AE02D8CF0E94BD
:100310008E015D3009F00895A1600895E2ECFAE2E3
:100320000E94A601071671F40E94A601061659F450
:100330000E94A601051641F431960591F491E02F33
:1003400009950895319631963096EACF05900020B0
:1003500041F41490112029F400E00093E1070C947B
:10036000FD09089570EF60EF41E038810E94E801D7
:10037000013019F40E94DA01F5CF532F0E94DA01FF
:100380003D30A1F03D2C38813D3081F00E94E801E4
:100390003D1439F40E940C060E94DA014395433063
:1003A00091F738810E94E8013D1409F008950E94F8
:1003B000DA01F7CF0F93C83707E0D0070F9131F478
:1003C00004E00093E1070C94FD0908952197089536
:1003D0003F9300273D3011F40C940E023F753030EE
:1003E00011F40C94F5013C3011F401E018C03230E6
:1003F00011F405E014C0303411F405E010C03031C0
:100400000AF40DC03B350AF00AC0303412F003E0A4
:1004100006C03A3112F41AF402E001C004E0D02E12
:100420003F9108950E9467098F93492F0E944215BA
:100430004F910E94421508954DE00E9442154AE0F6
:100440000E94421508954D3011F4F6DF08950C9482
:100450004215472F0E943302462F0E943302452F38
:100460000E94330208954F93407F4295405D0E9461
:1004700042154F914F70405D0E94421508950E94B1
:100480004302DADF08954591442309F40895483F73
:1004900019F40E948202F7CF493F29F41590459143
:1004A0000E94A902F0CF4A3F11F4C6DFECCF4B3FC8
:1004B00041F4EF93FF93E8ECF1E3E5DFFF91EF9177
:1004C000E2CF4C3F41F4EF93FF93E6E9F1E3DBDF4A
:1004D000FF91EF91D8CF4D3F41F4EF93FF93ECEABA
:1004E000F1E3D1DFFF91EF91CECF4E3F41F4EF9397
:1004F000FF93E2EBF1E3C7DFFF91EF91C4CF0E94DE
:100500004215C1CF0F93EF93FF93112445914A30C9
:10051000A1F04D3091F04A3F81F0493F71F04C3FDE
:1005200011F404E1100E4D3F11F405E0100E4E3FA2
:1005300011F40CE0100E1394E9CF1A9446E3141A48
:100540001194169440E20E94A902FF91EF910F913D
:1005500008950E9442151A94E1F7089551545A31B2
:100560002AF005E00093E1070C94FD09A0FF21F4B7
:100570000E94C602A2600895E7E0F7E06627E50F53
:10058000F61F50810E94C602AD7F08950F9300E2CE
:100590000C1511F40C94BC091F921124E0E6F7E04D
:1005A000EC19F1095083C39423951F900F9108957E
:1005B000CC2011F40C94C1091F921124E1E6F7E05C
:1005C000EC19F1095081CA942A951F900895EF9370
:1005D000FF9304E00B1511F40C94C60932E00B2DC7
:1005E000039FE9E6F7E0E019F109D293C293B394CF
:1005F000FF91EF910895EF93FF93BB2011F40C94BA
:10060000C10932E00B2D039FE9E6F7E0E019F1099B
:10061000C191D081BA94FF91EF910895EF93FF9328
:1006200004E00A1511F40C94C60934E00A2D039F66
:10063000E9E7F7E0E019F109629272924292529270
:10064000A394FF91EF910895EF93FF93AA2011F4E3
:100650000C94C10934E00A2D0A95039FE9E7F7E0FD
:10066000E019F1096290729042905290FF91EF91DF
:1006700008959EDF0E94D90401E0552319F0000F70
:100680005A95E9F7502F0C94450F703049F0705D82
:10069000472F0E944215603019F440E30E94421532
:1006A000603021F0605D462F0E944215505D452F5D
:1006B0000E9442150895EEECFEE2E1DE0895BCDEF4
:1006C000E6E0F7E0C091DF07D091E007EC17FD0707
:1006D00021F04081B8DE3197F9CFAEDEADDE97E094
:1006E00086E07091DF076091E007871B960B0E9400
:1006F0004809AFDEE2E7F1E3C6DE8091DF079091C3
:10070000E007805690400E944809A3DEE2E8F1E34A
:10071000BADE0895B0680E943D0F05E0301651F032
:1007200047DF0E947D09B1DF40E20E94421522238B
:10073000B9F782DEBF770895B0680E943D0F44E2AA
:100740000E94421535DF852F6DDE40E20E94421582
:100750002223A9F771DEBF770895B0680E943D0F8C
:1007600027DF78E040E3551F08F441E30E9442157B
:100770007A95C1F740E20E944215222389F75CDE98
:10078000BF770895488116DE423239F04E3719F0AE
:100790000E944215F7CF50DEF5CF08950E94380F22
:1007A000E7E0F7E06627E50FF61F00830895B5FF41
:1007B0000C94870E0E94330F452EFADE052FF8DECB
:1007C000552E6627E7E0F7E0E50FF61F0083A062ED
:1007D000AE7FBF7D08950E94330F552309F4A460B6
:1007E00008950F910F910895B0620895E7E0F7E042
:1007F000552D6627E50FF61F0081041521F003959E
:100800000083A0610895AA9409F01EDF089555DDC4
:100810000895B16008959881CDDD8881382FD8DDA5
:10082000013029F0043019F0C5DD0C941904892F2A
:1008300099270E947409582FA9DE3FDD0895098188
:10084000073211F00C94950B552708E0202E888173
:10085000B1DD382FBDDD302E023019F0CF5FDF4F14
:1008600007C08894317030FD0894551F2A9479F799
:100870008DDE23DD08950CE10093E1070C94FD0962
:10088000CF93DF930E94330FD4EBC9EFCA950000DA
:10089000E9F7DA950000C9F7D2EFC3E1CA95000085
:1008A000E9F7DA950000C9F75A9571F70C94420FF1
:1008B00055276CDE0E94330F01E005176AF00091A6
:1008C0000E080F7700930E0850FF089500910E0850
:1008D000006800930E0808950C94D00904B7077FB0
:1008E00004BF0EE001BDF8948895000008957F7064
:1008F0006F705F700E948A0908950E94330F452F20
:10090000E6E0F7E08091DF079091E0070C94920415
:10091000F91711F48E17C8F400810D3011F03197DA
:10092000F7CF3197552766277727F91711F48E17D8
:1009300060F430814DDD023021F40E940C063197C5
:10094000F4CFD5DF451721F7089509E00093E107BB
:100950000C94FD09D2DFEF010895CFDFA06C08955C
:10096000B3FF0C94B504A8600895B1600895488160
:1009700021DD4D30E1F708950E94330F452F0E948D
:1009800042150895E6E0F7E0F093E007E093DF0713
:10099000CC24AA27BB270FB70F93F8940E945806C0
:1009A0000E945E060F910FBF47DDEEE7FEE267DDB6
:1009B0000895583008F408950C94CB09543008F485
:1009C00008950C94D509523008F408950C94D00978
:1009D000CF93DF930E943D0FC0E0D0E00E94340926
:1009E000222331F0213039F0223081F00C94E409D7
:1009F000502FCCDD24C0DCDDDCDF552319F006955B
:100A00005A95E9F751E000FF5527F3CF702FD0DD5D
:100A1000C0E6D7E00881083069F0D5DF652FC8DD72
:100A2000C8DFB4DD26DECC2460FD03C0509557231B
:100A300001C0572B052FC0E0D0E00E943B090C9469
:100A4000420F5AE20C94450FCF93DF930E94670642
:100A500040E20E944215E2ECFAE2D2E3C4E0759172
:100A6000772309F43CC065915591643521F45F34D6
:100A7000A1F470E220C0693421F4563471F470E2BC
:100A80001AC06F3451F4523541F47735A1F07835FE
:100A900091F0763481F070E20EC0503439F05E355A
:100AA0002CF45C3514F4503334F4505E70E260334F
:100AB0000AF06627605E472F0E944215462F0E946B
:100AC0004215452F0E94421540E20E94421533967E
:100AD000D45022F6B1DC40E20E944215BECFACDC1D
:100AE0000E9467060C94420F00910F0800FD0EC093
:100AF000E4DBCC2059F05CDD03E0051714F40C9422
:100B0000E409B4600E9458060E94D407BB24AA24BA
:100B100000910F080E7F00930F08B460C6E0D7E085
:100B20000E94D305CC24A1600E944E15A6FF02C0EE
:100B30004EDDAF7BA7FF03C0EF01B860AF77A3FF27
:100B400005C059DDBB2009F4B77FA77FA5FF03C00F
:100B50003E0164DDAF7DA4FF02C0E301AF7EB0FFC4
:100B600007C00E94FA05C091DF07D091E007BE7F61
:100B70008091DF079091E0078C1B9D0B78F4388102
:100B800027DCA2FF04C0043011F02197CBCFAB7F4C
:100B9000023011F42197C6CF92DBC4CF00E000935E
:100BA000E207BB7F08950091E007D01729F4009178
:100BB000DF07C01709F40895CF93DF93DF923F93C7
:100BC00066275527388104DC023029F00E948A0903
:100BD0005093E20705C00E940C065F702197F2CF88
:100BE00000910F0803FF02C056D026DC3F91DF9032
:100BF0000C94420FEAE6F1E346DC089554EBE0E69C
:100C0000F0E0019150270F93EF3508E0F0070F91C6
:100C1000C1F75093E5070895762F652F532F089558
:100C20007727662755270895DF93D5E0DA950000EA
:100C3000E9F7DF910895DF93D5E0F6DFDA95E9F77C
:100C4000DF910895DF93DAE0EFDFDA95E9F7DF91DE
:100C50000895DF93D4E6E8DFDA95E9F7DF910895A8
:100C6000CF93DF93D7EFC3E1CA950000E9F7DA9598
:100C70000000C9F7DF91CF9108950F930AE0F0DFEC
:100C80000A95E9F70F9108950F930AE0F6DF0A95A8
:100C9000E9F70F910895E0ECF1E3F5DBCF93DF93F3
:100CA000DD27C091E2070E94A709DF91CF91089547
:100CB000E0E6F0E096E087EA002705C0E7E0F7E02D
:100CC00090E08AE1002701930197E9F70895E8E6AB
:100CD000F0E3D9DB089504E00093E1070C94FD09EB
:100CE0000BE00093E1070C94FD0944270E945D0787
:100CF0005430B0F78091DF079091E0070F93863072
:100D000007E090070F9109F45BC0CEEDD7E088DFD4
:100D10000F93C83707E0D0070F91EAF2388158DB0C
:100D2000023029F4762F652F532F2197F1CFDFDD85
:100D3000452EE091DF07F091E0074C7F71DF5524ED
:100D400031960F93E73007E0F0070F9191F0308173
:100D50003FDB043071F0023089F75394562F672F30
:100D6000732FEECF0F93E73007E0F0070F9131F7C5
:100D70000895052D033029F05394562F672F70E006
:100D8000F8CF41FD02C04260D9CFB1DD4516A9F1CF
:100D900010F441603F010F93E73007E0F0070F9137
:100DA00011F440FF0DC040FFDDCF541508F455C0CD
:100DB0000F93E73007E0F0070F9109F44EC0D2CF50
:100DC0000E945D07003009F40895CEEDD7E0E09170
:100DD000DF07F091E0070F93E03600E0F0070F9196
:100DE00009F436C008810083319721970D3099F7B7
:100DF000F093E007E093DF0708953197EF010F9339
:100E0000E03600E0F0070F9109F465CF08812197E3
:100E10000D30A9F7BF016C1B7D0B8091DF0790910E
:100E2000E007860F971F9093E0078093DF070F93EB
:100E3000E03600E0F0070F9129F008810083219748
:100E40003197F5CF0E945D07003009F04ECF08952D
:100E500002E00093E1070C94FD090E945D07003059
:100E600059F10091E007003029F40091DF070056A6
:100E7000081770F3E091DF07F091E007DF2FCE2F26
:100E8000C81BD040D093E007C093DF07F71519F4D3
:100E9000E61509F405C00081088321963196F6CF46
:100EA000CEEDD7E0F72DE62D3197088100830D3088
:100EB00019F031972197F9CF0895CEEDD7E0552756
:100EC000882799274B7F3881219783953D3041F0C2
:100ED0007FDA023039F044600130A9F39395F3CF03
:100EE000092F089542FF5395EECFCEEDD7E0E036BF
:100EF00009F0AECF08810083319721970D30B9F703
:100F0000F093E007E093DF070895AF93BF93552771
:100F10003DDB0E94330F543014F00C94E40985D06B
:100F2000A6E0B7E0E091DF07F091E007AE1BBF0B52
:100F3000AF5FBF4F62D1EA1BFB0BBF91AF9128F4AB
:100F4000EEE0F1E39CDA0C94D307EAE3F1E39BDAF9
:100F5000852F68DA71DA00E00093EC073FD11124A5
:100F6000C8E1D0E0C50FD11D022D85D1E7E0F7E043
:100F700001E03EE1CDEED7E0099302910993002311
:100F800071F03A95D1F72AD128822F920091EB0780
:100F90000093EC07B6D00F910093EC07E9CF0993CB
:100FA0003A95E9F7AED00895B2FD06C05527EEDABE
:100FB00084D9FEDA543024F5E5DCEAE4F1E363DABF
:100FC000852F30DA39DAFAD016F40C94DF09E7E02D
:100FD000F7E03EE1CEEED7E00991002341F0029325
:100FE0003A95D1F708810093EC0785D0F2CF31977D
:100FF000CC24F093E007E093DF07B2FF6FDB0895A6
:101000000C94E409CF93DF933FE13093EC079AD03F
:101010003A95D9F7A8D00C94420F5527B7DA4DD995
:10102000C7DA543014F00C94E409DD27C52FC85EEC
:10103000DF4F1AD1002309F408950093EC07BED0C6
:1010400081D0CDEED7E00F8D0093EC07002321F087
:10105000009511F050D0F4CF96D00895CF93DF9340
:101060005527852FDFD94AE30E94421540E20E94AE
:101070001209CF015F930E944809EED9E0E6F1E33F
:1010800002DA0F93503000E060070F9129F4EAE58F
:10109000F1E3F9D95F9112C05F9190D0CEEED7E025
:1010A0006EE149910E9442154D3041F06A9509F078
:1010B000F8CF48814093EC071ED0F0CFBDD95395AF
:1010C000543009F0CECFB8D90E94FD08EF93FF93BA
:1010D0009D2F8C2F0E944809BFD9E2E7F1E3D3D9B5
:1010E0009F918F910E944809B7D9E2E8F1E3CBD9EB
:1010F000A3D90C94420F00910E080F7D00930E08A7
:1011000005C000910E08006200930E08CF93DF9394
:10111000EF93FF9300E2202EEDEEF7E00091EC0755
:101120001CD000910E0805FF03C00191A4D002C09D
:101130009BD00193CF5FDF4F2A9499F7FF91EF91F6
:101140000C94420FCF93DF9308D000910E080064F7
:1011500000930E0890D00C94420F00E24091EC07EF
:10116000049FE001089584E0C8E1D0E000910E08FA
:101170000F7B00930E0800270E943B09CF5FDF4FD3
:101180008A95C9F7089500910E080F7B00930E0809
:101190000027DD27C52FC85EDF4F0E943B09089559
:1011A000CDEED7E000E00093EC07A5DF0895CDEE8B
:1011B000D7E000E00093EC07A4DF0895F1DF052EEF
:1011C000C00DD11DC85EDF4F0881002311F4689463
:1011D00008950093EC078FDFE8940895CF93DF9391
:1011E0002090EC072092EB0723942092EC07B5DFC8
:1011F0003BD00F3FC9F70C94420FAF93BF935F935F
:10120000BB27AA2753E00E941209AE0FBF1F5A95B1
:10121000D2F7E2EAF3E0EA1BFB0BED015F91BF912D
:10122000AF9108955F93EDEEF7E090E080E070E01D
:101230006EE1B6DF052EE00DF11DE85EFF4F008187
:10124000002379F0EDEEF7E00093EC0754DF008126
:1012500001300FB701FF05C0860F971F078D0023D0
:1012600099F7FC015F910895E199FECFDFBBCEBBFA
:10127000E09A0DB30895E199FECFDFBBCEBB44E009
:1012800000900E0806FC0FEF0DBB4CBBE19A0895D1
:101290000C01889400E1C4DC001C111C551F661F62
:1012A000771F0A9509F40895352F08D0532F362F4C
:1012B00005D0632F372F02D0732FEECF432F4D5F12
:1012C00043FD342F432F405D47FD342F0895982F61
:1012D00092959F70905D9A3308F0995F8F70805D52
:1012E0008A3308F0895F089596FD975F9F7086FDA9
:1012F000875F8F709295892B0895772766275456BC
:1013000010F07395FCCF5C595A5010F06395FCCFE8
:10131000565F08957330B2F4723032F0663092F452
:10132000653012F0563072F4662321F00AE0500F57
:101330006A9581F7772309F4089504E68894500F9D
:101340007A95C0F701E00093E1070C94FD094FE2A4
:101350004395C456D040E0F7CC59DF4F0E94421568
:101360004FE24395CA50E8F7C65F0E9442154C2FE2
:10137000405D0E944215089506E00093E1070C9439
:10138000FD0907E00093E1070C94FD0908E00093D4
:10139000E1070C94FD090AE00093E1070C94FD09B4
:1013A0000CE00093E1070C94FD090DE00093E107C8
:1013B0000C94FD0901E10093E1070C94FD0902E1A1
:1013C0000093E1070C94FD0906E10093E1070C94FA
:1013D000FD090BE10093E1070C94FD090DE1009379
:1013E000E1070C94FD090EE10093E1070C94FD095F
:1013F0000FE10093E1070C94FD091ED81124009021
:10140000E107D02C000CE6E3F4E1E00DF11D0591BD
:10141000F491E02FEE1FFF1F36D80ED83CDC0FE50D
:101420000DBF08E00EBFAA27BB2700E00093E2072C
:1014300003D80C94C900E818F718FD1809191819F1
:1014400024192E193919441969197A197F198B1918
:1014500090199519A119AC19B819C119C719CE1944
:10146000D119DD19E419ED19F819011A081A141A1D
:101470001D1A2C1A2D1AF894002411246AD078D041
:101480000FEF00910F080E7F00930F08C0E0D0E02F
:10149000EBDE302F00FF05C000910F0801600093C4
:1014A0000F0800E00ABB00E00BBB00E007BB00E058
:1014B00008BB00E004BB00E005BB00E000E001BBAE
:1014C00000E002BB112414BE10920D0810920E0809
:1014D00000910F08017000930F081092E2078EDB55
:1014E00011241092E9071092EA0701E00093E70740
:1014F00000E00093E80701E00093E60754E0C8E14C
:10150000D0E0B2DE0F3F11F40027B5DECF5FDF4F32
:101510005A95B9F70E945A15789400E805BF00E083
:1015200007B900E000BF07ED06B900910F0800FF02
:101530000EC0CC245527B4603FDDD6DA0E941C02D1
:101540000E941C02EEE7FEE20E943F0208951ADAB2
:1015500008950FB70F93A89504B7077F04BFF894B9
:1015600001B5086101BD007001BD0F910FBF089565
:10157000089507ED06B906B104FFFDCF63DB0895BA
:1015800061DB08950E943D0FB9F0CF93DF9301E234
:10159000C01678F411240C2CC092E407C1E4D7E003
:1015A000C019D10905D859930A94E1F7DF91CF9179
:1015B00009C00E94DF0AE0CE0E94DF0AE2CE00E00E
:1015C0000093E40700E00093E3075091E4070C94D4
:1015D000450FCF93DF930E943D0F11247091E407D4
:1015E0006091E307C0E4D7E0222361F0A1FF03C0CC
:1015F0000C2D0A9539F00E94D8027A95751772F071
:10160000652F02C0761751F0C61BD10958810E9480
:10161000C60263956093E3070C94420FB2CECF935A
:10162000DF9300910E080F7D00930E080E945D016C
:1016300001E058D05881DF91CF910C94450FCF93A2
:10164000DF9300910E08006200930E080E945D0176
:1016500002E048D058830C94420FCF93DF9300915F
:101660000E080F7D00930E080E945D0101E03AD044
:10167000FBDD502FDF91CF910C94450FCF93DF937B
:1016800030910E083F7B30930E0830910E08306287
:1016900030930E080E945D0102E024D0052F0F93C5
:1016A000C03004E0D0070F9111F0E5DD19C0EEE283
:1016B000F1E30E944302552730910E0830643093C5
:1016C0000E082197D8DD5A9519F44EE20E94421572
:1016D0000F93C03000E0D0070F9199F70E941C02D1
:1016E0000C94420F0C1991F00E94D8025F930E9453
:1016F000D80200910E0805FF06C05F930E94D80231
:10170000DF91CF910895D52FCF9108950E94D802EF
:1017100000910E0805FF06C0052F0E94D802C02FB9
:10172000DD270895C52FDD270895EF93FF9357E038
:101730000E94C602CF920E945D01E2E6F7E1659148
:101740007591772311F40F9009C06517C1F7112423
:101750000F90E1E6F7E0E019F1097083FF91EF9156
:101760000895E90700001124E50FF11D54910C9430
:10177000450FCF93DF9351B70E94C6020E94330FEB
:1017800051BF51B7DF91CF910C94450F55270E945F
:10179000C6020E94330F17D901E150FD0CE500B9D4
:1017A000A098A89AA198A99A002701B9009503B911
:1017B00004E006BF04E906BFA2D00895BEC0B4D0BD
:1017C000CF93DF9321975881523261F45A9152326C
:1017D00019F00E94C602FACF5F915F910E94DA0170
:1017E0002C2D07C0DF91CF910E943D0F222309F4D9
:1017F000A5C00FB70F93F894EF93FF931124E1E680
:10180000F7E0C21AEC19F109579852912A9553B989
:1018100004EC06BF78D001B1087F083121F0003414
:1018200011F0083211F4222381F7FF91EF910F910B
:101830000FBF65C079D00E943D0F29F410910F08A9
:10184000146010930F0857980FB70F93F894EF9305
:10185000FF93112451E010910F0812FD06C001E220
:101860000E94D80250170AF067C0752F10910F0818
:1018700012FD06C0E1E4F7E01092E3075093E4079D
:1018800004EC60E57A9519F404E868E57FEF06BF9B
:101890003AD051B1587F56130BC053B110910F0875
:1018A00012FD04C0529377FFEDCF07C00E94C6021D
:1018B00010910F0812FF1092E407FF91EF910F9122
:1018C0000FBF10910F0812FF1AC010910F081B7F55
:1018D00010930F08089528D0087F06BF04EA06BFBA
:1018E00012D00DD0089520D004E906BF0FEF03B940
:1018F00006D0089556B752FF1BC001D0089551B1CC
:10190000587F0C94450FEF93FF93E0EAFFE006B693
:1019100007FC07C090D93197D1F708E10093E107A0
:101920006CCDFF91EF91089506B702FF01C00895B5
:1019300003E10093E10761CD47CD32CD4FCD8ED08D
:10194000CF93DF9321975881523261F45A915232EA
:1019500019F00E94C602FACF5F915F910E94DA01EE
:101960002C2D06C0DF91CF910E943D0F09F436CD9A
:101970000FB70F93F894EF93FF931124E1E6F7E08C
:10198000C21AEC19F109579852915FB9779BFECFB3
:101990005FB12A95C9F7FF91EF910F910FBF08959D
:1019A0005DD057980FB70F93F894EF93FF931124DE
:1019B0000E943D0F11F4552706C001E20E94D80293
:1019C00050170AF001CD752F0FB0552339F41FB809
:1019D000779BFECF5FB10E94C6020DC0E1E4F7E045
:1019E0001092E3075093E4071FB8779BFECF5FB1D7
:1019F00052937A95C9F7FF91EF910F910FBF089518
:101A000052E00E94C6022FD20E94DE04550F550FED
:101A10002BD00DB1037F052B0DB9089524D20E9460
:101A2000E3046D9A50FD01C06D9808951CD20E9488
:101A3000D904052E53700DB1087F052B0DB9709A8E
:101A400002FC01C07098089509D051E00E94C602BE
:101A50000AD2C49A50FD01C0C49808956E990895A1
:101A60000AE10093E107C9CC07B3006B07BBC49A36
:101A700001E50DB9709808955FB9779BFECF0FB15E
:101A800008955FB9779BFECF5FB10895A7D0EF5D52
:101A9000FF4F50810C94450FA1D0EF93FF93E3D1FA
:101AA000FF91EF91EF5DFF4F0F93E43300E0F007FC
:101AB0000F9101F0EF93FF93E3E0F0E009E007BF3F
:101AC0000491FF91EF9107FF0C946E0D05B700682C
:101AD00005BF05B7006805BF0C946F0D537C50839C
:101AE00008957CD0EF93FF930E945D010E9439031B
:101AF0000E94D802FF91EF91EF5DFF4F7EC06ED044
:101B0000EF93FF930E945D010E9439030E94D80267
:101B1000FF91EF91EF5DFF4F74C060D0EF93FF93A3
:101B2000A2D1FF91EF91EE5DFF4F5083089556D003
:101B3000E05EFF4F50810C94450F50D0EF93FF9320
:101B40000E945D010E9439030E94D802FF91EF912B
:101B5000EE5DFF4F52C042D0EF93FF930E945D01B4
:101B60000E9439030E94D802FF91EF91EE5DFF4F72
:101B700048C034D0EF93FF930E945D010E94390367
:101B80000E94D802FF91EF91EE5DFF4F3FC026D03B
:101B9000EF93FF930E945D010E9439030E94D802D7
:101BA000FF91EF91EE5DFF4F31D067D82FD00895B0
:101BB00015D0EF93FF930E945D010E9439030E94AC
:101BC000D802FF91EF91E05EFF4F0081052350E0C6
:101BD00000230FB601FE51E00C94450F515411241F
:101BE000E2EFFBE1550FE50FF11D05901490F001B8
:101BF000089519001600130010000081052B0083C2
:101C000008955095008105230083089500810527DC
:101C100000830895CF93DF9326D1CC2019F4652F4C
:101C2000552703C05F93652F5F9111240FB501689D
:101C30008C9A1BBC6ABD05C00FB501628D9A19BC98
:101C400068BD0FBD09E00EBD0C94420FCF93DF932A
:101C50000AD1752F0E94D80211240FB503688C9AFF
:101C60007BBD6ABD05C00FB503628D9A79BD68BDA5
:101C70000FBD09E00EBD0C94420F00270EBD0FBD35
:101C80000895F6D0509F112000910E0807FD11F421
:101C9000502DFBC00FE00093E107AFCB5F93E3D083
:101CA000552300900E0807FCC1F0052F0E94D802B2
:101CB000652F772759E0661F5A9541F0771F701BF3
:101CC00018F4700F8894F7CF0894F5CF5F915F30C8
:101CD00011F4562F01C0572FD8C001E10093E1073E
:101CE0008CCBC6D0500F00910E0807FD08F0CDC078
:101CF0000FE00093E10781CBBBD0501B00910E0891
:101D000007FD08F0C2C000E10093E10776CBB0D038
:101D100050170FB701FF10C011C0AAD050170FB74E
:101D200001FF0CC009C05F93A3D06F916C3111F417
:101D3000501701C0051710F0552750FD51E0A5C000
:101D40000E94B00E662319F056956A95E9F79DC07A
:101D50000E94B00E662319F0550F6A95E9F795C0F9
:101D60008CD00E94D802222311F461E008950E94D1
:101D7000D904652F0E94D80208957AD0502385C0D7
:101D800077D0502B82C074D050277FC06CD0509534
:101D90007CC069D0519579C066D0529576C063D029
:101DA00052955F7072C004EB5091E507579508F4A7
:101DB00050275093E5070E94C6020E945D010895D6
:101DC00052D05F7062C04FD000E8551F0795E8F70A
:101DD000502F5BC0E89401C06894EF93FF931124E7
:101DE0000E943D0F41F40090E407002009F4C9CAA5
:101DF000E1E4F7E007C000E220170AF0BDCA022EB6
:101E0000E1E6F7E026F00DD0C21A2C2D05C019D05E
:101E1000572F0E94C602562F0E94C602FF91EF91D3
:101E2000089550E07CE8029168E0302F3527569500
:101E30000695369508F457276A95B9F70A9499F7E5
:101E400008957FEF6FEF08E0202E52917527660FFF
:101E5000771F20F400E1702701E260272A94B9F788
:101E60000A9489F708950E945D010E94D80208959E
:101E7000FADF052F0E94D802089522270E945D01F3
:101E800022230895DF91CF9108950E94C6020895FC
:101E9000CF920E945D0155270F910C1911F00E94FD
:101EA000D80267DB00E000BF07B1007E5F71052B41
:101EB00007B958302AF457700E943C030E94D80298
:101EC0005527662770E1F89407ED06B906B104FFBF
:101ED000FDCF84B195B1580F691F7A95A9F7789411
:101EE00076E0669557957A95E1F70E94C60248DB41
:101EF000089555270E94C602B6DF0E94E30439DB2D
:101F000007B10F7350FD006850FF006C07B90E94C5
:101F10003006089552E00E94C602A5DF553008F051
:101F200053CA00910E08087F052B00930E080895F0
:101F300020DB0AD05527459951E0479A21DB0E94C2
:101F4000C6020E945D01089500E006B900E106B9ED
:101F500050B7577F50BF08B10870006508B950915D
:101F60000E0852FF01C00EC050B7586050BF5091CC
:101F70000E08537007B1007E052B07B90E943C0381
:101F8000CA942A950E942906089500910D080860B8
:101F900000930D08189555270E94C60264DF0E9421
:101FA000D9040091E607087F502B5093E60709B744
:101FB0000D7F09BF08BF0FBD0EBD089551E00E94FF
:101FC000C60251DF0E94E3040091E6070F7750FF3D
:101FD00001C000680093E6070895CF93DF936FEF89
:101FE000552768BF5FBD5EBD5DBD5CBDB998009102
:101FF000E607702F70788894771F771F76600770D8
:10200000E5E0F0E1E00FF51F09941CC006C005C033
:1020100004C008C007C006C00CC0033008F005E0CB
:10202000002E09C06AE00350033008F005E0069F67
:1020300002C004E6002E5DBD5CBD7EBD0E943D0673
:102040000A94E1F75CB56DB500270EBD08B702FD37
:1020500006C0C0E2D7E06883DF91CF9116CFDF9151
:10206000CF910EE00093E107C8D9FDDE952F0E94C5
:10207000D802852FF9DCC49853E0FEDC0E94F010F2
:1020800000DDC49A02CFEFDE952F0E94D802852F83
:10209000EBDCC49856E0F0DCC49A52E0EDDC0E9420
:1020A000F0100E94D802E8DCC49A0E94300655E085
:1020B000E3DCE7DCC49A5523C1F7089555270E9455
:1020C000C6020E945D018091E9079091EA07E0DF76
:1020D0008F5F9F4F9093EA078093E907089500244C
:1020E0000092EA070092E907089551E00E94C602B3
:1020F000BADE552319F05093E707089565C9B3DE9A
:10210000552351F1952F88270E94D8020C01952F55
:10211000ABDC0E943006C49853E0AEDC0E94F010A5
:10212000C0012090E707ADDCE8D80E944503019785
:1021300079F02A9429F40E941C022090E70703C03A
:102140004CE20E944215B0FFEECF0E94FA05BE7F1E
:10215000C49A0E941C0208952DC955270E94C602E8
:1021600082DE5093E807089555270E94C60251E089
:102170000E94C60278DE552309F41CC904E0059FBD
:102180000E94D802952F88276FDCC49856E074DC33
:10219000C49A52E071DC0E94F0105091E80770E49C
:1021A0006BDC7A95E9F7C49A0E94220655E064DC5C
:1021B00068DCC49A5523C1F7805C9F4FCF93DF93AF
:1021C000E00121970E01DF91CF9101F70895E9EA2F
:1021D0004ADE0E94DE04EEECF1E2C5DA0895E0C8C2
:1021E000592F4ADC582F48DC08953EDCBA9AC29831
:1021F00051E00E94C6020E94C6020E94C6023DDE55
:1022000001F1213019F02330E1F0EEC10E94D80233
:10221000552391F0533009F0E5C1E4E7F2E255911E
:102220002590222019F1506227DC559125DC2A9453
:10223000E1F7C49A3196F3CF50E21EDC58E0BBD1EF
:10224000B7C156E219DC0E94D802529556955660E5
:10225000B2D155E211DC0E94D8025F77ACD150E2D6
:102260000BDC0E94D8025A955A60A5D155270E94CE
:10227000C6028FC10001080001013F0002010300F6
:1022800003010300040103000501020006010E0022
:10229000070170000A05E7E7E7E7E7000B05C2C2A0
:1022A000C2C2C2000C01C3000D01C4000E01C50072
:1022B0000F01C6001005E7E7E7E7E700110100009E
:1022C00012010000130100001401000015010000BC
:1022D000160100001C0100001D0100000000BEDB13
:1022E000D0DBC49A56FD02C05FEFCFCD5E7056952D
:1022F000752F5395506162D1252E1124CF93DF9312
:10230000C1E4D7E01092E3075093E407C29851E686
:10231000B3DBB7DB5A932A94E1F7C49AB2DBC49AD1
:10232000652F5E705E3029F4607457E2A5DB562F8E
:1023300042D1DF91CF91572FA8CD90DBCF92CF9292
:102340009CDD9FDBC49A54FF04C057E295DB50E14B
:1023500032D1C298222391F0222E11240F90EF93B4
:10236000FF93E1E6F7E0E019F10950EA85DB5291CD
:1023700083DB2A94E1F7C49AFF91EF91C29A0E94FD
:1023800022060E942206C2985FE00E9430065A95FB
:10239000E1F777DBC49A54FF02C053E004C057E171
:1023A0000DD150735295CF9070CD58DBEF93FF93C2
:1023B000CF93DF9362DD09F417C1622F6A95C1E6FE
:1023C000D7E03A911124ECE1F4E2032E000CE00D89
:1023D000F11D05901490002009F404C153E0EED0E3
:1023E0005E5F752F011409F4702D1616B2F060159A
:1023F000A2F0671791F450E3373019F0532F565F6E
:1024000050623ADB0E94D80237DB6A95D9F7C49A4A
:10241000DF91CF91FF91EF91CBC0E6C0030503059B
:1024200001010101010101010000030517DB25DDA8
:1024300009F4BEC0223029F0C5D053955061BED0FA
:1024400024CDC6D0752FBED0352F252E23946627D8
:102450000894661F2A94E9F752E0B0D0772311F070
:10246000652B03C060956F73652352E205DB562F21
:10247000A2D0532F53955063FFDA572F9CD098C0AA
:10248000B1C0ECDA55270E94C602EDDC02E0051768
:102490006AF051FD02C050FF07C0C29A51FF88C0C8
:1024A0000E9422060E942206C29882C09BC0D6DAF1
:1024B000E4DC19F455E0E0DA7BC00E94D80257FD55
:1024C00091C05F9355E2D8DA5F9175D071C0C6DADA
:1024D000D4DC29F456E072D056705695D6CC0E94C2
:1024E000D8020E94DE04550F652F56E067D0597F51
:1024F000652B56E2C1DA562F5ED05AC0AFDABDDC8A
:1025000039F456E05BD05870569556955695BDCC2B
:102510000E94D8020E94E304550F550F550F652FF6
:1025200056E04CD0577F652B56E2A6DA562F43D0A3
:102530003FC094DAA2DC11F40C94EE090E94D80298
:10254000652F0E94D8020DE105172AF0506294DA37
:10255000562F31D0089501E00093E1070C94FD0956
:102560007DDA57E10E94C6027EDC0DE150170AF0C9
:1025700035C082DA1DC072DA55270E94C60273DCAC
:10258000752F552331F451EE16D052EE14D073E06E
:1025900003C050EE572B0FD057E010D0652F57E2F5
:1025A0006BDA70FD606371FD6064562F04D000C06B
:1025B00068DAC49A6ACC60DAC49A08955DDA61DA9E
:1025C000C49A08950E94D80205E005175AF00895AC
:1025D0000E94D80200E205172AF008950C94D00951
:1025E0000C94D5090C94E4090C94EE090FB70F93E1
:1025F000F894969A8E9A0E943006969802E30E946A
:1026000022060A95E1F7969A8E9806E00E94220625
:102610000A95E1F751E000B306FD55270E94C60276
:1026200002E30E9422060A95E1F70F910FBF0E9474
:102630005D01089522DC11F40C94EE090FB70F939D
:10264000F894EF93FF931124E1E6F7E0C21A58E003
:10265000252E5291579510F44FD001C059D00E94A9
:102660001B062A94B9F70E9494132A9581F7FF91CB
:10267000EF910F910FBF08950FB70F93F894FDDB03
:1026800021F41AD00E94C60214C0CF93DF93112404
:102690000E94D802752FC1E4D7E01092E30750934F
:1026A000E4070AD05A930E9494137A95D1F7DF91E8
:1026B000CF910F910FBF089508E0202E09D0889484
:1026C00000FD089457950E941B062A94B9F70895B7
:1026D00096988E9A0E941B06969A8E980E941B06C8
:1026E0000FEF30B336FF00270F930AE00E941B065E
:1026F0000A95E1F70F91089596988E9A0E94220606
:10270000969A8E9806E00E9422060A95E1F70895AF
:102710008E9A969807E00E9422060A95E1F7969A0B
:102720008E980E941B0608950E941B060E941B069D
:102730000E941B060895EF93FF93CF93DF930E94AF
:1027400036149BDB11F40C94C1092224C1E6D7E0B6
:102750000E94D802E0E8F0E0E50FF21D54910E94DB
:10276000C602DF91CF91FF91EF910895AF93BF9390
:10277000CF93DF93EF93FF930E9436147EDB11F427
:102780000C94C109222400916007702F602F70FD06
:102790000C94F8090E9425140E942014DE01DF7FAA
:1027A000C07CDB2B0E94F413A058B040AF77FD0132
:1027B0008C2D8A95C0E6D7E00E940D140E942B1440
:1027C00015E00E944814FF91EF91DF91CF91BF91E6
:1027D000AF9108950E94361442E099270E942B146D
:1027E00093954A95D9F7089530E4E0E0F0E0CE27DC
:1027F000EC27CE27DF27FD27DF2705901590CE2772
:10280000EC27CE27DF27FD27DF2711E00E944814A1
:10281000EE5FFF4F3A9559F7089511240A908A9573
:1028200011F01A908A9511E00E94481432960F9385
:10283000E03800E0F0070F9111F0882371F7089558
:10284000C0E8D0E0C70FD21D089510E40695169594
:10285000E8F7902F0895E0E8F0E080E4990F989F62
:10286000E00DF11D13E00E94481408950895E4EE70
:10287000FFE785919591459134919F3B39F48731DC
:1028800029F4353919F4483E09F408950C94E909FE
:102890006FB7F894E199FECF0E94F23F6FBF0895A1
:1028A00055270E94C602DFDA0E94E304EEE6F0E359
:1028B0000E94430250FF08C0E6E7F0E300910F08D2
:1028C000086000930F0807C0ECE7F0E300910F08E1
:1028D000077F00930F080E9443020895EAEDF0E39A
:1028E0000E9443029DD000E1202EE0E0F0E08BD07A
:1028F0007FD00F93E03400E0F0070F9149F00E9481
:102900004E15B0FD21C00E943D0600E1202EEFCF04
:10291000BE7F8DC0EAEDF0E30E94430281D000E16A
:10292000202EE0E6F0E06FD063D00F93E03608E0B1
:10293000F0070F9149F00E944E15B0FD05C00E94AE
:102940003D0600E1202EEFCFBE7F0E946706E4EF38
:10295000F0E30E9443028091E0070E9412028091FE
:10296000DF070E9412020E941C0261C0EAECF0E341
:102970000E94430255D000E1202EE0E0F0E043D079
:10298000FFBBEEBBE09A8DB30E94120240E20E94B0
:102990004215EF5FFF4F2A9499F70E941C020F9394
:1029A000E03004E0F0070F9151F00E944E15B0FDA9
:1029B00006C029D00E943D0600E1202EE1CFBE7F57
:1029C00036C00E946706E6EBF0E30E94430200E196
:1029D000202EE7E0F7E00F93E13207E0F0070F91D8
:1029E00028F411D005D000E1202EF5CF20D0089595
:1029F00081910E94120240E20E9442152A94C1F77E
:102A00000E941C0208958F2F0E9412028E2F0E9496
:102A100012024AE30E94421540E20E9442150895C4
:102A2000E2E8F0E30E9443020E94670608950E94D4
:102A300067060E941C02089516DA852F0E94D802AC
:102A4000952F0E94D8025F930E94D8025F930E9444
:102A5000D802052FFF91EF910E9463060895889593
:102A600000005F9BFCCF5CB1533009F4B1600DCA2C
:102A700005B7006805BF7894889500005F9BFBCF81
:102A80003CB108955D9BFECF0E944E15B1FF0C94A2
:102A90004C155F9BFECFBD7F4CB908955F9B0C9496
:102AA00059150CB1033111F4B2600895033009F4E3
:102AB000B160089500E000BD0FE109B908E90AB965
:102AC00008954C4953205F0348454C502405525506
:102AD0004E2074055341564585074C4F4144D40759
:102AE000505249208A03505258209C035052422091
:102AF000AD03454D4954BC04464F5220F403505495
:102B00004F2007044E455854F603465245206E03A5
:102B10004E455720C20450494620EB0354484520F7
:102B2000F103454E44200904525354206E04434699
:102B30004720E804501A1D20CE0350501E20930E4B
:102B400050501C20930E501C1E208D0E50011D2035
:102B50008D0E50501D20D70350500B20710E505039
:102B60000D207C0E50500A20410E50500F204E0E6A
:102B70004D4F44204E0E505005204E0E5050042014
:102B80000B04505007201F0450500220C203444140
:102B90005441C20A52454144E90A52455354E20A9B
:102BA00057504D20B61352504D209B1345504D2089
:102BB000EA135050402007044C535220A00E4C53AF
:102BC0004C20A80E50500620BD0E414E4420BD0E94
:102BD00050505C20C00E504F5220C00E50505E200E
:102BE000C30E584F5220C30E434F4D20C60E5050B7
:102BF0000120C60E4E454720C90E53574150CC0EFA
:102C00004E424820CF0E4E424C20E00E52455620F8
:102C1000E30E524E4420D30E414F562058044352E7
:102C20004320EA0E43525720EC0E44454C414004E9
:102C3000474F5420AA04474F5320AD045245542017
:102C4000B0044B4559202F154F534320B90B414336
:102C50004F20980F414353208A0F455241200D08C1
:102C6000494E49540208434154202E0852454D20F4
:102C7000B7045045454B0F0B504F4B451F0B454577
:102C800052202D0B454557203E0B56504720950BA3
:102C900044465720431044465220351044464C20A9
:102CA0005E10444658206F10444646207510444636
:102CB00044207F1044465620AD1044464920B410AD
:102CC00044464120E8104F574920F6124F575720ED
:102CD0001A134F5752203C134F4441204C0D494486
:102CE0004120460D53444120710D434441207F0D46
:102CF0004F5041208D0D534241209D0D43424120B4
:102D0000AB0D58424120B90D50424120C70D494EEC
:102D10004120970D49424120D80D4F4442204C0D8F
:102D200049444220460D53444220710D4344422001
:102D30007F0D4F5042208D0D534242209D0D434246
:102D40004220AB0D58424220B90D50424220C70DDF
:102D5000494E4220970D49424220D80D4F4443200E
:102D60004C0D49444320460D53444320710D4344C8
:102D700043207F0D4F5043208D0D534243209D0D26
:102D800043424320AB0D58424320B90D50424320EB
:102D9000C70D494E4320970D49424320D80D4F445B
:102DA00044204C0D49444420460D53444420710DA9
:102DB000434444207F0D4F5044208D0D5342442006
:102DC0009D0D43424420AB0D58424420B90D504262
:102DD0004420C70D494E4420970D49424420D80D48
:102DE00049434720CB0F49434520DE0F494350203C
:102DF000ED0F50574520260E50574D200A0E5057C4
:102E00004F203D0E41444320480F41445220790F4A
:102E100053504D20000D53504F200E0D5350432062
:102E2000160D535057209F0C53505220D00C535026
:102E30005320240D54574920C60B545753206B0C74
:102E400054575020730C54575720DF0B54575220BF
:102E50001A0C545742207A0C4445422050144455D1
:102E60004D508A145644554DE1144944554D6E1445
:102E70004544554DB61446494C4C1C150000F936D6
:102E80003DFAF84174746F424153494320666F72B2
:102E90002041546D6567613332284129204032302A
:102EA0004D487AFAF85665723A20322E3334204271
:102EB00075696C6420636F64653A20323031373055
:102EC0003230372E32303237FAF9363D0000F845CD
:102ED0006E68616E63656D656E7473206279204BF8
:102EE0002053636F747420566974616C6520286B7D
:102EF00073765F70726A40676D782E636F6D29FA22
:102F0000F841546D6567613136284C292F333228DA
:102F1000412920706F72742028432932303136FAEB
:102F2000F857504D2F52504DFE32303136FAF831AD
:102F30002D57697265285229FE32303133FAF86E06
:102F4000524632344C3031282B29205246205472BC
:102F5000616E73636569766572FE3230313320FAD3
:102F6000F84545502046696C652053797374656D4A
:102F7000FE32303133FAF8536C6565702C205254B0
:102F80004320616E6420446174612D66696C65FE46
:102F90003230313220FAF85457492F5350492F44D8
:102FA0004453202620496E707574204361707475F7
:102FB0007265FE32303131FAF9362DFAF84F726906
:102FC00067696E616C20636F646520284329323025
:102FD00030322062792052696368617264204361F3
:102FE0007070656C73FAF8687474703A2F2F707291
:102FF0006F6A656374732E63617070656C732E6F96
:103000007267202070726F6A6563747340636170C9
:1030100070656C732E6F726720FAF9362DFAF841DD
:103020006C6C2072696768747320616E64207265CD
:103030006D656469657320657870726573736C790A
:10304000207265736572766564FAF84E6F74206657
:103050006F7220636F6D6D65726369616C2075734B
:1030600065FAF9363DFA0000F9352DFA000044659D
:103070006275672000006F6E20FA00006F6666FAC6
:103080000000F9062030302030312030322030333B
:103090002030342030352030362030372030382072
:1030A000303920304120304220304320304420301D
:1030B00045203046FA005661726961626C65732082
:1030C000696E2052414D3AFA000045455020436F49
:1030D0006E74656E74733AFA000050524F47524155
:1030E0004D204D656D6F727920436F6E74656E74FF
:1030F000733AFA004E65787420617661696C61629A
:103100006C65206C6F636174696F6E3A2000FB3AE6
:103110002050726F6772616D20746F6F206C6172E6
:10312000676520666F72204545502120FA00457280
:103130006173696E672045455000536176696E671B
:103140002046696C6520232000004C6F6164696E25
:10315000672046696C6520232000456D70747900F6
:10316000206279746573203E2000427265616BFABB
:10317000000020627974657320757365642E2020C9
:10318000000020627974657320667265652E20FAEE
:1031900000000820080056616C756520657863653D
:1031A000656465642072616E67650000206E6F74EF
:1031B000200020737570706F7274202843290000FE
:1031C0004C696E65202320004572726F723A0000D0
:1031D000FB556E6B6E6F776E20636F6D6D616E6405
:1031E000206F72206F70657261746F722E00FBFC2D
:1031F000206F6620303A32353500FB50726F6772AF
:10320000616D206D656D6F72792069732066756CD4
:103210006C00FB436861726163746572FD612072CA
:1032200065636F676E697A656420747970652E00D6
:10323000FB427566666572206C696D6974206578FD
:103240006365656465642E00FB426164207661728B
:103250006961626C65206E616D652E00FB546F6F55
:10326000206D616E7920617267756D656E74732E65
:103270002000FB56616C756520776173FD61766196
:10328000696C61626C652E00FB4D616368696E65F7
:1032900020737461636B206572726F7220FAF90992
:1032A0002046756E6374696F6E7320746F6F206350
:1032B0006F6D706C6578206F722063616C6C732029
:1032C0006E657374656420746F6F20646565706CDF
:1032D0007900FB474F544F206F7220474F535542A0
:1032E0002064657374696E6174696F6EFD666F75D5
:1032F0006E642E00FBFC206F6620303A3700FB4CDA
:10330000696E65206E756D626572203E20332064A3
:10331000696769747300FBFC206F6620303A3100E6
:10332000FBFC206F6620303A3300FB49435020728B
:1033300065676973746572206F766572666C6F7706
:103340002E00FB41726974686D65746963206F7645
:103350006572666C6F772E00FB41726974686D65EB
:1033600074696320756E646572666C6F772E2000D9
:10337000FB446976696465206279207A65726F2EF4
:103380002000FB456D7074792046696C6500FB5424
:103390005749FD656E61626C65642E00FB31343AFD
:1033A0002000FB3A204E6F20426F6F742D6C6F61CE
:1033B00064657220666F756E642EFB537065636979
:1033C0006669656420FC2E00FB5365742041432030
:1033D000526566203E20302E2000FB4465766963EE
:1033E00065206E6F6E2D726573706F6E73652E0043
:1033F000FB44657669636520636865636B73756D0F
:103400002E00FB53504920FD656E61626C656400BF
:10341000FB57504D2065786563206E6F7420666F92
:10342000756E642120000000FBFD612062696E6101
:103430007279206E756D62657200FB496E76616C03
:103440006964206E756D626572206F6620617267B7
:10345000756D656E74732E000000FB204576656EF9
:103460002061646472657373206F6E6C7921200033
:023470001895AD
:107FE40017BFE89507B700FDFDCF07B706FF089553
:0C7FF40011FD089511E117BFE8950895F4
:00000001FF
